:100000000C94D4000C94FC000C94FC000C94FC00A8
:100010000C94FC000C94FC000C94FC000C94FC0070
:100020000C94FC000C94FC000C94A2110C94111282
:100030000C94FC000C94FC000C94FC000C94FC0050
:100040000C94FC000C94FC000C94FC000C94FC0040
:100050000C94FC000C94FC000C94FC000C949B147D
:100060000C94FC000C9469140C9443140C94FC0044
:100070000C94FC000C94FC000C94FC000C94FC0010
:100080000C94FC000C94FC000C94FC000C94FC0000
:100090000C94E5140C94FC000C94FC000C94FC00F3
:1000A0000C94FC000C94FC000C94FC00000000007C
:1000B0002300260029002C002F000000000024004F
:1000C00027002A002D003000000000002500280035
:1000D0002B002E0031000404040404030405020272
:1000E00002020403020202020606060606060404D1
:1000F0000202020404040802011040804010204063
:10010000804080080204018040201002011080100D
:10011000204040200000000200090F0000030401FD
:10012000000C0000000000000000000000000000C3
:10013000000000080B000202020000090400000198
:10014000020200000524001001052401010104241D
:10015000020605240600010705810310004009047A
:100160000100020A00000007050202400000070526
:1001700083024000000403090412010002EF02019F
:1001800040D80498E8000101020301556E6B6E6FC0
:10019000776E004D696469566F6C747320446573A3
:1001A0006B746F700000491611241FBECFEFDAE0A8
:1001B000DEBFCDBF13E0A0E0B1E0E2EFF4E402C0A7
:1001C00005900D92AA35B107D9F728E0AAE5B3E06A
:1001D00001C01D92AB34B207E1F710E0C4EDD0E0EE
:1001E00004C02197FE010E946A22C33DD107C9F7CE
:1001F0000E945F170C9477220C94000096E0980FF1
:10020000923060F481E08093EE078093F20781E002
:1002100090E0909301088093000808958C3F31F49A
:100220001092F20781E08093EF070895883FA9F7C5
:100230008091F207882389F380910008909101084A
:100240002091F007009769F431E03093EE072150D8
:10025000330B8217930771F4109201081092000873
:100260000895322F3695381719068CF731E0309300
:10027000EF07EDCF0196CDCFFC01809106048823D6
:1002800011F13FB7F89482E08093E9002091F200E9
:10029000822F90E01816190614F481E090E088236C
:1002A00039F0289844E6409305044091F1004083DA
:1002B000222339F02091F200211103C02BE6209374
:1002C000E8003FBF08958FEF9FEF08952FB7F89490
:1002D00083E08093E9009091E800892F807295FF78
:1002E00004C09091F20080E4891B2FBF0895809193
:1002F000FD0381110DC082E08093F90384E08093B7
:10030000FA031092FC031092FB0381E08093FD033B
:1003100089EF93E00895CF93DF931F92CDB7DEB7B7
:100320006983DC01ED91FC910280F381E02D41E0D5
:1003300050E0BE016F5F7F4F09950F90DF91CF9125
:10034000089583E08093E9008091F200882319F0FA
:100350008AE38093E80008950E94660190E0089582
:10036000CF93DF931F92CDB7DEB7FC0184859585CF
:1003700097FD08C02FEF3FEF358724870F90DF915F
:10038000CF910895CE0101960E943C01019719F486
:10039000898190E0F3CF8FEF9FEFF0CF0F931F9302
:1003A000CF93DF931F92CDB7DEB78C01FC0184851C
:1003B000958597FF0BC0CE0101960E943C010197E5
:1003C00071F4898190E0F80195878487F80184852C
:1003D00095850F90DF91CF911F910F9108958FEF29
:1003E0009FEFF1CFFC018485958597FD0BC09FB7EA
:1003F000F89482E08093E9008091F2009FBF90E042
:10040000019608959FB7F89482E08093E900809167
:10041000F2009FBF90E008954091F3035091F403E0
:100420002091F1033091F20342175307B4F49091F5
:10043000E8009570E1F39091E80092FD19C0809377
:10044000F1008091F3039091F40301968F73992743
:10045000892B19F48EEF8093E8008091F30390913B
:10046000F40301969093F4038093F30381E00895DD
:1004700080E00895EF92FF920F931F93CF93DF9345
:10048000F82E192FE62E042F81E0860F880F0E9488
:100490000C0283E00E940C02CF2DD12FEC0EFD2E1A
:1004A000F11CCE15DF05B9F007FF13C0FE018491E2
:1004B0000E940C02182F80E00E940C0281232196DA
:1004C0008111EFCFDF91CF911F910F91FF90EF90AE
:1004D00008958881EDCF81E0F5CFDF92EF92FF9212
:1004E0000F931F93CF93DF93D82E8A01EB017B01EB
:1004F000E40EF51ECE15DF0559F0D7FE12C0FE0141
:1005000084910E940C0221968111F4CF0FEF1FEF0E
:10051000C801DF91CF911F910F91FF90EF90DF9075
:1005200008958881EECF0F931F93CF93DF931F928F
:10053000CDB7DEB782E0898342E450E063E371E047
:1005400080E80E946D020E947701DC0112960D91F5
:100550001C910115110589F0D801ED91FC910280E3
:10056000F381E02DBE016F5F7F4FC801099597FDB4
:1005700004C0F80100851185ECCF89810F90DF91CF
:10058000CF911F910F910895615030F02091F100AB
:10059000FC0120830196F8CF289884E68093050417
:1005A000089508950895AF92BF92CF92DF92EF928F
:1005B000FF920F931F93CF93DF936C017B018B010D
:1005C000040F151FEB015E01AE18BF08C017D1075D
:1005D00059F06991D601ED91FC910190F081E02DE7
:1005E000C6010995892B79F7C501DF91CF911F913C
:1005F0000F91FF90EF90DF90CF90BF90AF90089554
:10060000FC01538D448D252F30E0842F90E0821B18
:10061000930B541710F0CF96089501970895FC019D
:10062000918D828D981761F0A28DAE0FBF2FB11DF5
:100630005D968C91928D9F5F9F73928F90E008954D
:100640008FEF9FEF0895FC01918D828D981731F007
:10065000828DE80FF11D858D90E008958FEF9FEF5B
:100660000895FC01918D228D892F90E0805C9F4F31
:10067000821B91098F739927089587EA94E00E945D
:100680003103892BD1F387EA94E00E943103892B4F
:10069000D1F387EA94E00E940F03883F18F00E948C
:1006A000FE00F1CF089587EA94E00E94310321E033
:1006B000892B09F420E0822F089580E090E0892BB7
:1006C00029F00E94530381110C9400000895FC014D
:1006D000A48DA80FB92FB11DA35ABF4F2C91848DA3
:1006E00090E001968F739927848FA689B7892C9300
:1006F000A089B1898C9182748C93938D848D981389
:1007000006C00288F389E02D80818F7D8083089563
:10071000EF92FF920F931F93CF93DF93EC0181E051
:10072000888F9B8D8C8D981319C0E889F9898081F9
:1007300085FF14C09FB7F894EE89FF896083E8892C
:10074000F9898081827480839FBF81E090E0DF918E
:10075000CF911F910F91FF90EF900895F62E0B8D82
:1007600010E00F5F1F4F0F731127E02E8C8D8E113D
:100770000CC00FB607FCFACFE889F989808185FFA4
:10078000F5CFCE010E946703F1CFEB8DEC0FFD2F6B
:10079000F11DE35AFF4FF0829FB7F8940B8FEA895F
:1007A000FB8980818062CFCFCF93DF93EC01888D6E
:1007B0008823B9F0AA89BB89E889F9898C9185FDDC
:1007C00003C0808186FD0DC00FB607FCF7CF8C916A
:1007D00085FFF2CF808185FFEDCFCE010E946703B8
:1007E000E9CFDF91CF91089581508F3008F047C055
:1007F000E82FF0E0E250FC4F0C946A221B041F0427
:100800000D04130417043F043F043F04220428048A
:100810002C04300436043F043A04809180008F7722
:10082000809380000895809180008F7DF9CF809122
:100830008000877FF5CF84B58F7784BD089584B518
:100840008F7DFBCF809190008F77809390000895EB
:10085000809190008F7DF9CF80919000877FF5CFB8
:100860008091C0008F778093C00008958091C00070
:100870008F7DF9CF8091C200877F8093C200089559
:100880001F93CF93DF93282F30E0F901EC5EFE4FEA
:100890008491F901EB50FF4FD491F901EA52FF4FD7
:1008A000C491CC23A9F0162F81110E94F403EC2FE0
:1008B000F0E0EE0FFF1FE853FF4FA591B4918FB703
:1008C000F894EC91111108C0D095DE23DC938FBF12
:1008D000DF91CF911F910895DE2BF8CFCF93DF9357
:1008E00090E0FC01EB50FF4F24918A529F4FFC0196
:1008F00084918823D1F090E0880F991FFC01E65481
:10090000FF4FA591B491FC01E853FF4FC591D491DD
:1009100061110EC09FB7F8948C91E22FE0958E2361
:100920008C932881E223E8839FBFDF91CF910895C4
:100930008FB7F894EC91E22BEC938FBFF6CF3FB7D3
:10094000F8948091C3039091C403A091C503B09122
:10095000C60326B5A89B05C02F3F19F00196A11D1F
:10096000B11D3FBFBA2FA92F982F8827BC01CD01F9
:10097000620F711D811D911D42E0660F771F881F58
:10098000991F4A95D1F708958F929F92AF92BF9287
:10099000CF92DF92EF92FF924B015C010E949F0485
:1009A0006B017C010E949F046C197D098E099F09CF
:1009B000683E734081059105A8F321E0821A9108F1
:1009C000A108B10888EEC80E83E0D81EE11CF11C16
:1009D00081149104A104B10429F7FF90EF90DF90F6
:1009E000CF90BF90AF909F908F9008958F929F92DD
:1009F000AF92BF92CF92DF92EF92FF920F931F932D
:100A0000CF93DF936C017B018A01809132018823AF
:100A100009F45CC080910604882309F457C08091D2
:100A2000F80380FF05C08091E00082608093E000C1
:100A3000E801B12C8AEFA82E93E0892E2AE3922EAA
:100A4000209711F4BB20D9F10E94660181110AC0E0
:100A5000AA94AA20D9F161E070E080E090E00E94C1
:100A6000C404EECF8C171D0611F00CF08C2F9FB72D
:100A7000F8948092E9002091E80025FD02C09FBF14
:100A8000DFCF282F30E0C21BD30BF701815020F0BD
:100A900041914093F100FACFE20EF31EBB2021F00A
:100AA0009092E800B12CEBCF8091E80085FDE7CF74
:100AB0009092E800BB24B394209709F3F3CF5D989C
:100AC00084E68093F703101611063CF081E090E075
:100AD000F6019383828310E000E0C801DF91CF919B
:100AE0001F910F91FF90EF90DF90CF90BF90AF904C
:100AF0009F908F90089520919B03260F3327331FDB
:100B000021323105ECF420912D04FC0190E080E0CD
:100B1000243069F082E00895A0919B032191AC01FB
:100B200045585C4FA40FB52FB11D2C930196861725
:100B300098F380919B03680F60939B0380E0089576
:100B400081E0089510922D0481E080932C0410928E
:100B5000070461E082E00E94400461E083E00E94BB
:100B60004004E9EBF0E080818E7F808380818D7F7F
:100B7000808388E48093B80085E48093BC00089566
:100B8000CF93DF9391E090937A038823B9F0C091DB
:100B9000B800D091BA008091BC008A7B8093BC00E1
:100BA00060E082E00E94400460E083E00E94400434
:100BB0000E94A205D093BA00C093B800DF91CF91F4
:100BC00008950895E091CC038091CB03E81730F4A9
:100BD000F0E0E65AFC4F808190E008958FEF9FEFA0
:100BE00008959091CC038091CB032FEF3FEF98179E
:100BF00048F4E92FF0E0E65AFC4F208130E09F5F97
:100C00009093CC03C90108958091CB039091CC03BC
:100C1000891B990B0895CF92DF92EF92FF920F9369
:100C20001F93CF93DF937C01CB018A01209156045F
:100C3000222389F0EB016B01C40ED51ECC15DD0516
:100C400069F06991D701ED91FC910190F081E02D5F
:100C5000C7010995F3CF642F0E947B05C801DF917E
:100C6000CF911F910F91FF90EF90DF90CF9008955B
:100C7000CF93DF931F92CDB7DEB7698320915604DF
:100C80002223F9F020915304203258F021E030E083
:100C9000FC013383228390E080E00F90DF91CF91BD
:100CA000089580915404E82FF0E0ED5CFB4F9981AA
:100CB00090838F5F809354048093530481E090E08D
:100CC000ECCF61E0CE0101960E947B05F7CF682F43
:100CD00084E495E00C943806CF92DF92EF92FF9275
:100CE0000F931F93CF93C82F192F81E08093560441
:100CF00080E680935504109254041092530461309E
:100D000009F489C008F482C0623009F487C06330F6
:100D100009F487C0612F84E495E00E9438066C2FA7
:100D200084E495E00E943806C0915304C13208F073
:100D3000A0C00E949F046B017C0180912D04811151
:100D400073C082E080932D0481E080932C048FEFA8
:100D500080932B0410922A04C0932904A3E3B4E0E7
:100D6000E9E0F4E080E0C81392C01092080480919A
:100D70000804806C8093080480910704813009F096
:100D80008AC0109207040E949F046B017C0180912D
:100D900008048093BB0080912F0490913004A091AF
:100DA0003104B0913204892B8A2B8B2BA1F00E9445
:100DB0009F0400912F041091300420913104309150
:100DC00032046C197D098E099F0906171707280739
:100DD000390708F44AC08091BC0083FDD8CF85EC68
:100DE0008093BC000E949F046B017C0180912D04C4
:100DF000823009F452C080912B048F3FD1F1809151
:100E00002B048032B1F180912B0433C080E490E058
:100E10000E9467067FCF82E490E0FACF84E490E0FE
:100E2000F7CF86E490E0F4CF80912F0490913004C6
:100E3000A0913104B0913204892B8A2B8B2B09F4B9
:100E40007CCF0E949F0400912F04109130042091C8
:100E50003104309132046C197D098E099F090617FF
:100E600017072807390708F068CF80912E040E94E1
:100E7000C005109254041092530410925604CF915E
:100E80001F910F91FF90EF90DF90CF9008959D916B
:100E900091938F5F68CF85EEA3CF80912F049091BF
:100EA0003004A0913104B0913204892B8A2B8B2B12
:100EB00009F49CCF0E949F0400912F0410913004EC
:100EC00020913104309132046C197D098E099F09FB
:100ED000061717072807390708F088CFC6CF90E014
:100EE00080E008952F923F924F925F926F927F928F
:100EF0008F929F92AF92BF92CF92DF92EF92FF922A
:100F00000F931F93CF93DF93EC01FC01EC57FF4F3E
:100F100080809180A280B38034964080518062802E
:100F2000738020E030E0A901C501B4010E94722065
:100F300081110AC020E030E040E85FE3C301B20164
:100F40000E947220882389F11E0188E7280E311C37
:100F50000FEF1FE06C857D8590E080E00E941F21EF
:100F6000A30192010E94D621A50194010E940620AE
:100F70006B017C0120E030E0A9010E94D12120E03A
:100F800030E040E05FE387FD23C0C701B6010E9467
:100F900006200E94E920611580E17807F0F47D8742
:100FA0006C8722962C163D06A9F6DF91CF911F91F2
:100FB0000F91FF90EF90DF90CF90BF90AF909F90F8
:100FC0008F907F906F905F904F903F902F900895FB
:100FD000C701B6010E940520DCCF77FF03C01D8644
:100FE0001C86DFCF1D870C87DCCFCF93DF93EC010E
:100FF000C257DF4F70E090E080E00E941F2120E0A8
:1010000030EF4FE755E40E94D62120E030E04EEF6C
:1010100052E40E9477200E94F020CB016881DF918A
:10102000CF910C946C06CF92DF92EF92FF92CF9308
:10103000DF93EC016E817F81613080E27807C8F137
:1010400090E080E00E941F2120E030E040E056E484
:101050000E94052020E038EF4FEF55E40E947720F2
:101060006B017C016885798590E080E00E941F21FA
:101070009B01AC01C701B6010E94D6216B017C0126
:1010800020E030E0A9010E94D12120E030E040E0E2
:101090005FE387FD27C0C701B6010E9406200E94BA
:1010A000E920CB01DF91CF91FF90EF90DF90CF90BF
:1010B0000895611580E27807D1F090E080E00E9409
:1010C0001F2120E030E040E056E40E94052020E0AF
:1010D00030E040E059E30E94D6216B017C016A8533
:1010E0007B85C2CFC701B6010E940520D8CF70E032
:1010F00060E0D7CFAF92BF92CF92DF92EF92FF9294
:101100000F931F93CF93DF93EC01AB809C01235788
:101110003F4F69016A1508F49AC0B12C9501255C0E
:101120003F4F062F10E0201731070CF490C06A8360
:101130006C8170E0C801860F971FF801EA19FB095E
:101140003696EE0FFF1FEC0FFD1FE080F180281791
:1011500039070CF05DC0072E000C880B990B0E941C
:10116000212120E030E848E852E40E94D6210E9484
:10117000F020798768876D8170E0061B170B0A15D0
:101180001B050CF054C0072E000C880B990B0E9415
:10119000212120E030E848E852E40E94D6210E9454
:1011A000F0207B876A87CE010E941308E80EF91EA3
:1011B000FE01EE57FF4F808191818E159F052CF027
:1011C000C701F7FE02C090E080E0FE01E257FF4F4A
:1011D00060810E946C0661E0F60180810E944004FB
:1011E00081E08983FE01E457FF4F80818130A9F5BA
:1011F000C157DF4F61E08881DF91CF911F910F913F
:10120000FF90EF90DF90CF90BF90AF900C94400490
:10121000FC01EA19FB093696EE0FFF1FEC0FFD1FCC
:10122000808191818E199F0999878887A4CFF801C1
:10123000EA19FB093696EE0FFF1FEC0FFD1F8081A8
:101240009181F701E81BF90BFB87EA87ACCF60E0DF
:10125000F60180810E9440041982DF91CF911F9195
:101260000F91FF90EF90DF90CF90BF90AF900895D7
:10127000FF920F931F93CF93DF93082F10E0E801A5
:10128000C654D84F9C81992309F47DC090E9909F62
:10129000F001919FF00D1124E05BFA4F91819923A9
:1012A00001F1980193E0220F331F9A95E1F7F0E0E6
:1012B000E0E0DF01A20FB31FA353BC4F9C91903815
:1012C00009F054C023533C4FE20FF31F90E9909F65
:1012D000D001919FB00D1124A05BBA4F12969C9142
:1012E0009083F0902601688125E0F21245C080E5E8
:1012F00095E00E947A08688180EE95E00E947A0865
:10130000688180E796E00E947A08688180E097E033
:101310000E947A088FEF8F0D8230A8F580E9809FB8
:10132000F001819FF00D1124E05BFA4F10811F3F07
:1013300051F16C8570E090E080E00E941F2120E078
:1013400030EF4FE755E40E94D62120E030E04EEF29
:1013500052E40E9477200E94F020CB01612FDF91A0
:10136000CF911F910F91FF900C946C063196E8304D
:10137000F10509F09ECFB5CF20E9829FC00111246D
:10138000805B9A4FC5CFDF91CF911F910F91FF9056
:101390000895EF92FF920F931F93CF93DF93FC0179
:1013A00077836683C281E380CE1578F1F12CD0E09B
:1013B000C701CB968C179D0744F18F01CF010E9486
:1013C0001308CE19DF092696CC0FDD1FC00FD11FE1
:1013D00028813981280F391FF801EE57FF4F80818E
:1013E0009181821793072CF0C90137FF02C090E06A
:1013F00080E0F801E257FF4F6081DF91CF911F91AC
:101400000F91FF90EF900C946C06DF91CF911F919C
:101410000F91FF90EF900895CF93DF93EC01FC01C3
:10142000E357FF4F60E080810E9440041982DF9102
:10143000CF910895EDECF3E080E887838683858380
:1014400084838383828381838083389693E0ED3E17
:10145000F90799F780E595E00E940C0A80EE95E087
:101460000E940C0A80E796E00E940C0A80E097E058
:101470000C940C0AEF92FF920F931F93CF93DF937C
:10148000282F30E0F901E654F84F9085992309F4AC
:1014900046C0408190E9929FF001939FF00D112486
:1014A000E05BFA4F9181992309F46CC09281941307
:1014B00069C0E90163E0CC0FDD1F6A95E1F777E0D1
:1014C000E72EF12CF701EC0FFD1FE353FC4F608179
:1014D000603899F190912601953041F580E595E0CD
:1014E0000E947A088E0103531C4F0E0D1F1DF80138
:1014F000608180EE95E00E947A08F801608180E7C3
:1015000096E00E947A08F801608180E097E00E94EE
:101510007A08C353DC4FCE0DDF1D80E88883DF914E
:10152000CF911F910F91FF90EF900895F0E98F9F59
:10153000C0011124805B9A4FEACF21E0E21AF10842
:1015400008F6909126019530B1F480E595E00E946F
:101550000C0A80EE95E00E940C0A80E796E00E945B
:101560000C0A80E097E0DF91CF911F910F91FF90DF
:10157000EF900C940C0AE0E98E9FC0011124805B6F
:101580009A4FF1CFB90153E0660F771F5A95E1F7F3
:1015900090E080E0FC01E60FF71FE353FC4F508121
:1015A00054130DC043E0220F331F4A95E1F7235334
:1015B0003C4F820F931F20E8FC012083B0CF01969F
:1015C0008830910539F7ABCF0F931F93CF93DF93FB
:1015D000EC01288139813327F901EC5EFE4F8491BB
:1015E000F901EB50FF4F0491F901EA52FF4F1491BA
:1015F000112309F453C081110E94F403E12FF0E09C
:10160000EE0FFF1FE455FF4FA591B491EC910E230F
:1016100031E020E009F430E0832F922F2A813B81D2
:101620002817390779F02FB7F8944091BF035091EC
:10163000C0036091C1037091C2032FBF4E835F83CB
:10164000688779872FB7F8944091BF035091C00302
:101650006091C1037091C2032FBF0E811F81288545
:101660003985401B510B620B730B0A851B852C853A
:101670003D85041715072607370738F42C813D816F
:101680002817390711F09D838C839B838A838C8173
:101690009D81DF91CF911F910F91089590E080E09F
:1016A000BDCFCF92DF92EF92FF920F931F93CF9314
:1016B000DF93D62E082F10E0E801C654D84F7801EA
:1016C000EE0CFF1C67FD45C02091020830E08889C0
:1016D00090E0AC0140575F4F2417350709F0B0C0C8
:1016E00068830E943D038C879881980174E0220FE3
:1016F000331F7A95E1F7882309F47AC0E92FF0E0E7
:1017000063E0F595E7956A95E1F7E20FF31FE55F72
:10171000F74F80819770282F30E0092E02C0359551
:1017200027950A94E2F720FD14C021E02C83D7010D
:10173000AD5FB74F2D913C9111972F5F3F4F2D9388
:101740003C9321E030E001C0220F9A95EAF7822B0A
:101750008083F701ED5FF74F80819181892B09F03C
:1017600095C081E089AFD7FC3AC0209102088889F2
:1017700090E080529F4F2817190689F481E08C8FE2
:101780000E943D03F801EE0FFF1FE253F84F50E8AF
:10179000859FC00111248D0D911D9183808320911F
:1017A0000208888990E080559F4F2817190659F440
:1017B000CC24C394C8A6D8A20E943D038CA388A1C0
:1017C0008B3709F465C020910208888990E0805326
:1017D0009F4F2817190619F481E088ABDCA6DF912A
:1017E000CF911F910F91FF90EF90DF90CF900895D0
:1017F00081E08887E92FF0E053E0F595E7955A9569
:10180000E1F7E20FF31FE55FF74F977021E030E05B
:10181000A90102C0440F551F9A95E2F7CA018095AD
:10182000908189238083F701ED5FF74F808191815B
:10183000181619060CF08DCF01979183808389CFFC
:1018400080589F4F2817390709F083CF68830E947B
:101850003D0381E088878881E82FF0E023E0F5955B
:10186000E7952A95E1F7980144E0220F331F4A9546
:10187000E1F7E20FF31FE55FF74F282F277081E0B4
:1018800090E001C0880F2A95EAF7C9CF19AE6BCF57
:10189000F701ED5FF74F11821082C9AE84E0000FAF
:1018A000111F8A95E1F730E020E0F901E00FF11F08
:1018B000E55FF74F10822F5F3F4F20313105A9F7C9
:1018C00082CFFC0101900020E9F73197AF01481B5E
:1018D000590BBC0187EA94E00C94D3028F929F923B
:1018E000AF92BF920F931F93CF93DF93CDB7DEB725
:1018F000A1970FB6F894DEBF0FBECDBF19A242303C
:1019000008F44AE08E010F5D1F4F842E912CB12CFC
:10191000A12CA50194010E944822E62FB901CA0119
:10192000EA30F4F4E05DD801EE938D01232B242BF3
:10193000252B79F790E080E0109719F0CD010E94F7
:10194000610CA1960FB6F894DEBF0FBECDBFDF913C
:10195000CF911F910F91BF90AF909F908F9008955E
:10196000E95CE1CFCF92DF92EF92FF92CF93DF93CA
:101970006B017C016DE287EA94E00E948803EC0130
:1019800066277727CB016C197D098E099F094AE0EC
:101990000E946E0C8C0F9D1FDF91CF91FF90EF90F6
:1019A000DF90CF900895682F70E090E080E04AE0EB
:1019B0000C946E0CCF93DF93BC0190E080E04AE082
:1019C0000E946E0CEC018FE092E00E94610C8C0F83
:1019D0009D1FDF91CF9108950C94610C8F929F927F
:1019E000AF92BF92CF92DF92EF92FF921F93CF936D
:1019F000DF936B017C01AC019B010E944322882391
:101A0000B9F082E192E00E94610CEC018FE092E07B
:101A10000E94610C8C0F9D1FDF91CF911F91FF9051
:101A2000EF90DF90CF90BF90AF909F908F900895F0
:101A300046015701E894B7F82FEF3FEF4FE75FE714
:101A4000C501B4010E94432281110DC02FEF3FEF69
:101A50004FE75FE7C501B4010E94722018161CF41D
:101A600086E192E0D0CF2FEF3FEF4FE75FE4C70171
:101A7000B6010E94D12118161CF48AE192E0C3CF6E
:101A80002FEF3FEF4FE75FECC701B6010E947220D6
:101A900087FDF3CF20E030E0A901C701B6010E9425
:101AA0007220D0E0C0E087FF0AC06DE287EA94E0D0
:101AB0000E948803EC01F7FAF094F7F8F09426E11D
:101AC00037EB41E558E3C701B6010E9406206B01E0
:101AD0007C010E94F0204B015C010E941F219B01B0
:101AE000AC01C701B6010E9405206B017C014AE0F0
:101AF000C501B4010E946E0CC80FD91F6EE287EABF
:101B000094E00E948803C80FD91F15E0115009F412
:101B10007DCF20E030E040E251E4C701B6010E94F1
:101B2000D6214B015C010E94F0206B01F12CE12CCD
:101B30004AE0C701B6010E946E0CC80FD91FC70149
:101B4000B6010E941F219B01AC01C501B4010E9496
:101B500005206B017C01DACFCF93DF930E94D30C79
:101B6000EC018FE092E00E94610C8C0F9D1FDF91D1
:101B7000CF910895CF93DF93BC01990F880B990BF8
:101B80004AE00E946E0CEC018FE092E00E94610C32
:101B90008C0F9D1FDF91CF910895CF93DF930E940B
:101BA000610CEC018FE092E00E94610C8C0F9D1F94
:101BB000DF91CF91089585ED8093BC0080912F0433
:101BC00090913004A0913104B09132040796A11D88
:101BD000B11D23E0B695A795979587952A95D1F7DE
:101BE0002091BC0024FD03C010922D040895409163
:101BF0002F04509130046091310470913204452BD0
:101C0000462B472B69F30097A105B10541F025E369
:101C10002A95F1F700000197A109B109E1CF809160
:101C20002E040C94C005FF920F931F93CF93DF9364
:101C3000EC01F62E08811981C8010E94EF1FF816E9
:101C400021F06F2DC8010E94F71FCE01DF91CF91C7
:101C50001F910F91FF900895CF92DF92EF92FF9224
:101C60000F931F93CF93DF9300D0CDB7DEB76C01F6
:101C70007C0102E010E01A830983F70161917F0182
:101C8000CE0101960E94130E0F5F1F4F0232110505
:101C900091F7C6010F900F90DF91CF911F910F9197
:101CA000FF90EF90DF90CF900895CF92DF92EF9268
:101CB000FF920F931F93CF93DF9300D0CDB7DEB782
:101CC0006C017C0102E212E01A830983F701619141
:101CD0007F01CE0101960E94130E0F5F1F4F053248
:101CE000F2E01F0789F7C6010F900F90DF91CF91A7
:101CF0001F910F91FF90EF90DF90CF9008950F9379
:101D00001F93CF93DF9300D0CDB7DEB78C0185E270
:101D100092E09A838983F8016081CE0101960E9446
:101D2000130E86E292E09A838983F8016181CE01E5
:101D300001960E94130EC8010F900F90DF91CF9172
:101D40001F910F910895AF92BF92CF92DF92EF92C1
:101D5000FF920F931F93CF93DF9300D0CDB7DEB7E1
:101D60008B016B0128E7C20ED11C7B015C01A61A16
:101D7000B70AC5018E0D9F1D9A838983F701619172
:101D80007F01CE0101960E94130EEC14FD0489F729
:101D9000C8010F900F90DF91CF911F910F91FF908D
:101DA000EF90DF90CF90BF90AF9008950F931F9367
:101DB000CF93DF9300D0CDB7DEB78B019A838983B1
:101DC000FB016081CE0101960E94130EC8010F90A5
:101DD0000F90DF91CF911F910F910895CF92DF92D5
:101DE000EF92FF920F931F93CF93DF93EB017B0151
:101DF00028E7E20EF11C8B016C01C61AD70AC60156
:101E0000800F911F0E94EF1FF80181938F01EE1543
:101E1000FF05A9F7CE01DF91CF911F910F91FF90A0
:101E2000EF90DF90CF900895CF93DF93EB010E9466
:101E3000EF1F8883CE01DF91CF9108950F931F93F9
:101E4000CF93DF936AEC77E090E080E00E94140F7C
:101E500063E575E081E090E00E94140F63EE75E0A9
:101E600081E090E00E94140F63E776E081E090E06B
:101E70000E94140F63E077E081E090E00E94140F6D
:101E800003E011E0C2E0D0E0CE010E94EF1FF801B4
:101E900081938F012196C232D105B1F76CE575E0CF
:101EA00082E490E00E94EE0E6CEE75E08AEB90E02A
:101EB0000E94EE0E6CE776E082E391E00E94EE0E67
:101EC0006CE077E08AEA91E00E94EE0E82E292E016
:101ED0000E94EF1F8093230183E292E00E94EF1F94
:101EE0008093240184E292E00E94EF1F80932501F9
:101EF00085E292E00E94EF1F8093010186E292E06A
:101F00000E94EF1F8093020160EF73E087E292E08E
:101F10000E94140F6BEC77E088E292E00E94140FAD
:101F20006CEC77E089E292E00E94140F6DEC77E0B0
:101F30008AE292E00E94140F60E071E08BE292E08E
:101F40000E94140F90910101909354058091020119
:101F5000809355059093E4058093E505909374066E
:101F60008093750690930407809305078091030181
:101F700090910401A0910501B09106018093D405D0
:101F80009093D505A093D605B093D705809107010E
:101F900090910801A0910901B0910A018093D805A0
:101FA0009093D905A093DA05B093DB0580910B01DE
:101FB00090910C01A0910D01B0910E0180936406E7
:101FC00090936506A0936606B093670680910F0113
:101FD00090911001A0911101B091120180936806B7
:101FE00090936906A0936A06B0936B0680911301E3
:101FF00090911401A0911501B09116018093F406FF
:102000009093F506A093F606B093F706809117011A
:1020100090911801A0911901B0911A018093F806CE
:102020009093F906A093FA06B093FB0680911B01EA
:1020300090911C01A0911D01B0911E018093840715
:1020400090938507A0938607B093870780911F011F
:1020500090912001A0912101B091220180938807E5
:1020600090938907A0938A07B0938B0780E595E04A
:102070000E94720780EE95E00E94720780E796E06A
:102080000E94720780E097E00E9472078091F0033F
:102090008093DC0580936C068093FC0680938C070C
:1020A00080910001811103C088E18093000180913B
:1020B00000018093F0078EE192E00E94EC0C82E038
:1020C0000E94AC0D8EE192E00E94EC0C80E40E9434
:1020D000AC0D87E292E00E94EC0C809123010E94FB
:1020E000AC0D8DE292E00E94EC0C809124010E94E4
:1020F000AC0D83E392E00E94EC0C809125010E94DC
:10210000AC0D87E393E00E94EC0C809101010E94EA
:10211000AC0D86E493E00E94EC0C809102010E94D9
:10212000AC0D8CE392E00E94EC0C8091CA0790E029
:1021300001960E94BA0D89E392E00E94EC0C809116
:10214000CB0790E001960E94BA0D86E492E00E94CF
:10215000EC0C8091CC0790E001960E94BA0D83E5CB
:1021600092E00E94EC0C8091CD0790E001960E94D5
:10217000BA0D80E692E00E94EC0C809153050E941B
:10218000D30C8BE292E00E94EC0C8091E3050E945C
:10219000D30C8BE292E00E94EC0C809173060E94BB
:1021A000D30C8BE292E00E94EC0C809103070E941A
:1021B000AC0D83E792E00E94EC0C8091F0030E944A
:1021C000AC0D85E892E00E94EC0C6091D405709112
:1021D000D5058091D6059091D7050E94EE0C81E936
:1021E00092E00E94EC0C6091D8057091D905809125
:1021F000DA059091DB050E94EE0C8BE992E00E94DB
:10220000EC0C609164067091650680916606909171
:1022100067060E94EE0C87EA92E00E94EC0C609147
:1022200068067091690680916A0690916B060E941B
:10223000EE0C81EB92E00E94EC0C6091F406709140
:10224000F5068091F6069091F7060E94EE0C8DEB54
:1022500092E00E94EC0C6091F8067091F906809172
:10226000FA069091FB060E94EE0C87EC92E00E9429
:10227000EC0C60918407709185078091860790919E
:1022800087070E94EE0C83ED92E00E94EC0C6091B7
:1022900088077091890780918A0790918B070E9427
:1022A000EE0CCCE5D5E010E000E08DED92E00E9470
:1022B000EC0C60915305600F712F711D072E000CFF
:1022C000880B990B4AE00E946E0C8BE292E00E9410
:1022D000EC0C6991799190E080E04AE00E946E0CEC
:1022E0008BE292E00E94EC0CFE01E257FF4F60810E
:1022F000718190E080E04AE00E946E0C8BE292E0F7
:102300000E94EC0CFE01E25EFE4F6081718190E064
:1023100080E04AE00E946E0C8BE292E00E94EC0C9E
:10232000FE01E255FE4F808191810E94DA0C0F5F21
:102330001F4F0C33110509F0B8CFDF91CF911F91DA
:102340000F9108951F920F920FB60F9211248F9341
:102350009F938091E1009091E100937F9093E10041
:1023600083FF0FC01092E90091E09093EB00109270
:10237000EC0092E39093ED001092060498E09093A5
:10238000F00082FF22C093E09093E9009091F20068
:10239000992319F09AE39093E8009091F703992319
:1023A00041F09091F70391509093F703911101C080
:1023B0005D9A90910504992341F090910504915004
:1023C00090930504911101C0289A84FF18C0809150
:1023D000E2008E7E81608093E2008091E1008F7E3A
:1023E0008093E1008091F8038E7E80618093F803F2
:1023F0009F918F910F900FBE0F901F90189580FFA7
:10240000F7CF8091E2008E7E80618093E200809120
:10241000E1008E7E8093E1008091F8038E7E8160E2
:10242000E5CF1F920F920FB60F921124CF92DF9239
:10243000EF92FF920F931F932F933F934F935F93CE
:102440006F937F938F939F93AF93BF93EF93FF937C
:10245000CF93DF93CDB7DEB76C97DEBFCDBF1092C1
:10246000E9008091E80083FF25C068E0CE01459631
:102470000E94C40282EF8093E8008D8987FF39C0F3
:102480009091E80090FFFCCF982F907609F034C12E
:102490009E894F89588D2F89F88C911131C08038D1
:1024A00061F58091F6038093F1001092F1008EEFB8
:1024B0008093E8006C960FB6F894DEBF0FBECDBFD8
:1024C000DF91CF91FF91EF91BF91AF919F918F914C
:1024D0007F916F915F914F913F912F911F910F913C
:1024E000FF90EF90DF90CF900F900FBE0F901F9056
:1024F00018959EEF9093E800C7CF1092F100D5CFCA
:10250000913059F48111D3CF4130510581F680913A
:10251000F6038D7F8093F603CACF933049F481117F
:10252000C6CF4130510519F68091F6038260F2CF93
:10253000953041F48091E80080FFFCCF2068209323
:10254000E300B5CF963009F0A9C00B8D1C8D22E0B9
:102550001092E9001092F4031092F303F2122EC0CD
:102560001092F2031092F1030E9493021F8299E0ED
:102570009983FA8291E09E8390EA98879AEF9987EF
:102580002091F3033091F403275F3F4F3C832B836B
:102590008D831092E9001092F4031092F3031093CC
:1025A000F2030093F10349E050E0BE016F5F7F4FFB
:1025B00080E00E946D020E94930279CF1093F20393
:1025C0000093F1030E947701DC0112960D911C919A
:1025D0000115110509F451C1D801ED91FC91048058
:1025E000F581E02DBE016B5E7F4FC8010995009714
:1025F00009F03EC1F80100851185EACFF3E0FF1232
:102600000EC08F89882309F440C0823061F440E80D
:1026100061E183E991E00E943A02811148CF81E2B1
:102620008093EB0047CF813029F440E867E08BE8E6
:1026300091E0F1CF833099F70E947701DC01129687
:10264000ED90FC908E010F5F1F4F6801E114F104C3
:1026500079F0D701ED91FC910680F781E02DB8016A
:10266000C7010995080F111DF701E084F184EECF31
:10267000D8011C92F60101900020E9F73197BF01C3
:102680006C197D0940E0C601C6CF65E771E0FB012A
:10269000449150E080E80E946D0209CF973009F420
:1026A000BECF983021F481E08093F10000CF9930C3
:1026B00009F0FDCE837009F0B2CFE3EDF1E081E0E7
:1026C00031E096E32191222371F08093E900309369
:1026D000EB00DF0111972C912093EC009093ED001B
:1026E0008F5F873079F78EE78093EA001092EA00D7
:1026F0008F8980930604DBCE8B8D9C8D1092E90030
:102700001092F4031092F3039093F2038093F10379
:10271000898D811192C08E899D89913A49F48132C7
:1027200009F07DCF47E050E06BE271E080E0B3CF8D
:10273000913209F074CF833269F48F89988DB0E0BB
:10274000A0E08093270190932801A0932901B093E2
:102750002A01ADCE803269F48091E80082FFFCCF7F
:1027600067E08BE291E00E94C4028BEF8093E80067
:102770009ECE823209F09BCE8F8980933201EEEF9C
:10278000FFE7859194918B3F9C4D51F1E0E0F8E09B
:1027900080912B0190912C01A0912D01B0912E01DF
:1027A000803B9440A105B105F1F48091320180FD98
:1027B0001AC0EE3F8AE0F80789F587E797E791832B
:1027C0008083809160008093F50388E19BE00FB6E1
:1027D000F894A895809360000FBE9093600067CE38
:1027E000EEEFFAE0D5CF808191818737974709F0E6
:1027F0005ECEA89580916000886180936000809192
:10280000F50380936000EE3F2AE0F20789F08091A3
:10281000FE0A9091FF0A9183808349CE8081918145
:102820008737980751F29093FF0A8093FE0AC5CF2D
:102830001092FF0A1092FE0A3ACE0E947701DC0144
:1028400012960D911C910115110509F4E8CED801DD
:10285000ED91FC910190F081E02DBE016B5E7F4F08
:10286000C8010995811123CEF80100851185EBCFB0
:10287000181619060CF41BCED2CEF1E0FF12BECE14
:1028800069E771E004CF1F920F920FB60F921124E7
:102890002F933F934F935F936F937F938F939F9368
:1028A000AF93BF93EF93FF9387EA94E00E9467038F
:1028B000FF91EF91BF91AF919F918F917F916F9118
:1028C0005F914F913F912F910F900FBE0F901F90EE
:1028D00018951F920F920FB60F9211242F938F937A
:1028E0009F93EF93FF93E091B704F091B804808138
:1028F000E091BD04F091BE0482FD1BC090818091E7
:10290000C0048F5F8F732091C104821741F0E09162
:10291000C004F0E0E955FB4F958F8093C004FF9110
:10292000EF919F918F912F910F900FBE0F901F905D
:1029300018958081F4CF1F920F920FB60F92112439
:102940002F933F938F939F93AF93BF938091BF0338
:102950009091C003A091C103B091C2033091BE0316
:1029600023E0230F2D3758F50196A11DB11D2093AB
:10297000BE038093BF039093C003A093C103B093A1
:10298000C2038091C3039091C403A091C503B09189
:10299000C6030196A11DB11D8093C3039093C40388
:1029A000A093C503B093C603BF91AF919F918F9140
:1029B0003F912F910F900FBE0F901F90189526E812
:1029C000230F0296A11DB11DD2CF1F920F920FB6F9
:1029D0000F9211242F933F934F935F936F937F93A5
:1029E0008F939F93AF93BF93EF93FF938091B90021
:1029F000887F803609F44AC0F0F5883209F4A7C010
:102A000018F5803109F49BC0B8F4882309F4F9C0A3
:102A1000883009F494C0FF91EF91BF91AF919F91DD
:102A20008F917F916F915F914F913F912F910F9077
:102A30000FBE0F901F901895883109F488C080321E
:102A400051F780932B0414C0803409F49DC040F4E6
:102A50008033B9F38833F9F680932B0485ECB0C04A
:102A6000803509F485C0883509F496C0883499F614
:102A70000E94DB0DD0CF883909F48CC038F5883737
:102A800029F050F4883611F0803729F683E08093DE
:102A90002D041092BD0357C0883809F47BC08039DB
:102AA00019F0803809F0B7CF8091BD03803208F06B
:102AB00071C0E091BD0381E08E0F8093BD038091D2
:102AC000BB00F0E0E356FC4F80833DC0803B39F013
:102AD000E0F4803A09F479C0883A09F09CCF84E0A8
:102AE00080932D0410929C0310929B03E091C903E4
:102AF000F091CA03099580919B0381110FC081E079
:102B000080939B0310927B0309C0803C09F4A6CFFD
:102B1000883C09F4A3CF883B09F07DCFE0919C036A
:102B200081E08E0F80939C03F0E0E558FC4F80819C
:102B30008093BB0090919C0380919B0329C080915E
:102B400008048093BB0085EC8093BC0064CF909117
:102B50002A0480912904981758F5E0912A0481E00D
:102B60008E0F80932A04F0E0E75FFB4F8081E9CF6E
:102B7000E0912A0481E08E0F80932A048091BB00AB
:102B8000F0E0E75FFB4F808390912A048091290455
:102B90009817C8F285E8D8CFE0912A0481E08E0F1B
:102BA00080932A048091BB00F0E0E75FFB4F8083B5
:102BB00080912C0481115CCF81E08093070484EA2A
:102BC0008093BC0010922D0426CF85EC8093BC002E
:102BD00010922D048091BD03803230F4E091BD034A
:102BE000F0E0E356FC4F10826091BD0370E0E0918D
:102BF000C703F091C8038DE993E009951092BD03D6
:102C00000ACF10922B0434CF0F931F93CF93DF93EF
:102C1000EC01162F042F8FEF888319821A8284E229
:102C20008B831C821D8280E090E29F838E831986B5
:102C300018861B861A8688E7E3E3F1E0DE011C961E
:102C400001900D928A95E1F7FE01EC57FF4F10823B
:102C5000118212821382349680E090E0A0E8BFE3F4
:102C600080839183A283B38334961082339686E067
:102C7000808361E0812F0E946E04FE01E357FF4FC5
:102C80001083C257DF4F0883DF91CF911F910F91BF
:102C90000895CF92DF92EF92FF9210925A04109211
:102CA000590488EE93E0A0E0B0E080935B04909339
:102CB0005C04A0935D04B0935E042DED31E030938D
:102CC0005804209357042FEF3FEF30936404209370
:102CD00063041092AA041092A9048093AB04909309
:102CE000AC04A093AD04B093AE042FEE31E030936A
:102CF000A8042093A7042DEC30E03093B404209373
:102D0000B3042CEC30E03093B6042093B50428ECE7
:102D100030E03093B8042093B70429EC30E03093CE
:102D2000BA042093B9042AEC30E03093BC04209319
:102D3000BB042EEC30E03093BE042093BD0410920F
:102D4000C0041092C1041092C2041092C3041092E5
:102D50004705109246058093480590934905A09336
:102D60004A05B0934B0581E092E09093450580932E
:102D7000440588E18093F0071092F2078091AB013F
:102D80009091AC01A091AD01B091AE018093F30799
:102D90009093F407A093F507B093F6071092F70706
:102DA0001092F8071092F9071092FA071092FB0799
:102DB00010920108109200088AEB97E030E020E0C2
:102DC000F901EF5AFF4FE80FF91F10822F5F3F4FB5
:102DD00020313105A9F7409627E08A3F920771F725
:102DE0001092B2071092B3071092B4071092B50771
:102DF00060E089E00E946E0489E090E09093AD0766
:102E00008093AC0782E3C82ED12CE12CF12CC09228
:102E1000B607D092B707E092B807F092B9071092C0
:102E2000A4071092A5071092A6071092A70760E0CA
:102E300083E10E946E0483E190E090939F0780936A
:102E40009E07C092A807D092A907E092AA07F09225
:102E5000AB0710929607109297071092980710925E
:102E6000990760E084E10E946E0484E190E0909311
:102E7000910780939007C0929A07D0929B07E092A7
:102E80009C07F0929D0740E068E080E595E00E9495
:102E9000041641E062E180EE95E00E94041642E0F3
:102EA00065E180E796E00E94041643E066E180E079
:102EB00097E0FF90EF90DF90CF900C940416CF93A3
:102EC000DF93CDB7DEB7C45AD1090FB6F894DEBF91
:102ED0000FBECDBF789484B5826084BD84B5816017
:102EE00084BD85B5826085BD85B5816085BD8091D5
:102EF0006E00816080936E0010928100809181004D
:102F00008260809381008091810081608093810044
:102F10008091800081608093800080919100826028
:102F200080939100809191008160809391008091C5
:102F300090008160809390008091C10084608093B4
:102F4000C1008091C10082608093C1008091C10066
:102F500081608093C1008091C30081608093C30031
:102F60008091C00082608093C0008091C200816027
:102F70008093C20080917A00846080937A0080916F
:102F80007A00826080937A0080917A0081608093D9
:102F90007A0080917A00806880937A00109206040B
:102FA0001092F6031092F8038091D700816080930D
:102FB000D70080EA8093D80089B5806189BD89B542
:102FC000826089BD09B400FEFDCF61E070E080E061
:102FD00090E00E94C4048091D8008F7C806180932F
:102FE000D8008091E000807F8093E0008091E10034
:102FF0008E7E8093E1008DE08093E200559A209AC6
:10300000E091B704F091B80482E08083E091B304CA
:10301000F091B4041082E091B504F091B6048FE30E
:1030200080831092BF04E091BB04F091BC0486E061
:103030008083E091B904F091BA048081806180833B
:10304000E091B904F091BA04808188608083E091B6
:10305000B904F091BA04808180688083E091B9045A
:10306000F091BA0480818F7D80831092CC031092FE
:10307000CB0310925404109253040E94A20581EDD8
:1030800092E09093CA038093C90382ED92E09093FB
:10309000C8038093C70361E086E00E946E0440E2AB
:1030A00050E060E870E08DEC93E00E9470220E9496
:1030B0001E0F6090AF017090B0018090B10110922E
:1030C000BE071092BF071092C0071092C10710925E
:1030D000C2071092C3071092C4071092C50710923E
:1030E000D6071092D7071092D8071092D9071092DE
:1030F000E2071092E3071092E4071092E50710929E
:10310000EA071092EB071092EC071092ED0710926D
:10311000F1071092EE071092EF0787EA94E00E9401
:1031200031031816190664F487EA94E00E940F032D
:10313000182F80E8810F883708F077C010930208B5
:1031400080912601813009F003C180E00E94380996
:1031500080E00E943A0A8091D607882341F060916E
:10316000CE077091CF0780E595E00E94C909809154
:10317000E207882361F08091DA0790912301891397
:10318000E1C06091DE0780E097E00E94F507809142
:10319000EA07882331F06091E60780E796E00E9415
:1031A000F5078091F307882309F417C28091F4078B
:1031B000882309F412C28091F507882309F40DC20F
:1031C0008091F607882309F408C28091F0038130CA
:1031D00021F460E086E00E9440048CEA97E00E94BF
:1031E000E40A2091EF032817190609F4E2C180E9E7
:1031F00097E00E94E40A8C018EE997E00E94E40ABD
:103200007C018CEA97E00E94E40A892B09F0E1C472
:1032100083E0EF2821F486E0012B09F484E0809319
:1032200026018FEF80935005DCC4183F20F0812FDA
:103230000E94FE0085CF612F80E00E94510B612F1C
:1032400081E00E94510B612F82E00E94510B612F9F
:1032500083E00E94510B80910208803F09F070CFFB
:103260001F3769F487EA94E00E943103892BD1F378
:1032700087EA94E00E940F03873FA1F761CF81E0C6
:103280008093F10787EA94E00E943103892BD1F300
:1032900087EA94E00E940F038093F707873F09F4C1
:1032A0004FCF87EA94E00E943103892BD1F387EA5C
:1032B00094E00E940F038093F807873F09F440CF02
:1032C00087EA94E00E943103892BD1F387EA94E0E6
:1032D0000E940F038093F907873F09F431CF87EAF3
:1032E00094E00E943103892BD1F387EA94E00E9495
:1032F0000F038093FA07873F09F422CF87EA94E00F
:103300000E943103892BD1F387EA94E00E940F03D6
:103310008093FB07873F09F413CF10E087EA94E01E
:103320000E943103892BD1F387EA94E00E940F03B6
:10333000873F09F405CFE12FF0E0E450F84F808398
:103340001F5FECCF8B3709F022CF0E941A0A1FCFE4
:10335000823031F580E00E94380980E00E943A0A0C
:1033600081E00E94380981E00E943A0A8091D607E4
:10337000882341F06091CE077091CF0780E595E0FA
:103380000E94C9098091D707882309F40ACF609168
:10339000D0077091D10780EE95E00E94C90901CF56
:1033A000833009F046C080E00E94380980E00E9426
:1033B0003A0A81E00E94380981E00E943A0A82E0DC
:1033C0000E94380982E00E943A0A8091D607882339
:1033D00041F06091CE077091CF0780E595E00E94A3
:1033E000C9098091D707882341F06091D007709177
:1033F000D10780EE95E00E94C9098091D807882303
:1034000041F06091D2077091D30780E796E00E9467
:10341000C9098091E207882309F4C3CE8091DA07B5
:1034200090912301891357C06091DE0780E097E0F7
:10343000B6CE843009F055C080E00E94380980E0A3
:103440000E943A0A81E00E94380981E00E943A0A0B
:1034500082E00E94380982E00E943A0A83E00E94DA
:10346000380983E00E943A0A8091D607882341F008
:103470006091CE077091CF0780E595E00E94C90961
:103480008091D707882341F06091D0077091D107D0
:1034900080EE95E00E94C9098091D807882341F009
:1034A0006091D2077091D30780E796E00E94C90926
:1034B0008091D907882341F06091D4077091D50796
:1034C00080E097E00E94C9098091E207882309F40F
:1034D00068CE8091DA078B3709F063CE0E941A0A12
:1034E00060CE853051F580E00E94380980E00E946E
:1034F0003A0A8091D607882309F453CE6091CE070B
:103500007091CF0780E595E00E94C9096091CE07D0
:103510007091CF0780EE95E00E94C9096091CE07B7
:103520007091CF0780E796E00E94C9096091CE07AD
:103530007091CF0780E097E030CF80E00E9438099B
:1035400080E00E943A0A8091D607882341F060917A
:10355000CE077091CF0780E595E00E94C909809160
:10356000E207882309F41DCE9091DA0780912301A8
:10357000981306C06091DE0780EE95E00E94F50783
:103580009091DA0780912401981306C06091DE07BC
:1035900080E796E00E94F5079091DA078091250177
:1035A000981397CF6091DE0780E097E00E94F507BF
:1035B00090CF8EE997E00E94E40A2091EE0328174D
:1035C000190609F014CE80E997E00E94E40A2091E0
:1035D000ED032817190609F00ACE8091D707882332
:1035E00069F0809126018250833040F46091D007C9
:1035F0007091D10780EE95E00E94C9098091D807AB
:10360000882369F0809126018350823040F46091D4
:10361000D2077091D30780E796E00E94C909809194
:10362000D907882361F080912601843041F46091AC
:10363000D4077091D50780E097E00E94C909809176
:10364000EE07882329F08091F00361E0882349F098
:103650008091EF07882341F08091F003811104C02D
:1036600060E086E00E9440048091F107882309F41D
:10367000A9C48091F707823009F0CDC08091F80786
:10368000803409F0C8C08091FA078F3F09F0C3C0A9
:103690008091F907853009F0BEC061E086E00E94A4
:1036A000400487EE92E00E94CD0D10E000E060E063
:1036B000C8010E94F71F0F5F1F4F011524E012077A
:1036C000B1F788E7E3E3F1E0DE01119601900D9296
:1036D0008A95E1F780E2E2EBF1E0DE01A758BF4F07
:1036E00001900D928A95E1F7C756DF4F6882798283
:1036F0008A82C959D04082E0C456DF4F8883CC59B2
:10370000D040C356DF4F8883CD59D040CC55DF4FD2
:103710001882C45AD040CD55DF4F1882C35AD040CA
:1037200091E0CE55DF4F9883C25AD040CF55DF4F3E
:103730008883C15AD04083E0C056DF4F8883C05A87
:10374000D04084E2C156DF4F8883CF59D04088E112
:10375000C256DF4F8883CE59D040BE016D557F4F92
:1037600090E080E00E94D60EBE0161567F4F81E05E
:1037700090E00E94D60ECE0187589F4F0E942C0EDB
:10378000BE016F5F7F4F82E490E00E94A30EBE01F6
:103790006F5F7F4F8AEB90E00E94A30EBE016F5FC8
:1037A0007F4F82E391E00E94A30EBE016F5F7F4FC7
:1037B0008AEA91E00E94A30ECE0187569F4F0E9495
:1037C000550ECE0184569F4F0E947F0EBE016C5550
:1037D0007F4F87E292E00E94D60EBE016E557F4F6A
:1037E00088E292E00E94D60EBE016F557F4F89E2BB
:1037F00092E00E94D60EBE0160567F4F8AE292E0B0
:103800000E94D60EBE0162567F4F8BE292E00E946C
:10381000D60E0E941E0F8091F707823041F58091ED
:10382000F807803441F58091FA078F3121F58091B6
:10383000F907853001F561E086E00E94400480913F
:10384000FB078111FAC16CEF77E090E080E00E9405
:10385000D60E8091FC078093CA078CE392E00E9409
:10386000EC0C8091CA0790E001960E94BA0D8091FD
:10387000F707823091F58091F807803471F58091D7
:10388000FA07803251F58091F907853031F561E012
:1038900086E00E9440048091FC078093530580934A
:1038A000E305809373068093030763E575E081E089
:1038B00090E00E94D60E80E692E00E94EC0C80918F
:1038C00053050E94AC0D64EF71E080E090E00E942F
:1038D000C40460E086E00E9440048091F7078230D3
:1038E00009F07FC08091F807803409F07AC0809198
:1038F000FA07853109F075C08091F907853009F024
:1039000070C061E086E00E9440040091FB0788E0FF
:10391000089F800111240D5F1E4F6091FD07E0E8B4
:103920006E9FC00111246091FC07680F792F711DF3
:10393000072E000C880B990B0E94212120E030E01B
:103940004AE754E40E940520F80160837183828372
:10395000938383E091E00E942C0E2091FB0730E0DE
:1039600010E9129FC001139F900D1124805B9A4FA4
:10397000DC01AC57BF4F73E0220F331F7A95E1F79C
:10398000F901ED5FFE4F40815181628173814D935A
:103990005D936D937C9313970E94720782EF92E080
:1039A0000E94EC0C8091FB070E94AC0D88E892E02D
:1039B0000E94EC0CE091FB071E9FF0011124EC52D9
:1039C000FA4F60817181828193810E94EE0C64EFD5
:1039D00071E080E090E00E94C40460E086E00E9414
:1039E00040048091F707823009F07FC08091F8078A
:1039F000803409F07AC08091FA07863109F075C0E9
:103A00008091F907853009F070C061E086E00E947E
:103A100040040091FB07F8E00F9F800111240D5F27
:103A20001E4F6091FD0720E8629FC0011124609144
:103A3000FC07680F792F711D072E000C880B990B5E
:103A40000E94212120E030E44CE156E40E947720DE
:103A5000F801648375838683978383E091E00E94F5
:103A60002C0E2091FB0730E010E9129FC001139F3C
:103A7000900D1124805B9A4FDC01A857BF4F63E083
:103A8000220F331F6A95E1F7F901ED5FFE4F448184
:103A90005581668177814D935D936D937C931397E8
:103AA0000E94720782EF92E00E94EC0C8091FB076B
:103AB0000E94AC0D84E992E00E94EC0CE091FB07BF
:103AC0001E9FF0011124E852FA4F608171818281BA
:103AD00093810E94EE0C64EF71E080E090E00E9420
:103AE000C40460E086E00E9440048091F7078230C1
:103AF00009F014C18091F807803449F58091FA07E4
:103B0000873109F0D4C18091F907853001F58091A2
:103B1000FB07E091BA07F0E98F9FD0011124A05B69
:103B2000BA4F13969C91E91BFF0B28E4829FE00D8E
:103B3000F11D1124EE0FFF1FE45AFA4F808191818D
:103B40002091FC072111C1C001979183808380914E
:103B5000F807803409F0E7C08091FA078D3109F049
:103B6000E2C08091F907853009F0DDC061E086E0B0
:103B70000E944004E091FB07F0E0ED5DFE4F809174
:103B8000FC07808383E291E00E94550E87E292E079
:103B90000E94EC0C809123010E94AC0D8DE292E01A
:103BA0000E94EC0C809124010E94AC0D83E392E012
:103BB0000E94EC0C809125010E94AC0D64EF71E035
:103BC00080E090E00E94C40460E086E00E9440042F
:103BD000AAC0EF2839F181E0809326018093500537
:103BE0008FEF8093E0058CEA97E00E94E40A21E0E1
:103BF000892B09F420E02093EF038EE997E00E94DF
:103C0000E40A21E0892B09F420E02093EE0380E907
:103C100097E00E94E40A21E0892B09F420E0209338
:103C2000ED03DBCC85E0012B09F0F9CA82E080933B
:103C300026018093500583E0D4CF813089F46CEF66
:103C400077E088E292E00E94D60E8091FC07809394
:103C5000CB0789E392E00E94EC0C8091CB0703CE66
:103C6000823089F46CEF77E089E292E00E94D60E10
:103C70008091FC078093CC0786E492E00E94EC0CD4
:103C80008091CC07F0CD833009F0F1CD6CEF77E077
:103C90008AE292E00E94D60E8091FC078093CD07C5
:103CA00083E592E00E94EC0C8091CD0790E00196B4
:103CB0000E94BA0D64EF71E080E090E00E94C404BD
:103CC00060E086E00E944004D2CD01963ECF813074
:103CD00029F46CEE75E08AEB90E0F9C0823029F4AB
:103CE0006CE776E082E391E0F2C0833009F0F1C046
:103CF0006CE077E08AEA91E0EAC087010A331105B7
:103D000009F0FDC082EF92E00E94EC0C8091FB076D
:103D10000E94D30C8DE193E00E94CD0D8091F707B6
:103D2000823009F414CF8091F7078230E1F5809159
:103D3000F8078034C1F58091FA078E31A1F58091A2
:103D4000F907853081F561E086E00E944004E0914A
:103D5000FB07F0E0EF5FFE4F8091FC07808381E07E
:103D600091E00E947F0E8091FB0781118FC08091AE
:103D70000101809354058093E40580937406809339
:103D8000040782E393E00E94EC0C809101010E9401
:103D9000AC0D64EF71E080E090E00E94C40460E04C
:103DA00086E00E9440048091F7078230B1F580914F
:103DB000F807803491F58091FA07813271F580918E
:103DC000F907853051F561E086E00E94400480915A
:103DD000FB078093F00360EF73E087E292E00E94BC
:103DE000D60E8091F0038093DC0580936C0680935F
:103DF000FC0680938C0783E792E00E94EC0C809194
:103E0000F0030E94AC0D64EF71E080E090E00E944E
:103E1000C40460E086E00E9440048091F70782308D
:103E200009F0D0C08091F807803409F0CBC08091B0
:103E3000FA07823209F0C6C08091F907853009F08F
:103E4000C1C061E086E00E9440048091FB0780933E
:103E5000000160E071E08BE292E00E94D60E80915A
:103E600000018093F00782E593E00E94EC0C8091C2
:103E700000010E94AC0D64EF71E080E090E00E94D0
:103E8000C40460E086E00E9440049CC0809102016E
:103E9000809355058093E50580937506809305070B
:103EA00081E493E00E94EC0C8091020170CF883194
:103EB00009F04DCE8091F907853009F048CE809108
:103EC000FB07811104CF6CE575E082E490E00E946D
:103ED000A30E82EF92E00E94EC0C8091FB070E94FF
:103EE000D30C8AEF92E00E94CD0DE091FB0780E9B0
:103EF000E89FF0011124E45AFA4F01E010E08281BA
:103F00009381680121E0C21AD10878012FEFE21AEB
:103F1000F20A2081318132968217930730F0228194
:103F200033812817390708F0E8CE81E093E00E943A
:103F3000EC0CE091FB0780E9E89FF0011124E05BC5
:103F4000FA4F8381800F912F911D0E94BA0D8091AD
:103F5000FB0798E4B92EF601B89EE00DF11D11247F
:103F6000EE0FFF1FE45AFA4F808191810E94DA0C14
:103F70008091FB07F801B89EE00DF11D1124EE0FB2
:103F8000FF1FE45AFA4F808191810E94DA0C8091E0
:103F9000FB07F701B89EE00DF11D1124EE0FFF1F86
:103FA000E45AFA4F808191810E94DA0C82EF92E00C
:103FB0000E94EC0C8091FB070E94D30C88E093E0F8
:103FC0000E94CD0D80E090E0892B09F478C80E9412
:103FD0005303882309F473C80E94000070C8F9993C
:103FE000FECF92BD81BDF89A992780B50895262FFE
:103FF000F999FECF1FBA92BD81BD20BD0FB6F894CE
:10400000FA9AF99A0FBE019608955058BB27AA272D
:104010000E941D200C9497210E94892138F00E9453
:10402000902120F039F49F3F19F426F40C94862156
:104030000EF4E095E7FB0C948021E92F0E94A82163
:1040400058F3BA17620773078407950720F079F4CD
:10405000A6F50C94CA210EF4E0950B2EBA2FA02DD4
:104060000B01B90190010C01CA01A0011124FF2725
:10407000591B99F0593F50F4503E68F11A16F04020
:10408000A22F232F342F4427585FF3CF469537951F
:104090002795A795F0405395C9F77EF41F16BA0BE4
:1040A000620B730B840BBAF09150A1F0FF0FBB1F92
:1040B000661F771F881FC2F70EC0BA0F621F731FDB
:1040C000841F48F4879577956795B795F7959E3F38
:1040D00008F0B0CF9395880F08F09927EE0F9795C9
:1040E000879508950E945C2108F481E008950E945C
:1040F0008B200C9497210E94902158F00E948921D6
:1041000040F029F45F3F29F00C94802151110C9468
:10411000CB210C9486210E94A82168F39923B1F346
:10412000552391F3951B550BBB27AA2762177307DD
:10413000840738F09F5F5F4F220F331F441FAA1F71
:10414000A9F335D00E2E3AF0E0E832D0915050402D
:10415000E695001CCAF72BD0FE2F29D0660F771FDB
:10416000881FBB1F261737074807AB07B0E809F0C1
:10417000BB0B802DBF01FF2793585F4F3AF09E3F46
:10418000510578F00C9480210C94CB215F3FE4F32F
:10419000983ED4F3869577956795B795F7959F5F89
:1041A000C9F7880F911D9695879597F90895E1E0D5
:1041B000660F771F881FBB1F621773078407BA0734
:1041C00020F0621B730B840BBA0BEE1F88F7E0958F
:1041D00008950E94F0206894B1110C94CB210895A9
:1041E0000E94B02188F09F5798F0B92F9927B751B6
:1041F000B0F0E1F0660F771F881F991F1AF0BA958B
:10420000C9F714C0B13091F00E94CA21B1E00895FD
:104210000C94CA21672F782F8827B85F39F0B93FEF
:10422000CCF3869577956795B395D9F73EF490953D
:104230008095709561957F4F8F4F9F4F0895E894BB
:1042400009C097FB3EF490958095709561957F4FDE
:104250008F4F9F4F9923A9F0F92F96E9BB2793958C
:10426000F695879577956795B795F111F8CFFAF49C
:10427000BB0F11F460FF1BC06F5F7F4F8F4F9F4FCD
:1042800016C0882311F096E911C0772321F09EE82B
:10429000872F762F05C0662371F096E8862F70E091
:1042A00060E02AF09A95660F771F881FDAF7880F6B
:1042B0009695879597F90895990F0008550FAA0BC1
:1042C000E0E8FEEF16161706E807F907C0F0121629
:1042D0001306E407F50798F0621B730B840B950B2C
:1042E00039F40A2661F0232B242B252B21F4089581
:1042F0000A2609F4A140A6958FEF811D811D08951E
:1043000097F99F6780E870E060E008959FEF80EC88
:10431000089500240A94161617061806090608952B
:1043200000240A9412161306140605060895092E91
:104330000394000C11F4882352F0BB0F40F4BF2B00
:1043400011F460FF04C06F5F7F4F8F4F9F4F089540
:1043500057FD9058440F551F59F05F3F71F0479536
:10436000880F97FB991F61F09F3F79F0879508951B
:10437000121613061406551FF2CF4695F1DF08C03A
:10438000161617061806991FF1CF86957105610557
:1043900008940895E894BB2766277727CB0197F9FF
:1043A00008950E945C2108F48FEF08950E94E9218E
:1043B0000C9497210E94892138F00E94902120F0CE
:1043C000952311F00C9480210C94862111240C94D7
:1043D000CB210E94A82170F3959FC1F3950F50E067
:1043E000551F629FF001729FBB27F00DB11D639FA7
:1043F000AA27F00DB11DAA1F649F6627B00DA11D4D
:10440000661F829F2227B00DA11D621F739FB00DF2
:10441000A11D621F839FA00D611D221F749F332762
:10442000A00D611D231F849F600D211D822F762FFB
:104430006A2F11249F5750409AF0F1F088234AF0D8
:10444000EE0FFF1FBB1F661F771F881F9150504044
:10445000A9F79E3F510580F00C9480210C94CB214C
:104460005F3FE4F3983ED4F3869577956795B795CB
:10447000F795E7959F5FC1F7FE2B880F911D9695E5
:10448000879597F908950E945C21880B990B0895F0
:10449000A1E21A2EAA1BBB1BFD010DC0AA1FBB1F48
:1044A000EE1FFF1FA217B307E407F50720F0A21BBA
:1044B000B30BE40BF50B661F771F881F991F1A9427
:1044C00069F760957095809590959B01AC01BD0151
:1044D000CF010895EE0FFF1F0590F491E02D099490
:1044E000DC0101C06D9341505040E0F70895F8940D
:0244F000FFCFFC
:1044F200180202000000000000803F0000000000DF
:1045020000803F000000000000803F00000000002B
:1045120000803F01474A04FFFFFFFF00E100000067
:10452200000000000044008900CD00110155019AED
:1045320001DE0122026602AB02EF0233037703BC03
:1045420003000444048804CD04110555059905DED1
:104552000522066606AA06EF0633077707BB0700A1
:104562000844088808CC08110955099909DD09226F
:104572000A660AAA0AEE0A330B770BBB0BFF0B443F
:104582000C880CCC0C100D550D990DDD0D210E660D
:104592000EAA0EEE0E320F770FBB0F0101010101C1
:1045A200474A000000000000803F000000000000B9
:1045B200803F000000000000803F0000000000007B
:1045C200803F00C18081000000000000008B01F6E6
:1045D20004AC01A101F201B001CE0100000000888B
:1045E20003D3020003D40331030F032303000000AB
:1045F2000038060B066F07E1050406F105E2050D1A
:104602000A006E616E00696E66006F7666004D612B
:104612006E7549443A20004343313A200043433205
:104622003A20004343333A20005631204368616EFA
:104632006E656C3A20005632204368616E6E656C7E
:104642003A20005633204368616E6E656C3A200052
:104652004C6F77657374204D696469204E6F746581
:104662003A20004F72204761746520456E61626C8A
:1046720065643A20005630204F66667365743A20AE
:10468200005630204761696E3A20005631204F664D
:10469200667365743A20005631204761696E3A208C
:1046A200005632204F66667365743A2000563220F7
:1046B2004761696E3A20005633204F66667365740F
:1046C2003A20005633204761696E3A20004D6964F2
:1046D200694E756D3A200053657420454550524F1E
:1046E2004D00566F6963653A200020536176656418
:1046F200004D6964693A20002056657269666963F3
:104702006174696F6E204661696C6564002056654C
:1047120072696669636174696F6E20506173736553
:104722006400506974636842656E642055703A2073
:1047320000506974636842656E6420446F776E3A14
:0A47420020007070716E3A20000034
:00000001FF
