:100000000C94D4000C94FC000C94FC000C94FC00A8
:100010000C94FC000C94FC000C94FC000C94FC0070
:100020000C94FC000C94FC000C94B8110C94271256
:100030000C94FC000C94FC000C94FC000C94FC0050
:100040000C94FC000C94FC000C94FC000C94FC0040
:100050000C94FC000C94FC000C94FC000C94B11467
:100060000C94FC000C947F140C9459140C94FC0018
:100070000C94FC000C94FC000C94FC000C94FC0010
:100080000C94FC000C94FC000C94FC000C94FC0000
:100090000C94FB140C94FC000C94FC000C94FC00DD
:1000A0000C94FC000C94FC000C94FC00000000007C
:1000B0002300260029002C002F000000000024004F
:1000C00027002A002D003000000000002500280035
:1000D0002B002E0031000404040404030405020272
:1000E00002020403020202020606060606060404D1
:1000F0000202020404040802011040804010204063
:10010000804080080204018040201002011080100D
:10011000204040200000000200090F0000030401FD
:10012000000C0000000000000000000000000000C3
:10013000000000080B000202020000090400000198
:10014000020200000524001001052401010104241D
:10015000020605240600010705810310004009047A
:100160000100020A00000007050202400000070526
:1001700083024000000403090412010002EF02019F
:1001800040D80498E8000101020301556E6B6E6FC0
:10019000776E004D696469566F6C747320446573A3
:1001A0006B746F7000005F1611241FBECFEFDAE092
:1001B000DEBFCDBF13E0A0E0B1E0E0E8F5E402C0AF
:1001C00005900D92A838B107D9F728E0A8E8B3E068
:1001D00001C01D92AA37B207E1F710E0C4EDD0E0EC
:1001E00004C02197FE010E94B122C33DD107C9F787
:1001F0000E9475170C94BE220C94000096E0980F94
:10020000923060F481E080931D088093210881E0A2
:1002100090E09093300880932F0808958C3F31F43C
:100220001092210881E080931E080895883FA9F765
:1002300080912108882389F380912F0890913008BC
:1002400020911F08009769F431E030931D08215078
:10025000330B8217930771F41092300810922F0815
:100260000895322F3695381719068CF731E0309300
:100270001E08EDCF0196CDCFFC0180913504882377
:1002800011F13FB7F89482E08093E9002091F200E9
:10029000822F90E01816190614F481E090E088236C
:1002A00039F0289844E6409334044091F1004083AB
:1002B000222339F02091F200211103C02BE6209374
:1002C000E8003FBF08958FEF9FEF08952FB7F89490
:1002D00083E08093E9009091E800892F807295FF78
:1002E00004C09091F20080E4891B2FBF0895809193
:1002F0002C0481110DC082E08093280484E0809357
:10030000290410922B0410922A0481E080932C047B
:1003100088E294E00895CF93DF931F92CDB7DEB7C4
:100320006983DC01ED91FC910280F381E02D41E0D5
:1003300050E0BE016F5F7F4F09950F90DF91CF9125
:10034000089583E08093E9008091F200882319F0FA
:100350008AE38093E80008950E94660190E0089582
:10036000CF93DF931F92CDB7DEB7FC0184859585CF
:1003700097FD08C02FEF3FEF358724870F90DF915F
:10038000CF910895CE0101960E943C01019719F486
:10039000898190E0F3CF8FEF9FEFF0CF0F931F9302
:1003A000CF93DF931F92CDB7DEB78C01FC0184851C
:1003B000958597FF0BC0CE0101960E943C010197E5
:1003C00071F4898190E0F80195878487F80184852C
:1003D00095850F90DF91CF911F910F9108958FEF29
:1003E0009FEFF1CFFC018485958597FD0BC09FB7EA
:1003F000F89482E08093E9008091F2009FBF90E042
:10040000019608959FB7F89482E08093E900809167
:10041000F2009FBF90E00895409122045091230480
:10042000209120043091210442175307B4F4909195
:10043000E8009570E1F39091E80092FD19C0809377
:10044000F100809122049091230401968F739927E3
:10045000892B19F48EEF8093E8008091220490910B
:1004600023040196909323048093220481E008954D
:1004700080E00895EF92FF920F931F93CF93DF9345
:10048000F82E192FE62E042F81E0860F880F0E9488
:100490000C0283E00E940C02CF2DD12FEC0EFD2E1A
:1004A000F11CCE15DF05B9F007FF13C0FE018491E2
:1004B0000E940C02182F80E00E940C0281232196DA
:1004C0008111EFCFDF91CF911F910F91FF90EF90AE
:1004D00008958881EDCF81E0F5CFDF92EF92FF9212
:1004E0000F931F93CF93DF93D82E8A01EB017B01EB
:1004F000E40EF51ECE15DF0559F0D7FE12C0FE0141
:1005000084910E940C0221968111F4CF0FEF1FEF0E
:10051000C801DF91CF911F910F91FF90EF90DF9075
:1005200008958881EECF0F931F93CF93DF931F928F
:10053000CDB7DEB782E0898342E450E063E371E047
:1005400080E80E946D020E947701DC0112960D91F5
:100550001C910115110589F0D801ED91FC910280E3
:10056000F381E02DBE016F5F7F4FC801099597FDB4
:1005700004C0F80100851185ECCF89810F90DF91CF
:10058000CF911F910F910895615030F02091F100AB
:10059000FC0120830196F8CF289884E680933404E8
:1005A000089508950895AF92BF92CF92DF92EF928F
:1005B000FF920F931F93CF93DF936C017B018B010D
:1005C000040F151FEB015E01AE18BF08C017D1075D
:1005D00059F06991D601ED91FC910190F081E02DE7
:1005E000C6010995892B79F7C501DF91CF911F913C
:1005F0000F91FF90EF90DF90CF90BF90AF90089554
:10060000FC01538D448D252F30E0842F90E0821B18
:10061000930B541710F0CF96089501970895FC019D
:10062000918D828D981761F0A28DAE0FBF2FB11DF5
:100630005D968C91928D9F5F9F73928F90E008954D
:100640008FEF9FEF0895FC01918D828D981731F007
:10065000828DE80FF11D858D90E008958FEF9FEF5B
:100660000895FC01918D228D892F90E0805C9F4F31
:10067000821B91098F739927089586ED94E00E945B
:100680003103892BD1F386ED94E00E943103892B4D
:10069000D1F386ED94E00E940F03883F18F00E948A
:1006A000FE00F1CF089586ED94E00E94310321E031
:1006B000892B09F420E0822F089580E090E0892BB7
:1006C00029F00E94530381110C9400000895FC014D
:1006D000A48DA80FB92FB11DA35ABF4F2C91848DA3
:1006E00090E001968F739927848FA689B7892C9300
:1006F000A089B1898C9182748C93938D848D981389
:1007000006C00288F389E02D80818F7D8083089563
:10071000EF92FF920F931F93CF93DF93EC0181E051
:10072000888F9B8D8C8D981319C0E889F9898081F9
:1007300085FF14C09FB7F894EE89FF896083E8892C
:10074000F9898081827480839FBF81E090E0DF918E
:10075000CF911F910F91FF90EF900895F62E0B8D82
:1007600010E00F5F1F4F0F731127E02E8C8D8E113D
:100770000CC00FB607FCFACFE889F989808185FFA4
:10078000F5CFCE010E946703F1CFEB8DEC0FFD2F6B
:10079000F11DE35AFF4FF0829FB7F8940B8FEA895F
:1007A000FB8980818062CFCFCF93DF93EC01888D6E
:1007B0008823B9F0AA89BB89E889F9898C9185FDDC
:1007C00003C0808186FD0DC00FB607FCF7CF8C916A
:1007D00085FFF2CF808185FFEDCFCE010E946703B8
:1007E000E9CFDF91CF91089581508F3008F047C055
:1007F000E82FF0E0E250FC4F0C94B1221B041F04E0
:100800000D04130417043F043F043F04220428048A
:100810002C04300436043F043A04809180008F7722
:10082000809380000895809180008F7DF9CF809122
:100830008000877FF5CF84B58F7784BD089584B518
:100840008F7DFBCF809190008F77809390000895EB
:10085000809190008F7DF9CF80919000877FF5CFB8
:100860008091C0008F778093C00008958091C00070
:100870008F7DF9CF8091C200877F8093C200089559
:100880001F93CF93DF93282F30E0F901EC5EFE4FEA
:100890008491F901EB50FF4FD491F901EA52FF4FD7
:1008A000C491CC23A9F0162F81110E94F403EC2FE0
:1008B000F0E0EE0FFF1FE853FF4FA591B4918FB703
:1008C000F894EC91111108C0D095DE23DC938FBF12
:1008D000DF91CF911F910895DE2BF8CFCF93DF9357
:1008E00090E0FC01EB50FF4F24918A529F4FFC0196
:1008F00084918823D1F090E0880F991FFC01E65481
:10090000FF4FA591B491FC01E853FF4FC591D491DD
:1009100061110EC09FB7F8948C91E22FE0958E2361
:100920008C932881E223E8839FBFDF91CF910895C4
:100930008FB7F894EC91E22BEC938FBFF6CF3FB7D3
:10094000F8948091F1039091F203A091F303B09198
:10095000F40326B5A89B05C02F3F19F00196A11DF1
:10096000B11D3FBFBA2FA92F982F8827BC01CD01F9
:10097000620F711D811D911D42E0660F771F881F58
:10098000991F4A95D1F708958F929F92AF92BF9287
:10099000CF92DF92EF92FF924B015C010E949F0485
:1009A0006B017C010E949F046C197D098E099F09CF
:1009B000683E734081059105A8F321E0821A9108F1
:1009C000A108B10888EEC80E83E0D81EE11CF11C16
:1009D00081149104A104B10429F7FF90EF90DF90F6
:1009E000CF90BF90AF909F908F9008958F929F92DD
:1009F000AF92BF92CF92DF92EF92FF920F931F932D
:100A0000CF93DF936C017B018A01809132018823AF
:100A100009F45CC080913504882309F457C08091A3
:100A2000270480FF05C08091E00082608093E00091
:100A3000E801B12C8AEFA82E93E0892E2AE3922EAA
:100A4000209711F4BB20D9F10E94660181110AC0E0
:100A5000AA94AA20D9F161E070E080E090E00E94C1
:100A6000C404EECF8C171D0611F00CF08C2F9FB72D
:100A7000F8948092E9002091E80025FD02C09FBF14
:100A8000DFCF282F30E0C21BD30BF701815020F0BD
:100A900041914093F100FACFE20EF31EBB2021F00A
:100AA0009092E800B12CEBCF8091E80085FDE7CF74
:100AB0009092E800BB24B394209709F3F3CF5D989C
:100AC00084E680932604101611063CF081E090E045
:100AD000F6019383828310E000E0C801DF91CF919B
:100AE0001F910F91FF90EF90DF90CF90BF90AF904C
:100AF0009F908F9008952091C903260F3327331FAD
:100B000021323105ECF420915C04FC0190E080E09E
:100B1000243069F082E00895A091C9032191AC01CD
:100B200047555C4FA40FB52FB11D2C930196861726
:100B300098F38091C903680F6093C90380E008951A
:100B400081E0089510925C0481E080935B04109230
:100B5000360461E082E00E94400461E083E00E948C
:100B60004004E9EBF0E080818E7F808380818D7F7F
:100B7000808388E48093B80085E48093BC00089566
:100B8000CF93DF9391E09093A8038823B9F0C091AD
:100B9000B800D091BA008091BC008A7B8093BC00E1
:100BA00060E082E00E94400460E083E00E94400434
:100BB0000E94A205D093BA00C093B800DF91CF91F4
:100BC00008950895E091FA038091F903E81730F44D
:100BD000F0E0E857FC4F808190E008958FEF9FEFA1
:100BE00008959091FA038091F9032FEF3FEF981742
:100BF00048F4E92FF0E0E857FC4F208130E09F5F98
:100C00009093FA03C90108958091F9039091FA0332
:100C1000891B990B0895CF92DF92EF92FF920F9369
:100C20001F93CF93DF937C01CB018A012091850430
:100C3000222389F0EB016B01C40ED51ECC15DD0516
:100C400069F06991D701ED91FC910190F081E02D5F
:100C5000C7010995F3CF642F0E947B05C801DF917E
:100C6000CF911F910F91FF90EF90DF90CF9008955B
:100C7000CF93DF931F92CDB7DEB7698320918504B0
:100C80002223F9F020918204203258F021E030E054
:100C9000FC013383228390E080E00F90DF91CF91BD
:100CA000089580918304E82FF0E0EE59FB4F99817D
:100CB00090838F5F809383048093820481E090E02F
:100CC000ECCF61E0CE0101960E947B05F7CF682F43
:100CD00083E795E00C943806CF92DF92EF92FF9273
:100CE0000F931F93CF93C82F192F81E08093850412
:100CF00080E6809384041092830410928204613011
:100D000009F489C008F482C0623009F487C06330F6
:100D100009F487C0612F83E795E00E9438066C2FA5
:100D200083E795E00E943806C0918204C13208F042
:100D3000A0C00E949F046B017C0180915C04811122
:100D400073C082E080935C0481E080935B048FEF4A
:100D500080935A0410925904C0935804A2E6B4E058
:100D6000E8E3F4E080E0C81392C010923704809169
:100D70003704806C8093370480913604813009F009
:100D80008AC0109236040E949F046B017C018091FE
:100D900037048093BB0080915E0490915F04A09122
:100DA0006004B0916104892B8A2B8B2BA1F00E94E7
:100DB0009F0400915E0410915F04209160043091C3
:100DC00061046C197D098E099F090617170728070A
:100DD000390708F44AC08091BC0083FDD8CF85EC68
:100DE0008093BC000E949F046B017C0180915C0495
:100DF000823009F452C080915A048F3FD1F1809122
:100E00005A048032B1F180915A0433C080E490E0FA
:100E10000E9467067FCF82E490E0FACF84E490E0FE
:100E2000F7CF86E490E0F4CF80915E0490915F0468
:100E3000A0916004B0916104892B8A2B8B2B09F45B
:100E40007CCF0E949F0400915E0410915F0420916A
:100E50006004309161046C197D098E099F090617A1
:100E600017072807390708F068CF80915D040E94B2
:100E7000C005109283041092820410928504CF91D1
:100E80001F910F91FF90EF90DF90CF9008959D916B
:100E900091938F5F68CF85EEA3CF80915E04909190
:100EA0005F04A0916004B0916104892B8A2B8B2B85
:100EB00009F49CCF0E949F0400915E0410915F048E
:100EC00020916004309161046C197D098E099F099D
:100ED000061717072807390708F088CFC6CF90E014
:100EE00080E008952F923F924F925F926F927F928F
:100EF0008F929F92AF92BF92CF92DF92EF92FF922A
:100F00000F931F93CF93DF93EC01FC01EC57FF4F3E
:100F100080809180A280B38034964080518062802E
:100F2000738020E030E0A901C501B4010E94B9201E
:100F300081110AC020E030E040E85FE3C301B20164
:100F40000E94B920882389F11E0188E7280E311CF0
:100F50000FEF1FE06C857D8590E080E00E946621A8
:100F6000A30192010E941D22A50194010E944D201F
:100F70006B017C0120E030E0A9010E94182220E0F2
:100F800030E040E05FE387FD23C0C701B6010E9467
:100F90004D200E943021611580E17807F0F47D87B3
:100FA0006C8722962C163D06A9F6DF91CF911F91F2
:100FB0000F91FF90EF90DF90CF90BF90AF909F90F8
:100FC0008F907F906F905F904F903F902F900895FB
:100FD000C701B6010E944C20DCCF77FF03C01D86FD
:100FE0001C86DFCF1D870C87DCCFCF93DF93EC010E
:100FF000C257DF4F70E090E080E00E94662120E061
:1010000030EF4FE755E40E941D2220E030E04EEF24
:1010100052E40E94BE200E943721CB016881DF91FB
:10102000CF910C946C06CF92DF92EF92FF92CF9308
:10103000DF93EC016E817F81613080E27807C8F137
:1010400090E080E00E94662120E030E040E056E43D
:101050000E944C2020E038EF4FEF55E40E94BE2064
:101060006B017C016885798590E080E00E946621B3
:101070009B01AC01C701B6010E941D226B017C01DE
:1010800020E030E0A9010E94182220E030E040E09A
:101090005FE387FD27C0C701B6010E944D200E9473
:1010A0003021CB01DF91CF91FF90EF90DF90CF9077
:1010B0000895611580E27807D1F090E080E00E9409
:1010C000662120E030E040E056E40E944C2020E021
:1010D00030E040E059E30E941D226B017C016A85EB
:1010E0007B85C2CFC701B6010E944C20D8CF70E0EB
:1010F00060E0D7CFAF92BF92CF92DF92EF92FF9294
:101100000F931F93CF93DF93EC01AB809C01235788
:101110003F4F69016A1508F49AC0B12C9501255C0E
:101120003F4F062F10E0201731070CF490C06A8360
:101130006C8170E0C801860F971FF801EA19FB095E
:101140003696EE0FFF1FEC0FFD1FE080F180281791
:1011500039070CF05DC0072E000C880B990B0E941C
:10116000682120E030E848E852E40E941D220E94F5
:101170003721798768876D8170E0061B170B0A1588
:101180001B050CF054C0072E000C880B990B0E9415
:10119000682120E030E848E852E40E941D220E94C5
:1011A00037217B876A87CE010E941308E80EF91E5B
:1011B000FE01EE57FF4F808191818E159F052CF027
:1011C000C701F7FE02C090E080E0FE01E257FF4F4A
:1011D00060810E946C0661E0F60180810E944004FB
:1011E00081E08983FE01E457FF4F80818130A9F5BA
:1011F000C157DF4F61E08881DF91CF911F910F913F
:10120000FF90EF90DF90CF90BF90AF900C94400490
:10121000FC01EA19FB093696EE0FFF1FEC0FFD1FCC
:10122000808191818E199F0999878887A4CFF801C1
:10123000EA19FB093696EE0FFF1FEC0FFD1F8081A8
:101240009181F701E81BF90BFB87EA87ACCF60E0DF
:10125000F60180810E9440041982DF91CF911F9195
:101260000F91FF90EF90DF90CF90BF90AF900895D7
:10127000FF920F931F93CF93DF93082F10E0E801A5
:10128000C751D84F9C81992309F47DC090E9909F64
:10129000F001919FF00D1124E158FA4F91819923AB
:1012A00001F1980193E0220F331F9A95E1F7F0E0E6
:1012B000E0E0DF01A20FB31FA550BC4F9C91903816
:1012C00009F054C025503C4FE20FF31F90E9909F66
:1012D000D001919FB00D1124A158BA4F12969C9144
:1012E0009083F0902601688125E0F21245C08FE7D7
:1012F00095E00E947A0868818FE096E00E947A0863
:1013000068818FE996E00E947A0868818FE297E011
:101310000E947A088FEF8F0D8230A8F580E9809FB8
:10132000F001819FF00D1124E158FA4F10811F3F09
:1013300051F16C8570E090E080E00E94662120E031
:1013400030EF4FE755E40E941D2220E030E04EEFE1
:1013500052E40E94BE200E943721CB01612FDF9111
:10136000CF911F910F91FF900C946C063196E8304D
:10137000F10509F09ECFB5CF20E9829FC00111246D
:1013800081589A4FC5CFDF91CF911F910F91FF9058
:101390000895EF92FF920F931F93CF93DF93FC0179
:1013A00077836683C281E380CE1578F1F12CD0E09B
:1013B000C701CB968C179D0744F18F01CF010E9486
:1013C0001308CE19DF092696CC0FDD1FC00FD11FE1
:1013D00028813981280F391FF801EE57FF4F80818E
:1013E0009181821793072CF0C90137FF02C090E06A
:1013F00080E0F801E257FF4F6081DF91CF911F91AC
:101400000F91FF90EF900C946C06DF91CF911F919C
:101410000F91FF90EF900895CF93DF93EC01FC01C3
:10142000E357FF4F60E080810E9440041982DF9102
:10143000CF910895EBEFF3E080E88783868385837F
:1014400084838383828381838083389694E0EB3125
:10145000F90799F78FE795E00E940C0A8FE096E074
:101460000E940C0A8FE996E00E940C0A8FE297E036
:101470000C940C0AEF92FF920F931F93CF93DF937C
:10148000282F30E0F901E751F84F9085992309F4AE
:1014900046C0408190E9929FF001939FF00D112486
:1014A000E158FA4F9181992309F46CC09281941309
:1014B00069C0E90163E0CC0FDD1F6A95E1F777E0D1
:1014C000E72EF12CF701EC0FFD1FE550FC4F60817A
:1014D000603899F190912601953041F58FE795E0BC
:1014E0000E947A088E0105501C4F0E0D1F1DF80139
:1014F00060818FE096E00E947A08F80160818FE9B0
:1015000096E00E947A08F80160818FE297E00E94DD
:101510007A08C550DC4FCE0DDF1D80E88883DF914F
:10152000CF911F910F91FF90EF900895F0E98F9F59
:10153000C001112481589A4FEACF21E0E21AF10844
:1015400008F6909126019530B1F48FE795E00E945E
:101550000C0A8FE096E00E940C0A8FE996E00E9448
:101560000C0A8FE297E0DF91CF911F910F91FF90CE
:10157000EF900C940C0AE0E98E9FC0011124815871
:101580009A4FF1CFB90153E0660F771F5A95E1F7F3
:1015900090E080E0FC01E60FF71FE550FC4F508122
:1015A00054130DC043E0220F331F4A95E1F7255035
:1015B0003C4F820F931F20E8FC012083B0CF01969F
:1015C0008830910539F7ABCF0F931F93CF93DF93FB
:1015D000EC01288139813327F901EC5EFE4F8491BB
:1015E000F901EB50FF4F0491F901EA52FF4F1491BA
:1015F000112309F453C081110E94F403E12FF0E09C
:10160000EE0FFF1FE455FF4FA591B491EC910E230F
:1016100031E020E009F430E0832F922F2A813B81D2
:101620002817390779F02FB7F8944091ED035091BE
:10163000EE036091EF037091F0032FBF4E835F8341
:10164000688779872FB7F8944091ED035091EE03A6
:101650006091EF037091F0032FBF0E811F812885E9
:101660003985401B510B620B730B0A851B852C853A
:101670003D85041715072607370738F42C813D816F
:101680002817390711F09D838C839B838A838C8173
:101690009D81DF91CF911F910F91089590E080E09F
:1016A000BDCFCF92DF92EF92FF920F931F93CF9314
:1016B000DF93D62E082F10E0E801C751D84F7801EC
:1016C000EE0CFF1C67FD45C02091310830E0888991
:1016D00090E0AC0140575F4F2417350709F0B0C0C8
:1016E00068830E943D038C879881980174E0220FE3
:1016F000331F7A95E1F7882309F47AC0E92FF0E0E7
:1017000063E0F595E7956A95E1F7E20FF31FE65C74
:10171000F74F80819770282F30E0092E02C0359551
:1017200027950A94E2F720FD14C021E02C83D7010D
:10173000AE5CB74F2D913C9111972F5F3F4F2D938A
:101740003C9321E030E001C0220F9A95EAF7822B0A
:101750008083F701EE5CF74F80819181892B09F03E
:1017600095C081E089AFD7FC3AC0209131088889C3
:1017700090E080529F4F2817190689F481E08C8FE2
:101780000E943D03F801EE0FFF1FE350F84F50E8B1
:10179000859FC00111248D0D911D9183808320911F
:1017A0003108888990E080559F4F2817190659F411
:1017B000CC24C394C8A6D8A20E943D038CA388A1C0
:1017C0008B3709F465C020913108888990E08053F7
:1017D0009F4F2817190619F481E088ABDCA6DF912A
:1017E000CF911F910F91FF90EF90DF90CF900895D0
:1017F00081E08887E92FF0E053E0F595E7955A9569
:10180000E1F7E20FF31FE65CF74F977021E030E05D
:10181000A90102C0440F551F9A95E2F7CA018095AD
:10182000908189238083F701EE5CF74F808191815D
:10183000181619060CF08DCF01979183808389CFFC
:1018400080589F4F2817390709F083CF68830E947B
:101850003D0381E088878881E82FF0E023E0F5955B
:10186000E7952A95E1F7980144E0220F331F4A9546
:10187000E1F7E20FF31FE65CF74F282F277081E0B6
:1018800090E001C0880F2A95EAF7C9CF19AE6BCF57
:10189000F701EE5CF74F11821082C9AE84E0000FB1
:1018A000111F8A95E1F730E020E0F901E00FF11F08
:1018B000E65CF74F10822F5F3F4F20313105A9F7CB
:1018C00082CFFC0101900020E9F73197AF01481B5E
:1018D000590BBC0186ED94E00C94D3028F929F9239
:1018E000AF92BF920F931F93CF93DF93CDB7DEB725
:1018F000A1970FB6F894DEBF0FBECDBF19A242303C
:1019000008F44AE08E010F5D1F4F842E912CB12CFC
:10191000A12CA50194010E948F22E62FB901CA01D2
:10192000EA30F4F4E05DD801EE938D01232B242BF3
:10193000252B79F790E080E0109719F0CD010E94F7
:10194000610CA1960FB6F894DEBF0FBECDBFDF913C
:10195000CF911F910F91BF90AF909F908F9008955E
:10196000E95CE1CFCF92DF92EF92FF92CF93DF93CA
:101970006B017C016DE286ED94E00E948803EC012E
:1019800066277727CB016C197D098E099F094AE0EC
:101990000E946E0C8C0F9D1FDF91CF91FF90EF90F6
:1019A000DF90CF900895682F70E090E080E04AE0EB
:1019B0000C946E0CCF93DF93BC0190E080E04AE082
:1019C0000E946E0CEC018FE092E00E94610C8C0F83
:1019D0009D1FDF91CF9108950C94610C8F929F927F
:1019E000AF92BF92CF92DF92EF92FF921F93CF936D
:1019F000DF936B017C01AC019B010E948A2288234A
:101A0000B9F082E192E00E94610CEC018FE092E07B
:101A10000E94610C8C0F9D1FDF91CF911F91FF9051
:101A2000EF90DF90CF90BF90AF909F908F900895F0
:101A300046015701E894B7F82FEF3FEF4FE75FE714
:101A4000C501B4010E948A2281110DC02FEF3FEF22
:101A50004FE75FE7C501B4010E94B92018161CF4D6
:101A600086E192E0D0CF2FEF3FEF4FE75FE4C70171
:101A7000B6010E94182218161CF48AE192E0C3CF26
:101A80002FEF3FEF4FE75FECC701B6010E94B9208F
:101A900087FDF3CF20E030E0A901C701B6010E9425
:101AA000B920D0E0C0E087FF0AC06DE286ED94E087
:101AB0000E948803EC01F7FAF094F7F8F09426E11D
:101AC00037EB41E558E3C701B6010E944D206B0199
:101AD0007C010E9437214B015C010E9466219B0121
:101AE000AC01C701B6010E944C206B017C014AE0A9
:101AF000C501B4010E946E0CC80FD91F6EE286EDBD
:101B000094E00E948803C80FD91F15E0115009F412
:101B10007DCF20E030E040E251E4C701B6010E94F1
:101B20001D224B015C010E9437216B01F12CE12C3D
:101B30004AE0C701B6010E946E0CC80FD91FC70149
:101B4000B6010E9466219B01AC01C501B4010E944F
:101B50004C206B017C01DACFCF93DF930E94D30C32
:101B6000EC018FE092E00E94610C8C0F9D1FDF91D1
:101B7000CF910895CF93DF93BC01990F880B990BF8
:101B80004AE00E946E0CEC018FE092E00E94610C32
:101B90008C0F9D1FDF91CF910895CF93DF930E940B
:101BA000610CEC018FE092E00E94610C8C0F9D1F94
:101BB000DF91CF91089585ED8093BC0080915E0404
:101BC00090915F04A0916004B09161040796A11DFB
:101BD000B11D23E0B695A795979587952A95D1F7DE
:101BE0002091BC0024FD03C010925C040895409134
:101BF0005E0450915F046091600470916104452B14
:101C0000462B472B69F30097A105B10541F025E369
:101C10002A95F1F700000197A109B109E1CF809160
:101C20005D040C94C005FF920F931F93CF93DF9335
:101C3000EC01F62E08811981C8010E943620F816A1
:101C400021F06F2DC8010E943E20CE01DF91CF917F
:101C50001F910F91FF900895CF92DF92EF92FF9224
:101C60000F931F93CF93DF9300D0CDB7DEB76C01F6
:101C70007C0102E010E01A830983F70161917F0182
:101C8000CE0101960E94130E0F5F1F4F0232110505
:101C900091F7C6010F900F90DF91CF911F910F9197
:101CA000FF90EF90DF90CF900895CF92DF92EF9268
:101CB000FF920F931F93CF93DF9300D0CDB7DEB782
:101CC0006C017C0102E212E01A830983F701619141
:101CD0007F01CE0101960E94130E0F5F1F4F053248
:101CE000F2E01F0789F7C6010F900F90DF91CF91A7
:101CF0001F910F91FF90EF90DF90CF9008950F9379
:101D00001F93CF93DF9300D0CDB7DEB78C0185E270
:101D100092E09A838983F8016081CE0101960E9446
:101D2000130E86E292E09A838983F8016181CE01E5
:101D300001960E94130EC8010F900F90DF91CF9172
:101D40001F910F910895AF92BF92CF92DF92EF92C1
:101D5000FF920F931F93CF93DF9300D0CDB7DEB7E1
:101D60008B016B0128E7C20ED11C7B015C01A61A16
:101D7000B70AC5018E0D9F1D9A838983F701619172
:101D80007F01CE0101960E94130EEC14FD0489F729
:101D9000C8010F900F90DF91CF911F910F91FF908D
:101DA000EF90DF90CF90BF90AF9008950F931F9367
:101DB000CF93DF9300D0CDB7DEB78B019A838983B1
:101DC000FB016081CE0101960E94130EC8010F90A5
:101DD0000F90DF91CF911F910F910895CF92DF92D5
:101DE000EF92FF920F931F93CF93DF93EB017B0151
:101DF00028E7E20EF11C8B016C01C61AD70AC60156
:101E0000800F911F0E943620F80181938F01EE15FB
:101E1000FF05A9F7CE01DF91CF911F910F91FF90A0
:101E2000EF90DF90CF900895CF93DF93EB010E9466
:101E300036208883CE01DF91CF9108950F931F93B1
:101E4000CF93DF9369EF77E090E080E00E94140F7A
:101E500062E875E081E090E00E94140F62E176E0B4
:101E600081E090E00E94140F62EA76E081E090E069
:101E70000E94140F62E377E081E090E00E94140F6B
:101E800003E011E0C2E0D0E0CE010E943620F8016C
:101E900081938F012196C232D105B1F76BE875E0CD
:101EA00082E490E00E94EE0E6BE176E08AEB90E037
:101EB0000E94EE0E6BEA76E082E391E00E94EE0E65
:101EC0006BE377E08AEA91E00E94EE0E82E292E014
:101ED0000E9436208093230183E292E00E94362004
:101EE0008093240184E292E00E94362080932501B1
:101EF00085E292E00E9436208093010186E292E022
:101F00000E943620809302016EE174E087E292E045
:101F10000E94140F6AEF77E088E292E00E94140FAB
:101F20006BEF77E089E292E00E94140F6CEF77E0AC
:101F30008AE292E00E94140F60E071E08BE292E08E
:101F40000E94140F6FE174E08CE292E00E94140F83
:101F50009091010190938305809102018093840503
:101F600090931306809314069093A3068093A4067F
:101F7000909333078093340780910301909104017B
:101F8000A0910501B0910601809303069093040689
:101F9000A0930506B0930606809107019091080171
:101FA000A0910901B0910A01809307069093080659
:101FB000A0930906B0930A0680910B0190910C0141
:101FC000A0910D01B0910E01809393069093940619
:101FD000A0939506B093960680910F019091100101
:101FE000A0911101B09112018093970690939806E9
:101FF000A0939906B0939A068091130190911401D1
:10200000A0911501B09116018093230790932407A6
:10201000A0932507B093260780911701909118018E
:10202000A0911901B0911A01809327079093280776
:10203000A0932907B0932A0780911B0190911C015E
:10204000A0911D01B0911E018093B3079093B40736
:10205000A093B507B093B60780911F01909120011E
:10206000A0912101B09122018093B7079093B80706
:10207000A093B907B093BA078FE795E00E94720763
:102080008FE096E00E9472078FE996E00E94720747
:102090008FE297E00E94720780911E0480930B06E6
:1020A00080939B0680932B078093BB078091000150
:1020B000811103C088E18093000180910001809329
:1020C0001F088EE192E00E94EC0C82E00E94AC0DB1
:1020D0008EE192E00E94EC0C80E40E94AC0D86E25E
:1020E00092E00E94EC0C80911F040E94AC0D8CE2E7
:1020F00092E00E94EC0C809123010E94AC0D82E3DF
:1021000092E00E94EC0C809124010E94AC0D88E3C7
:1021100092E00E94EC0C809125010E94AC0D83E5B9
:1021200093E00E94EC0C809101010E94AC0D82E6CC
:1021300093E00E94EC0C809102010E94AC0D81E4BE
:1021400092E00E94EC0C8091F90790E001960E94C9
:10215000BA0D8EE392E00E94EC0C8091FA0790E0B9
:1021600001960E94BA0D86E492E00E94EC0C8091E8
:10217000FB0790E001960E94BA0D8EE492E00E9467
:10218000EC0C8091FC0790E001960E94BA0D86E568
:1021900092E00E94EC0C809182050E94D30C8AE2AE
:1021A00092E00E94EC0C809112060E94D30C8AE20D
:1021B00092E00E94EC0C8091A2060E94D30C8AE26D
:1021C00092E00E94EC0C809132070E94AC0D89E6EF
:1021D00092E00E94EC0C80911E040E94AC0D83E7FB
:1021E00092E00E94EC0C809100010E94AC0D8AE705
:1021F00092E00E94EC0C60910306709104068091BD
:102200000506909106060E94EE0C86E892E00E9478
:10221000EC0C609107067091080680910906909178
:102220000A060E94EE0C80E992E00E94EC0C60919C
:1022300093067091940680919506909196060E945F
:10224000EE0C8CE992E00E94EC0C60919706709184
:1022500098068091990690919A060E94EE0C86EA63
:1022600092E00E94EC0C609123077091240780910A
:102270002507909126070E94EE0C82EB92E00E94C7
:10228000EC0C6091270770912807809129079091A5
:102290002A070E94EE0C8CEB92E00E94EC0C6091FD
:1022A000B3077091B4078091B5079091B6070E946B
:1022B000EE0C88EC92E00E94EC0C6091B7077091F4
:1022C000B8078091B9079091BA070E94EE0CCBE84D
:1022D000D5E010E000E082ED92E00E94EC0C60910D
:1022E0008205600F712F711D072E000C880B990B52
:1022F0004AE00E946E0C8AE292E00E94EC0C699126
:10230000799190E080E04AE00E946E0C8AE292E0CF
:102310000E94EC0CFE01E257FF4F6081718190E05A
:1023200080E04AE00E946E0C8AE292E00E94EC0C8F
:10233000FE01E25EFE4F6081718190E080E04AE044
:102340000E946E0C8AE292E00E94EC0CFE01E255C3
:10235000FE4F808191810E94DA0C0F5F1F4F0C337A
:10236000110509F0B8CFDF91CF911F910F9108951A
:102370001F920F920FB60F9211248F939F9380910B
:10238000E1009091E100937F9093E10083FF0FC003
:102390001092E90091E09093EB001092EC0092E330
:1023A0009093ED001092350498E09093F00082FF36
:1023B00022C093E09093E9009091F200992319F0E4
:1023C0009AE39093E80090912604992341F090912C
:1023D0002604915090932604911101C05D9A90912A
:1023E0003404992341F09091340491509093340433
:1023F000911101C0289A84FF18C08091E2008E7E5E
:1024000081608093E2008091E1008F7E8093E10003
:10241000809127048E7E8061809327049F918F9105
:102420000F900FBE0F901F90189580FFF7CF8091EF
:10243000E2008E7E80618093E2008091E1008E7EDA
:102440008093E100809127048E7E8160E5CF1F920A
:102450000F920FB60F921124CF92DF92EF92FF925C
:102460000F931F932F933F934F935F936F937F939C
:102470008F939F93AF93BF93EF93FF93CF93DF938C
:10248000CDB7DEB76C97DEBFCDBF1092E90080916B
:10249000E80083FF25C068E0CE0145960E94C40293
:1024A00082EF8093E8008D8987FF39C09091E80022
:1024B00090FFFCCF982F907609F034C19E894F8908
:1024C000588D2F89F88C911131C0803861F5809139
:1024D00025048093F1001092F1008EEF8093E800C4
:1024E0006C960FB6F894DEBF0FBECDBFDF91CF91D3
:1024F000FF91EF91BF91AF919F918F917F916F91DC
:102500005F914F913F912F911F910F91FF90EF900D
:10251000DF90CF900F900FBE0F901F9018959EEFF9
:102520009093E800C7CF1092F100D5CF913059F4C5
:102530008111D3CF4130510581F6809125048D7FE3
:1025400080932504CACF933049F48111C6CF41301E
:10255000510519F6809125048260F2CF953041F43F
:102560008091E80080FFFCCF20682093E300B5CF86
:10257000963009F0A9C00B8D1C8D22E01092E90065
:102580001092230410922204F2122EC01092210401
:10259000109220040E9493021F8299E09983FA828C
:1025A00091E09E8390EA98879AEF99872091220480
:1025B00030912304275F3F4F3C832B838D83109200
:1025C000E900109223041092220410932104009336
:1025D000200449E050E0BE016F5F7F4F80E00E9421
:1025E0006D020E94930279CF10932104009320047E
:1025F0000E947701DC0112960D911C9101151105C5
:1026000009F451C1D801ED91FC910480F581E02DD0
:10261000BE016B5E7F4FC8010995009709F03EC16E
:10262000F80100851185EACFF3E0FF120EC08F8913
:10263000882309F440C0823061F440E861E183E915
:1026400091E00E943A02811148CF81E28093EB0031
:1026500047CF813029F440E867E08BE891E0F1CF83
:10266000833099F70E947701DC011296ED90FC907F
:102670008E010F5F1F4F6801E114F10479F0D7015B
:10268000ED91FC910680F781E02DB801C701099515
:10269000080F111DF701E084F184EECFD8011C92E0
:1026A000F60101900020E9F73197BF016C197D090F
:1026B00040E0C601C6CF65E771E0FB01449150E000
:1026C00080E80E946D0209CF973009F4BECF9830A0
:1026D00021F481E08093F10000CF993009F0FDCE24
:1026E000837009F0B2CFE3EDF1E081E031E096E3F1
:1026F0002191222371F08093E9003093EB00DF01F8
:1027000011972C912093EC009093ED008F5F873010
:1027100079F78EE78093EA001092EA008F89809320
:102720003504DBCE8B8D9C8D1092E9001092230432
:10273000109222049093210480932004898D8111AA
:1027400092C08E899D89913A49F4813209F07DCFFA
:1027500047E050E06BE271E080E0B3CF913209F0E6
:1027600074CF833269F48F89988DB0E0A0E08093B4
:10277000270190932801A0932901B0932A01ADCE9F
:10278000803269F48091E80082FFFCCF67E08BE241
:1027900091E00E94C4028BEF8093E8009ECE8232CB
:1027A00009F09BCE8F8980933201EEEFFFE7859190
:1027B00094918B3F9C4D51F1E0E0F8E080912B012A
:1027C00090912C01A0912D01B0912E01803B94405D
:1027D000A105B105F1F48091320180FD1AC0EE3FF0
:1027E0008AE0F80789F587E797E7918380838091EE
:1027F00060008093240488E19BE00FB6F894A895CC
:10280000809360000FBE9093600067CEEEEFFAE019
:10281000D5CF808191818737974709F05ECEA89503
:10282000809160008861809360008091240480938F
:102830006000EE3F2AE0F20789F08091FE0A909155
:10284000FF0A9183808349CE8081918187379807E1
:1028500051F29093FF0A8093FE0AC5CF1092FF0AAF
:102860001092FE0A3ACE0E947701DC0112960D9179
:102870001C910115110509F4E8CED801ED91FC91E8
:102880000190F081E02DBE016B5E7F4FC80109957C
:10289000811123CEF80100851185EBCF181619069A
:1028A0000CF41BCED2CEF1E0FF12BECE69E771E090
:1028B00004CF1F920F920FB60F9211242F933F93C4
:1028C0004F935F936F937F938F939F93AF93BF9338
:1028D000EF93FF9386ED94E00E946703FF91EF91E1
:1028E000BF91AF919F918F917F916F915F914F9128
:1028F0003F912F910F900FBE0F901F9018951F9230
:102900000F920FB60F9211242F938F939F93EF93F3
:10291000FF93E091E604F091E7048081E091EC04FC
:10292000F091ED0482FD1BC090818091EF048F5FD8
:102930008F732091F004821741F0E091EF04F0E0F2
:10294000EA52FB4F958F8093EF04FF91EF919F9197
:102950008F912F910F900FBE0F901F90189580812F
:10296000F4CF1F920F920FB60F9211242F933F9323
:102970008F939F93AF93BF938091ED039091EE035C
:10298000A091EF03B091F0033091EC0323E0230F0B
:102990002D3758F50196A11DB11D2093EC038093AE
:1029A000ED039093EE03A093EF03B093F0038091B7
:1029B000F1039091F203A091F303B091F403019617
:1029C000A11DB11D8093F1039093F203A093F30333
:1029D000B093F403BF91AF919F918F913F912F914D
:1029E0000F900FBE0F901F90189526E8230F0296A8
:1029F000A11DB11DD2CF1F920F920FB60F921124BD
:102A00002F933F934F935F936F937F938F939F93F6
:102A1000AF93BF93EF93FF938091B900887F803687
:102A200009F44AC0F0F5883209F4A7C018F58031DE
:102A300009F49BC0B8F4882309F4F9C0883009F47C
:102A400094C0FF91EF91BF91AF919F918F917F9132
:102A50006F915F914F913F912F910F900FBE0F900B
:102A60001F901895883109F488C0803251F78093FF
:102A70005A0414C0803409F49DC040F48033B9F383
:102A80008833F9F680935A0485ECB0C0803509F498
:102A900085C0883509F496C0883499F60E94DB0D0C
:102AA000D0CF883909F48CC038F5883729F050F434
:102AB000883611F0803729F683E080935C04109209
:102AC000EB0357C0883809F47BC0803919F080388F
:102AD00009F0B7CF8091EB03803208F071C0E0912C
:102AE000EB0381E08E0F8093EB038091BB00F0E05D
:102AF000E553FC4F80833DC0803B39F0E0F4803AE1
:102B000009F479C0883A09F09CCF84E080935C0492
:102B10001092CA031092C903E091F703F091F803F1
:102B200009958091C90381110FC081E08093C90389
:102B30001092A90309C0803C09F4A6CF883C09F48F
:102B4000A3CF883B09F07DCFE091CA0381E08E0FCF
:102B50008093CA03F0E0E755FC4F80818093BB006F
:102B60009091CA038091C90329C080913704809352
:102B7000BB0085EC8093BC0064CF90915904809198
:102B80005804981758F5E091590481E08E0F80930E
:102B90005904F0E0E85CFB4F8081E9CFE0915904F3
:102BA00081E08E0F809359048091BB00F0E0E85CD7
:102BB000FB4F808390915904809158049817C8F274
:102BC00085E8D8CFE091590481E08E0F80935904B5
:102BD0008091BB00F0E0E85CFB4F808380915B0458
:102BE00081115CCF81E08093360484EA8093BC003D
:102BF00010925C0426CF85EC8093BC0010925C049C
:102C00008091EB03803230F4E091EB03F0E0E55388
:102C1000FC4F10826091EB0370E0E091F503F091BE
:102C2000F6038BEC93E009951092EB030ACF109218
:102C30005A0434CF0F931F93CF93DF93EC01162FD9
:102C4000042F8FEF888319821A8284E28B831C827F
:102C50001D8280E090E29F838E83198618861B86F2
:102C60001A8688E7E3E3F1E0DE011C9601900D92FD
:102C70008A95E1F7FE01EC57FF4F10821182128214
:102C80001382349680E090E0A0E8BFE380839183D4
:102C9000A283B38334961082339686E0808361E00A
:102CA000812F0E946E04FE01E357FF4F1083C2572D
:102CB000DF4F0883DF91CF911F910F910895CF923D
:102CC000DF92EF92FF92109289041092880488EEAE
:102CD00093E0A0E0B0E080938A0490938B04A093EB
:102CE0008C04B0938D042DED31E030938704209354
:102CF00086042FEF3FEF30939304209392041092B9
:102D0000D9041092D8048093DA049093DB04A09342
:102D1000DC04B093DD042FEE31E03093D704209330
:102D2000D6042DEC30E03093E3042093E2042CEC45
:102D300030E03093E5042093E40428EC30E0309355
:102D4000E7042093E60429EC30E03093E904209373
:102D5000E8042AEC30E03093EB042093EA042EECF4
:102D600030E03093ED042093EC041092EF041092C5
:102D7000F0041092F1041092F20410927605109271
:102D800075058093770590937805A0937905B093A6
:102D90007A0581E092E0909374058093730588E151
:102DA00080931F08109221088091AB019091AC0193
:102DB000A091AD01B091AE018093220890932308B9
:102DC000A0932408B0932508109226081092270893
:102DD000109228081092290810922A0810923008A0
:102DE00010922F0889EE97E030E020E0F901EF5AC9
:102DF000FF4FE80FF91F10822F5F3F4F2031310541
:102E0000A9F7409628E08932920771F71092E107FE
:102E10001092E2071092E3071092E40760E089E065
:102E20000E946E0489E090E09093DC078093DB07BA
:102E300082E3C82ED12CE12CF12CC092E507D09270
:102E4000E607E092E707F092E8071092D3071092A6
:102E5000D4071092D5071092D60760E083E10E9454
:102E60006E0483E190E09093CE078093CD07C092EB
:102E7000D707D092D807E092D907F092DA071092DC
:102E8000C5071092C6071092C7071092C80760E0E6
:102E900084E10E946E0484E190E09093C0078093E7
:102EA000BF07C092C907D092CA07E092CB07F09241
:102EB000CC0740E068E08FE795E00E941A1641E0F9
:102EC00062E18FE096E00E941A1642E065E18FE928
:102ED00096E00E941A1643E066E18FE297E0FF90C9
:102EE000EF90DF90CF900C941A16CF93DF93CDB76D
:102EF000DEB7C55AD1090FB6F894DEBF0FBECDBFFD
:102F0000789484B5826084BD84B5816084BD85B5C4
:102F1000826085BD85B5816085BD80916E008160D0
:102F200080936E0010928100809181008260809376
:102F30008100809181008160809381008091800078
:102F400081608093800080919100826080939100E5
:102F500080919100816080939100809190008160C8
:102F6000809390008091C10084608093C100809123
:102F7000C10082608093C1008091C1008160809314
:102F8000C1008091C30081608093C3008091C00024
:102F900082608093C0008091C20081608093C200F3
:102FA00080917A00846080937A0080917A008260B8
:102FB00080937A0080917A00816080937A0080917A
:102FC0007A00806880937A0010923504109225046C
:102FD000109227048091D70081608093D70080EA07
:102FE0008093D80089B5806189BD89B5826089BD2B
:102FF00009B400FEFDCF61E070E080E090E00E9447
:10300000C4048091D8008F7C80618093D800809127
:10301000E000807F8093E0008091E1008E7E8093CD
:10302000E1008DE08093E200559A209AE091E60459
:10303000F091E70482E08083E091E204F091E30400
:103040001082E091E404F091E5048FE38083109214
:10305000EE04E091EA04F091EB0486E08083E091D5
:10306000E804F091E904808180618083E091E804C4
:10307000F091E904808188608083E091E804F09118
:10308000E904808180688083E091E804F091E9049C
:1030900080818F7D80831092FA031092F903109241
:1030A0008304109282040E94A20581ED92E0909325
:1030B000F8038093F70382ED92E09093F6038093F8
:1030C000F50361E086E00E946E0440E250E060E8B3
:1030D00070E08BEF93E00E94B7220E941E0F609079
:1030E000AF017090B0018090B1011092ED07109285
:1030F000EE071092EF071092F0071092F10710926E
:10310000F2071092F3071092F4071092050810923C
:1031100006081092070810920808109211081092E1
:1031200012081092130810921408109219081092A5
:103130001A0810921B0810921C0810922008109276
:103140001D0810921E0886ED94E00E9431031816A7
:10315000190664F486ED94E00E940F03182F80E8AE
:10316000810F883708F077C01093310880912601CD
:10317000813009F003C180E00E94380980E00E949C
:103180003A0A80910508882341F06091FD0770910B
:10319000FE078FE795E00E94C909809111088823F6
:1031A00061F080910908909123018913E1C0609139
:1031B0000D088FE297E00E94F50780911908882397
:1031C00031F0609115088FE996E00E94F507809133
:1031D0002208882309F425C280912308882309F452
:1031E00020C280912408882309F41BC280912508FD
:1031F000882309F416C280911E04813021F460E016
:1032000086E00E9440048BED97E00E94E40A209142
:103210001D042817190609F4F0C18FEB97E00E94EE
:10322000E40A8C018DEC97E00E94E40A7C018BEDAE
:1032300097E00E94E40A892B09F0EEC483E0EF28AE
:1032400021F486E0012B09F484E0809326018FEFBE
:1032500080937F05E9C4183F20F0812F0E94FE0073
:1032600085CF612F80E00E94510B612F81E00E9489
:10327000510B612F82E00E94510B612F83E00E946D
:10328000510B80913108803F09F070CF1F3769F4EE
:1032900086ED94E00E943103892BD1F386ED94E012
:1032A0000E940F03873FA1F761CF81E08093200840
:1032B00086ED94E00E943103892BD1F386ED94E0F2
:1032C0000E940F0380932608873F09F44FCF86EDB5
:1032D00094E00E943103892BD1F386ED94E00E94A3
:1032E0000F0380932708873F09F440CF86ED94E0D1
:1032F0000E943103892BD1F386ED94E00E940F03E5
:1033000080932808873F09F431CF86ED94E00E942E
:103310003103892BD1F386ED94E00E940F03809353
:103320002908873F09F422CF86ED94E00E943103FB
:10333000892BD1F386ED94E00E940F0380932A0835
:10334000873F09F413CF10E086ED94E00E9431032B
:10335000892BD1F386ED94E00E940F03873F09F497
:1033600005CFE12FF0E0E55DF74F80831F5FECCFE5
:103370008B3709F022CF0E941A0A1FCF823031F515
:1033800080E00E94380980E00E943A0A81E00E94B1
:10339000380981E00E943A0A80910508882341F0AB
:1033A0006091FD077091FE078FE795E00E94C909C3
:1033B00080910608882309F40ACF6091FF07709175
:1033C00000088FE096E00E94C90901CF833009F020
:1033D00046C080E00E94380980E00E943A0A81E0FD
:1033E0000E94380981E00E943A0A82E00E9438096E
:1033F00082E00E943A0A80910508882341F060919A
:10340000FD077091FE078FE795E00E94C909809142
:103410000608882341F06091FF07709100088FE053
:1034200096E00E94C90980910708882341F06091C5
:103430000108709102088FE996E00E94C909809105
:103440001108882309F4C3CE8091090890912301C3
:10345000891357C060910D088FE297E0B6CE843093
:1034600009F055C080E00E94380980E00E943A0AC5
:1034700081E00E94380981E00E943A0A82E00E94BD
:10348000380982E00E943A0A83E00E94380983E00A
:103490000E943A0A80910508882341F06091FD0757
:1034A0007091FE078FE795E00E94C9098091060898
:1034B000882341F06091FF07709100088FE096E04B
:1034C0000E94C90980910708882341F06091010892
:1034D000709102088FE996E00E94C909809108085E
:1034E000882341F060910308709104088FE297E00F
:1034F0000E94C90980911108882309F468CE80913F
:1035000009088B3709F063CE0E941A0A60CE853015
:1035100051F580E00E94380980E00E943A0A8091CB
:103520000508882309F453CE6091FD077091FE07CA
:103530008FE795E00E94C9096091FD077091FE0731
:103540008FE096E00E94C9096091FD077091FE0727
:103550008FE996E00E94C9096091FD077091FE070E
:103560008FE297E030CF80E00E94380980E00E942F
:103570003A0A80910508882341F06091FD07709117
:10358000FE078FE795E00E94C90980911108882302
:1035900009F41DCE8091090890911F04891308C079
:1035A000882331F060910D088FE795E00E94F507C0
:1035B0009091090880912301981306C060910D082D
:1035C0008FE096E00E94F507909109088091240110
:1035D000981306C060910D088FE996E00E94F507E8
:1035E0009091090880912501981389CF60910D0869
:1035F0008FE297E00E94F50782CF8DEC97E00E9462
:10360000E40A20911C042817190609F006CE8FEB56
:1036100097E00E94E40A20911B042817190609F07C
:10362000FCCD80910608882369F0809126018250A4
:10363000833040F46091FF07709100088FE096E0BE
:103640000E94C90980910708882369F080912601AA
:103650008350823040F460910108709102088FE934
:1036600096E00E94C90980910808882361F0809142
:103670002601843041F460910308709104088FE2C0
:1036800097E00E94C90980911D08882329F0809144
:103690001E0461E0882349F080911E08882341F0D0
:1036A00080911E04811104C060E086E00E94400405
:1036B00080912008882309F4CCC4809126088230A8
:1036C00009F0D9C080912708803409F0D4C08091D6
:1036D00029088F3F09F0CFC080912808853009F074
:1036E000CAC061E086E00E9440048CED92E00E9436
:1036F000CD0D10E000E060E0C8010E943E200F5FA9
:103700001F4F011524E01207B1F788E7E3E3F1E06A
:10371000DE01119601900D928A95E1F780E2E2EBCD
:10372000F1E0DE01A758BF4F01900D928A95E1F7B5
:10373000C756DF4F688279828A82C959D04082E0B9
:10374000C456DF4F8883CC59D040C356DF4F88839F
:10375000CD59D040CB55DF4F1882C55AD040CC55FB
:10376000DF4F1882C45AD04091E0CD55DF4F988387
:10377000C35AD040CE55DF4F8883C25AD04083E031
:10378000CF55DF4F8883C15AD04084E2C056DF4F07
:103790008883C05AD04088E1C156DF4F8883CF5913
:1037A000D040C256DF4F1882CE59D040BE016C5572
:1037B0007F4F90E080E00E94D60EBE0160567F4FA2
:1037C00081E090E00E94D60ECE0187589F4F0E9464
:1037D0002C0EBE016F5F7F4F82E490E00E94A30E2B
:1037E000BE016F5F7F4F8AEB90E00E94A30EBE0187
:1037F0006F5F7F4F82E391E00E94A30EBE016F5F77
:103800007F4F8AEA91E00E94A30ECE0187569F4F18
:103810000E94550ECE0184569F4F0E947F0EBE011E
:103820006B557F4F87E292E00E94D60EBE016D5528
:103830007F4F88E292E00E94D60EBE016E557F4F08
:1038400089E292E00E94D60EBE016F557F4F8AE258
:1038500092E00E94D60EBE0161567F4F8BE292E04D
:103860000E94D60EBE0162567F4F8CE292E00E940B
:10387000D60E0E941E0F80912608823041F580915D
:103880002708803441F5809129088F3121F58091F6
:103890002808853001F561E086E00E9440048091AF
:1038A0002A088111EDC16BE278E090E080E00E948F
:1038B000D60E80912B088093F9078AEE92E00E9441
:1038C000EC0C8091F90790E001960E94BA0D80916E
:1038D0002608823091F580912708803471F5809117
:1038E0002908803251F580912808853031F561E052
:1038F00086E00E94400480912B088093820580938B
:1039000012068093A2068093320762E875E081E098
:1039100090E00E94D60E86E592E00E94EC0C809129
:1039200082050E94AC0D64EF71E080E090E00E949F
:10393000C40460E086E00E94400480912608823042
:1039400009F07FC080912708803409F07AC0809107
:103950002908853109F075C080912808853009F063
:1039600070C061E086E00E94400400912A0888E06F
:10397000089F800111240D5F1E4F60912C08E0E824
:103980006E9FC001112460912B08680F792F711D63
:10399000072E000C880B990B0E94682120E030E074
:1039A0004AE754E40E944C20F801608371838283CB
:1039B000938383E091E00E942C0E20912A0830E04E
:1039C00010E9129FC001139F900D112481589A4F46
:1039D000DC01AC57BF4F73E0220F331F7A95E1F73C
:1039E000F901ED5FFE4F40815181628173814D93FA
:1039F0005D936D937C9313970E9472078EE093E022
:103A00000E94EC0C80912A080E94AC0D8DE792E098
:103A10000E94EC0CE0912A081E9FF0011124ED5F3A
:103A2000F94F60817181828193810E94EE0C64EF75
:103A300071E080E090E00E94C40460E086E00E94B3
:103A4000400480912608823009F07FC080912708C9
:103A5000803409F07AC080912908863109F075C058
:103A600080912808853009F070C061E086E00E94EE
:103A7000400400912A08F8E00F9F800111240D5F97
:103A80001E4F60912C0820E8629FC00111246091B4
:103A90002B08680F792F711D072E000C880B990BCE
:103AA0000E94682120E030E44CE156E40E94BE20F0
:103AB000F801648375838683978383E091E00E9495
:103AC0002C0E20912A0830E010E9129FC001139FAC
:103AD000900D112481589A4FDC01A857BF4F63E025
:103AE000220F331F6A95E1F7F901ED5FFE4F448124
:103AF0005581668177814D935D936D937C93139788
:103B00000E9472078EE093E00E94EC0C80912A08DC
:103B10000E94AC0D89E892E00E94EC0CE0912A082A
:103B20001E9FF0011124E95FF94F6081718182814C
:103B300093810E94EE0C64EF71E080E090E00E94BF
:103B4000C40460E086E00E94400480912608823030
:103B500009F007C180912708803449F58091290830
:103B6000873109F0EBC180912808853001F58091FB
:103B70002A08E091E907F0E98F9FD0011124A158AC
:103B8000BA4F13969C91E91BFF0B28E4829FE00D2E
:103B9000F11D1124EE0FFF1FE557FA4F808191812F
:103BA00020912B082111B4C00197918380838091CB
:103BB0002708803409F0DAC0809129088D3109F096
:103BC000D5C080912808853009F0D0C061E086E03A
:103BD0000E944004E0912A08E33009F07AC1809104
:103BE0002B0880931F046FE174E08CE292E00E9446
:103BF000D60E86E292E00E94EC0C80911F040E9497
:103C0000AC0D64EF71E080E090E00E94C40460E0DD
:103C100086E00E944004AAC0EF2839F181E0809339
:103C2000260180937F058FEF80930F068BED97E041
:103C30000E94E40A21E0892B09F420E020931D046E
:103C40008DEC97E00E94E40A21E0892B09F420E042
:103C500020931C048FEB97E00E94E40A21E0892B5B
:103C600009F420E020931B04DCCC85E0012B09F053
:103C7000ECCA82E08093260180937F0583E0D4CF55
:103C8000813089F46BE278E088E292E00E94D60EFF
:103C900080912B088093FA0787EE92E00E94EC0C4B
:103CA0008091FA0710CE823089F46BE278E089E2E5
:103CB00092E00E94D60E80912B088093FB0784EF40
:103CC00092E00E94EC0C8091FB07FDCD833009F05F
:103CD000FECD6BE278E08AE292E00E94D60E8091FF
:103CE0002B088093FC0781E093E00E94EC0C80910C
:103CF000FC0790E001960E94BA0D64EF71E080E04D
:103D000090E00E94C40460E086E00E944004DFCDA1
:103D100001964BCF813029F46BE176E08AEB90E09D
:103D20001DC1823029F46BEA76E082E391E016C18E
:103D3000833009F015C16BE377E08AEA91E00EC1A8
:103D400087010A33110509F021C18EE093E00E943A
:103D5000EC0C80912A080E94D30C89E393E00E9426
:103D6000CD0D80912608823009F421CF809126085C
:103D70008230E1F5809127088034C1F580912908CF
:103D80008E31A1F580912808853081F561E086E0CB
:103D90000E944004E0912A08F0E0EF5FFE4F80911E
:103DA0002B08808381E091E00E947F0E80912A0899
:103DB0008111B3C080910101809383058093130624
:103DC0008093A306809333078EE493E00E94EC0C6B
:103DD000809101010E94AC0D64EF71E080E090E001
:103DE0000E94C40460E086E00E944004809126089E
:103DF0008230B1F580912708803491F580912908AF
:103E0000813271F580912808853051F561E086E0B6
:103E10000E94400480912A0880931E046EE174E0A1
:103E200087E292E00E94D60E80911E0480930B06DA
:103E300080939B0680932B078093BB078EE693E0CD
:103E40000E94EC0C80911E040E94AC0D64EF71E0A6
:103E500080E090E00E94C40460E086E00E9440049C
:103E600080912608823009F0F4C0809127088034C0
:103E700009F0EFC080912908823209F0EAC08091F0
:103E80002808853009F0E5C061E086E00E94400422
:103E900080912A088093000160E071E08BE292E05B
:103EA0000E94D60E8091000180931F0880E893E065
:103EB0000E94EC0C809100010E94AC0D64EF71E057
:103EC00080E090E00E94C40460E086E00E9440042C
:103ED000C0C0E33008F095CEF0E0ED5DFE4F80917C
:103EE0002B08808383E291E00E94550E8CE292E0E1
:103EF0000E94EC0C809123010E94AC0D82E392E0C1
:103F00000E94EC0C809124010E94AC0D88E392E0A9
:103F10000E94EC0C8091250172CE80910201809369
:103F20008405809314068093A406809334078DE55E
:103F300093E00E94EC0C809102014CCF883109F093
:103F400036CE80912808853009F031CE80912A083C
:103F50008111E0CE6BE875E082E490E00E94A30E50
:103F60008EE093E00E94EC0C80912A080E94D30C12
:103F700086E193E00E94CD0DE0912A0880E9E89F58
:103F8000F0011124E557FA4F01E010E0828193819E
:103F9000680121E0C21AD10878012FEFE21AF20A73
:103FA0002081318132968217930730F0228133814C
:103FB0002817390708F0C4CE8DE193E00E94EC0C7D
:103FC000E0912A0880E9E89FF0011124E158FA4FB6
:103FD0008381800F912F911D0E94BA0D80912A0834
:103FE00098E4B92EF601B89EE00DF11D1124EE0FF4
:103FF000FF1FE557FA4F808191810E94DA0C809172
:104000002A08F801B89EE00DF11D1124EE0FFF1FE4
:10401000E557FA4F808191810E94DA0C80912A083D
:10402000F701B89EE00DF11D1124EE0FFF1FE557BB
:10403000FA4F808191810E94DA0C8EE093E00E9419
:10404000EC0C80912A080E94D30C84E293E00E9439
:10405000CD0D80E090E0892B09F447C80E945303FE
:10406000882309F442C80E9400003FC8F999FECF96
:1040700092BD81BDF89A992780B50895262FF999A8
:10408000FECF1FBA92BD81BD20BD0FB6F894FA9A3B
:10409000F99A0FBE019608955058BB27AA270E948F
:1040A00064200C94DE210E94D02138F00E94D72198
:1040B00020F039F49F3F19F426F40C94CD210EF42E
:1040C000E095E7FB0C94C721E92F0E94EF2158F3FC
:1040D000BA17620773078407950720F079F4A6F5ED
:1040E0000C9411220EF4E0950B2EBA2FA02D0B018B
:1040F000B90190010C01CA01A0011124FF27591B2D
:1041000099F0593F50F4503E68F11A16F040A22F32
:10411000232F342F4427585FF3CF469537952795A3
:10412000A795F0405395C9F77EF41F16BA0B620BA2
:10413000730B840BBAF09150A1F0FF0FBB1F661FE9
:10414000771F881FC2F70EC0BA0F621F731F841F2C
:1041500048F4879577956795B795F7959E3F08F052
:10416000B0CF9395880F08F09927EE0F9795879514
:1041700008950E94A32108F481E008950E94D220AE
:104180000C94DE210E94D72158F00E94D02140F0EB
:1041900029F45F3F29F00C94C72151110C9412228D
:1041A0000C94CD210E94EF2168F39923B1F355239C
:1041B00091F3951B550BBB27AA276217730784073A
:1041C00038F09F5F5F4F220F331F441FAA1FA9F3D0
:1041D00035D00E2E3AF0E0E832D091505040E695BE
:1041E000001CCAF72BD0FE2F29D0660F771F881F1F
:1041F000BB1F261737074807AB07B0E809F0BB0B12
:10420000802DBF01FF2793585F4F3AF09E3F510525
:1042100078F00C94C7210C9412225F3FE4F3983E8F
:10422000D4F3869577956795B795F7959F5FC9F70E
:10423000880F911D9695879597F90895E1E0660F8F
:10424000771F881FBB1F621773078407BA0720F008
:10425000621B730B840BBA0BEE1F88F7E095089571
:104260000E9437216894B1110C94122208950E9483
:10427000F72188F09F5798F0B92F9927B751B0F0E0
:10428000E1F0660F771F881F991F1AF0BA95C9F7DA
:1042900014C0B13091F00E941122B1E008950C9445
:1042A0001122672F782F8827B85F39F0B93FCCF3F8
:1042B000869577956795B395D9F73EF49095809557
:1042C000709561957F4F8F4F9F4F0895E89409C077
:1042D00097FB3EF490958095709561957F4F8F4F39
:1042E0009F4F9923A9F0F92F96E9BB279395F6954F
:1042F000879577956795B795F111F8CFFAF4BB0FCD
:1043000011F460FF1BC06F5F7F4F8F4F9F4F16C030
:10431000882311F096E911C0772321F09EE8872FBA
:10432000762F05C0662371F096E8862F70E060E076
:104330002AF09A95660F771F881FDAF7880F9695EF
:10434000879597F90895990F0008550FAA0BE0E893
:10435000FEEF16161706E807F907C0F01216130647
:10436000E407F50798F0621B730B840B950B39F487
:104370000A2661F0232B242B252B21F408950A26ED
:1043800009F4A140A6958FEF811D811D089597F92D
:104390009F6780E870E060E008959FEF80EC0895EB
:1043A00000240A9416161706180609060895002414
:1043B0000A9412161306140605060895092E03948E
:1043C000000C11F4882352F0BB0F40F4BF2B11F402
:1043D00060FF04C06F5F7F4F8F4F9F4F089557FD61
:1043E0009058440F551F59F05F3F71F04795880F63
:1043F00097FB991F61F09F3F79F0879508951216FA
:1044000013061406551FF2CF4695F1DF08C01616A5
:1044100017061806991FF1CF869571056105089456
:104420000895E894BB2766277727CB0197F908956D
:104430000E94A32108F48FEF08950E9430220C946B
:10444000DE210E94D02138F00E94D72120F0952350
:1044500011F00C94C7210C94CD2111240C9412223C
:104460000E94EF2170F3959FC1F3950F50E0551F07
:10447000629FF001729FBB27F00DB11D639FAA27B9
:10448000F00DB11DAA1F649F6627B00DA11D661F08
:10449000829F2227B00DA11D621F739FB00DA11D29
:1044A000621F839FA00D611D221F749F3327A00DE3
:1044B000611D231F849F600D211D822F762F6A2F7F
:1044C00011249F5750409AF0F1F088234AF0EE0FE4
:1044D000FF1FBB1F661F771F881F91505040A9F711
:1044E0009E3F510580F00C94C7210C9412225F3F2F
:1044F000E4F3983ED4F3869577956795B795F7954D
:10450000E7959F5FC1F7FE2B880F911D96958795C4
:1045100097F908950E94A321880B990B0895A1E2B1
:104520001A2EAA1BBB1BFD010DC0AA1FBB1FEE1F2D
:10453000FF1FA217B307E407F50720F0A21BB30B78
:10454000E40BF50B661F771F881F991F1A9469F7F4
:1045500060957095809590959B01AC01BD01CF0150
:104560000895EE0FFF1F0590F491E02D0994DC01F2
:1045700001C06D9341505040E0F70895F894FFCF8B
:10458000180202000000000000803F000000000050
:1045900000803F000000000000803F00000000009D
:1045A00000803F01474A04FFFFFFFF00E1000000D9
:1045B000000000000044008900CD00110155019A5F
:1045C00001DE0122026602AB02EF0233037703BC75
:1045D00003000444048804CD04110555059905DE43
:1045E0000522066606AA06EF0633077707BB070013
:1045F0000844088808CC08110955099909DD0922E1
:104600000A660AAA0AEE0A330B770BBB0BFF0B44B0
:104610000C880CCC0C100D550D990DDD0D210E667E
:104620000EAA0EEE0E320F770FBB0F010101010132
:10463000474A000000000000803F0000000000002A
:10464000803F000000000000803F000000000000EC
:10465000803F00C18081000000000000008B01F657
:1046600004AC01A101F201B001CE010000000088FC
:1046700003D3020003D40331030F0323030000001C
:104680000038060B066F07E1050406F105E2050D8B
:104690000A006E616E00696E66006F7666004D6698
:1046A0007249443A20004343303A20004343313AB0
:1046B00020004343323A20004343333A200056312E
:1046C0002043683A200056322043683A200056338F
:1046D0002043683A20004C6F77657374204D6964FD
:1046E00069204E6F74653A20004F722047617465EF
:1046F0003A20005070716E3A20005630204F6666A6
:104700007365743A20005630204761696E3A200084
:104710005631204F66667365743A20005631204743
:1047200061696E3A20005632204F66667365743AAE
:1047300020005632204761696E3A20005633204FE0
:1047400066667365743A20005633204761696E3A95
:1047500020004D6964694E756D3A200053657420E0
:10476000454550524F4D005631204368616E6E658D
:104770006C3A20005632204368616E6E656C3A20B8
:10478000005633204368616E6E656C3A2000566FA8
:104790006963653A2000205361766564004D696461
:1047A000693A200020566572696669636174696FB1
:1047B0006E204661696C65640020566572696669A1
:1047C000636174696F6E2050617373656400506932
:1047D00074636842656E642055703A2000506974B5
:1047E000636842656E6420446F776E3A20004F72B2
:1047F000204761746520456E61626C65643A2000F3
:084800007070716E3A20000097
:00000001FF
