:100000000C94D4000C94FC000C94FC000C94FC00A8
:100010000C94FC000C94FC000C94FC000C94FC0070
:100020000C94FC000C94FC000C9435110C94A4115D
:100030000C94FC000C94FC000C94FC000C94FC0050
:100040000C94FC000C94FC000C94FC000C94FC0040
:100050000C94FC000C94FC000C94FC000C942E14EA
:100060000C94FC000C94FC130C94D6130C94FC0020
:100070000C94FC000C94FC000C94FC000C94FC0010
:100080000C94FC000C94FC000C94FC000C94FC0000
:100090000C9478140C94FC000C94FC000C94FC0060
:1000A0000C94FC000C94FC000C94FC00000000007C
:1000B0002300260029002C002F000000000024004F
:1000C00027002A002D003000000000002500280035
:1000D0002B002E0031000404040404030405020272
:1000E00002020403020202020606060606060404D1
:1000F0000202020404040802011040804010204063
:10010000804080080204018040201002011080100D
:10011000204040200000000200090F0000030401FD
:10012000000C0000000000000000000000000000C3
:10013000000000080B000202020000090400000198
:10014000020200000524001001052401010104241D
:10015000020605240600010705810310004009047A
:100160000100020A00000007050202400000070526
:1001700083024000000403090412010002EF02019F
:1001800040D80498E8000101020301556E6B6E6FC0
:10019000776E004D696469566F6C747320446573A3
:1001A0006B746F700000DC1511241FBECFEFDAE016
:1001B000DEBFCDBF13E0A0E0B1E0EEE5F3E402C0A6
:1001C00005900D92A437B107D9F728E0A4E7B3E072
:1001D00001C01D92A432B207E1F710E0C4EDD0E0F7
:1001E00004C02197FE010E94A021C33DD107C9F799
:1001F0000E949C160C94AD210C940000FC0180918F
:100200002004882311F13FB7F89482E08093E9003D
:100210002091F200822F90E01816190614F481E064
:1002200090E0882339F0289844E640931F044091D9
:10023000F1004083222339F02091F200211103C004
:100240002BE62093E8003FBF08958FEF9FEF0895BE
:100250002FB7F89483E08093E9009091E800892F0C
:10026000807295FF04C09091F20080E4891B2FBF3B
:1002700008958091170481110DC082E080931304CA
:1002800084E080931404109216041092150481E007
:100290008093170483E194E00895CF93DF931F9236
:1002A000CDB7DEB76983DC01ED91FC910280F3816B
:1002B000E02D41E050E0BE016F5F7F4F09950F9048
:1002C000DF91CF91089583E08093E9008091F2005F
:1002D000882319F08AE38093E80008950E9428019A
:1002E00090E00895CF93DF931F92CDB7DEB7FC0166
:1002F0008485958597FD08C02FEF3FEF35872487CC
:100300000F90DF91CF910895CE0101960E94FE00DB
:10031000019719F4898190E0F3CF8FEF9FEFF0CF31
:100320000F931F93CF93DF931F92CDB7DEB78C014E
:10033000FC018485958597FF0BC0CE0101960E9434
:10034000FE00019771F4898190E0F8019587848718
:10035000F801848595850F90DF91CF911F910F91C2
:1003600008958FEF9FEFF1CFFC018485958597FD70
:100370000BC09FB7F89482E08093E9008091F2006F
:100380009FBF90E0019608959FB7F89482E0809314
:10039000E9008091F2009FBF90E0089540910D0424
:1003A00050910E0420910B0430910C044217530716
:1003B000B4F49091E8009570E1F39091E80092FD1B
:1003C00019C08093F10080910D0490910E04019664
:1003D0008F739927892B19F48EEF8093E800809111
:1003E0000D0490910E04019690930E0480930D04D9
:1003F00081E0089580E00895EF92FF920F931F939C
:10040000CF93DF93F82E192FE62E042F81E0860F6D
:10041000880F0E94CE0183E00E94CE01CF2DD12F04
:10042000EC0EFD2EF11CCE15DF05B9F007FF13C051
:10043000FE0184910E94CE01182F80E00E94CE011F
:10044000812321968111EFCFDF91CF911F910F91E1
:10045000FF90EF9008958881EDCF81E0F5CFDF9296
:10046000EF92FF920F931F93CF93DF93D82E8A01C1
:10047000EB017B01E40EF51ECE15DF0559F0D7FE2A
:1004800012C0FE0184910E94CE0121968111F4CF09
:100490000FEF1FEFC801DF91CF911F910F91FF90D8
:1004A000EF90DF9008958881EECF0F931F93CF9345
:1004B000DF931F92CDB7DEB782E0898342E450E03C
:1004C00063E371E080E80E942F020E943901DC01A1
:1004D00012960D911C910115110589F0D801ED912D
:1004E000FC910280F381E02DBE016F5F7F4FC80158
:1004F000099597FD04C0F80100851185ECCF89812D
:100500000F90DF91CF911F910F910895615030F0BE
:100510002091F100FC0120830196F8CF289884E611
:1005200080931F04089508950895AF92BF92CF92CB
:10053000DF92EF92FF920F931F93CF93DF936C01A3
:100540007B018B01040F151FEB015E01AE18BF0884
:10055000C017D10759F06991D601ED91FC91019036
:10056000F081E02DC6010995892B79F7C501DF914E
:10057000CF911F910F91FF90EF90DF90CF90BF90A0
:10058000AF900895FC01538D448D252F30E0842FCA
:1005900090E0821B930B541710F0CF9608950197AB
:1005A0000895FC01918D828D981761F0A28DAE0F98
:1005B000BF2FB11D5D968C91928D9F5F9F73928F1F
:1005C00090E008958FEF9FEF0895FC01918D828D4B
:1005D000981731F0828DE80FF11D858D90E0089518
:1005E0008FEF9FEF0895FC01918D228D892F90E070
:1005F000805C9F4F821B91098F7399270895CF923A
:10060000DF92FF920F931F93CF93DF93F62E082F65
:1006100010E0E801CC52D84F67FD28C020911B089C
:1006200030E0888990E0AC0140575F4F24173507D0
:1006300009F098C081EC94E00E94F302892BD1F379
:1006400081EC94E00E94D1028C87F801B496882353
:1006500009F47AC081E08C83EE0FFF1FEC52F84F53
:1006600080819181019691838083F882680184E280
:10067000C80ED11CF601EE0FFF1FEC52F84F80811F
:100680009181892B09F090C081E088AFF7FC54C0BC
:1006900020911B08888990E080529F4F28171906E7
:1006A000E1F481E08C8F81EC94E00E94F302892BCD
:1006B000D1F381EC94E00E94D102000F111FF801E8
:1006C000E851F84F9695982F8827979587958078C9
:1006D0009F778F0D911D9183808320911B088889BE
:1006E00090E080559F4F28171906D1F481E088A724
:1006F000F8A281EC94E00E94F302892BD1F381EC03
:1007000094E00E94D1028CA388A18B3749F4F601B2
:10071000EE0FFF1FEC52F84F1182108281E088AF7C
:1007200020911B08888990E080539F4F2817190655
:1007300019F481E088ABFCA6DF91CF911F910F9156
:10074000FF90DF90CF90089581E08887EE0FFF1F24
:10075000EC52F84F80819181181619060CF085CF64
:10076000019781CF80589F4F2817390709F07ECF16
:1007700081EC94E00E94F302892BD1F381EC94E0A8
:100780000E94D10281E08887F882F801EE0FFF1FF6
:10079000E45EF74F80819181181619060CF066CF40
:1007A00001979183808362CF18AE70CF81EC94E083
:1007B0000E94F30221E0892B09F420E0822F0895A2
:1007C00080E090E0892B29F00E94D60381110C94DF
:1007D00000000895FC01A48DA80FB92FB11DA35AE4
:1007E000BF4F2C91848D90E001968F739927848F51
:1007F000A689B7892C93A089B1898C9182748C9336
:10080000938D848D981306C00288F389E02D808132
:100810008F7D80830895EF92FF920F931F93CF9364
:10082000DF93EC0181E0888F9B8D8C8D981319C02C
:10083000E889F989808185FF14C09FB7F894EE8913
:10084000FF896083E889F9898081827480839FBFF2
:1008500081E090E0DF91CF911F910F91FF90EF9099
:100860000895F62E0B8D10E00F5F1F4F0F731127A9
:10087000E02E8C8D8E110CC00FB607FCFACFE889E4
:10088000F989808185FFF5CFCE010E94EA03F1CF7F
:10089000EB8DEC0FFD2FF11DE35AFF4FF0829FB758
:1008A000F8940B8FEA89FB8980818062CFCFCF9348
:1008B000DF93EC01888D8823B9F0AA89BB89E88988
:1008C000F9898C9185FD03C0808186FD0DC00FB62E
:1008D00007FCF7CF8C9185FFF2CF808185FFEDCFAC
:1008E000CE010E94EA03E9CFDF91CF9108958150B4
:1008F0008F3008F047C0E82FF0E0EF57FB4F0C9423
:10090000A0219E04A204900496049A04C204C20486
:10091000C204A504AB04AF04B304B904C204BD040B
:10092000809180008F77809380000895809180006F
:100930008F7DF9CF80918000877FF5CF84B58F7749
:1009400084BD089584B58F7DFBCF809190008F7713
:10095000809390000895809190008F7DF9CF8091D1
:100960009000877FF5CF8091C0008F778093C00083
:1009700008958091C0008F7DF9CF8091C200877F5C
:100980008093C20008951F93CF93DF93282F30E008
:10099000F901EC5EFE4F8491F901EB50FF4FD491C9
:1009A000F901EA52FF4FC491CC23A9F0162F81110F
:1009B0000E947704EC2FF0E0EE0FFF1FE853FF4F8B
:1009C000A591B4918FB7F894EC91111108C0D0950E
:1009D000DE23DC938FBFDF91CF911F910895DE2B33
:1009E000F8CFCF93DF9390E0FC01EB50FF4F2491C1
:1009F0008A529F4FFC0184918823D1F090E0880FA8
:100A0000991FFC01E654FF4FA591B491FC01E853F6
:100A1000FF4FC591D49161110EC09FB7F8948C918E
:100A2000E22FE0958E238C932881E223E8839FBFF9
:100A3000DF91CF9108958FB7F894EC91E22BEC936E
:100A40008FBFF6CF3FB7F8948091DD039091DE031E
:100A5000A091DF03B091E00326B5A89B05C02F3F0E
:100A600019F00196A11DB11D3FBFBA2FA92F982FD4
:100A70008827BC01CD01620F711D811D911D42E0CF
:100A8000660F771F881F991F4A95D1F708958F9297
:100A90009F92AF92BF92CF92DF92EF92FF924B0163
:100AA0005C010E9422056B017C010E9422056C19E9
:100AB0007D098E099F09683E734081059105A8F361
:100AC00021E0821A9108A108B10888EEC80E83E0DF
:100AD000D81EE11CF11C81149104A104B10429F772
:100AE000FF90EF90DF90CF90BF90AF909F908F904E
:100AF00008958F929F92AF92BF92CF92DF92EF9222
:100B0000FF920F931F93CF93DF936C017B018A01B8
:100B100080913101882309F45CC0809120048823EE
:100B200009F457C08091120480FF05C08091E00055
:100B300082608093E000E801B12C8AEFA82E93E058
:100B4000892E2AE3922E209711F4BB20D9F10E941E
:100B5000280181110AC0AA94AA20D9F161E070E0AD
:100B600080E090E00E944705EECF8C171D0611F043
:100B70000CF08C2F9FB7F8948092E9002091E80048
:100B800025FD02C09FBFDFCF282F30E0C21BD30B53
:100B9000F701815020F041914093F100FACFE20E2D
:100BA000F31EBB2021F09092E800B12CEBCF809196
:100BB000E80085FDE7CF9092E800BB24B39420972E
:100BC00009F3F3CF5D9884E68093110410161106A3
:100BD0003CF081E090E0F6019383828310E000E036
:100BE000C801DF91CF911F910F91FF90EF90DF909F
:100BF000CF90BF90AF909F908F9008952091B503B4
:100C0000260F3327331F21323105ECF4209147049E
:100C1000FC0190E080E0243069F082E00895A0912A
:100C2000B5032191AC014B565C4FA40FB52FB11DFC
:100C30002C930196861798F38091B503680F609303
:100C4000B50380E0089581E008951092470481E0A3
:100C5000809346041092210461E082E00E94C30464
:100C600061E083E00E94C304E9EBF0E080818E7FC5
:100C7000808380818D7F808388E48093B80085E4C1
:100C80008093BC000895CF93DF9391E090939403F9
:100C90008823B9F0C091B800D091BA008091BC000F
:100CA0008A7B8093BC0060E082E00E94C30460E025
:100CB00083E00E94C3040E942506D093BA00C0932B
:100CC000B800DF91CF9108950895E091E6038091F7
:100CD000E503E81730F4F0E0EC58FC4F808190E039
:100CE00008958FEF9FEF08959091E6038091E503BB
:100CF0002FEF3FEF981748F4E92FF0E0EC58FC4F46
:100D0000208130E09F5F9093E603C90108958091B0
:100D1000E5039091E603891B990B0895CF92DF922A
:100D2000EF92FF920F931F93CF93DF937C01CB0140
:100D30008A0120917004222389F0EB016B01C40E1B
:100D4000D51ECC15DD0569F06991D701ED91FC91B7
:100D50000190F081E02DC7010995F3CF642F0E9427
:100D6000FE05C801DF91CF911F910F91FF90EF9089
:100D7000DF90CF900895CF93DF931F92CDB7DEB76A
:100D80006983209170042223F9F020916D042032B0
:100D900058F021E030E0FC013383228390E080E0D2
:100DA0000F90DF91CF91089580916E04E82FF0E0CD
:100DB000E35BFB4F998190838F5F80936E048093F8
:100DC0006D0481E090E0ECCF61E0CE0101960E94DD
:100DD000FE05F7CF682F8EE595E00C94BB06CF9209
:100DE000DF92EF92FF920F931F93CF93C82F192F8B
:100DF00081E08093700480E680936F0410926E040B
:100E000010926D04613009F489C008F482C0623028
:100E100009F487C0633009F487C0612F8EE595E03F
:100E20000E94BB066C2F8EE595E00E94BB06C09128
:100E30006D04C13208F0A0C00E9422056B017C0144
:100E400080914704811173C082E08093470481E060
:100E5000809346048FEF8093450410924404C0931E
:100E60004304ADE4B4E0E3E2F4E080E0C81392C0F0
:100E70001092220480912204806C8093220480913D
:100E80002104813009F08AC0109221040E942205B9
:100E90006B017C01809122048093BB008091490406
:100EA00090914A04A0914B04B0914C04892B8A2B59
:100EB0008B2BA1F00E9422050091490410914A0455
:100EC00020914B0430914C046C197D098E099F09C7
:100ED000061717072807390708F44AC08091BC0095
:100EE00083FDD8CF85EC8093BC000E9422056B0166
:100EF0007C0180914704823009F452C080914504FE
:100F00008F3FD1F1809145048032B1F18091450449
:100F100033C080E490E00E94EA067FCF82E490E054
:100F2000FACF84E490E0F7CF86E490E0F4CF8091AC
:100F3000490490914A04A0914B04B0914C04892B30
:100F40008A2B8B2B09F47CCF0E9422050091490447
:100F500010914A0420914B0430914C046C197D0986
:100F60008E099F09061717072807390708F068CF69
:100F7000809148040E94430610926E0410926D0402
:100F800010927004CF911F910F91FF90EF90DF901E
:100F9000CF9008959D9191938F5F68CF85EEA3CFF9
:100FA0008091490490914A04A0914B04B0914C0463
:100FB000892B8A2B8B2B09F49CCF0E942205009150
:100FC000490410914A0420914B0430914C046C194F
:100FD0007D098E099F09061717072807390708F0AA
:100FE00088CFC6CF90E080E008952F923F924F9235
:100FF0005F926F927F928F929F92AF92BF92CF92A9
:10100000DF92EF92FF920F931F93CF93DF93EC0148
:10101000FC01EC57FF4F80809180A280B380349612
:10102000408051806280738020E030E0A901C501DA
:10103000B4010E94A81F81110AC020E030E040E8FE
:101040005FE3C301B2010E94A81F882389F11E013A
:1010500088E7280E311C0FEF1FE06C857D8590E03E
:1010600080E00E945520A30192010E940C21A5015D
:1010700094010E943C1F6B017C0120E030E0A9013B
:101080000E94072120E030E040E05FE387FD23C0BD
:10109000C701B6010E943C1F0E941F20611580E11C
:1010A0007807F0F47D876C8722962C163D06A9F60A
:1010B000DF91CF911F910F91FF90EF90DF90CF9034
:1010C000BF90AF909F908F907F906F905F904F9068
:1010D0003F902F900895C701B6010E943B1FDCCFBF
:1010E00077FF03C01D861C86DFCF1D870C87DCCFF2
:1010F000CF93DF93EC01C257DF4F70E090E080E0C8
:101100000E94552020E030EF4FE755E40E940C216B
:1011100020E030E04EEF52E40E94AD1F0E942620F6
:10112000CB016881DF91CF910C94EF06CF92DF92D3
:10113000EF92FF92CF93DF93EC016E817F8161305C
:1011400080E27807C8F190E080E00E94552020E01E
:1011500030E040E056E40E943B1F20E038EF4FEFC4
:1011600055E40E94AD1F6B017C016885798590E094
:1011700080E00E9455209B01AC01C701B6010E948E
:101180000C216B017C0120E030E0A9010E940721C5
:1011900020E030E040E05FE387FD27C0C701B601F3
:1011A0000E943C1F0E941F20CB01DF91CF91FF9036
:1011B000EF90DF90CF900895611580E27807D1F02D
:1011C00090E080E00E94552020E030E040E056E4CE
:1011D0000E943B1F20E030E040E059E30E940C21D8
:1011E0006B017C016A857B85C2CFC701B6010E9475
:1011F0003B1FD8CF70E060E0D7CFAF92BF92CF92C5
:10120000DF92EF92FF920F931F93CF93DF93EC0146
:10121000AB809C0123573F4F69016A1508F49AC0BF
:10122000B12C9501255C3F4F062F10E020173107A8
:101230000CF490C06A836C8170E0C801860F971F20
:10124000F801EA19FB093696EE0FFF1FEC0FFD1FA0
:10125000E080F180281739070CF05DC0072E000CE4
:10126000880B990B0E94572020E030E848E852E4B0
:101270000E940C210E942620798768876D8170E08A
:10128000061B170B0A151B050CF054C0072E000C8B
:10129000880B990B0E94572020E030E848E852E480
:1012A0000E940C210E9426207B876A87CE010E9423
:1012B0009608E80EF91EFE01EE57FF4F80819181DE
:1012C0008E159F052CF0C701F7FE02C090E080E06C
:1012D000FE01E257FF4F60810E94EF0661E0F601D8
:1012E00080810E94C30481E08983FE01E457FF4F9F
:1012F00080818130A9F5C157DF4F61E08881DF919E
:10130000CF911F910F91FF90EF90DF90CF90BF9002
:10131000AF900C94C304FC01EA19FB093696EE0F5A
:10132000FF1FEC0FFD1F808191818E199F09998706
:101330008887A4CFF801EA19FB093696EE0FFF1F44
:10134000EC0FFD1F80819181F701E81BF90BFB87F2
:10135000EA87ACCF60E0F60180810E94C304198265
:10136000DF91CF911F910F91FF90EF90DF90CF9081
:10137000BF90AF900895EF92FF920F931F93CF937A
:10138000DF93FC0177836683C281E380CE1578F119
:10139000F12CD0E0C701CB968C179D0744F18F014B
:1013A000CF010E949608CE19DF092696CC0FDD1FCB
:1013B000C00FD11F28813981280F391FF801EE573E
:1013C000FF4F80819181821793072CF0C90137FF6D
:1013D00002C090E080E0F801E257FF4F6081DF91AA
:1013E000CF911F910F91FF90EF900C94EF06DF913A
:1013F000CF911F910F91FF90EF900895CF93DF93BE
:10140000EC01FC01E357FF4F60E080810E94C304C0
:101410001982DF91CF910895E7EEF3E080E88783AA
:1014200086838583848383838283818380833896C4
:1014300094E0E730F90799F78AE695E00E94FE0903
:101440008AEF95E00E94FE098AE896E00E94FE0974
:101450008AE197E00C94FE090F931F93CF93DF93DB
:10146000EC01288139813327F901EC5EFE4F84912C
:10147000F901EB50FF4F0491F901EA52FF4F14912B
:10148000112309F453C081110E947704E12FF0E089
:10149000EE0FFF1FE455FF4FA591B491EC910E2381
:1014A00031E020E009F430E0832F922F2A813B8144
:1014B0002817390779F02FB7F8944091D903509144
:1014C000DA036091DB037091DC032FBF4E835F83EF
:1014D000688779872FB7F8944091D9035091DA0340
:1014E0006091DB037091DC032FBF0E811F81288583
:1014F0003985401B510B620B730B0A851B852C85AC
:101500003D85041715072607370738F42C813D81E0
:101510002817390711F09D838C839B838A838C81E4
:101520009D81DF91CF911F910F91089590E080E010
:10153000BDCFFC0101900020E9F73197AF01481BB6
:10154000590BBC0181EC94E00C9495028F929F9210
:10155000AF92BF920F931F93CF93DF93CDB7DEB7B8
:10156000A1970FB6F894DEBF0FBECDBF19A24230CF
:1015700008F44AE08E010F5D1F4F842E912CB12C90
:10158000A12CA50194010E947E21E62FB901CA0178
:10159000EA30F4F4E05DD801EE938D01232B242B87
:1015A000252B79F790E080E0109719F0CD010E948B
:1015B000990AA1960FB6F894DEBF0FBECDBFDF919A
:1015C000CF911F910F91BF90AF909F908F900895F2
:1015D000E95CE1CFCF92DF92EF92FF92CF93DF935E
:1015E0006B017C016DE281EC94E00E940B04EC0144
:1015F00066277727CB016C197D098E099F094AE080
:101600000E94A60A8C0F9D1FDF91CF91FF90EF9053
:10161000DF90CF9008950C94990ACF93DF930E94A6
:10162000990AEC018EE092E00E94990A8C0F9D1FAE
:10163000DF91CF910895682F70E090E080E04AE05C
:101640000C94A60ACF93DF930E941B0BEC018EE053
:1016500092E00E94990A8C0F9D1FDF91CF9108950F
:10166000CF92DF92EF92FF920F931F93CF93DF936E
:10167000EC01CC52D84F2885222309F455C07C01B7
:1016800081E192E00E940B0B88810E94220B28814D
:1016900080E98E9DF0018F9DF00D1124E659FA4FDF
:1016A0008281E70193E0CC0FDD1F9A95E1F72813C3
:1016B00079C087E0C82ED12CF601EC0FFD1FE9514F
:1016C000FC4F8081803809F443C087E192E00E949A
:1016D0000B0B8E0109511C4F0C0D1D1DF801808153
:1016E0000E94220B80912501853039F5F801608137
:1016F0008AE695E00E94FD08F80160818AEF95E096
:101700000E94FD08F80160818AE896E00E94FD08C9
:10171000F80160818AE197E00E94FD08C951DC4F21
:10172000CC0DDD1D80E88883DF91CF911F910F9153
:10173000FF90EF90DF90CF90089520E92E9DC0019B
:101740002F9D900D1124F801608186599A4FE4CFA6
:10175000F1E0CF1AD10808F0AFCF80912501853094
:10176000C1F48AE695E00E94FE098AEF95E00E94A6
:10177000FE098AE896E00E94FE098AE197E0DF917F
:10178000CF911F910F91FF90EF90DF90CF900C942D
:10179000FE0920E92E9DC0012F9D900D1124865930
:1017A0009A4FEDCF90E080E0FC01EC0FFD1FE95176
:1017B000FC4F3081231305C0C951DC4FC80FD91F1E
:1017C000B1CF01968830910579F7AECFAF92BF9235
:1017D000CF92DF92EF92FF920F931F93CF93DF93FD
:1017E000EC01CC52D84F2C81222309F49AC08C01F1
:1017F00080E9809FF001819FF00D1124E659FA4F96
:101800008181882369F1780183E0EE0CFF1C8A95C1
:10181000E1F7B12CA12CF501EE0DFF1DE951FC4FB4
:101820008081803809F06AC083E292E00E940B0B4D
:1018300020E9209FC001219F900D11249C01265971
:101840003A4F6901D90112968C910E94220BF7013F
:10185000E951FC4FEA0DFB1DD60112968C91808355
:1018600088810E94220BF0902501F5E0FF124FC005
:1018700068818AE695E00E94FD0868818AEF95E01C
:101880000E94FD0868818AE896E00E94FD08688150
:101890008AE197E00E94FD088FEF8F0D823008F0FB
:1018A00040C080E9809FF001819FF00D1124E6592E
:1018B000FA4F10811F3FA9F16C8570E090E080E045
:1018C0000E94552020E030EF4FE755E40E940C21A4
:1018D00020E030E04EEF52E40E94AD1F0E9426202F
:1018E000CB01612FDF91CF911F910F91FF90EF906E
:1018F000DF90CF90BF90AF900C94EF06BFEFAB1A84
:10190000BB0AE8E0AE16B10409F085CFA9CF20E903
:10191000209FC001219F900D1124688186599A4F04
:10192000B9CFDF91CF911F910F91FF90EF90DF9092
:10193000CF90BF90AF900895CF93DF93BC0190E01C
:1019400080E04AE00E94A60AEC018EE092E00E944C
:10195000990A8C0F9D1FDF91CF9108958F929F92CE
:10196000AF92BF92CF92DF92EF92FF921F93CF93ED
:10197000DF936B017C01AC019B010E9479218823DC
:10198000B9F08CE292E00E94990AEC018EE092E0BC
:101990000E94990A8C0F9D1FDF91CF911F91FF909C
:1019A000EF90DF90CF90BF90AF909F908F90089571
:1019B00046015701E894B7F82FEF3FEF4FE75FE795
:1019C000C501B4010E94792181110DC02FEF3FEFB5
:1019D0004FE75FE7C501B4010E94A81F18161CF469
:1019E00080E392E0D0CF2FEF3FEF4FE75FE4C701F6
:1019F000B6010E94072118161CF484E392E0C3CFBD
:101A00002FEF3FEF4FE75FECC701B6010E94A81F21
:101A100087FDF3CF20E030E0A901C701B6010E94A5
:101A2000A81FD0E0C0E087FF0AC06DE281EC94E01F
:101A30000E940B04EC01F7FAF094F7F8F09426E119
:101A400037EB41E558E3C701B6010E943C1F6B012B
:101A50007C010E9426204B015C010E9455209B01C5
:101A6000AC01C701B6010E943B1F6B017C014AE03B
:101A7000C501B4010E94A60AC80FD91F6EE281EC0D
:101A800094E00E940B04C80FD91F15E0115009F40F
:101A90007DCF20E030E040E251E4C701B6010E9472
:101AA0000C214B015C010E9426206B01F12CE12CE2
:101AB0004AE0C701B6010E94A60AC80FD91FC70194
:101AC000B6010E9455209B01AC01C501B4010E94E2
:101AD0003B1F6B017C01DACFCF93DF93BC01990FE1
:101AE000880B990B4AE00E94A60AEC018EE092E076
:101AF0000E94990A8C0F9D1FDF91CF91089585ED6B
:101B00008093BC008091490490914A04A0914B04B9
:101B1000B0914C040796A11DB11D23E0B695A79581
:101B2000979587952A95D1F72091BC0024FD03C095
:101B30001092470408954091490450914A046091DD
:101B40004B0470914C04452B462B472B69F30097AF
:101B5000A105B10541F025E32A95F1F700000197B1
:101B6000A109B109E1CF809148040C944306FF928A
:101B70000F931F93CF93DF93EC01F62E0881198109
:101B8000C8010E94251FF81621F06F2DC8010E9480
:101B90002D1FCE01DF91CF911F910F91FF900895DE
:101BA000CF92DF92EF92FF920F931F93CF93DF9329
:101BB00000D0CDB7DEB76C017C0102E010E01A83E3
:101BC0000983F70161917F01CE0101960E94B70D53
:101BD0000F5F1F4F0232110591F7C6010F900F9052
:101BE000DF91CF911F910F91FF90EF90DF90CF90F9
:101BF0000895CF92DF92EF92FF920F931F93CF93AE
:101C0000DF9300D0CDB7DEB76C017C0102E212E0B9
:101C10001A830983F70161917F01CE0101960E9429
:101C2000B70D0F5F1F4F0532F2E01F0789F7C6019E
:101C30000F900F90DF91CF911F910F91FF90EF9038
:101C4000DF90CF9008950F931F93CF93DF9300D031
:101C5000CDB7DEB78C0185E292E09A838983F801E3
:101C60006081CE0101960E94B70D86E292E09A83D0
:101C70008983F8016181CE0101960E94B70DC801E8
:101C80000F900F90DF91CF911F910F910895AF9218
:101C9000BF92CF92DF92EF92FF920F931F93CF9359
:101CA000DF9300D0CDB7DEB78B016B0128E7C20E02
:101CB000D11C7B015C01A61AB70AC5018E0D9F1DC0
:101CC0009A838983F70161917F01CE0101960E9479
:101CD000B70DEC14FD0489F7C8010F900F90DF9148
:101CE000CF911F910F91FF90EF90DF90CF90BF9019
:101CF000AF9008950F931F93CF93DF9300D0CDB78C
:101D0000DEB78B019A838983FB016081CE01019646
:101D10000E94B70DC8010F900F90DF91CF911F91D6
:101D20000F910895CF92DF92EF92FF920F931F933E
:101D3000CF93DF93EB017B0128E7E20EF11C8B01CF
:101D40006C01C61AD70AC601800F911F0E94251F79
:101D5000F80181938F01EE15FF05A9F7CE01DF9100
:101D6000CF911F910F91FF90EF90DF90CF9008954A
:101D7000CF93DF93EB010E94251F8883CE01DF9173
:101D8000CF9108950F931F93CF93DF9364EE77E085
:101D900090E080E00E94B80E6DE675E081E090E092
:101DA0000E94B80E6DEF75E081E090E00E94B80EE1
:101DB0006DE876E081E090E00E94B80E6DE177E09A
:101DC00081E090E00E94B80E02E011E0C2E0D0E0B5
:101DD000CE010E94251FF80181938F012196C23206
:101DE000D105B1F766E775E082E490E00E94920EBB
:101DF00066E076E08AEB90E00E94920E66E976E07B
:101E000082E391E00E94920E66E277E08AEA91E036
:101E10000E94920E82E292E00E94251F809322018E
:101E200083E292E00E94251F8093230184E292E0E6
:101E30000E94251F8093240185E292E00E94251FC5
:101E40008093000186E292E00E94251F80930101A9
:101E50006AE074E087E292E00E94B80E65EE77E0F7
:101E600088E292E00E94B80E66EE77E089E292E0A6
:101E70000E94B80E67EE77E08AE292E00E94B80E08
:101E80009091000190936E058091010180936F0500
:101E90009093FE058093FF0590938E0680938F06A6
:101EA00090931E0780931F07809102019091030178
:101EB000A0910401B09105018093EE059093EF0588
:101EC000A093F005B093F105809106019091070170
:101ED000A0910801B09109018093F2059093F30558
:101EE000A093F405B093F50580910A0190910B0140
:101EF000A0910C01B0910D0180937E0690937F0616
:101F0000A0938006B093810680910E0190910F01FD
:101F1000A0911001B09111018093820690938306E5
:101F2000A0938406B09385068091120190911301CD
:101F3000A0911401B091150180930E0790930F07A3
:101F4000A0931007B093110780911601909117018B
:101F5000A0911801B0911901809312079093130773
:101F6000A0931407B093150780911A0190911B015B
:101F7000A0911C01B0911D0180939E0790939F0733
:101F8000A093A007B093A10780911E0190911F011B
:101F9000A0912001B09121018093A2079093A30703
:101FA000A093A407B093A5078AE695E00E94F507E1
:101FB0008AEF95E00E94F5078AE896E00E94F5070F
:101FC0008AE197E00E94F50780910A048093F60564
:101FD00080938606809316078093A60788E392E095
:101FE0000E940B0B82E00E94220B88E392E00E9489
:101FF0000B0B80E40E94220B89E492E00E940B0B01
:10200000809122010E94220B8FE492E00E940B0B30
:10201000809123010E94220B85E592E00E940B0B28
:10202000809124010E94220B89E593E00E940B0B12
:10203000809100010E94220B88E693E00E940B0B26
:10204000809101010E94220B8EE592E00E940B0B11
:102050008091E40790E001960E946C0D8BE592E080
:102060000E940B0B8091E50790E001960E946C0D99
:1020700088E692E00E940B0B8091E60790E00196C3
:102080000E946C0D85E792E00E940B0B8091E707A0
:1020900090E001960E946C0D82E892E00E940B0B8A
:1020A00080916D050E941B0B8DE492E00E940B0B4A
:1020B0008091FD050E941B0B8DE492E00E940B0BAA
:1020C00080918D060E941B0B8DE492E00E940B0B09
:1020D00080911D070E94220B85E992E00E940B0B64
:1020E00080910A040E94220B87EA92E00E940B0B67
:1020F0006091EE057091EF058091F0059091F105EA
:102100000E94AE0C83EB92E00E940B0B6091F205F3
:102110007091F3058091F4059091F5050E94AE0C45
:102120008DEB92E00E940B0B60917E0670917F0612
:1021300080918006909181060E94AE0C89EC92E01D
:102140000E940B0B60918206709183068091840639
:10215000909185060E94AE0C83ED92E00E940B0BDD
:1021600060910E0770910F078091100790911107F1
:102170000E94AE0C8FED92E00E940B0B6091120753
:102180007091130780911407909115070E94AE0C6F
:1021900089EE92E00E940B0B60919E0770919F0761
:1021A0008091A0079091A1070E94AE0C85EF92E06C
:1021B0000E940B0B6091A2077091A3078091A40766
:1021C0009091A5070E94AE0CC6E7D5E010E000E0B4
:1021D0008FEF92E00E940B0B60916D05600F712FE5
:1021E000711D072E000C880B990B4AE00E94A60A6D
:1021F0008DE492E00E940B0B6991799190E080E070
:102200004AE00E94A60A8DE492E00E940B0BFE01B8
:10221000E257FF4F6081718190E080E04AE00E94C8
:10222000A60A8DE492E00E940B0BFE01E25EFE4FD7
:102230006081718190E080E04AE00E94A60A8DE40E
:1022400092E00E940B0BFE01E255FE4F80819181CE
:102250000E949C0C0F5F1F4F0C33110509F0B8CF83
:10226000DF91CF911F910F9108951F920F920FB69A
:102270000F9211248F939F938091E1009091E10040
:10228000937F9093E10083FF0FC01092E90091E0EB
:102290009093EB001092EC0092E39093ED0010927B
:1022A000200498E09093F00082FF22C093E0909386
:1022B000E9009091F200992319F09AE39093E800D5
:1022C00090911104992341F09091110491509093B1
:1022D0001104911101C05D9A90911F04992341F05E
:1022E00090911F04915090931F04911101C0289A5E
:1022F00084FF18C08091E2008E7E81608093E200AE
:102300008091E1008F7E8093E100809112048E7EA7
:102310008061809312049F918F910F900FBE0F9058
:102320001F90189580FFF7CF8091E2008E7E80612C
:102330008093E2008091E1008E7E8093E1008091A5
:1023400012048E7E8160E5CF1F920F920FB60F921E
:102350001124CF92DF92EF92FF920F931F932F934E
:102360003F934F935F936F937F938F939F93AF931D
:10237000BF93EF93FF93CF93DF93CDB7DEB76C9707
:10238000DEBFCDBF1092E9008091E80083FF25C039
:1023900068E0CE0145960E94860282EF8093E800B5
:1023A0008D8987FF39C09091E80090FFFCCF982F6E
:1023B000907609F034C19E894F89588D2F89F88C09
:1023C000911131C0803861F5809110048093F10043
:1023D0001092F1008EEF8093E8006C960FB6F8949F
:1023E000DEBF0FBECDBFDF91CF91FF91EF91BF91C7
:1023F000AF919F918F917F916F915F914F913F919D
:102400002F911F910F91FF90EF90DF90CF900F9041
:102410000FBE0F901F9018959EEF9093E800C7CFC6
:102420001092F100D5CF913059F48111D3CF4130C2
:10243000510581F6809110048D7F80931004CACFDE
:10244000933049F48111C6CF4130510519F680917E
:1024500010048260F2CF953041F48091E80080FF53
:10246000FCCF20682093E300B5CF963009F0A9C0D7
:102470000B8D1C8D22E01092E90010920E04109238
:102480000D04F2122EC010920C0410920B040E9444
:1024900055021F8299E09983FA8291E09E8390EA27
:1024A00098879AEF998720910D0430910E04275F49
:1024B0003F4F3C832B838D831092E90010920E04D2
:1024C00010920D0410930C0400930B0449E050E0AB
:1024D000BE016F5F7F4F80E00E942F020E94550275
:1024E00079CF10930C0400930B040E943901DC0196
:1024F00012960D911C910115110509F451C1D801D5
:10250000ED91FC910480F581E02DBE016B5E7F4F63
:10251000C8010995009709F03EC1F80100851185B1
:10252000EACFF3E0FF120EC08F89882309F440C080
:10253000823061F440E861E183E991E00E94FC01AE
:10254000811148CF81E28093EB0047CF813029F49D
:1025500040E867E08BE891E0F1CF833099F70E9483
:102560003901DC011296ED90FC908E010F5F1F4F38
:102570006801E114F10479F0D701ED91FC91068036
:10258000F781E02DB801C7010995080F111DF7016A
:10259000E084F184EECFD8011C92F6010190002076
:1025A000E9F73197BF016C197D0940E0C601C6CF3C
:1025B00065E771E0FB01449150E080E80E942F0242
:1025C00009CF973009F4BECF983021F481E0809391
:1025D000F10000CF993009F0FDCE837009F0B2CF41
:1025E000E2EDF1E081E031E096E32191222371F008
:1025F0008093E9003093EB00DF0111972C91209339
:10260000EC009093ED008F5F873079F78EE7809331
:10261000EA001092EA008F8980932004DBCE8B8D34
:102620009C8D1092E90010920E0410920D0490936C
:102630000C0480930B04898D811192C08E899D8931
:10264000913A49F4813209F07DCF47E050E06AE2E7
:1026500071E080E0B3CF913209F074CF833269F436
:102660008F89988DB0E0A0E0809326019093270198
:10267000A0932801B0932901ADCE803269F48091F6
:10268000E80082FFFCCF67E08AE291E00E948602C8
:102690008BEF8093E8009ECE823209F09BCE8F892B
:1026A00080933101EEEFFFE7859194918B3F9C4D34
:1026B00051F1E0E0F8E080912A0190912B01A09186
:1026C0002C01B0912D01803B9440A105B105F1F49E
:1026D0008091310180FD1AC0EE3F8AE0F80789F54C
:1026E00087E797E7918380838091600080930F0450
:1026F00088E19BE00FB6F894A895809360000FBE28
:102700009093600067CEEEEFFAE0D5CF80819181A3
:102710008737974709F05ECEA89580916000886161
:102720008093600080910F0480936000EE3F2AE068
:10273000F20789F08091FE0A9091FF0A91838083CD
:1027400049CE808191818737980751F29093FF0A93
:102750008093FE0AC5CF1092FF0A1092FE0A3ACE6D
:102760000E943901DC0112960D911C910115110591
:1027700009F4E8CED801ED91FC910190F081E02DB3
:10278000BE016B5E7F4FC8010995811123CEF80110
:1027900000851185EBCF181619060CF41BCED2CE8E
:1027A000F1E0FF12BECE69E771E004CF1F920F92F5
:1027B0000FB60F9211242F933F934F935F936F9314
:1027C0007F938F939F93AF93BF93EF93FF9381EC8E
:1027D00094E00E94EA03FF91EF91BF91AF919F9126
:1027E0008F917F916F915F914F913F912F910F90BA
:1027F0000FBE0F901F9018951F920F920FB60F9259
:1028000011242F938F939F93EF93FF93E091D10423
:10281000F091D2048081E091D704F091D80482FD38
:102820001BC090818091DA048F5F8F732091DB044D
:10283000821741F0E091DA04F0E0EF53FB4F958FFF
:102840008093DA04FF91EF919F918F912F910F90D8
:102850000FBE0F901F9018958081F4CF1F920F929A
:102860000FB60F9211242F933F938F939F93AF93A3
:10287000BF938091D9039091DA03A091DB03B091CB
:10288000DC033091D80323E0230F2D3758F5019650
:10289000A11DB11D2093D8038093D9039093DA032F
:1028A000A093DB03B093DC038091DD039091DE0302
:1028B000A091DF03B091E0030196A11DB11D8093AB
:1028C000DD039093DE03A093DF03B093E003BF9199
:1028D000AF919F918F913F912F910F900FBE0F90CD
:1028E0001F90189526E8230F0296A11DB11DD2CF87
:1028F0001F920F920FB60F9211242F933F934F9375
:102900005F936F937F938F939F93AF93BF93EF9357
:10291000FF938091B900887F803609F44AC0F0F5B2
:10292000883209F4A7C018F5803109F49BC0B8F4C7
:10293000882309F4F9C0883009F494C0FF91EF911D
:10294000BF91AF919F918F917F916F915F914F91C7
:102950003F912F910F900FBE0F901F9018958831C7
:1029600009F488C0803251F78093450414C0803444
:1029700009F49DC040F48033B9F38833F9F68093AD
:10298000450485ECB0C0803509F485C0883509F46C
:1029900096C0883499F60E947F0DD0CF883909F40B
:1029A0008CC038F5883729F050F4883611F080371C
:1029B00029F683E0809347041092D70357C08838E4
:1029C00009F47BC0803919F0803809F0B7CF8091C5
:1029D000D703803208F071C0E091D70381E08E0FF9
:1029E0008093D7038091BB00F0E0E954FC4F8083D3
:1029F0003DC0803B39F0E0F4803A09F479C0883A70
:102A000009F09CCF84E0809347041092B6031092A3
:102A1000B503E091E303F091E40309958091B503D8
:102A200081110FC081E08093B5031092950309C016
:102A3000803C09F4A6CF883C09F4A3CF883B09F079
:102A40007DCFE091B60381E08E0F8093B603F0E076
:102A5000EB56FC4F80818093BB009091B603809130
:102A6000B50329C0809122048093BB0085EC80933C
:102A7000BC0064CF9091440480914304981758F5AA
:102A8000E091440481E08E0F80934404F0E0ED5D1A
:102A9000FB4F8081E9CFE091440481E08E0F809369
:102AA00044048091BB00F0E0ED5DFB4F808390918A
:102AB0004404809143049817C8F285E8D8CFE09188
:102AC000440481E08E0F809344048091BB00F0E0C9
:102AD000ED5DFB4F80838091460481115CCF81E0E6
:102AE0008093210484EA8093BC001092470426CF8F
:102AF00085EC8093BC00109247048091D70380320C
:102B000030F4E091D703F0E0E954FC4F108260917B
:102B1000D70370E0E091E103F091E20387EB93E0EB
:102B200009951092D7030ACF1092450434CF0F9322
:102B30001F93CF93DF93EC01162F042F8FEF888321
:102B400019821A8284E28B831C821D8280E090E2CB
:102B50009F838E83198618861B861A8688E7E2E390
:102B6000F1E0DE011C9601900D928A95E1F7FE01DD
:102B7000EC57FF4F1082118212821382349680E04C
:102B800090E0A0E8BFE380839183A283B38334966F
:102B90001082339686E0808361E0812F0E94F104E9
:102BA000FE01E357FF4F1083C257DF4F0883DF91C9
:102BB000CF911F910F910895CF92DF92EF92FF92E4
:102BC000CF93DF93E1E7F4E01382128288EE93E083
:102BD000A0E0B0E084839583A683B7832CED31E039
:102BE000318320832FEF3FEF35872487E1ECF4E03A
:102BF0001382128284839583A683B7832EEE31E0FD
:102C0000318320832DEC30E0358724872CEC30E0B5
:102C10003787268728EC30E0318B208B29EC30E099
:102C2000338B228B2AEC30E0358B248B2EEC30E07A
:102C3000378B268B118E128E138E148EEEE5F5E0F7
:102C40001382128284839583A683B78380E092E007
:102C500091838083E4EDF7E017AA8091AA01909117
:102C6000AB01A091AC01B091AD0180AF91AFA2AF2B
:102C7000B3AF14AE15AE16AE17AE10921408109284
:102C80001A0810921908C6ECD7E01E821F82188617
:102C9000198660E089E00E94F10489E090E0998360
:102CA000888382E3C82ED12CE12CF12CCA86DB86E6
:102CB000EC86FD86C8EBD7E01E821F821886198637
:102CC00060E083E10E94F10483E190E099838883CE
:102CD000CA86DB86EC86FD86CAEAD7E01E821F82A2
:102CE0001886198660E084E10E94F10484E190E096
:102CF00099838883CA86DB86EC86FD8640E068E09F
:102D00008AE695E00E94971541E062E18AEF95E03E
:102D10000E94971542E065E18AE896E00E949715C7
:102D200043E066E18AE197E0DF91CF91FF90EF9079
:102D3000DF90CF900C949715CF93DF93CDB7DEB78C
:102D4000C35AD1090FB6F894DEBF0FBECDBF789439
:102D500084B5826084BD84B5816084BD85B58260A0
:102D600085BD85B5816085BD80916E008160809351
:102D70006E001092810080918100826080938100BA
:102D800080918100816080938100809180008160CA
:102D90008093800080919100826080939100809167
:102DA0009100816080939100809190008160809378
:102DB00090008091C10084608093C1008091C10027
:102DC00082608093C1008091C10081608093C100C6
:102DD0008091C30081608093C3008091C0008260B5
:102DE0008093C0008091C20081608093C200809176
:102DF0007A00846080937A0080917A008260809368
:102E00007A0080917A00816080937A0080917A00C4
:102E1000806880937A00109220041092100410921F
:102E200012048091D70081608093D70080EA80935C
:102E3000D80089B5806189BD89B5826089BD09B432
:102E400000FEFDCF61E070E080E090E00E94470569
:102E50008091D8008F7C80618093D8008091E000C1
:102E6000807F8093E0008091E1008E7E8093E1007E
:102E70008DE08093E200559A209AE091D104F09180
:102E8000D20482E08083E091CD04F091CE041082E0
:102E9000E091CF04F091D0048FE380831092D904A5
:102EA000E091D504F091D60486E08083E091D304CC
:102EB000F091D404808180618083E091D304F0910B
:102EC000D404808188608083E091D304F091D4049D
:102ED000808180688083E091D304F091D404808164
:102EE0008F7D80831092E6031092E50310926E04AA
:102EF00010926D040E94250683E992E09093E4030A
:102F00008093E30384E992E09093E2038093E103EA
:102F100061E086E00E94F10440E250E060E870E089
:102F200087EE93E00E94A6210E94C20E6090AE013F
:102F30007090AF018090B00144244394512CF0E094
:102F4000AF2EF0E0BF2E1092D8071092D907109242
:102F5000DA071092DB071092DC071092DD0710925F
:102F6000DE071092DF071092F0071092F10710921F
:102F7000F2071092F3071092FC071092FD071092CF
:102F8000FE071092FF071092040810920508109295
:102F900006081092070810920A081092080810926A
:102FA000090881EC94E00E94F3021816190644F512
:102FB00081EC94E00E94D102182F87FD80931B08BA
:102FC000612F80E00E94FF02612F81E00E94FF02DA
:102FD000612F82E00E94FF02612F83E00E94FF02C6
:102FE00080911B0896E0980F923008F080C081E035
:102FF0008093080880930B0850921A084092190891
:103000008091250190E0813009F009C180E00E94A3
:10301000E60B90E080E00E94300B8091F00788235F
:1030200041F06091E8077091E9078AE695E00E9417
:10303000BB098091FC07882361F08091F40790918F
:1030400022018913E6C06091F8078AE197E00E94A7
:10305000780880910408882331F0609100088AE89C
:1030600096E00E94780880910C08882309F42DC20C
:1030700080910D08882309F428C280910E088823C6
:1030800009F423C280910F08882309F41EC280919D
:103090000A04813021F460E086E00E94C30486ECDB
:1030A00097E00E942C0A209109042817190609F4B8
:1030B000F8C18AEA97E00E942C0A8C0188EB97E01D
:1030C0000E942C0A7C0186EC97E00E942C0A892B36
:1030D00009F0EAC483E0EF2821F486E0012B09F42B
:1030E00084E0809325018FEF80936A05E5C48C3FCF
:1030F00031F410920B0881E08093090881CF883F5A
:1031000019F580910B08882309F47ACF809119086A
:1031100090911A08009749F421E02093080801963D
:1031200090931A08809319086BCF8B30910521F486
:1031300021E020930908F3CF8731910581F71092A0
:103140001A08109219085CCF803F09F059CF81E02E
:1031500080930A0881EC94E00E94F302892BD1F35A
:1031600081EC94E00E94D10281EC94E00E94F30291
:10317000892BD1F381EC94E00E94D1028093100856
:1031800081EC94E00E94F302892BD1F381EC94E06E
:103190000E94D1028093110881EC94E00E94F30216
:1031A000892BD1F381EC94E00E94D1028093120824
:1031B00081EC94E00E94F302892BD1F381EC94E03E
:1031C0000E94D1028093130881EC94E00E94F302E4
:1031D000892BD1F381EC94E00E94D10280931408F2
:1031E00000E0173F09F40CCF81EC94E00E94F30259
:1031F000892BD1F381EC94E00E94D102182F873FF4
:1032000009F4FECEE02FF0E0EB5EF74F80830F5F16
:10321000E8CF8B3709F01DCF0E940C0A1ACF8230FD
:1032200049F580E00E94E60B90E080E00E94300BC0
:1032300081E090E00E94E60B81E090E00E94300B7C
:103240008091F007882341F06091E8077091E907C9
:103250008AE695E00E94BB098091F107882309F472
:1032600002CF6091EA077091EB078AEF95E00E9428
:10327000BB09F9CE833009F04BC080E00E94E60B19
:1032800090E080E00E94300B81E090E00E94E60B2D
:1032900081E090E00E94300B82E090E00E94E60B1B
:1032A00082E090E00E94300B8091F007882341F08B
:1032B0006091E8077091E9078AE695E00E94BB09F2
:1032C0008091F107882341F06091EA077091EB0744
:1032D0008AEF95E00E94BB098091F207882341F0B4
:1032E0006091EC077091ED078AE896E00E94BB09B7
:1032F0008091FC07882309F4B6CE8091F407909161
:10330000220189135EC06091F8078AE197E0A9CE97
:10331000843009F05CC080E00E94E60B90E080E021
:103320000E94300B81E090E00E94E60B81E090E08B
:103330000E94300B82E090E00E94E60B82E090E079
:103340000E94300B83E090E00E94E60B83E090E067
:103350000E94300B8091F007882341F06091E807CC
:103360007091E9078AE695E00E94BB098091F10718
:10337000882341F06091EA077091EB078AEF95E0AE
:103380000E94BB098091F207882341F06091EC070D
:103390007091ED078AE896E00E94BB098091F307DF
:1033A000882341F06091EE077091EF078AE197E082
:1033B0000E94BB098091FC07882309F454CE8091B8
:1033C000F4078B3709F04FCE0E940C0A4CCE8530A3
:1033D00059F580E00E94E60B90E080E00E94300BFF
:1033E0008091F007882309F43ECE6091E807709140
:1033F000E9078AE695E00E94BB096091E8077091B1
:10340000E9078AEF95E00E94BB096091E807709197
:10341000E9078AE896E00E94BB096091E80770918D
:10342000E9078AE197E023CF80E00E94E60B90E075
:1034300080E00E94300B8091F007882341F060917A
:10344000E8077091E9078AE695E00E94BB09809140
:10345000FC07882309F407CE9091F407809122019C
:10346000981306C06091F8078AEF95E00E947808EB
:103470009091F40780912301981306C06091F8079A
:103480008AE896E00E9478089091F40780912401E0
:10349000981395CF6091F8078AE197E00E94780829
:1034A0008ECF88EB97E00E942C0A20910804281701
:1034B000190609F0FECD8AEA97E00E942C0A2091B5
:1034C00007042817190609F0F4CD8091F107882325
:1034D00069F0809125018250833040F46091EA07C1
:1034E0007091EB078AEF95E00E94BB098091F2078B
:1034F000882369F0809125018350823040F46091E7
:10350000EC077091ED078AE896E00E94BB09809174
:10351000F307882361F080912501843041F46091A4
:10352000EE077091EF078AE197E00E94BB09809156
:103530000808882329F080910A0461E0882349F073
:1035400080910908882341F080910A04811104C008
:1035500060E086E00E94C30480910A08882309F491
:1035600068C480911008823009F0C0C080911108B1
:10357000803409F0BBC0809113088F3F09F0B6C0BA
:1035800080911208853009F0B1C061E086E00E94A8
:10359000C30489E093E00E940D0B10E000E060E0BE
:1035A000C8010E942D1F0F5F1F4F011524E0120755
:1035B000B1F788E7E2E3F1E0DE01119601900D92A8
:1035C0008A95E1F780E2E1EBF1E0DE01A758BF4F19
:1035D00001900D928A95E1F7C756DF4F6882798294
:1035E0008A82C959D04082E0C456DF4F8883CC59C3
:1035F000D040C356DF4F8883CD59D040CD55DF4FE3
:103600001882C35AD040CE55DF4F1882C25AD040DC
:1036100091E0CF55DF4F9883C15AD040C056DF4F5D
:103620008883C05AD04083E0C156DF4F8883CF598A
:10363000D04084E2C256DF4F8883CE59D040BE01CD
:103640006E557F4F90E080E00E947A0EBE01625678
:103650007F4F81E090E00E947A0ECE0187589F4F05
:103660000E94D00DBE016F5F7F4F82E490E00E9408
:10367000470EBE016F5F7F4F8AEB90E00E94470EBE
:10368000BE016F5F7F4F82E391E00E94470EBE0153
:103690006F5F7F4F8AEA91E00E94470ECE01875606
:1036A0009F4F0E94F90DCE0184569F4F0E94230E1A
:1036B000BE016D557F4F87E292E00E947A0EBE01F7
:1036C0006F557F4F88E292E00E947A0EBE016056ED
:1036D0007F4F89E292E00E947A0EBE0161567F4FD1
:1036E0008AE292E00E947A0E0E94C20E8091100837
:1036F000823041F580911108803441F580911308A2
:103700008F3121F580911208853001F561E086E066
:103710000E94C304809114088111FAC165E178E028
:1037200090E080E00E947A0E809115088093E40773
:103730008EE592E00E940B0B8091E40790E00196E9
:103740000E946C0D80911008823091F580911108D3
:10375000803471F580911308803251F58091120800
:10376000853031F561E086E00E94C3048091150840
:1037700080936D058093FD0580938D0680931D07D2
:103780006DE675E081E090E00E947A0E82E892E0BA
:103790000E940B0B80916D050E94220B64EF71E07B
:1037A00080E090E00E94470560E086E00E94C3044C
:1037B00080911008823009F07FC080911108803418
:1037C00009F07AC080911308853109F075C08091A5
:1037D0001208853009F070C061E086E00E94C304E1
:1037E0000091140888E0089F800111240E5F1E4F8D
:1037F00060911608E0E86E9FC001112460911508E1
:10380000680F792F711D072E000C880B990B0E94F1
:10381000572020E030E04AE754E40E943B1FF801C3
:10382000608371838283938382E091E00E94D00D54
:103830002091140830E010E9129FC001139F900DF1
:10384000112486599A4FDC01AC57BF4F73E0220F09
:10385000331F7A95E1F7F901EE5FFE4F4081518108
:10386000628173814D935D936D937C9313970E9456
:10387000F50784E193E00E940B0B809114080E94ED
:10388000220B8AEA92E00E940B0BE09114081E9F23
:10389000F0011124E251FA4F60817181828193819C
:1038A0000E94AE0C64EF71E080E090E00E9447055A
:1038B00060E086E00E94C30480911008823009F025
:1038C0007FC080911108803409F07AC0809113087C
:1038D000863109F075C080911208853009F070C0FA
:1038E00061E086E00E94C30400911408F8E00F9F95
:1038F000800111240E5F1E4F6091160820E8629F20
:10390000C001112460911508680F792F711D072ED1
:10391000000C880B990B0E94572020E030E44CE10A
:1039200056E40E94AD1FF8016483758386839783F4
:1039300082E091E00E94D00D2091140830E010E95F
:10394000129FC001139F900D112486599A4FDC01DC
:10395000A857BF4F63E0220F331F6A95E1F7F901C3
:10396000EE5FFE4F44815581668177814D935D9373
:103970006D937C9313970E94F50784E193E00E9476
:103980000B0B809114080E94220B86EB92E00E94A0
:103990000B0BE09114081E9FF0011124EE50FA4F1A
:1039A00060817181828193810E94AE0C64EF71E02D
:1039B00080E090E00E94470560E086E00E94C3043A
:1039C00080911008823009F014C180911108803470
:1039D00049F580911308873109F0A0C18091120840
:1039E000853001F580911408E091D407F0E98F9FAC
:1039F000D0011124A659BA4F13969C91E91BFF0BD5
:103A000028E4829FE00DF11D1124EE0FFF1FEA58FC
:103A1000FA4F80819181209115082111C1C0019731
:103A20009183808380911108803409F0E7C08091F0
:103A300013088D3109F0E2C080911208853009F039
:103A4000DDC061E086E00E94C304E0911408F0E06C
:103A5000EE5DFE4F80911508808382E291E00E9426
:103A6000F90D89E492E00E940B0B809122010E94E3
:103A7000220B8FE492E00E940B0B809123010E94A5
:103A8000220B85E592E00E940B0B809124010E949D
:103A9000220B64EF71E080E090E00E94470560E057
:103AA00086E00E94C304AAC0EF2839F181E0809328
:103AB000250180936A058FEF8093FA0586EC97E0E5
:103AC0000E942C0A21E0892B09F420E020930904AC
:103AD00088EB97E00E942C0A21E0892B09F420E072
:103AE000209308048AEA97E00E942C0A21E0892B9F
:103AF00009F420E020930704E8CC85E0012B09F0CD
:103B0000F0CA82E08093250180936A0583E0D4CFD8
:103B1000813089F465E178E088E292E00E947A0ED3
:103B2000809115088093E5078BE592E00E940B0BCE
:103B30008091E50703CE823089F465E178E089E27F
:103B400092E00E947A0E809115088093E60788E63D
:103B500092E00E940B0B8091E607F0CD833009F0D4
:103B6000F1CD65E178E08AE292E00E947A0E8091E0
:103B700015088093E70785E792E00E940B0B809180
:103B8000E70790E001960E946C0D64EF71E080E021
:103B900090E00E94470560E086E00E94C304D2CD19
:103BA00001963ECF813029F466E076E08AEB90E022
:103BB000C5C0823029F466E976E082E391E0BEC0B8
:103BC000833009F0BDC066E277E08AEA91E0B6C0D2
:103BD00087010A33110509F0C9C084E193E00E940E
:103BE0000B0B809114080E941B0B8FE393E00E9443
:103BF0000D0B80911008823009F414CF80911008C9
:103C00008230E1F5809111088034C1F5809113086C
:103C10008E31A1F580911208853081F561E086E052
:103C20000E94C304E0911408F0E0E050FF4F80913F
:103C30001508808380E091E00E94230E8091140893
:103C400081115BC08091000180936E058093FE0519
:103C500080938E0680931E0784E593E00E940B0BF1
:103C6000809100010E94220B64EF71E080E090E0FF
:103C70000E94470560E086E00E94C304809110081E
:103C8000823009F0D6C080911108803409F0D1C08B
:103C900080911308813209F0CCC0809112088530E0
:103CA00009F0C7C061E086E00E94C3048091140857
:103CB00080930A046AE074E087E292E00E947A0E40
:103CC00080910A048093F6058093860680931607F8
:103CD0008093A60785E992E00E940B0B80910A046D
:103CE0000E94220B64EF71E080E090E00E944705A3
:103CF00060E086E00E94C3049CC080910101809333
:103D00006F058093FF0580938F0680931F0783E6DE
:103D100093E00E940B0B80910101A4CF883109F040
:103D200081CE80911208853009F07CCE80911408F4
:103D3000811138CF66E775E082E490E00E94470E7B
:103D400084E193E00E940B0B809114080E941B0BEE
:103D50008CE193E00E940D0BE091140880E9E89F4C
:103D6000F0011124EA58FA4F01E010E082819381BA
:103D7000680121E0C21AD10878012FEFE21AF20A95
:103D80002081318132968217930730F0228133816E
:103D90002817390708F01CCF83E293E00E940B0B31
:103DA000E091140880E9E89FF0011124E659FA4FE8
:103DB0008381800F912F911D0E946C0D80911408BA
:103DC00098E4992EF601989EE00DF11D1124EE0F56
:103DD000FF1FEA58FA4F808191810E949C0C8091CC
:103DE0001408F801989EE00DF11D1124EE0FFF1F3D
:103DF000EA58FA4F808191810E949C0C80911408AE
:103E0000F701989EE00DF11D1124EE0FFF1FEA58F7
:103E1000FA4F808191810E949C0C84E193E00E9482
:103E20000B0B809114080E941B0B8AE293E00E9406
:103E30000D0BA114B10409F486C80E94D60388238F
:103E400009F47AC80E94000077C8F999FECF92BDA4
:103E500081BDF89A992780B50895262FF999FECF4C
:103E60001FBA92BD81BD20BD0FB6F894FA9AF99A97
:103E70000FBE019608955058BB27AA270E94531FD2
:103E80000C94CD200E94BF2038F00E94C62020F064
:103E900039F49F3F19F426F40C94BC200EF4E095FD
:103EA000E7FB0C94B620E92F0E94DE2058F3BA17E6
:103EB000620773078407950720F079F4A6F50C9440
:103EC00000210EF4E0950B2EBA2FA02D0B01B901A5
:103ED00090010C01CA01A0011124FF27591B99F080
:103EE000593F50F4503E68F11A16F040A22F232F8C
:103EF000342F4427585FF3CF469537952795A795DC
:103F0000F0405395C9F77EF41F16BA0B620B730B82
:103F1000840BBAF09150A1F0FF0FBB1F661F771FF3
:103F2000881FC2F70EC0BA0F621F731F841F48F4A8
:103F3000879577956795B795F7959E3F08F0B0CF31
:103F40009395880F08F09927EE0F97958795089518
:103F50000E94922008F481E008950E94C11F0C94F1
:103F6000CD200E94C62058F00E94BF2040F029F4C6
:103F70005F3F29F00C94B62051110C9401210C9450
:103F8000BC200E94DE2068F39923B1F3552391F3FE
:103F9000951B550BBB27AA2762177307840738F0B8
:103FA0009F5F5F4F220F331F441FAA1FA9F335D015
:103FB0000E2E3AF0E0E832D091505040E695001CC9
:103FC000CAF72BD0FE2F29D0660F771F881FBB1F83
:103FD000261737074807AB07B0E809F0BB0B802D61
:103FE000BF01FF2793585F4F3AF09E3F510578F08D
:103FF0000C94B6200C9401215F3FE4F3983ED4F377
:10400000869577956795B795F7959F5FC9F7880F60
:10401000911D9695879597F90895E1E0660F771FB2
:10402000881FBB1F621773078407BA0720F0621B43
:10403000730B840BBA0BEE1F88F7E09508950E946E
:1040400026206894B1110C94012108950E94E62065
:1040500088F09F5798F0B92F9927B751B0F0E1F049
:10406000660F771F881F991F1AF0BA95C9F714C0F9
:10407000B13091F00E940021B1E008950C9400212C
:10408000672F782F8827B85F39F0B93FCCF3869532
:1040900077956795B395D9F73EF49095809570958F
:1040A00061957F4F8F4F9F4F0895E89409C097FB0C
:1040B0003EF490958095709561957F4F8F4F9F4FFF
:1040C0009923A9F0F92F96E9BB279395F695879543
:1040D00077956795B795F111F8CFFAF4BB0F11F406
:1040E00060FF1BC06F5F7F4F8F4F9F4F16C08823AD
:1040F00011F096E911C0772321F09EE8872F762FE3
:1041000005C0662371F096E8862F70E060E02AF023
:104110009A95660F771F881FDAF7880F969587950F
:1041200097F90895990F0008550FAA0BE0E8FEEFE4
:1041300016161706E807F907C0F012161306E4076B
:10414000F50798F0621B730B840B950B39F40A2664
:1041500061F0232B242B252B21F408950A2609F442
:10416000A140A6958FEF811D811D089597F99F6746
:1041700080E870E060E008959FEF80EC08950024EF
:104180000A941616170618060906089500240A94BC
:1041900012161306140605060895092E0394000C42
:1041A00011F4882352F0BB0F40F4BF2B11F460FFD1
:1041B00004C06F5F7F4F8F4F9F4F089557FD9058FA
:1041C000440F551F59F05F3F71F04795880F97FBDB
:1041D000991F61F09F3F79F0879508951216130695
:1041E0001406551FF2CF4695F1DF08C016161706C4
:1041F0001806991FF1CF86957105610508940895F9
:10420000E894BB2766277727CB0197F908950E948A
:10421000922008F48FEF08950E941F210C94CD2066
:104220000E94BF2038F00E94C62020F0952311F094
:104230000C94B6200C94BC2011240C9401210E94F3
:10424000DE2070F3959FC1F3950F50E0551F629FDC
:10425000F001729FBB27F00DB11D639FAA27F00DDF
:10426000B11DAA1F649F6627B00DA11D661F829F06
:104270002227B00DA11D621F739FB00DA11D621FEB
:10428000839FA00D611D221F749F3327A00D611D08
:10429000231F849F600D211D822F762F6A2F1124EA
:1042A0009F5750409AF0F1F088234AF0EE0FFF1F1D
:1042B000BB1F661F771F881F91505040A9F79E3F74
:1042C000510580F00C94B6200C9401215F3FE4F37B
:1042D000983ED4F3869577956795B795F795E795CA
:1042E0009F5FC1F7FE2B880F911D9695879597F9D3
:1042F00008950E949220880B990B0895A1E21A2E2E
:10430000AA1BBB1BFD010DC0AA1FBB1FEE1FFF1F79
:10431000A217B307E407F50720F0A21BB30BE40BC9
:10432000F50B661F771F881F991F1A9469F7609510
:104330007095809590959B01AC01BD01CF010895CA
:10434000EE0FFF1F0590F491E02D0994DC0101C0F0
:0E4350006D9341505040E0F70895F894FFCF70
:10435E000202000000000000803F0000000000008C
:10436E00803F000000000000803F000000000000C1
:10437E00803F01474A04FFFFFFFF00E100000000FD
:10438E000000000044008900CD00110155019A0182
:10439E00DE0122026602AB02EF0233037703BC0397
:1043AE00000444048804CD04110555059905DE0565
:1043BE0022066606AA06EF0633077707BB07000834
:1043CE0044088808CC08110955099909DD09220A03
:1043DE00660AAA0AEE0A330B770BBB0BFF0B440CD3
:1043EE00880CCC0C100D550D990DDD0D210E660EA1
:1043FE00AA0EEE0E320F770FBB0F0101010101471E
:10440E004A000000000000803F0000000000008015
:10441E003F000000000000803F0000000000008010
:10442E003F00C18081000000000000004D017905B1
:10443E006E016301B40172019001000000000B04D3
:10444E009502C2025704F302D102E50200000000F9
:10445E00BB068E06F20764068706740665060D0A0D
:10446E00006F66663A2000756E75736564206F6E18
:10447E003A2000756E757365643A20006E616E00A9
:10448E00696E66006F7666004D616E756661637467
:10449E007572657249443A20004343313A20004315
:1044AE0043323A20004343333A20005631204368CA
:1044BE00616E6E656C3A20005632204368616E6EF6
:1044CE00656C3A20005633204368616E6E656C3A17
:1044DE0020004C6F77657374204D696469204E6FB0
:1044EE0074653A20004F72204761746520456E61F5
:1044FE00626C65643A20005630204F6666736574B0
:10450E003A20005630204761696E3A20005631201D
:10451E004F66667365743A20005631204761696EA6
:10452E003A20005632204F66667365743A20005664
:10453E0032204761696E3A20005633204F6666730B
:10454E0065743A20005633204761696E3A20004D5B
:10455E006964694E756D3A20005365742045455067
:10456E00524F4D00566F6963653A200020536176B5
:10457E006564004D6964693A20002056657269666B
:10458E0069636174696F6E204661696C65640020B1
:10459E00566572696669636174696F6E20506173E6
:1045AE0073656400506974636842656E642055706B
:1045BE003A2000506974636842656E6420446F77D8
:0445CE006E3A200021
:00000001FF
