:100000000C94D4000C94FC000C94FC000C94FC00A8
:100010000C94FC000C94FC000C94FC000C94FC0070
:100020000C94FC000C94FC000C944C110C94BB112F
:100030000C94FC000C94FC000C94FC000C94FC0050
:100040000C94FC000C94FC000C94FC000C94FC0040
:100050000C94FC000C94FC000C94FC000C944514D3
:100060000C94FC000C9413140C94ED130C94FC00F1
:100070000C94FC000C94FC000C94FC000C94FC0010
:100080000C94FC000C94FC000C94FC000C94FC0000
:100090000C948F140C94FC000C94FC000C94FC0049
:1000A0000C94FC000C94FC000C94FC00000000007C
:1000B0002300260029002C002F000000000024004F
:1000C00027002A002D003000000000002500280035
:1000D0002B002E0031000404040404030405020272
:1000E00002020403020202020606060606060404D1
:1000F0000202020404040802011040804010204063
:10010000804080080204018040201002011080100D
:10011000204040200000000200090F0000030401FD
:10012000000C0000000000000000000000000000C3
:10013000000000080B000202020000090400000198
:10014000020200000524001001052401010104241D
:10015000020605240600010705810310004009047A
:100160000100020A00000007050202400000070526
:1001700083024000000403090412010002EF02019F
:1001800040D80498E8000101020301556E6B6E6FC0
:10019000776E004D696469566F6C747320446573A3
:1001A0006B746F700000F31511241FBECFEFDAE0FF
:1001B000DEBFCDBF13E0A0E0B1E0E0E6F4E402C0B2
:1001C00005900D92AC37B107D9F728E0ACE7B3E062
:1001D00001C01D92AD32B207E1F710E0C4EDD0E0EE
:1001E00004C02197FE010E942122C33DD107C9F717
:1001F0000E94B6160C942E220C940000FC018091F3
:100200002804882311F13FB7F89482E08093E90035
:100210002091F200822F90E01816190614F481E064
:1002200090E0882339F0289844E6409327044091D1
:10023000F1004083222339F02091F200211103C004
:100240002BE62093E8003FBF08958FEF9FEF0895BE
:100250002FB7F89483E08093E9009091E800892F0C
:10026000807295FF04C09091F20080E4891B2FBF3B
:10027000089580911F0481110DC082E080931B04BA
:1002800084E080931C0410921E0410921D0481E0EF
:1002900080931F048BE194E00895CF93DF931F9226
:1002A000CDB7DEB76983DC01ED91FC910280F3816B
:1002B000E02D41E050E0BE016F5F7F4F09950F9048
:1002C000DF91CF91089583E08093E9008091F2005F
:1002D000882319F08AE38093E80008950E9428019A
:1002E00090E00895CF93DF931F92CDB7DEB7FC0166
:1002F0008485958597FD08C02FEF3FEF35872487CC
:100300000F90DF91CF910895CE0101960E94FE00DB
:10031000019719F4898190E0F3CF8FEF9FEFF0CF31
:100320000F931F93CF93DF931F92CDB7DEB78C014E
:10033000FC018485958597FF0BC0CE0101960E9434
:10034000FE00019771F4898190E0F8019587848718
:10035000F801848595850F90DF91CF911F910F91C2
:1003600008958FEF9FEFF1CFFC018485958597FD70
:100370000BC09FB7F89482E08093E9008091F2006F
:100380009FBF90E0019608959FB7F89482E0809314
:10039000E9008091F2009FBF90E00895409115041C
:1003A00050911604209113043091140442175307FE
:1003B000B4F49091E8009570E1F39091E80092FD1B
:1003C00019C08093F1008091150490911604019654
:1003D0008F739927892B19F48EEF8093E800809111
:1003E00015049091160401969093160480931504B9
:1003F00081E0089580E00895EF92FF920F931F939C
:10040000CF93DF93F82E192FE62E042F81E0860F6D
:10041000880F0E94CE0183E00E94CE01CF2DD12F04
:10042000EC0EFD2EF11CCE15DF05B9F007FF13C051
:10043000FE0184910E94CE01182F80E00E94CE011F
:10044000812321968111EFCFDF91CF911F910F91E1
:10045000FF90EF9008958881EDCF81E0F5CFDF9296
:10046000EF92FF920F931F93CF93DF93D82E8A01C1
:10047000EB017B01E40EF51ECE15DF0559F0D7FE2A
:1004800012C0FE0184910E94CE0121968111F4CF09
:100490000FEF1FEFC801DF91CF911F910F91FF90D8
:1004A000EF90DF9008958881EECF0F931F93CF9345
:1004B000DF931F92CDB7DEB782E0898342E450E03C
:1004C00063E371E080E80E942F020E943901DC01A1
:1004D00012960D911C910115110589F0D801ED912D
:1004E000FC910280F381E02DBE016F5F7F4FC80158
:1004F000099597FD04C0F80100851185ECCF89812D
:100500000F90DF91CF911F910F910895615030F0BE
:100510002091F100FC0120830196F8CF289884E611
:1005200080932704089508950895AF92BF92CF92C3
:10053000DF92EF92FF920F931F93CF93DF936C01A3
:100540007B018B01040F151FEB015E01AE18BF0884
:10055000C017D10759F06991D601ED91FC91019036
:10056000F081E02DC6010995892B79F7C501DF914E
:10057000CF911F910F91FF90EF90DF90CF90BF90A0
:10058000AF900895FC01538D448D252F30E0842FCA
:1005900090E0821B930B541710F0CF9608950197AB
:1005A0000895FC01918D828D981761F0A28DAE0F98
:1005B000BF2FB11D5D968C91928D9F5F9F73928F1F
:1005C00090E008958FEF9FEF0895FC01918D828D4B
:1005D000981731F0828DE80FF11D858D90E0089518
:1005E0008FEF9FEF0895FC01918D228D892F90E070
:1005F000805C9F4F821B91098F7399270895CF923A
:10060000DF92FF920F931F93CF93DF93F62E082F65
:1006100010E0E801C452D84F67FD27C0209124089C
:1006200030E0888990E0AC0140575F4F24173507D0
:1006300009F090C089EC94E00E94F302892BD1F379
:1006400089EC94E00E94D1028C87F801EE0FFF1F25
:10065000882309F473C081E08C83EB5DF74F8081C0
:100660009181019691838083F8826801CC0CDD1C16
:10067000F601EB5DF74F80819181892B09F08CC0E9
:1006800081E089AFF7FC52C020912408888990E06E
:1006900080529F4F28171906E1F481E08C8F89EC76
:1006A00094E00E94F302892BD1F389EC94E00E943C
:1006B000D102000F111FF801E051F84F9695982FC5
:1006C00088279795879580789F778F0D911D9183C7
:1006D000808320912408888990E080559F4F2817B7
:1006E0001906C1F481E088A7F8A289EC94E00E9481
:1006F000F302892BD1F389EC94E00E94D1028CA300
:1007000088A18B3739F4F601EB5DF74F1182108227
:1007100081E089AF20912408888990E080539F4F21
:100720002817190619F481E088ABFCA6DF91CF9158
:100730001F910F91FF90DF90CF90089581E08887FF
:10074000EB5DF74F80819181181619060CF08CCF64
:10075000019788CF80589F4F2817390709F085CF18
:1007600089EC94E00E94F302892BD1F389EC94E0A8
:100770000E94D10281E08887F882F801EE0FFF1F06
:10078000EB5DF74F80819181181619060CF06DCF43
:1007900001979183808369CF19AE74CF89EC94E07F
:1007A0000E94F30221E0892B09F420E0822F0895B2
:1007B00080E090E0892B29F00E94CE0381110C94F7
:1007C00000000895FC01A48DA80FB92FB11DA35AF4
:1007D000BF4F2C91848D90E001968F739927848F61
:1007E000A689B7892C93A089B1898C9182748C9346
:1007F000938D848D981306C00288F389E02D808143
:100800008F7D80830895EF92FF920F931F93CF9374
:10081000DF93EC0181E0888F9B8D8C8D981319C03C
:10082000E889F989808185FF14C09FB7F894EE8923
:10083000FF896083E889F9898081827480839FBF02
:1008400081E090E0DF91CF911F910F91FF90EF90A9
:100850000895F62E0B8D10E00F5F1F4F0F731127B9
:10086000E02E8C8D8E110CC00FB607FCFACFE889F4
:10087000F989808185FFF5CFCE010E94E203F1CF97
:10088000EB8DEC0FFD2FF11DE35AFF4FF0829FB768
:10089000F8940B8FEA89FB8980818062CFCFCF9358
:1008A000DF93EC01888D8823B9F0AA89BB89E88998
:1008B000F9898C9185FD03C0808186FD0DC00FB63E
:1008C00007FCF7CF8C9185FFF2CF808185FFEDCFBC
:1008D000CE010E94E203E9CFDF91CF9108958150CC
:1008E0008F3008F047C0E82FF0E0E758FB4F0C943A
:1008F000212296049A0488048E049204BA04BA044D
:10090000BA049D04A304A704AB04B104BA04B5045B
:10091000809180008F77809380000895809180007F
:100920008F7DF9CF80918000877FF5CF84B58F7759
:1009300084BD089584B58F7DFBCF809190008F7723
:10094000809390000895809190008F7DF9CF8091E1
:100950009000877FF5CF8091C0008F778093C00093
:1009600008958091C0008F7DF9CF8091C200877F6C
:100970008093C20008951F93CF93DF93282F30E018
:10098000F901EC5EFE4F8491F901EB50FF4FD491D9
:10099000F901EA52FF4FC491CC23A9F0162F81111F
:1009A0000E946F04EC2FF0E0EE0FFF1FE853FF4FA3
:1009B000A591B4918FB7F894EC91111108C0D0951E
:1009C000DE23DC938FBFDF91CF911F910895DE2B43
:1009D000F8CFCF93DF9390E0FC01EB50FF4F2491D1
:1009E0008A529F4FFC0184918823D1F090E0880FB8
:1009F000991FFC01E654FF4FA591B491FC01E85307
:100A0000FF4FC591D49161110EC09FB7F8948C919E
:100A1000E22FE0958E238C932881E223E8839FBF09
:100A2000DF91CF9108958FB7F894EC91E22BEC937E
:100A30008FBFF6CF3FB7F8948091E5039091E6031E
:100A4000A091E703B091E80326B5A89B05C02F3F0E
:100A500019F00196A11DB11D3FBFBA2FA92F982FE4
:100A60008827BC01CD01620F711D811D911D42E0DF
:100A7000660F771F881F991F4A95D1F708958F92A7
:100A80009F92AF92BF92CF92DF92EF92FF924B0173
:100A90005C010E941A056B017C010E941A056C1909
:100AA0007D098E099F09683E734081059105A8F371
:100AB00021E0821A9108A108B10888EEC80E83E0EF
:100AC000D81EE11CF11C81149104A104B10429F782
:100AD000FF90EF90DF90CF90BF90AF909F908F905E
:100AE00008958F929F92AF92BF92CF92DF92EF9232
:100AF000FF920F931F93CF93DF936C017B018A01C9
:100B000080913201882309F45CC0809128048823F5
:100B100009F457C080911A0480FF05C08091E0005D
:100B200082608093E000E801B12C8AEFA82E93E068
:100B3000892E2AE3922E209711F4BB20D9F10E942E
:100B4000280181110AC0AA94AA20D9F161E070E0BD
:100B500080E090E00E943F05EECF8C171D0611F05B
:100B60000CF08C2F9FB7F8948092E9002091E80058
:100B700025FD02C09FBFDFCF282F30E0C21BD30B63
:100B8000F701815020F041914093F100FACFE20E3D
:100B9000F31EBB2021F09092E800B12CEBCF8091A6
:100BA000E80085FDE7CF9092E800BB24B39420973E
:100BB00009F3F3CF5D9884E68093190410161106AB
:100BC0003CF081E090E0F6019383828310E000E046
:100BD000C801DF91CF911F910F91FF90EF90DF90AF
:100BE000CF90BF90AF909F908F9008952091BD03BC
:100BF000260F3327331F21323105ECF420914F04A7
:100C0000FC0190E080E0243069F082E00895A0913A
:100C1000BD032191AC0143565C4FA40FB52FB11D0C
:100C20002C930196861798F38091BD03680F60930B
:100C3000BD0380E0089581E0089510924F0481E0A3
:100C400080934E041092290461E082E00E94BB046C
:100C500061E083E00E94BB04E9EBF0E080818E7FDD
:100C6000808380818D7F808388E48093B80085E4D1
:100C70008093BC000895CF93DF9391E090939C0301
:100C80008823B9F0C091B800D091BA008091BC001F
:100C90008A7B8093BC0060E082E00E94BB0460E03D
:100CA00083E00E94BB040E941D06D093BA00C0934B
:100CB000B800DF91CF9108950895E091EE038091FF
:100CC000ED03E81730F4F0E0E458FC4F808190E049
:100CD00008958FEF9FEF08959091EE038091ED03BB
:100CE0002FEF3FEF981748F4E92FF0E0E458FC4F5E
:100CF000208130E09F5F9093EE03C90108958091B9
:100D0000ED039091EE03891B990B0895CF92DF922A
:100D1000EF92FF920F931F93CF93DF937C01CB0150
:100D20008A0120917804222389F0EB016B01C40E23
:100D3000D51ECC15DD0569F06991D701ED91FC91C7
:100D40000190F081E02DC7010995F3CF642F0E9437
:100D5000F605C801DF91CF911F910F91FF90EF90A1
:100D6000DF90CF900895CF93DF931F92CDB7DEB77A
:100D70006983209178042223F9F0209175042032B0
:100D800058F021E030E0FC013383228390E080E0E2
:100D90000F90DF91CF91089580917604E82FF0E0D5
:100DA000EB5AFB4F998190838F5F809376048093F9
:100DB000750481E090E0ECCF61E0CE0101960E94E5
:100DC000F605F7CF682F86E695E00C94B306CF9230
:100DD000DF92EF92FF920F931F93CF93C82F192F9B
:100DE00081E08093780480E6809377041092760403
:100DF00010927504613009F489C008F482C0623031
:100E000009F487C0633009F487C0612F86E695E056
:100E10000E94B3066C2F86E695E00E94B306C0914F
:100E20007504C13208F0A0C00E941A056B017C0154
:100E300080914F04811173C082E080934F0481E060
:100E400080934E048FEF80934D0410924C04C09316
:100E50004B04A5E5B4E0EBE2F4E080E0C81392C0F7
:100E600010922A0480912A04806C80932A04809135
:100E70002904813009F08AC0109229040E941A05C1
:100E80006B017C0180912A048093BB008091510406
:100E900090915204A0915304B0915404892B8A2B51
:100EA0008B2BA1F00E941A0500915104109152045D
:100EB00020915304309154046C197D098E099F09C7
:100EC000061717072807390708F44AC08091BC00A5
:100ED00083FDD8CF85EC8093BC000E941A056B017E
:100EE0007C0180914F04823009F452C080914D04FE
:100EF0008F3FD1F180914D048032B1F180914D044A
:100F000033C080E490E00E94E2067FCF82E490E06C
:100F1000FACF84E490E0F7CF86E490E0F4CF8091BC
:100F2000510490915204A0915304B0915404892B20
:100F30008A2B8B2B09F47CCF0E941A050091510457
:100F40001091520420915304309154046C197D097E
:100F50008E099F09061717072807390708F068CF79
:100F6000809150040E943B06109276041092750402
:100F700010927804CF911F910F91FF90EF90DF9026
:100F8000CF9008959D9191938F5F68CF85EEA3CF09
:100F90008091510490915204A0915304B091540453
:100FA000892B8A2B8B2B09F49CCF0E941A05009168
:100FB00051041091520420915304309154046C193F
:100FC0007D098E099F09061717072807390708F0BA
:100FD00088CFC6CF90E080E008952F923F924F9245
:100FE0005F926F927F928F929F92AF92BF92CF92B9
:100FF000DF92EF92FF920F931F93CF93DF93EC0159
:10100000FC01EC57FF4F80809180A280B380349622
:10101000408051806280738020E030E0A901C501EA
:10102000B4010E94292081110AC020E030E040E88C
:101030005FE3C301B2010E942920882389F11E01C8
:1010400088E7280E311C0FEF1FE06C857D8590E04E
:1010500080E00E94D620A30192010E948D21A5016B
:1010600094010E94BD1F6B017C0120E030E0A901CA
:101070000E94882120E030E040E05FE387FD23C04C
:10108000C701B6010E94BD1F0E94A020611580E12A
:101090007807F0F47D876C8722962C163D06A9F61A
:1010A000DF91CF911F910F91FF90EF90DF90CF9044
:1010B000BF90AF909F908F907F906F905F904F9078
:1010C0003F902F900895C701B6010E94BC1FDCCF4E
:1010D00077FF03C01D861C86DFCF1D870C87DCCF02
:1010E000CF93DF93EC01C257DF4F70E090E080E0D8
:1010F0000E94D62020E030EF4FE755E40E948D217A
:1011000020E030E04EEF52E40E942E200E94A72003
:10111000CB016881DF91CF910C94E706CF92DF92EB
:10112000EF92FF92CF93DF93EC016E817F8161306C
:1011300080E27807C8F190E080E00E94D62020E0AD
:1011400030E040E056E40E94BC1F20E038EF4FEF53
:1011500055E40E942E206B017C016885798590E022
:1011600080E00E94D6209B01AC01C701B6010E941D
:101170008D216B017C0120E030E0A9010E948821D3
:1011800020E030E040E05FE387FD27C0C701B60103
:101190000E94BD1F0E94A020CB01DF91CF91FF9044
:1011A000EF90DF90CF900895611580E27807D1F03D
:1011B00090E080E00E94D62020E030E040E056E45D
:1011C0000E94BC1F20E030E040E059E30E948D21E6
:1011D0006B017C016A857B85C2CFC701B6010E9485
:1011E000BC1FD8CF70E060E0D7CFAF92BF92CF9254
:1011F000DF92EF92FF920F931F93CF93DF93EC0157
:10120000AB809C0123573F4F69016A1508F49AC0CF
:10121000B12C9501255C3F4F062F10E020173107B8
:101220000CF490C06A836C8170E0C801860F971F30
:10123000F801EA19FB093696EE0FFF1FEC0FFD1FB0
:10124000E080F180281739070CF05DC0072E000CF4
:10125000880B990B0E94D82020E030E848E852E43F
:101260000E948D210E94A720798768876D8170E098
:10127000061B170B0A151B050CF054C0072E000C9B
:10128000880B990B0E94D82020E030E848E852E40F
:101290000E948D210E94A7207B876A87CE010E9431
:1012A0008E08E80EF91EFE01EE57FF4F80819181F6
:1012B0008E159F052CF0C701F7FE02C090E080E07C
:1012C000FE01E257FF4F60810E94E70661E0F601F0
:1012D00080810E94BB0481E08983FE01E457FF4FB7
:1012E00080818130A9F5C157DF4F61E08881DF91AE
:1012F000CF911F910F91FF90EF90DF90CF90BF9013
:10130000AF900C94BB04FC01EA19FB093696EE0F72
:10131000FF1FEC0FFD1F808191818E199F09998716
:101320008887A4CFF801EA19FB093696EE0FFF1F54
:10133000EC0FFD1F80819181F701E81BF90BFB8702
:10134000EA87ACCF60E0F60180810E94BB0419827D
:10135000DF91CF911F910F91FF90EF90DF90CF9091
:10136000BF90AF900895EF92FF920F931F93CF938A
:10137000DF93FC0177836683C281E380CE1578F129
:10138000F12CD0E0C701CB968C179D0744F18F015B
:10139000CF010E948E08CE19DF092696CC0FDD1FE3
:1013A000C00FD11F28813981280F391FF801EE574E
:1013B000FF4F80819181821793072CF0C90137FF7D
:1013C00002C090E080E0F801E257FF4F6081DF91BA
:1013D000CF911F910F91FF90EF900C94E706DF9152
:1013E000CF911F910F91FF90EF900895CF93DF93CE
:1013F000EC01FC01E357FF4F60E080810E94BB04D9
:101400001982DF91CF910895EFEEF3E080E88783B2
:1014100086838583848383838283818380833896D4
:1014200094E0EF30F90799F782E795E00E94F6091A
:1014300082E096E00E94F60982E996E00E94F609B1
:1014400082E297E00C94F6090F931F93CF93DF93FA
:10145000EC01288139813327F901EC5EFE4F84913C
:10146000F901EB50FF4F0491F901EA52FF4F14913B
:10147000112309F453C081110E946F04E12FF0E0A1
:10148000EE0FFF1FE455FF4FA591B491EC910E2391
:1014900031E020E009F430E0832F922F2A813B8154
:1014A0002817390779F02FB7F8944091E10350914C
:1014B000E2036091E3037091E4032FBF4E835F83E7
:1014C000688779872FB7F8944091E1035091E20340
:1014D0006091E3037091E4032FBF0E811F81288583
:1014E0003985401B510B620B730B0A851B852C85BC
:1014F0003D85041715072607370738F42C813D81F1
:101500002817390711F09D838C839B838A838C81F4
:101510009D81DF91CF911F910F91089590E080E020
:10152000BDCFFC0101900020E9F73197AF01481BC6
:10153000590BBC0189EC94E00C9495028F929F9218
:10154000AF92BF920F931F93CF93DF93CDB7DEB7C8
:10155000A1970FB6F894DEBF0FBECDBF19A24230DF
:1015600008F44AE08E010F5D1F4F842E912CB12CA0
:10157000A12CA50194010E94FF21E62FB901CA0107
:10158000EA30F4F4E05DD801EE938D01232B242B97
:10159000252B79F790E080E0109719F0CD010E949B
:1015A000910AA1960FB6F894DEBF0FBECDBFDF91B2
:1015B000CF911F910F91BF90AF909F908F90089502
:1015C000E95CE1CFCF92DF92EF92FF92CF93DF936E
:1015D0006B017C016DE289EC94E00E940304EC0154
:1015E00066277727CB016C197D098E099F094AE090
:1015F0000E949E0A8C0F9D1FDF91CF91FF90EF906C
:10160000DF90CF9008950C94910ACF93DF930E94BE
:10161000910AEC018FE092E00E94910A8C0F9D1FCD
:10162000DF91CF910895682F70E090E080E04AE06C
:101630000C949E0ACF93DF930E94130BEC018FE072
:1016400092E00E94910A8C0F9D1FDF91CF91089527
:10165000CF92DF92EF92FF920F931F93CF93DF937E
:101660008C010452184FD80118962C91222309F4AA
:101670005BC07C0182E192E00E94030BF801808153
:101680000E941A0B80E98E9DF0018F9DF00D1124B0
:10169000EE58FA4F8181E70193E0CC0FDD1F9A9558
:1016A000E1F7882309F47EC0D8019C9182819813C8
:1016B00079C087E0C82ED12CF601EC0FFD1FE15157
:1016C000FC4F8081803809F443C088E192E00E9499
:1016D000030B8E0101511C4F0C0D1D1DF801808163
:1016E0000E941A0B80912601853039F5D8016C9142
:1016F00082E795E00E94F508F801608182E096E0BB
:101700000E94F508D8016C9182E996E00E94F508E4
:10171000F801608182E297E00E94F508C151DC4F38
:10172000CC0DDD1D80E88883DF91CF911F910F9153
:10173000FF90EF90DF90CF90089520E92E9DC0019B
:101740002F9D900D1124D8016C918E589A4FE4CFA3
:10175000B1E0CB1AD10808F0AFCF809126018530D7
:10176000C1F482E795E00E94F60982E096E00E94CB
:10177000F60982E996E00E94F60982E297E0DF919D
:10178000CF911F910F91FF90EF90DF90CF900C942D
:10179000F60920E92E9DC0012F9D900D11248E5831
:1017A0009A4FEDCFD8012C9190E080E0FC01EC0F36
:1017B000FD1FE151FC4F3081321305C0C151DC4F98
:1017C000C80FD91FAFCF01968830910579F7ACCFFC
:1017D000AF92BF92CF92DF92EF92FF920F931F933F
:1017E000CF93DF93EC01C452D84F2C81222309F40C
:1017F0009EC08C0180E9809FF001819FF00D112433
:10180000EE58FA4F8181882369F1780183E0EE0C6C
:10181000FF1C8A95E1F7B12CA12CF501EE0DFF1DFF
:10182000E151FC4F8081803809F06EC084E292E083
:101830000E94030B20E9209FC001219F900D1124DD
:101840009C012E583A4F6901D90112968C910E9441
:101850001A0BF701E151FC4FEA0DFB1DD601129660
:101860008C9180838FE192E00E94030B88810E941B
:101870001A0BF0902601F5E0FF124FC0688182E755
:1018800095E00E94F508688182E096E00E94F508E4
:10189000688182E996E00E94F508688182E297E01B
:1018A0000E94F5088FEF8F0D823008F040C080E96C
:1018B000809FF001819FF00D1124EE58FA4F1081A6
:1018C0001F3FA9F16C8570E090E080E00E94D62077
:1018D00020E030EF4FE755E40E948D2120E030E01A
:1018E0004EEF52E40E942E200E94A720CB01612FD0
:1018F000DF91CF911F910F91FF90EF90DF90CF90EC
:10190000BF90AF900C94E706BFEFAB1ABB0AE8E0BC
:10191000AE16B10409F081CFA5CF20E9209FC00108
:10192000219F900D112468818E589A4FB9CFDF9175
:10193000CF911F910F91FF90EF90DF90CF90BF90CC
:10194000AF900895CF93DF93BC0190E080E04AE030
:101950000E949E0AEC018FE092E00E94910A8C0F97
:101960009D1FDF91CF9108958F929F92AF92BF926A
:10197000CF92DF92EF92FF921F93CF93DF936B0191
:101980007C01AC019B010E94FA218823B9F08DE211
:1019900092E00E94910AEC018FE092E00E94910A8D
:1019A0008C0F9D1FDF91CF911F91FF90EF90DF90E3
:1019B000CF90BF90AF909F908F90089546015701B0
:1019C000E894B7F82FEF3FEF4FE75FE7C501B401A9
:1019D0000E94FA2181110DC02FEF3FEF4FE75FE723
:1019E000C501B4010E94292018161CF481E392E07D
:1019F000D0CF2FEF3FEF4FE75FE4C701B6010E9462
:101A0000882118161CF485E392E0C3CF2FEF3FEF37
:101A10004FE75FECC701B6010E94292087FDF3CF95
:101A200020E030E0A901C701B6010E942920D0E0E2
:101A3000C0E087FF0AC06DE289EC94E00E940304D5
:101A4000EC01F7FAF094F7F8F09426E137EB41E572
:101A500058E3C701B6010E94BD1F6B017C010E94C3
:101A6000A7204B015C010E94D6209B01AC01C7015D
:101A7000B6010E94BC1F6B017C014AE0C501B401A4
:101A80000E949E0AC80FD91F6EE289EC94E00E9462
:101A90000304C80FD91F15E0115009F47DCF20E0D1
:101AA00030E040E251E4C701B6010E948D214B01B4
:101AB0005C010E94A7206B01F12CE12C4AE0C701D8
:101AC000B6010E949E0AC80FD91FC701B6010E9425
:101AD000D6209B01AC01C501B4010E94BC1F6B0163
:101AE0007C01DACFCF93DF93BC01990F880B990B60
:101AF0004AE00E949E0AEC018FE092E00E94910A67
:101B00008C0F9D1FDF91CF91089585ED8093BC00D0
:101B10008091510490915204A0915304B0915404C7
:101B20000796A11DB11D23E0B695A79597958795BA
:101B30002A95D1F72091BC0024FD03C010924F04D8
:101B40000895409151045091520460915304709152
:101B50005404452B462B472B69F30097A105B1058B
:101B600041F025E32A95F1F700000197A109B10999
:101B7000E1CF809150040C943B06FF920F931F938A
:101B8000CF93DF93EC01F62E08811981C8010E94E2
:101B9000A61FF81621F06F2DC8010E94AE1FCE01BE
:101BA000DF91CF911F910F91FF900895CF92DF9217
:101BB000EF92FF920F931F93CF93DF9300D0CDB797
:101BC000DEB76C017C0102E010E01A830983F701A3
:101BD00061917F01CE0101960E94BD0D0F5F1F4FE5
:101BE0000232110591F7C6010F900F90DF91CF914E
:101BF0001F910F91FF90EF90DF90CF900895CF92BB
:101C0000DF92EF92FF920F931F93CF93DF9300D059
:101C1000CDB7DEB76C017C0102E212E01A830983C2
:101C2000F70161917F01CE0101960E94BD0D0F5F0A
:101C30001F4F0532F2E01F0789F7C6010F900F9082
:101C4000DF91CF911F910F91FF90EF90DF90CF9098
:101C500008950F931F93CF93DF9300D0CDB7DEB7D6
:101C60008C0185E292E09A838983F8016081CE013C
:101C700001960E94BD0D86E292E09A838983F80165
:101C80006181CE0101960E94BD0DC8010F900F9099
:101C9000DF91CF911F910F910895AF92BF92CF9294
:101CA000DF92EF92FF920F931F93CF93DF9300D0B9
:101CB000CDB7DEB78B016B0128E7C20ED11C7B01CB
:101CC0005C01A61AB70AC5018E0D9F1D9A838983F0
:101CD000F70161917F01CE0101960E94BD0DEC14C8
:101CE000FD0489F7C8010F900F90DF91CF911F91EC
:101CF0000F91FF90EF90DF90CF90BF90AF9008953D
:101D00000F931F93CF93DF9300D0CDB7DEB78B0136
:101D10009A838983FB016081CE0101960E94BD0DEB
:101D2000C8010F900F90DF91CF911F910F910895EF
:101D3000CF92DF92EF92FF920F931F93CF93DF9397
:101D4000EB017B0128E7E20EF11C8B016C01C61A46
:101D5000D70AC601800F911F0E94A61FF801819328
:101D60008F01EE15FF05A9F7CE01DF91CF911F91ED
:101D70000F91FF90EF90DF90CF900895CF93DF9376
:101D8000EB010E94A61F8883CE01DF91CF910895B9
:101D90000F931F93CF93DF936CEE77E090E080E09A
:101DA0000E94BE0E65E775E081E090E00E94BE0EE5
:101DB00065E076E081E090E00E94BE0E65E976E0A5
:101DC00081E090E00E94BE0E65E277E081E090E065
:101DD0000E94BE0E03E011E0C2E0D0E0CE010E94FE
:101DE000A61FF80181938F012196C232D105B1F768
:101DF0006EE775E082E490E00E94980E6EE076E077
:101E00008AEB90E00E94980E6EE976E082E391E022
:101E10000E94980E6EE277E08AEA91E00E94980EA6
:101E200082E292E00E94A61F8093230183E292E067
:101E30000E94A61F8093240184E292E00E94A61FC4
:101E40008093250185E292E00E94A61F8093010104
:101E500086E292E00E94A61F8093020162E174E094
:101E600087E292E00E94BE0E6DEE77E088E292E09B
:101E70000E94BE0E6EEE77E089E292E00E94BE0EF6
:101E80006FEE77E08AE292E00E94BE0E60E071E0C1
:101E90008BE292E00E94BE0E909101019093760534
:101EA0008091020180937705909306068093070640
:101EB0009093960680939706909326078093270722
:101EC0008091030190910401A0910501B091060158
:101ED0008093F6059093F705A093F805B093F90564
:101EE0008091070190910801A0910901B0910A0128
:101EF0008093FA059093FB05A093FC05B093FD0534
:101F000080910B0190910C01A0910D01B0910E01F7
:101F10008093860690938706A0938806B0938906DF
:101F200080910F0190911001A0911101B0911201C7
:101F300080938A0690938B06A0938C06B0938D06AF
:101F40008091130190911401A0911501B091160197
:101F50008093160790931707A0931807B09319075B
:101F60008091170190911801A0911901B0911A0167
:101F700080931A0790931B07A0931C07B0931D072B
:101F800080911B0190911C01A0911D01B0911E0137
:101F90008093A6079093A707A093A807B093A907DB
:101FA00080911F0190912001A0912101B091220107
:101FB0008093AA079093AB07A093AC07B093AD07AB
:101FC00082E795E00E94ED0782E096E00E94ED072F
:101FD00082E996E00E94ED0782E297E00E94ED0719
:101FE000809112048093FE0580938E0680931E07D5
:101FF0008093AE0780910001811103C088E1809336
:102000000001809100018093120889E392E00E9410
:10201000030B82E00E941A0B89E392E00E94030BFB
:1020200080E40E941A0B8AE492E00E94030B8091E4
:1020300023010E941A0B80E592E00E94030B80911D
:1020400024010E941A0B86E592E00E94030B809106
:1020500025010E941A0B8AE593E00E94030B8091F0
:1020600001010E941A0B89E693E00E94030B809104
:1020700002010E941A0B8FE592E00E94030B8091EF
:10208000EC0790E001960E94720D8CE592E00E94B0
:10209000030B8091ED0790E001960E94720D89E696
:1020A00092E00E94030B8091EE0790E001960E945F
:1020B000720D86E792E00E94030B8091EF0790E09B
:1020C00001960E94720D83E892E00E94030B8091BA
:1020D00075050E94130B8EE492E00E94030B809121
:1020E00005060E94130B8EE492E00E94030B809180
:1020F00095060E94130B8EE492E00E94030B8091E0
:1021000025070E941A0B86E992E00E94030B80913A
:1021100012040E941A0B88EA92E00E94030B60915D
:10212000F6057091F7058091F8059091F9050E94E8
:10213000B40C84EB92E00E94030B6091FA0570915D
:10214000FB058091FC059091FD050E94B40C8EEB7F
:1021500092E00E94030B6091860670918706809141
:102160008806909189060E94B40C8AEC92E00E9445
:10217000030B60918A0670918B0680918C0690917A
:102180008D060E94B40C84ED92E00E94030B6091D6
:1021900016077091170780911807909119070E94F0
:1021A000B40C80EE92E00E94030B60911A077091CC
:1021B0001B0780911C0790911D070E94B40C8AEEAA
:1021C00092E00E94030B6091A6077091A70780918F
:1021D000A8079091A9070E94B40C86EF92E00E9494
:1021E000030B6091AA077091AB078091AC079091A7
:1021F000AD070E94B40CCEE7D5E010E000E080E02F
:1022000093E00E94030B60917505600F712F711DA3
:10221000072E000C880B990B4AE00E949E0A8EE460
:1022200092E00E94030B6991799190E080E04AE08E
:102230000E949E0A8EE492E00E94030BFE01E25788
:10224000FF4F6081718190E080E04AE00E949E0A29
:102250008EE492E00E94030BFE01E25EFE4F60817D
:10226000718190E080E04AE00E949E0A8EE492E054
:102270000E94030BFE01E255FE4F808191810E9476
:10228000A20C0F5F1F4F0C33110509F0B8CFDF917F
:10229000CF911F910F9108951F920F920FB60F9239
:1022A00011248F939F938091E1009091E100937F9F
:1022B0009093E10083FF0FC01092E90091E09093AA
:1022C000EB001092EC0092E39093ED001092280442
:1022D00098E09093F00082FF22C093E09093E90091
:1022E0009091F200992319F09AE39093E80090916D
:1022F0001904992341F09091190491509093190475
:10230000911101C05D9A90912704992341F0909119
:102310002704915090932704911101C0289A84FFBB
:1023200018C08091E2008E7E81608093E2008091EF
:10233000E1008F7E8093E10080911A048E7E80619F
:1023400080931A049F918F910F900FBE0F901F9052
:10235000189580FFF7CF8091E2008E7E8061809398
:10236000E2008091E1008E7E8093E10080911A046A
:102370008E7E8160E5CF1F920F920FB60F921124CF
:10238000CF92DF92EF92FF920F931F932F933F9381
:102390004F935F936F937F938F939F93AF93BF936D
:1023A000EF93FF93CF93DF93CDB7DEB76C97DEBF8C
:1023B000CDBF1092E9008091E80083FF25C068E05E
:1023C000CE0145960E94860282EF8093E8008D89B7
:1023D00087FF39C09091E80090FFFCCF982F90764E
:1023E00009F034C19E894F89588D2F89F88C91113D
:1023F00031C0803861F5809118048093F10010920B
:10240000F1008EEF8093E8006C960FB6F894DEBF73
:102410000FBECDBFDF91CF91FF91EF91BF91AF91F3
:102420009F918F917F916F915F914F913F912F91EC
:102430001F910F91FF90EF90DF90CF900F900FBE04
:102440000F901F9018959EEF9093E800C7CF1092C1
:10245000F100D5CF913059F48111D3CF41305105DE
:1024600081F6809118048D7F80931804CACF933031
:1024700049F48111C6CF4130510519F680911804F5
:102480008260F2CF953041F48091E80080FFFCCF6C
:1024900020682093E300B5CF963009F0A9C00B8DDA
:1024A0001C8D22E01092E90010921604109215047F
:1024B000F2122EC010921404109213040E945502BE
:1024C0001F8299E09983FA8291E09E8390EA98872F
:1024D0009AEF99872091150430911604275F3F4F9A
:1024E0003C832B838D831092E90010921604109286
:1024F0001504109314040093130449E050E0BE0146
:102500006F5F7F4F80E00E942F020E94550279CFBB
:1025100010931404009313040E943901DC011296F5
:102520000D911C910115110509F451C1D801ED91CE
:10253000FC910480F581E02DBE016B5E7F4FC801E8
:102540000995009709F03EC1F80100851185EACF91
:10255000F3E0FF120EC08F89882309F440C0823057
:1025600061F440E861E183E991E00E94FC0181119E
:1025700048CF81E28093EB0047CF813029F440E8D7
:1025800067E08BE891E0F1CF833099F70E94390141
:10259000DC011296ED90FC908E010F5F1F4F6801D9
:1025A000E114F10479F0D701ED91FC910680F781F7
:1025B000E02DB801C7010995080F111DF701E0844E
:1025C000F184EECFD8011C92F60101900020E9F7CA
:1025D0003197BF016C197D0940E0C601C6CF65E7A0
:1025E00071E0FB01449150E080E80E942F0209CF86
:1025F000973009F4BECF983021F481E08093F10048
:1026000000CF993009F0FDCE837009F0B2CFE3ED31
:10261000F1E081E031E096E32191222371F0809393
:10262000E9003093EB00DF0111972C912093EC002F
:102630009093ED008F5F873079F78EE78093EA0003
:102640001092EA008F8980932804DBCE8B8D9C8DBD
:102650001092E9001092160410921504909314043D
:1026600080931304898D811192C08E899D89913A3E
:1026700049F4813209F07DCF47E050E06BE271E030
:1026800080E0B3CF913209F074CF833269F48F893F
:10269000988DB0E0A0E08093270190932801A0934B
:1026A0002901B0932A01ADCE803269F48091E8000F
:1026B00082FFFCCF67E08BE291E00E9486028BEF05
:1026C0008093E8009ECE823209F09BCE8F89809362
:1026D0003201EEEFFFE7859194918B3F9C4D51F1D4
:1026E000E0E0F8E080912B0190912C01A0912D0168
:1026F000B0912E01803B9440A105B105F1F4809189
:10270000320180FD1AC0EE3F8AE0F80789F587E7BD
:1027100097E791838083809160008093170488E11C
:102720009BE00FB6F894A895809360000FBE90933D
:10273000600067CEEEEFFAE0D5CF808191818737D8
:10274000974709F05ECEA8958091600088618093DC
:1027500060008091170480936000EE3F2AE0F2074A
:1027600089F08091FE0A9091FF0A9183808349CE7F
:10277000808191818737980751F29093FF0A809367
:10278000FE0AC5CF1092FF0A1092FE0A3ACE0E94AE
:102790003901DC0112960D911C910115110509F406
:1027A000E8CED801ED91FC910190F081E02DBE01C1
:1027B0006B5E7F4FC8010995811123CEF80100851A
:1027C0001185EBCF181619060CF41BCED2CEF1E012
:1027D000FF12BECE69E771E004CF1F920F920FB6D1
:1027E0000F9211242F933F934F935F936F937F9397
:1027F0008F939F93AF93BF93EF93FF9389EC94E0F4
:102800000E94E203FF91EF91BF91AF919F918F9151
:102810007F916F915F914F913F912F910F900FBEDC
:102820000F901F9018951F920F920FB60F921124C0
:102830002F938F939F93EF93FF93E091D904F0919F
:10284000DA048081E091DF04F091E00482FD1BC096
:1028500090818091E2048F5F8F732091E30482174F
:1028600041F0E091E204F0E0E753FB4F958F809355
:10287000E204FF91EF919F918F912F910F900FBEE6
:102880000F901F9018958081F4CF1F920F920FB672
:102890000F9211242F933F938F939F93AF93BF93E6
:1028A0008091E1039091E203A091E303B091E403EE
:1028B0003091E00323E0230F2D3758F50196A11D39
:1028C000B11D2093E0038093E1039093E203A09372
:1028D000E303B093E4038091E5039091E603A091B4
:1028E000E703B091E8030196A11DB11D8093E503B4
:1028F0009093E603A093E703B093E803BF91AF91F1
:102900009F918F913F912F910F900FBE0F901F902D
:10291000189526E8230F0296A11DB11DD2CF1F9254
:102920000F920FB60F9211242F933F934F935F9303
:102930006F937F938F939F93AF93BF93EF93FF9387
:102940008091B900887F803609F44AC0F0F588325A
:1029500009F4A7C018F5803109F49BC0B8F48823A6
:1029600009F4F9C0883009F494C0FF91EF91BF9148
:10297000AF919F918F917F916F915F914F913F9117
:102980002F910F900FBE0F901F901895883109F46A
:1029900088C0803251F780934D0414C0803409F40C
:1029A0009DC040F48033B9F38833F9F680934D0429
:1029B00085ECB0C0803509F485C0883509F496C02F
:1029C000883499F60E94850DD0CF883909F48CC0DF
:1029D00038F5883729F050F4883611F0803729F619
:1029E00083E080934F041092DF0357C0883809F4C6
:1029F0007BC0803919F0803809F0B7CF8091DF03B0
:102A0000803208F071C0E091DF0381E08E0F809387
:102A1000DF038091BB00F0E0E154FC4F80833DC0B8
:102A2000803B39F0E0F4803A09F479C0883A09F043
:102A30009CCF84E080934F041092BE031092BD039C
:102A4000E091EB03F091EC0309958091BD038111B6
:102A50000FC081E08093BD0310929D0309C0803CAC
:102A600009F4A6CF883C09F4A3CF883B09F07DCFB9
:102A7000E091BE0381E08E0F8093BE03F0E0E35649
:102A8000FC4F80818093BB009091BE038091BD0379
:102A900029C080912A048093BB0085EC8093BC0000
:102AA00064CF90914C0480914B04981758F5E091B5
:102AB0004C0481E08E0F80934C04F0E0E55DFB4F09
:102AC0008081E9CFE0914C0481E08E0F80934C042B
:102AD0008091BB00F0E0E55DFB4F808390914C045A
:102AE00080914B049817C8F285E8D8CFE0914C0448
:102AF00081E08E0F80934C048091BB00F0E0E55D97
:102B0000FB4F808380914E0481115CCF81E08093E4
:102B1000290484EA8093BC0010924F0426CF85ECF0
:102B20008093BC0010924F048091DF03803230F418
:102B3000E091DF03F0E0E154FC4F10826091DF038D
:102B400070E0E091E903F091EA038FEB93E00995DF
:102B50001092DF030ACF10924D0434CF0F931F93CE
:102B6000CF93DF93EC01162F042F8FEF8883198208
:102B70001A8284E28B831C821D8280E090E29F8314
:102B80008E83198618861B861A8688E7E3E3F1E0B0
:102B9000DE011C9601900D928A95E1F7FE01EC573B
:102BA000FF4F1082118212821382349680E090E0EF
:102BB000A0E8BFE380839183A283B383349610821D
:102BC000339686E0808361E0812F0E94E904FE0154
:102BD000E357FF4F1083C257DF4F0883DF91CF9138
:102BE0001F910F910895CF92DF92EF92FF92CF93B2
:102BF000DF93E9E7F4E01382128288EE93E0A0E02D
:102C0000B0E084839583A683B7832DED31E03183D3
:102C100020832FEF3FEF35872487E9ECF4E0138220
:102C2000128284839583A683B7832FEE31E03183AC
:102C300020832DEC30E0358724872CEC30E037877B
:102C4000268728EC30E0318B208B29EC30E0338B69
:102C5000228B2AEC30E0358B248B2EEC30E0378B46
:102C6000268B118E128E138E148EE6E6F5E01382FB
:102C7000128284839583A683B78381E092E0918357
:102C80008083ECEDF7E088E186AB10AE8091AB017C
:102C90009091AC01A091AD01B091AE0181AF92AF26
:102CA000A3AFB4AF15AE16AE17AE10921C081092BB
:102CB0001D081092230810922208CEECD7E01E8245
:102CC0001F821886198660E089E00E94E90489E085
:102CD00090E09983888382E3C82ED12CE12CF12CDB
:102CE000CA86DB86EC86FD86C0ECD7E01E821F829A
:102CF0001886198660E083E10E94E90483E190E090
:102D000099838883CA86DB86EC86FD86C2EBD7E092
:102D10001E821F821886198660E084E10E94E90401
:102D200084E190E099838883CA86DB86EC86FD8601
:102D300040E068E082E795E00E94AE1541E062E184
:102D400082E096E00E94AE1542E065E182E996E0FD
:102D50000E94AE1543E066E182E297E0DF91CF91F9
:102D6000FF90EF90DF90CF900C94AE15CF93DF9350
:102D7000CDB7DEB7C45AD1090FB6F894DEBF0FBE87
:102D8000CDBF789484B5826084BD84B5816084BDF4
:102D900085B5826085BD85B5816085BD80916E00F9
:102DA000816080936E00109281008091810082602A
:102DB0008093810080918100816080938100809167
:102DC0008000816080938000809191008260809378
:102DD000910080919100816080939100809190009A
:102DE0008160809390008091C10084608093C100D5
:102DF0008091C10082608093C1008091C100816098
:102E00008093C1008091C30081608093C300809152
:102E1000C00082608093C0008091C2008160809376
:102E2000C20080917A00846080937A0080917A0059
:102E3000826080937A0080917A00816080937A002A
:102E400080917A00806880937A0010922804109212
:102E5000180410921A048091D70081608093D700E3
:102E600080EA8093D80089B5806189BD89B5826088
:102E700089BD09B400FEFDCF61E070E080E090E024
:102E80000E943F058091D8008F7C80618093D8009C
:102E90008091E000807F8093E0008091E1008E7E51
:102EA0008093E1008DE08093E200559A209AE091B2
:102EB000D904F091DA0482E08083E091D504F091A6
:102EC000D6041082E091D704F091D8048FE3808378
:102ED0001092E104E091DD04F091DE0486E080834D
:102EE000E091DB04F091DC04808180618083E091DB
:102EF000DB04F091DC04808188608083E091DB0456
:102F0000F091DC04808180688083E091DB04F091A3
:102F1000DC0480818F7D80831092EE031092ED039C
:102F200010927604109275040E941D0683E992E0C7
:102F30009093EC038093EB0384E992E09093EA038F
:102F40008093E90361E086E00E94E90440E250E0FA
:102F500060E870E08FEE93E00E9427220E94C80E86
:102F60006090AF017090B0018090B101AA24A39449
:102F7000B12C1092E0071092E1071092E207109234
:102F8000E3071092E4071092E5071092E60710920B
:102F9000E7071092F8071092F9071092FA071092BB
:102FA000FB07109204081092050810920608109270
:102FB000070810920C0810920D0810920E0810923B
:102FC0000F0810921308109210081092110889EC43
:102FD00094E00E94F3021816190644F589EC94E077
:102FE0000E94D102182F87FD80932408612F80E072
:102FF0000E94FF02612F81E00E94FF02612F82E0A8
:103000000E94FF02612F83E00E94FF02809124084A
:1030100096E0980F923008F080C081E0809310080D
:1030200080931408B0922308A09222088091260170
:1030300090E0813009F032C180E00E94E80B90E01E
:1030400080E00E94280B8091F807882341F060916E
:10305000F0077091F10782E795E00E94B309809133
:103060000408882361F08091FC0790912301891363
:103070000FC16091000882E297E00E947008809181
:103080000C08882331F06091080882E996E00E94DC
:10309000700880911508882309F456C2809116089B
:1030A000882309F451C280911708882309F44CC27F
:1030B00080911808882309F447C280911204813056
:1030C00021F460E086E00E94BB048EEC97E00E9451
:1030D000240A209111042817190609F421C282EB51
:1030E00097E00E94240A8C0180EC97E00E94240A59
:1030F0007C018EEC97E00E94240A892B09F020C500
:1031000083E0EF2821F486E0012B09F484E080932A
:1031100026018FEF809372051BC58C3F31F410920E
:10312000140881E08093110881CF883F49F5809190
:103130001408882309F47ACF8091220890912308FB
:1031400020911208009769F431E030931008215063
:10315000330B8217930771F4109223081092220800
:1031600065CF322F3695381719068CF731E030933A
:103170001108EDCF0196909323088093220856CF33
:10318000803F09F053CF89EC94E00E94F302892B31
:10319000D1F389EC94E00E94D1028F37910589F434
:1031A000173F09F443CF89EC94E00E94F302892B86
:1031B000D1F389EC94E00E94D102182F0E941A0BDF
:1031C000EFCF81E08093130889EC94E00E94F30232
:1031D000892BD1F389EC94E00E94D10280931908E5
:1031E000873F09F423CF89EC94E00E94F302892BF6
:1031F000D1F389EC94E00E94D10280931A08873FB2
:1032000009F414CF89EC94E00E94F302892BD1F3E6
:1032100089EC94E00E94D10280931B08873F09F457
:1032200005CF89EC94E00E94F302892BD1F389EC5D
:1032300094E00E94D10280931C08873F09F4F6CEE7
:1032400089EC94E00E94F302892BD1F389EC94E09D
:103250000E94D10280931D08873F09F4E7CE00E069
:10326000173F09F4E3CE89EC94E00E94F302892B26
:10327000D1F389EC94E00E94D102182F873F09F422
:10328000D5CEE02FF0E0E25EF74F80830F5FE8CF0E
:103290008B3709F0F4CE0E94040AF1CE823049F552
:1032A00080E00E94E80B90E080E00E94280B81E023
:1032B00090E00E94E80B81E090E00E94280B809152
:1032C000F807882341F06091F0077091F10782E7D9
:1032D00095E00E94B3098091F907882309F4D9CEBB
:1032E0006091F2077091F30782E096E00E94B309C3
:1032F000D0CE833009F04BC080E00E94E80B90E014
:1033000080E00E94280B81E090E00E94E80B81E0C1
:1033100090E00E94280B82E090E00E94E80B82E09F
:1033200090E00E94280B8091F807882341F060917B
:10333000F0077091F10782E795E00E94B309809150
:10334000F907882341F06091F2077091F30782E05A
:1033500096E00E94B3098091FA07882341F06091BA
:10336000F4077091F50782E996E00E94B309809115
:103370000408882309F48DCE8091FC0790912301E5
:1033800089135EC06091000882E297E080CE8430AD
:1033900009F05CC080E00E94E80B90E080E00E94B1
:1033A000280B81E090E00E94E80B81E090E00E9411
:1033B000280B82E090E00E94E80B82E090E00E94FF
:1033C000280B83E090E00E94E80B83E090E00E94ED
:1033D000280B8091F807882341F06091F0077091E5
:1033E000F10782E795E00E94B3098091F9078823ED
:1033F00041F06091F2077091F30782E096E00E943D
:10340000B3098091FA07882341F06091F407709125
:10341000F50782E996E00E94B3098091FB078823B3
:1034200041F06091F6077091F70782E297E00E9401
:10343000B30980910408882309F42BCE8091FC07FE
:103440008B3709F026CE0E94040A23CE853059F529
:1034500080E00E94E80B90E080E00E94280B8091C1
:10346000F807882309F415CE6091F0077091F107F1
:1034700082E795E00E94B3096091F0077091F1072F
:1034800082E096E00E94B3096091F0077091F10725
:1034900082E996E00E94B3096091F0077091F1070C
:1034A00082E297E023CF80E00E94E80B90E080E08A
:1034B0000E94280B8091F807882341F06091F00763
:1034C0007091F10782E795E00E94B30980910408AA
:1034D000882309F4DECD9091FC0780912301981395
:1034E00006C06091000882E096E00E94700890910A
:1034F000FC0780912401981306C06091000882E9BE
:1035000096E00E9470089091FC0780912501981325
:1035100095CF6091000882E297E00E9470088ECFFC
:1035200080EC97E00E94240A2091100428171906C5
:1035300009F0D5CD82EB97E00E94240A20910F0478
:103540002817190609F0CBCD8091F907882369F077
:10355000809126018250833040F46091F20770918F
:10356000F30782E096E00E94B3098091FA0788236E
:1035700069F0809126018350823040F46091F40715
:103580007091F50782E996E00E94B3098091FB07EC
:10359000882361F080912601843041F46091F60720
:1035A0007091F70782E297E00E94B30980911008BA
:1035B000882329F08091120461E0882349F08091EA
:1035C0001108882341F080911204811104C060E049
:1035D00086E00E94BB0480911308882309F4A9C4E3
:1035E00080911908823009F0CDC080911A0880348A
:1035F00009F0C8C080911C088F3F09F0C3C08091BA
:103600001B08853009F0BEC061E086E00E94BB0463
:103610008AE093E00E94050B10E000E060E0C80142
:103620000E94AE1F0F5F1F4F011524E01207B1F774
:1036300088E7E3E3F1E0DE01119601900D928A95AF
:10364000E1F780E2E2EBF1E0DE01A758BF4F019025
:103650000D928A95E1F7C756DF4F688279828A8298
:10366000C959D04082E0C456DF4F8883CC59D0403E
:10367000C356DF4F8883CD59D040CC55DF4F1882D9
:10368000C45AD040CD55DF4F1882C35AD04091E084
:10369000CE55DF4F9883C25AD040CF55DF4F888335
:1036A000C15AD04083E0C056DF4F8883C05AD04013
:1036B00084E2C156DF4F8883CF59D04088E1C2569B
:1036C000DF4F8883CE59D040BE016D557F4F90E0CB
:1036D00080E00E94800EBE0161567F4F81E090E045
:1036E0000E94800ECE0187589F4F0E94D60DBE01CA
:1036F0006F5F7F4F82E490E00E944D0EBE016F5FCE
:103700007F4F8AEB90E00E944D0EBE016F5F7F4FAE
:1037100082E391E00E944D0EBE016F5F7F4F8AEA07
:1037200091E00E944D0ECE0187569F4F0E94FF0DE3
:10373000CE0184569F4F0E94290EBE016C557F4FCB
:1037400087E292E00E94800EBE016E557F4F88E2B4
:1037500092E00E94800EBE016F557F4F89E292E099
:103760000E94800EBE0160567F4F8AE292E00E9466
:10377000800EBE0162567F4F8BE292E00E94800E67
:103780000E94C80E80911908823041F580911A0874
:10379000803441F580911C088F3121F580911B0800
:1037A000853001F561E086E00E94BB0480911D0830
:1037B0008111FAC16EE178E090E080E00E94800E15
:1037C00080911E088093EC078FE592E00E94030B26
:1037D0008091EC0790E001960E94720D809119088B
:1037E000823091F580911A08803471F580911C081F
:1037F000803251F580911B08853031F561E086E01B
:103800000E94BB0480911E08809375058093050675
:10381000809395068093250765E775E081E090E049
:103820000E94800E83E892E00E94030B8091750550
:103830000E941A0B64EF71E080E090E00E943F0567
:1038400060E086E00E94BB0480911908823009F094
:103850007FC080911A08803409F07AC080911C08DA
:10386000853109F075C080911B08853009F070C062
:1038700061E086E00E94BB0400911D0888E0089F7B
:10388000800111240D5F1E4F60911F08E0E86E9FBC
:10389000C001112460911E08680F792F711D072E39
:1038A000000C880B990B0E94D82020E030E04AE7FA
:1038B00054E40E94BC1FF801608371838283938368
:1038C00083E091E00E94D60D20911D0830E010E9C0
:1038D000129FC001139F900D11248E589A4FDC0146
:1038E000AC57BF4F73E0220F331F7A95E1F7F90110
:1038F000ED5FFE4F40815181628173814D935D93F5
:103900006D937C9313970E94ED0785E193E00E94ED
:10391000030B80911D080E941A0B8BEA92E00E9413
:10392000030BE0911D081E9FF0011124EA50FA4F8D
:1039300060817181828193810E94B40C64EF71E097
:1039400080E090E00E943F0560E086E00E94BB04BA
:1039500080911908823009F07FC080911A08803464
:1039600009F07AC080911C08863109F075C08091F9
:103970001B08853009F070C061E086E00E94BB043E
:1039800000911D08F8E00F9F800111240D5F1E4F6C
:1039900060911F0820E8629FC001112460911E08F9
:1039A000680F792F711D072E000C880B990B0E9450
:1039B000D82020E030E44CE156E40E942E20F801AB
:1039C000648375838683978383E091E00E94D60D9C
:1039D00020911D0830E010E9129FC001139F900D47
:1039E00011248E589A4FDC01A857BF4F63E0220F75
:1039F000331F6A95E1F7F901ED5FFE4F4481558170
:103A0000668177814D935D936D937C9313970E94AC
:103A1000ED0785E193E00E94030B80911D080E9451
:103A20001A0B87EB92E00E94030BE0911D081E9F8A
:103A3000F0011124E650FA4F6081718182819381F7
:103A40000E94B40C64EF71E080E090E00E943F05BA
:103A500060E086E00E94BB0480911908823009F082
:103A600014C180911A08803449F580911C0887316F
:103A700009F0D4C180911B08853001F580911D08A3
:103A8000E091DC07F0E98F9FD0011124AE58BA4FC6
:103A900013969C91E91BFF0B28E4829FE00DF11D1A
:103AA0001124EE0FFF1FE258FA4F8081918120917F
:103AB0001E082111C1C001979183808380911A084B
:103AC000803409F0E7C080911C088D3109F0E2C014
:103AD00080911B08853009F0DDC061E086E00E941E
:103AE000BB04E0911D08F0E0ED5DFE4F80911E08E3
:103AF000808383E291E00E94FF0D8AE492E00E94BD
:103B0000030B809123010E941A0B80E592E00E9432
:103B1000030B809124010E941A0B86E592E00E941B
:103B2000030B809125010E941A0B64EF71E080E085
:103B300090E00E943F0560E086E00E94BB04AAC0BE
:103B4000EF2839F181E080932601809372058FEF91
:103B5000809302068EEC97E00E94240A21E0892BD4
:103B600009F420E02093110480EC97E00E94240ADD
:103B700021E0892B09F420E02093100482EB97E0E8
:103B80000E94240A21E0892B09F420E020930F04ED
:103B9000DBCC85E0012B09F0BACA82E080932601D4
:103BA0008093720583E0D4CF813089F46EE178E0B0
:103BB00088E292E00E94800E80911E088093ED07BB
:103BC0008CE592E00E94030B8091ED0703CE8230DA
:103BD00089F46EE178E089E292E00E94800E8091A3
:103BE0001E088093EE0789E692E00E94030B809105
:103BF000EE07F0CD833009F0F1CD6EE178E08AE296
:103C000092E00E94800E80911E088093EF0786E765
:103C100092E00E94030B8091EF0790E001960E94D2
:103C2000720D64EF71E080E090E00E943F0560E07B
:103C300086E00E94BB04D2CD01963ECF813029F4AC
:103C40006EE076E08AEB90E0F9C0823029F46EE90C
:103C500076E082E391E0F2C0833009F0F1C06EE2D9
:103C600077E08AEA91E0EAC087010A33110509F09A
:103C7000FDC085E193E00E94030B80911D080E9426
:103C8000130B80E493E00E94050B809119088230A9
:103C900009F414CF809119088230E1F580911A0857
:103CA0008034C1F580911C088E31A1F580911B08EC
:103CB000853081F561E086E00E94BB04E0911D083B
:103CC000F0E0EF5FFE4F80911E08808381E091E07D
:103CD0000E94290E80911D0881118FC080910101E1
:103CE0008093760580930606809396068093260738
:103CF00085E593E00E94030B809101010E941A0B5D
:103D000064EF71E080E090E00E943F0560E086E0B3
:103D10000E94BB04809119088230B1F580911A0885
:103D2000803491F580911C08813271F580911B08D7
:103D3000853051F561E086E00E94BB0480911D084A
:103D40008093120462E174E087E292E00E94800EA8
:103D5000809112048093FE0580938E0680931E0747
:103D60008093AE0786E992E00E94030B80911204D3
:103D70000E941A0B64EF71E080E090E00E943F0522
:103D800060E086E00E94BB0480911908823009F04F
:103D9000D0C080911A08803409F0CBC080911C08F3
:103DA000823209F0C6C080911B08853009F0C1C07D
:103DB00061E086E00E94BB0480911D0880930001B1
:103DC00060E071E08BE292E00E94800E8091000141
:103DD0008093120885E793E00E94030B8091000115
:103DE0000E941A0B64EF71E080E090E00E943F05B2
:103DF00060E086E00E94BB049CC080910201809339
:103E0000770580930706809397068093270784E6BB
:103E100093E00E94030B8091020170CF883109F07A
:103E20004DCE80911B08853009F048CE80911D0849
:103E3000811104CF6EE775E082E490E00E944D0EA0
:103E400085E193E00E94030B80911D080E94130BF3
:103E50008DE193E00E94050BE0911D0880E9E89F49
:103E6000F0011124E258FA4F01E010E082819381C1
:103E7000680121E0C21AD10878012FEFE21AF20A94
:103E80002081318132968217930730F0228133816D
:103E90002817390708F0E8CE84E293E00E94030B6C
:103EA000E0911D0880E9E89FF0011124EE58FA4FD7
:103EB0008381800F912F911D0E94720D80911D08AA
:103EC00098E4992EF601989EE00DF11D1124EE0F55
:103ED000FF1FE258FA4F808191810E94A20C8091CD
:103EE0001D08F801989EE00DF11D1124EE0FFF1F33
:103EF000E258FA4F808191810E94A20C80911D08A6
:103F0000F701989EE00DF11D1124EE0FFF1FE258FE
:103F1000FA4F808191810E94A20C85E193E00E947A
:103F2000030B80911D080E94130B8BE293E00E940B
:103F3000050B80E090E0892B09F41BC80E94CE039A
:103F4000882309F413C80E94000010C8F999FECF15
:103F500092BD81BDF89A992780B50895262FF999C9
:103F6000FECF1FBA92BD81BD20BD0FB6F894FA9A5C
:103F7000F99A0FBE019608955058BB27AA270E94B0
:103F8000D41F0C944E210E94402138F00E944721FA
:103F900020F039F49F3F19F426F40C943D210EF4DF
:103FA000E095E7FB0C943721E92F0E945F2158F33D
:103FB000BA17620773078407950720F079F4A6F50E
:103FC0000C9481210EF4E0950B2EBA2FA02D0B013D
:103FD000B90190010C01CA01A0011124FF27591B4E
:103FE00099F0593F50F4503E68F11A16F040A22F54
:103FF000232F342F4427585FF3CF469537952795C5
:10400000A795F0405395C9F77EF41F16BA0B620BC3
:10401000730B840BBAF09150A1F0FF0FBB1F661F0A
:10402000771F881FC2F70EC0BA0F621F731F841F4D
:1040300048F4879577956795B795F7959E3F08F073
:10404000B0CF9395880F08F09927EE0F9795879535
:1040500008950E94132108F481E008950E944220EF
:104060000C944E210E94472158F00E94402140F0BC
:1040700029F45F3F29F00C94372151110C948221CF
:104080000C943D210E945F2168F39923B1F35523DD
:1040900091F3951B550BBB27AA276217730784075B
:1040A00038F09F5F5F4F220F331F441FAA1FA9F3F1
:1040B00035D00E2E3AF0E0E832D091505040E695DF
:1040C000001CCAF72BD0FE2F29D0660F771F881F40
:1040D000BB1F261737074807AB07B0E809F0BB0B33
:1040E000802DBF01FF2793585F4F3AF09E3F510547
:1040F00078F00C9437210C9482215F3FE4F3983ED2
:10410000D4F3869577956795B795F7959F5FC9F72F
:10411000880F911D9695879597F90895E1E0660FB0
:10412000771F881FBB1F621773078407BA0720F029
:10413000621B730B840BBA0BEE1F88F7E095089592
:104140000E94A7206894B1110C94822108950E94C6
:10415000672188F09F5798F0B92F9927B751B0F091
:10416000E1F0660F771F881F991F1AF0BA95C9F7FB
:1041700014C0B13091F00E948121B1E008950C94F7
:104180008121672F782F8827B85F39F0B93FCCF3AA
:10419000869577956795B395D9F73EF49095809578
:1041A000709561957F4F8F4F9F4F0895E89409C098
:1041B00097FB3EF490958095709561957F4F8F4F5A
:1041C0009F4F9923A9F0F92F96E9BB279395F69570
:1041D000879577956795B795F111F8CFFAF4BB0FEE
:1041E00011F460FF1BC06F5F7F4F8F4F9F4F16C052
:1041F000882311F096E911C0772321F09EE8872FDC
:10420000762F05C0662371F096E8862F70E060E097
:104210002AF09A95660F771F881FDAF7880F969510
:10422000879597F90895990F0008550FAA0BE0E8B4
:10423000FEEF16161706E807F907C0F01216130668
:10424000E407F50798F0621B730B840B950B39F4A8
:104250000A2661F0232B242B252B21F408950A260E
:1042600009F4A140A6958FEF811D811D089597F94E
:104270009F6780E870E060E008959FEF80EC08950C
:1042800000240A9416161706180609060895002435
:104290000A9412161306140605060895092E0394AF
:1042A000000C11F4882352F0BB0F40F4BF2B11F423
:1042B00060FF04C06F5F7F4F8F4F9F4F089557FD82
:1042C0009058440F551F59F05F3F71F04795880F84
:1042D00097FB991F61F09F3F79F08795089512161B
:1042E00013061406551FF2CF4695F1DF08C01616C7
:1042F00017061806991FF1CF869571056105089478
:104300000895E894BB2766277727CB0197F908958E
:104310000E94132108F48FEF08950E94A0210C94AD
:104320004E210E94402138F00E94472120F0952321
:1043300011F00C9437210C943D2111240C9482210E
:104340000E945F2170F3959FC1F3950F50E0551FB8
:10435000629FF001729FBB27F00DB11D639FAA27DA
:10436000F00DB11DAA1F649F6627B00DA11D661F29
:10437000829F2227B00DA11D621F739FB00DA11D4A
:10438000621F839FA00D611D221F749F3327A00D04
:10439000611D231F849F600D211D822F762F6A2FA0
:1043A00011249F5750409AF0F1F088234AF0EE0F05
:1043B000FF1FBB1F661F771F881F91505040A9F732
:1043C0009E3F510580F00C9437210C9482215F3F71
:1043D000E4F3983ED4F3869577956795B795F7956E
:1043E000E7959F5FC1F7FE2B880F911D96958795E6
:1043F00097F908950E941321880B990B0895A1E263
:104400001A2EAA1BBB1BFD010DC0AA1FBB1FEE1F4E
:10441000FF1FA217B307E407F50720F0A21BB30B99
:10442000E40BF50B661F771F881F991F1A9469F715
:1044300060957095809590959B01AC01BD01CF0171
:104440000895EE0FFF1F0590F491E02D0994DC0113
:1044500001C06D9341505040E0F70895F894FFCFAC
:10446000180202000000000000803F000000000071
:1044700000803F000000000000803F0000000000BE
:1044800000803F01474A04FFFFFFFF00E1000000FA
:10449000000000000044008900CD00110155019A80
:1044A00001DE0122026602AB02EF0233037703BC96
:1044B00003000444048804CD04110555059905DE64
:1044C0000522066606AA06EF0633077707BB070034
:1044D0000844088808CC08110955099909DD092202
:1044E0000A660AAA0AEE0A330B770BBB0BFF0B44D2
:1044F0000C880CCC0C100D550D990DDD0D210E66A0
:104500000EAA0EEE0E320F770FBB0F010101010153
:10451000474A000000000000803F0000000000004B
:10452000803F000000000000803F0000000000000D
:10453000803F00C18081000000000000004D01713B
:10454000056E016301B401720190010000000003D7
:10455000049502C2024F04F302D102E502000000FA
:1045600000B3068606EA075C067F066C065D060D4C
:104570000A006F66663A2000756E75736564206F79
:104580006E3A2000756E757365643A20006E616E38
:1045900000696E66006F7666004D616E75666163D8
:1045A000747572657249443A20004343313A2000E1
:1045B0004343323A20004343333A200056312043EC
:1045C00068616E6E656C3A20005632204368616EF9
:1045D0006E656C3A20005633204368616E6E656CE0
:1045E0003A20004C6F77657374204D696469204EE2
:1045F0006F74653A20004F72204761746520456EE4
:1046000061626C65643A20005630204F66667365BF
:10461000743A20005630204761696E3A20005631C6
:10462000204F66667365743A2000563120476169F1
:104630006E3A20005632204F66667365743A200049
:104640005632204761696E3A20005633204F666625
:104650007365743A20005633204761696E3A200032
:104660004D6964694E756D3A200053657420454567
:1046700050524F4D00566F6963653A2000205361D8
:10468000766564004D6964693A2000205665726958
:104690006669636174696F6E204661696C65640068
:1046A00020566572696669636174696F6E20506136
:1046B0007373656400506974636842656E64205565
:1046C000703A2000506974636842656E6420446FDC
:0C46D000776E3A20007070716E3A200086
:00000001FF
