:100000000C94D4000C94FC000C94FC000C94FC00A8
:100010000C94FC000C94FC000C94FC000C94FC0070
:100020000C94FC000C94FC000C941F100C948E108B
:100030000C94FC000C94FC000C94FC000C94FC0050
:100040000C94FC000C94FC000C94FC000C94FC0040
:100050000C94FC000C94FC000C94FC000C94181301
:100060000C94FC000C94E6120C94C0120C94FC004E
:100070000C94FC000C94FC000C94FC000C94FC0010
:100080000C94FC000C94FC000C94FC000C94FC0000
:100090000C9462130C94FC000C94FC000C94FC0077
:1000A0000C94FC000C94FC000C94FC00000000007C
:1000B0002300260029002C002F000000000024004F
:1000C00027002A002D003000000000002500280035
:1000D0002B002E0031000404040404030405020272
:1000E00002020403020202020606060606060404D1
:1000F0000202020404040802011040804010204063
:10010000804080080204018040201002011080100D
:10011000204040200000000200090F0000030401FD
:10012000000C0000000000000000000000000000C3
:10013000000000080B000202020000090400000198
:10014000020200000524001001052401010104241D
:10015000020605240600010705810310004009047A
:100160000100020A00000007050202400000070526
:1001700083024000000403090412010002EF02019F
:1001800040D80498E8000101020301556E6B6E6FC0
:10019000776E004D696469566F6C747320446573A3
:1001A0006B746F700000C91411241FBECFEFDAE02A
:1001B000DEBFCDBF13E0A0E0B1E0E4E9F7E402C0A8
:1001C00005900D92AC35B107D9F727E0ACE5B3E067
:1001D00001C01D92A23FB207E1F710E0C4EDD0E0EC
:1001E00004C02197FE010E94BB23C33DD107C9F77C
:1001F0000E94CD150C94C8230C94000096E0980F33
:10020000923060F481E08093CE078093D20781E042
:1002100090E09093DE078093DD0708958C3F31F4E2
:100220001092D20781E08093CF070895883FA9F705
:100230008091D207882389F38091DD079091DE07B2
:100240002091D007009769F431E03093CE07215018
:10025000330B8217930771F41092DE071092DD07BB
:100260000895322F3695381719068CF731E0309300
:10027000CF07EDCF0196CDCFFC018091FD03882300
:1002800011F13FB7F89482E08093E9002091F200E9
:10029000822F90E01816190614F481E090E088236C
:1002A00039F0289844E64093FC034091F1004083E4
:1002B000222339F02091F200211103C02BE6209374
:1002C000E8003FBF08958FEF9FEF08952FB7F89490
:1002D00083E08093E9009091E800892F807295FF78
:1002E00004C09091F20080E4891B2FBF0895809193
:1002F000F40381110DC082E08093F00384E08093C9
:10030000F1031092F3031092F20381E08093F4035F
:1003100080EF93E00895CF93DF931F92CDB7DEB7C0
:100320006983DC01ED91FC910280F381E02D41E0D5
:1003300050E0BE016F5F7F4F09950F90DF91CF9125
:10034000089583E08093E9008091F200882319F0FA
:100350008AE38093E80008950E94660190E0089582
:10036000CF93DF931F92CDB7DEB7FC0184859585CF
:1003700097FD08C02FEF3FEF358724870F90DF915F
:10038000CF910895CE0101960E943C01019719F486
:10039000898190E0F3CF8FEF9FEFF0CF0F931F9302
:1003A000CF93DF931F92CDB7DEB78C01FC0184851C
:1003B000958597FF0BC0CE0101960E943C010197E5
:1003C00071F4898190E0F80195878487F80184852C
:1003D00095850F90DF91CF911F910F9108958FEF29
:1003E0009FEFF1CFFC018485958597FD0BC09FB7EA
:1003F000F89482E08093E9008091F2009FBF90E042
:10040000019608959FB7F89482E08093E900809167
:10041000F2009FBF90E008954091EA035091EB03F2
:100420002091E8033091E90342175307B4F4909107
:10043000E8009570E1F39091E80092FD19C0809377
:10044000F1008091EA039091EB0301968F73992755
:10045000892B19F48EEF8093E8008091EA03909144
:10046000EB0301969093EB038093EA0381E00895F8
:1004700080E00895EF92FF920F931F93CF93DF9345
:10048000F82E192FE62E042F81E0860F880F0E9488
:100490000C0283E00E940C02CF2DD12FEC0EFD2E1A
:1004A000F11CCE15DF05B9F007FF13C0FE018491E2
:1004B0000E940C02182F80E00E940C0281232196DA
:1004C0008111EFCFDF91CF911F910F91FF90EF90AE
:1004D00008958881EDCF81E0F5CFDF92EF92FF9212
:1004E0000F931F93CF93DF93D82E8A01EB017B01EB
:1004F000E40EF51ECE15DF0559F0D7FE12C0FE0141
:1005000084910E940C0221968111F4CF0FEF1FEF0E
:10051000C801DF91CF911F910F91FF90EF90DF9075
:1005200008958881EECF0F931F93CF93DF931F928F
:10053000CDB7DEB782E0898342E450E063E371E047
:1005400080E80E946D020E947701DC0112960D91F5
:100550001C910115110589F0D801ED91FC910280E3
:10056000F381E02DBE016F5F7F4FC801099597FDB4
:1005700004C0F80100851185ECCF89810F90DF91CF
:10058000CF911F910F910895615030F02091F100AB
:10059000FC0120830196F8CF289884E68093FC0321
:1005A000089508950895AF92BF92CF92DF92EF928F
:1005B000FF920F931F93CF93DF936C017B018B010D
:1005C000040F151FEB015E01AE18BF08C017D1075D
:1005D00059F06991D601ED91FC910190F081E02DE7
:1005E000C6010995892B79F7C501DF91CF911F913C
:1005F0000F91FF90EF90DF90CF90BF90AF90089554
:10060000FC01538D448D252F30E0842F90E0821B18
:10061000930B541710F0CF96089501970895FC019D
:10062000918D828D981761F0A28DAE0FBF2FB11DF5
:100630005D968C91928D9F5F9F73928F90E008954D
:100640008FEF9FEF0895FC01918D828D981731F007
:10065000828DE80FF11D858D90E008958FEF9FEF5B
:100660000895FC01918D228D892F90E0805C9F4F31
:10067000821B91098F73992708958EE994E00E9457
:100680003103892BD1F38EE994E00E943103892B49
:10069000D1F38EE994E00E940F03883F18F00E9486
:1006A000FE00F1CF08958EE994E00E94310321E02D
:1006B000892B09F420E0822F089580E090E0892BB7
:1006C00029F00E94530381110C9400000895FC014D
:1006D000A48DA80FB92FB11DA35ABF4F2C91848DA3
:1006E00090E001968F739927848FA689B7892C9300
:1006F000A089B1898C9182748C93938D848D981389
:1007000006C00288F389E02D80818F7D8083089563
:10071000EF92FF920F931F93CF93DF93EC0181E051
:10072000888F9B8D8C8D981319C0E889F9898081F9
:1007300085FF14C09FB7F894EE89FF896083E8892C
:10074000F9898081827480839FBF81E090E0DF918E
:10075000CF911F910F91FF90EF900895F62E0B8D82
:1007600010E00F5F1F4F0F731127E02E8C8D8E113D
:100770000CC00FB607FCFACFE889F989808185FFA4
:10078000F5CFCE010E946703F1CFEB8DEC0FFD2F6B
:10079000F11DE35AFF4FF0829FB7F8940B8FEA895F
:1007A000FB8980818062CFCFCF93DF93EC01888D6E
:1007B0008823B9F0AA89BB89E889F9898C9185FDDC
:1007C00003C0808186FD0DC00FB607FCF7CF8C916A
:1007D00085FFF2CF808185FFEDCFCE010E946703B8
:1007E000E9CFDF91CF91089581508F3008F047C055
:1007F000E82FF0E0E250FC4F0C94BB231B041F04D5
:100800000D04130417043F043F043F04220428048A
:100810002C04300436043F043A04809180008F7722
:10082000809380000895809180008F7DF9CF809122
:100830008000877FF5CF84B58F7784BD089584B518
:100840008F7DFBCF809190008F77809390000895EB
:10085000809190008F7DF9CF80919000877FF5CFB8
:100860008091C0008F778093C00008958091C00070
:100870008F7DF9CF8091C200877F8093C200089559
:100880001F93CF93DF93282F30E0F901EC5EFE4FEA
:100890008491F901EB50FF4FD491F901EA52FF4FD7
:1008A000C491CC23A9F0162F81110E94F403EC2FE0
:1008B000F0E0EE0FFF1FE853FF4FA591B4918FB703
:1008C000F894EC91111108C0D095DE23DC938FBF12
:1008D000DF91CF911F910895DE2BF8CFCF93DF9357
:1008E00090E0FC01EB50FF4F24918A529F4FFC0196
:1008F00084918823D1F090E0880F991FFC01E65481
:10090000FF4FA591B491FC01E853FF4FC591D491DD
:1009100061110EC09FB7F8948C91E22FE0958E2361
:100920008C932881E223E8839FBFDF91CF910895C4
:100930008FB7F894EC91E22BEC938FBFF6CF3FB7D3
:10094000F8948091C1039091C203A091C303B09128
:10095000C40326B5A89B05C02F3F19F00196A11D21
:10096000B11D3FBFBA2FA92F982F8827BC01CD01F9
:10097000620F711D811D911D42E0660F771F881F58
:10098000991F4A95D1F708958F929F92AF92BF9287
:10099000CF92DF92EF92FF924B015C010E949F0485
:1009A0006B017C010E949F046C197D098E099F09CF
:1009B000683E734081059105A8F321E0821A9108F1
:1009C000A108B10888EEC80E83E0D81EE11CF11C16
:1009D00081149104A104B10429F7FF90EF90DF90F6
:1009E000CF90BF90AF909F908F9008958F929F92DD
:1009F000AF92BF92CF92DF92EF92FF920F931F932D
:100A0000CF93DF936C017B018A01809133018823AE
:100A100009F45CC08091FD03882309F457C08091DC
:100A2000EF0380FF05C08091E00082608093E000CA
:100A3000E801B12C8AEFA82E93E0892E2AE3922EAA
:100A4000209711F4BB20D9F10E94660181110AC0E0
:100A5000AA94AA20D9F161E070E080E090E00E94C1
:100A6000C404EECF8C171D0611F00CF08C2F9FB72D
:100A7000F8948092E9002091E80025FD02C09FBF14
:100A8000DFCF282F30E0C21BD30BF701815020F0BD
:100A900041914093F100FACFE20EF31EBB2021F00A
:100AA0009092E800B12CEBCF8091E80085FDE7CF74
:100AB0009092E800BB24B394209709F3F3CF5D989C
:100AC00084E68093EE03101611063CF081E090E07E
:100AD000F6019383828310E000E0C801DF91CF919B
:100AE0001F910F91FF90EF90DF90CF90BF90AF904C
:100AF0009F908F90089520919D03260F3327331FD9
:100B000021323105ECF420912404FC0190E080E0D6
:100B1000243069F082E00895A0919D032191AC01F9
:100B200043585C4FA40FB52FB11D2C930196861727
:100B300098F380919D03680F60939D0380E0089572
:100B400081E008951092240481E0809323041092A0
:100B5000FE0361E082E00E94400461E083E00E94C5
:100B60004004E9EBF0E080818E7F808380818D7F7F
:100B7000808388E48093B80085E48093BC00089566
:100B8000CF93DF9391E090937C038823B9F0C091D9
:100B9000B800D091BA008091BC008A7B8093BC00E1
:100BA00060E082E00E94400460E083E00E94400434
:100BB0000E94A205D093BA00C093B800DF91CF91F4
:100BC00008950895E091CA038091C903E81730F4AD
:100BD000F0E0E45AFC4F808190E008958FEF9FEFA2
:100BE00008959091CA038091C9032FEF3FEF9817A2
:100BF00048F4E92FF0E0E45AFC4F208130E09F5F99
:100C00009093CA03C90108958091C9039091CA03C2
:100C1000891B990B0895CF92DF92EF92FF920F9369
:100C20001F93CF93DF937C01CB018A0120914D0468
:100C3000222389F0EB016B01C40ED51ECC15DD0516
:100C400069F06991D701ED91FC910190F081E02D5F
:100C5000C7010995F3CF642F0E947B05C801DF917E
:100C6000CF911F910F91FF90EF90DF90CF9008955B
:100C7000CF93DF931F92CDB7DEB7698320914D04E8
:100C80002223F9F020914A04203258F021E030E08C
:100C9000FC013383228390E080E00F90DF91CF91BD
:100CA000089580914B04E82FF0E0E65DFB4F9981B9
:100CB00090838F5F80934B0480934A0481E090E09F
:100CC000ECCF61E0CE0101960E947B05F7CF682F43
:100CD0008BE395E00C943806CF92DF92EF92FF926F
:100CE0000F931F93CF93C82F192F81E080934D044A
:100CF00080E680934C0410924B0410924A046130B9
:100D000009F489C008F482C0623009F487C06330F6
:100D100009F487C0612F8BE395E00E9438066C2FA1
:100D20008BE395E00E943806C0914A04C13208F076
:100D3000A0C00E949F046B017C018091240481115A
:100D400073C082E08093240481E0809323048FEFBA
:100D50008093220410922104C0932004AAE2B4E0FC
:100D6000E0E0F4E080E0C81392C01092FF038091AD
:100D7000FF03806C8093FF038091FE03813009F0B4
:100D80008AC01092FE030E949F046B017C01809137
:100D9000FF038093BB008091260490912704A091CB
:100DA0002804B0912904892B8A2B8B2BA1F00E9457
:100DB0009F0400912604109127042091280430916B
:100DC00029046C197D098E099F0906171707280742
:100DD000390708F44AC08091BC0083FDD8CF85EC68
:100DE0008093BC000E949F046B017C0180912404CD
:100DF000823009F452C0809122048F3FD1F180915A
:100E000022048032B1F18091220433C080E490E06A
:100E10000E9467067FCF82E490E0FACF84E490E0FE
:100E2000F7CF86E490E0F4CF8091260490912704D8
:100E3000A0912804B0912904892B8A2B8B2B09F4CB
:100E40007CCF0E949F0400912604109127042091DA
:100E50002804309129046C197D098E099F09061711
:100E600017072807390708F068CF809125040E94EA
:100E7000C00510924B0410924A0410924D04CF9179
:100E80001F910F91FF90EF90DF90CF9008959D916B
:100E900091938F5F68CF85EEA3CF809126049091C8
:100EA0002704A0912804B0912904892B8A2B8B2B2D
:100EB00009F49CCF0E949F040091260410912704FE
:100EC00020912804309129046C197D098E099F090D
:100ED000061717072807390708F088CFC6CF90E014
:100EE00080E008952F923F924F925F926F927F928F
:100EF0008F929F92AF92BF92CF92DF92EF92FF922A
:100F00000F931F93CF93DF93EC01FC01EB57FF4F3F
:100F100080809180A280B38034964080518062802E
:100F2000738020E030E0A901C501B4010E94B7211F
:100F300081110AC020E030E040E85FE3C301B20164
:100F40000E94B721882389F11E0188E7280E311CF1
:100F50000FEF1FE06D857E8590E080E00E946422A7
:100F6000A30192010E941B23A50194010E944B2121
:100F70006B017C0120E030E0A9010E94162320E0F3
:100F800030E040E05FE387FD23C0C701B6010E9467
:100F90004B210E942E22611580E17807F0F47E87B4
:100FA0006D8722962C163D06A9F6DF91CF911F91F1
:100FB0000F91FF90EF90DF90CF90BF90AF909F90F8
:100FC0008F907F906F905F904F903F902F900895FB
:100FD000C701B6010E944A21DCCF77FF03C01E86FD
:100FE0001D86DFCF1E870D87DCCFCF93DF93EC010B
:100FF000CD56DF4F70E090E080E00E94642220E058
:1010000030EF4FE755E40E941B2320E030E04EEF25
:1010100052E40E94BC210E943522CB016881DF91FD
:10102000CF910C946C06CF92DF92EF92FF92CF9308
:10103000DF93EC016E817F81613080E27807C8F137
:1010400090E080E00E94642220E030E040E056E43E
:101050000E944A2120E038EF4FEF55E40E94BC2166
:101060006B017C016885798590E080E00E946422B4
:101070009B01AC01C701B6010E941B236B017C01DF
:1010800020E030E0A9010E94162320E030E040E09B
:101090005FE387FD27C0C701B6010E944B210E9474
:1010A0002E22CB01DF91CF91FF90EF90DF90CF9078
:1010B0000895611580E27807D1F090E080E00E9409
:1010C000642220E030E040E056E40E944A2120E023
:1010D00030E040E059E30E941B236B017C016A85EC
:1010E0007B85C2CFC701B6010E944A21D8CF70E0EC
:1010F00060E0D7CFEF92FF920F931F93CF93DF93D0
:10110000EC017F836E830A81EB800E1568F1F12C70
:1011100010E0C701CB968017910734F1CE010E94F1
:101120001308F801EE19FF09EE0FFF1FEC0FFD1F6A
:1011300025853685280F391FFE01ED57FF4F808129
:101140009181821793072CF0C90137FF02C090E00C
:1011500080E0CD56DF4F6881DF91CF911F910F91D5
:10116000FF90EF900C946C06DF91CF911F910F913F
:10117000FF90EF900895CF93FC01C081CF3FC1F065
:1011800070E090E080E00E94642220E030EF4FE7C2
:1011900055E40E941B2320E030E04EEF52E40E9411
:1011A000BC210E943522CB016C2FCF910C946C0690
:1011B000CF910895CF93DF93EC01FC01EE56FF4FE2
:1011C00060E080810E9440041982DF91CF910895F0
:1011D000BF92CF92DF92EF92FF920F931F93CF9324
:1011E000DF93EC01B42ECB806C1508F497C0D12CA2
:1011F0009601255C3F4F062F10E0201731070CF4B5
:101200008DC06A836C8170E0C801860F971FF8015A
:10121000EC19FD09EE0FFF1FEC0FFD1FE584F684AE
:10122000281739070CF05DC0072E000C880B990BAE
:101230000E94662220E030E848E852E40E941B2326
:101240000E943522798768876D8170E0061B170B35
:101250000C151D050CF053C0072E000C880B990BC4
:101260000E94662220E030E848E852E40E941B23F6
:101270000E9435227B876A87CE010E941308E80E00
:10128000F91EFE01ED57FF4F808191818E159F055C
:101290002CF0C701F7FE02C090E080E0FE01ED56A1
:1012A000FF4F60810E946C06BB2049F061E0FE01A7
:1012B000EE56FF4F80810E94400481E08983C3572E
:1012C000DF4F8881813091F561E086E0DF91CF9139
:1012D0001F910F91FF90EF90DF90CF90BF900C94F3
:1012E0004004FC01EC19FD09EE0FFF1FEC0FFD1F80
:1012F000858596858E199F0999878887A5CF0C19B2
:101300001D09F801EE0FFF1FEC0FFD1F8585968567
:101310009701281B390B3B872A87AECFFE01EE567B
:10132000FF4F60E080810E9440041982DF91CF91DD
:101330001F910F91FF90EF90DF90CF90BF90089595
:10134000EF92FF920F931F93CF93DF9320914A0563
:1013500030E0621773078CF0255C3F4F2617370784
:1013600064F024E9289FF001299FF00D1124E95B26
:10137000FA4F81E08183628344870091230110E06A
:10138000EBEDF5E021E030E064E920173107D4F01F
:10139000C7E4D5E0F12CE12CE016F1060CF040C0DA
:1013A0008981882349F041E06A81CE010E94E808E2
:1013B0006C85CE010E94BB088FEFE81AF80ACC5664
:1013C000DF4FEACF8181882331F142817485C901E1
:1013D0000197DF01ED01C259D1095881451770F419
:1013E00012965C9312972A9658811C965C931C97D0
:1013F0000197A459B1098F3F980761F70196689F3B
:10140000D001699FB00D1124A95BBA4F12964C937D
:1014100012971C967C932F5F3F4FEC56FF4FB5CF32
:10142000DF91CF911F910F91FF90EF900895FF9260
:101430000F931F93CF93DF93F82EC7E4D5E010E00E
:1014400000E0809123018017110671F06CF0898112
:10145000811105C040E06F2DCE010E94E8080F5FAA
:101460001F4FCC56DF4FEDCFDF91CF911F910F91E2
:10147000FF9008950F931F93CF93DF93EC01288182
:1014800039813327F901EC5EFE4F8491F901EB506D
:10149000FF4F0491F901EA52FF4F1491112309F40F
:1014A00053C081110E94F403E12FF0E0EE0FFF1F03
:1014B000E455FF4FA591B491EC910E2331E020E06B
:1014C00009F430E0832F922F2A813B8128173907B6
:1014D00079F02FB7F8944091D4035091D5036091DF
:1014E000D6037091D7032FBF4E835F8368877987B8
:1014F0002FB7F8944091D4035091D5036091D6034F
:101500007091D7032FBF0E811F8128853985401B1D
:10151000510B620B730B0A851B852C853D850417C7
:1015200015072607370738F42C813D81281739071E
:1015300011F09D838C839B838A838C819D81DF91B5
:10154000CF911F910F91089590E080E0BDCFFC01F5
:1015500001900020E9F73197AF01481B590BBC01FE
:101560008EE994E00C94D3028F929F92AF92BF9237
:101570000F931F93CF93DF93CDB7DEB7A1970FB62D
:10158000F894DEBF0FBECDBF19A2423008F44AE086
:101590008E010F5D1F4F842E912CB12CA12CA50123
:1015A00094010E949923E62FB901CA01EA30F4F4AC
:1015B000E05DD801EE938D01232B242B252B79F7A9
:1015C00090E080E0109719F0CD010E94A70AA19643
:1015D0000FB6F894DEBF0FBECDBFDF91CF911F9144
:1015E0000F91BF90AF909F908F900895E95CE1CFED
:1015F000CF92DF92EF92FF92CF93DF936B017C014A
:101600006DE28EE994E00E948803EC01662777275B
:10161000CB016C197D098E099F094AE00E94B40A2A
:101620008C0F9D1FDF91CF91FF90EF90DF90CF90B7
:1016300008950C94A70ACF93DF930E94A70AEC01A8
:101640008CE092E00E94A70A8C0F9D1FDF91CF9142
:101650000895682F70E090E080E04AE00C94B40AAE
:10166000CF93DF930E94290BEC018CE092E00E9463
:10167000A70A8C0F9D1FDF91CF910895CF93DF9321
:10168000BC0190E080E04AE00E94B40AEC018CE0EA
:1016900092E00E94A70A8C0F9D1FDF91CF910895C1
:1016A0008F929F92AF92BF92CF92DF92EF92FF9272
:1016B0001F93CF93DF936B017C01AC019B010E94D0
:1016C00088238823B9F08FE092E00E94A70AEC01FA
:1016D0008CE092E00E94A70A8C0F9D1FDF91CF91B2
:1016E0001F91FF90EF90DF90CF90BF90AF909F90B1
:1016F0008F90089546015701E894B7F82FEF3FEF18
:101700004FE75FE7C501B4010E94882381110DC036
:101710002FEF3FEF4FE75FE7C501B4010E94B7210C
:1017200018161CF483E192E0D0CF2FEF3FEF4FE784
:101730005FE4C701B6010E94162318161CF487E166
:1017400092E0C3CF2FEF3FEF4FE75FECC701B60149
:101750000E94B72187FDF3CF20E030E0A901C70147
:10176000B6010E94B721D0E0C0E087FF0AC06DE259
:101770008EE994E00E948803EC01F7FAF094F7F800
:10178000F09426E137EB41E558E3C701B6010E942A
:101790004B216B017C010E9435224B015C010E94B0
:1017A00064229B01AC01C701B6010E944A216B0172
:1017B0007C014AE0C501B4010E94B40AC80FD91FD8
:1017C0006EE28EE994E00E948803C80FD91F15E0ED
:1017D000115009F47DCF20E030E040E251E4C70130
:1017E000B6010E941B234B015C010E9435226B0154
:1017F000F12CE12C4AE0C701B6010E94B40AC80FDF
:10180000D91FC701B6010E9464229B01AC01C5012A
:10181000B4010E944A216B017C01DACFCF93DF93A0
:10182000BC01990F880B990B4AE00E94B40AEC01A5
:101830008CE092E00E94A70A8C0F9D1FDF91CF9150
:10184000089585ED8093BC00809126049091270433
:10185000A0912804B09129040796A11DB11D23E091
:10186000B695A795979587952A95D1F72091BC00B5
:1018700024FD03C010922404089540912604509141
:1018800027046091280470912904452B462B472B8F
:1018900069F30097A105B10541F025E32A95F1F719
:1018A00000000197A109B109E1CF809125040C94B2
:1018B000C005FF920F931F93CF93DF93EC01F62E99
:1018C00008811981C8010E943421F81621F06F2D7A
:1018D000C8010E943C21CE01DF91CF911F910F9151
:1018E000FF900895CF92DF92EF92FF920F931F9394
:1018F000CF93DF9300D0CDB7DEB76C017C0102E05F
:1019000010E01A830983F70161917F01CE010196EE
:101910000E94590C0F5F1F4F0232110591F7C6014B
:101920000F900F90DF91CF911F910F91FF90EF904B
:10193000DF90CF900895CF92DF92EF92FF920F93B6
:101940001F93CF93DF9300D0CDB7DEB76C017C013E
:1019500002E212E01A830983F70161917F01CE014F
:1019600001960E94590C0F5F1F4F0532F2E01F07CE
:1019700089F7C6010F900F90DF91CF911F910F91C2
:10198000FF90EF90DF90CF9008950F931F93CF9328
:10199000DF9300D0CDB7DEB78C0185E292E09A8369
:1019A0008983F8016081CE0101960E94590C86E27C
:1019B00092E09A838983F8016181CE0101960E94A9
:1019C000590CC8010F900F90DF91CF911F910F918B
:1019D0000895EF92FF920F931F93CF93DF9300D060
:1019E000CDB7DEB78C017B019A838983FB016081CF
:1019F000CE0101960E94590C0F5F1F4F1A83098375
:101A0000F7016181CE0101960E94590CC7010F9028
:101A10000F90DF91CF911F910F91FF90EF9008955C
:101A2000AF92BF92CF92DF92EF92FF920F931F93EC
:101A3000CF93DF9300D0CDB7DEB78B016B0128E7E2
:101A4000C20ED11C7B015C01A61AB70AC5018E0D1E
:101A50009F1D9A838983F70161917F01CE010196D1
:101A60000E94590CEC14FD0489F7C8010F900F90E7
:101A7000DF91CF911F910F91FF90EF90DF90CF906A
:101A8000BF90AF9008950F931F93CF93DF9300D033
:101A9000CDB7DEB78B019A838983FB016081CE01CC
:101AA00001960E94590CC8010F900F90DF91CF91C1
:101AB0001F910F910895CF92DF92EF92FF920F93B3
:101AC0001F93CF93DF93EB017B0128E7E20EF11C1C
:101AD0008B016C01C61AD70AC601800F911F0E94A4
:101AE0003421F80181938F01EE15FF05A9F7CE018E
:101AF000DF91CF911F910F91FF90EF90DF90CF90EA
:101B00000895CF93DF93EB010E9434218883CE01A7
:101B1000DF91CF9108950F931F93CF93DF9365ECDF
:101B200077E090E080E00E94810D6AE475E081E05A
:101B300090E00E94810D6EED75E081E090E00E94E2
:101B4000810D62E776E081E090E00E94810D66E021
:101B500077E081E090E00E94810D03E011E0C2E0B7
:101B6000D0E0CE010E943421F80181938F012196AB
:101B7000C232D105B1F764E575E082E490E00E94DD
:101B80005B0D68EE75E08AEB90E00E945B0D6CE700
:101B900076E082E391E00E945B0D60E177E08AEA03
:101BA00091E00E945B0D82E292E00E9434218093DA
:101BB000240183E292E00E9434218093250184E293
:101BC00092E00E9434218093260185E292E00E94F7
:101BD00034218093010186E292E00E9434218093B7
:101BE000020167EE73E087E292E00E94810D60E0FF
:101BF00071E08BE292E00E94810D63EE73E08CE273
:101C000092E00E94810D69ED73E08DE292E00E9406
:101C1000810D68ED73E08EE292E00E94810D6AED25
:101C200073E08FE292E00E94810D90910101909308
:101C30004B058091020180934C059093DF058093C2
:101C4000E005909373068093740690930707809342
:101C500008078091030190910401A0910501B091C2
:101C600006018093CC059093CD05A093CE05B0934B
:101C7000CF058091070190910801A0910901B091D1
:101C80000A018093D0059093D105A093D205B0931B
:101C9000D30580910B0190910C01A0910D01B091A1
:101CA0000E018093600690936106A0936206B09344
:101CB000630680910F0190911001A0911101B091E4
:101CC00012018093640690936506A0936606B09314
:101CD00067068091130190911401A0911501B091B4
:101CE00016018093F4069093F506A093F606B09340
:101CF000F7068091170190911801A0911901B091F8
:101D00001A018093F8069093F906A093FA06B0930F
:101D1000FB0680911B0190911C01A0911D01B091C7
:101D20001E018093880790938907A0938A07B09338
:101D30008B0780911F0190912001A0912101B0910A
:101D4000220180938C0790938D07A0938E07B09308
:101D50008F0787E495E00E9472078BED95E00E9463
:101D600072078FE696E00E94720783E097E00E9478
:101D700072078091E7038093D4058093680680936F
:101D8000FC068093900780910001811103C088E1D7
:101D900080930001809100018093D0078BE192E055
:101DA0000E94190B82E00E94300B8BE192E00E94AE
:101DB000190B80E40E94300B83E292E00E94190B21
:101DC0008091E3030E94300B89E292E00E94190B9C
:101DD000809124010E94300B8FE292E00E94190B47
:101DE000809125010E94300B85E392E00E94190B3F
:101DF000809126010E94300B8BE392E00E94190B28
:101E0000809101010E94300B85E492E00E94190B41
:101E1000809102010E94300B81E592E00E94190B33
:101E20008091C50790E001960E940E0C86E592E035
:101E30000E94190B80914A050E94290B87E292E0CB
:101E40000E94190B8091DE050E94290B87E292E027
:101E50000E94190B809172060E94290B87E292E082
:101E60000E94190B809106070E94300B89E692E0D0
:101E70000E94190B8091E7030E94300B8BE792E0E0
:101E80000E94190B809100010E94300B82E892E0C1
:101E90000E94190B8091D9030E94300B80E992E0D7
:101EA0000E94190B8091D8030E94300B8FE992E0B9
:101EB0000E94190B8091DA030E94300B8EEA92E0A7
:101EC0000E94190B6091CC057091CD058091CE05D3
:101ED0009091CF050E94500B8AEB92E00E94190B63
:101EE0006091D0057091D1058091D2059091D30574
:101EF0000E94500B84EC92E00E94190B60916006E6
:101F00007091610680916206909163060E94500B69
:101F100080ED92E00E94190B609164067091650655
:101F200080916606909167060E94500B8AED92E0C0
:101F30000E94190B6091F4067091F5068091F606E7
:101F40009091F7060E94500B86EE92E00E94190BCA
:101F50006091F8067091F9068091FA069091FB065F
:101F60000E94500B80EF92E00E94190B609188074D
:101F70007091890780918A0790918B070E94500B7E
:101F80008CEF92E00E94190B60918C0770918D0785
:101F900080918E0790918F070E94500BC4E5D5E089
:101FA00010E000E086E093E00E94190B60914A0582
:101FB000600F712F711D072E000C880B990B4AE0E2
:101FC0000E94B40A87E292E00E94190B699179910C
:101FD00090E080E04AE00E94B40A87E292E00E942A
:101FE000190BFE01EE56FF4F6081718190E080E099
:101FF0004AE00E94B40A87E292E00E94190BFE01B7
:10200000EA5DFE4F6081718190E080E04AE00E94CD
:10201000B40A87E292E00E94190BFE01E654FE4FDB
:10202000808191810E943E0B0F5F1F4F0C33110581
:1020300009F0B8CFDF91CF911F910F9108951F92B2
:102040000F920FB60F9211248F939F938091E1000E
:102050009091E100937F9093E10083FF0FC0109275
:10206000E90091E09093EB001092EC0092E39093E2
:10207000ED001092FD0398E09093F00082FF22C0E3
:1020800093E09093E9009091F200992319F09AE37C
:102090009093E8009091EE03992341F09091EE0324
:1020A00091509093EE03911101C05D9A9091FC03C1
:1020B000992341F09091FC0391509093FC0391116E
:1020C00001C0289A84FF18C08091E2008E7E816052
:1020D0008093E2008091E1008F7E8093E100809107
:1020E000EF038E7E80618093EF039F918F910F901D
:1020F0000FBE0F901F90189580FFF7CF8091E200E0
:102100008E7E80618093E2008091E1008E7E8093DC
:10211000E1008091EF038E7E8160E5CF1F920F92E8
:102120000FB60F921124CF92DF92EF92FF920F938E
:102130001F932F933F934F935F936F937F938F934F
:102140009F93AF93BF93EF93FF93CF93DF93CDB75D
:10215000DEB76C97DEBFCDBF1092E9008091E8003A
:1021600083FF25C068E0CE0145960E94C40282EF3D
:102170008093E8008D8987FF39C09091E80090FF37
:10218000FCCF982F907609F034C19E894F89588DE5
:102190002F89F88C911131C0803861F58091ED0361
:1021A0008093F1001092F1008EEF8093E8006C961E
:1021B0000FB6F894DEBF0FBECDBFDF91CF91FF9178
:1021C000EF91BF91AF919F918F917F916F915F91AF
:1021D0004F913F912F911F910F91FF90EF90DF90C2
:1021E000CF900F900FBE0F901F9018959EEF909379
:1021F000E800C7CF1092F100D5CF913059F481118A
:10220000D3CF4130510581F68091ED038D7F8093CE
:10221000ED03CACF933049F48111C6CF4130510547
:1022200019F68091ED038260F2CF953041F48091F0
:10223000E80080FFFCCF20682093E300B5CF963004
:1022400009F0A9C00B8D1C8D22E01092E9001092BC
:10225000EB031092EA03F2122EC01092E9031092DF
:10226000E8030E9493021F8299E09983FA8291E029
:102270009E8390EA98879AEF99872091EA0330919C
:10228000EB03275F3F4F3C832B838D831092E90044
:102290001092EB031092EA031093E9030093E80312
:1022A00049E050E0BE016F5F7F4F80E00E946D0209
:1022B0000E94930279CF1093E9030093E8030E94F0
:1022C0007701DC0112960D911C910115110509F49D
:1022D00051C1D801ED91FC910480F581E02DBE0142
:1022E0006B5E7F4FC8010995009709F03EC1F80168
:1022F00000851185EACFF3E0FF120EC08F89882395
:1023000009F440C0823061F440E861E183E991E082
:102310000E943A02811148CF81E28093EB0047CFBF
:10232000813029F440E867E08BE891E0F1CF833019
:1023300099F70E947701DC011296ED90FC908E01D6
:102340000F5F1F4F6801E114F10479F0D701ED919F
:10235000FC910680F781E02DB801C7010995080FAF
:10236000111DF701E084F184EECFD8011C92F60133
:1023700001900020E9F73197BF016C197D0940E019
:10238000C601C6CF65E771E0FB01449150E080E8EB
:102390000E946D0209CF973009F4BECF983021F426
:1023A00081E08093F10000CF993009F0FDCE837079
:1023B00009F0B2CFE0EDF1E081E031E096E3219168
:1023C000222371F08093E9003093EB00DF01119735
:1023D0002C912093EC009093ED008F5F873079F77C
:1023E0008EE78093EA001092EA008F898093FD03C4
:1023F000DBCE8B8D9C8D1092E9001092EB03109236
:10240000EA039093E9038093E803898D811192C0D8
:102410008E899D89913A49F4813209F07DCF47E058
:1024200050E06CE271E080E0B3CF913209F074CFFC
:10243000833269F48F89988DB0E0A0E08093280101
:1024400090932901A0932A01B0932B01ADCE803245
:1024500069F48091E80082FFFCCF67E08CE291E0B4
:102460000E94C4028BEF8093E8009ECE823209F076
:102470009BCE8F8980933301EEEFFFE78591949196
:102480008B3F9C4D51F1E0E0F8E080912C01909160
:102490002D01A0912E01B0912F01803B9440A10508
:1024A000B105F1F48091330180FD1AC0EE3F8AE05E
:1024B000F80789F587E797E791838083809160002B
:1024C0008093EC0388E19BE00FB6F894A895809385
:1024D00060000FBE9093600067CEEEEFFAE0D5CFBC
:1024E000808191818737974709F05ECEA8958091CA
:1024F00060008861809360008091EC0380936000AD
:10250000EE3F2AE0F20789F08091FE0A9091FF0ADF
:102510009183808349CE808191818737980751F2DA
:102520009093FF0A8093FE0AC5CF1092FF0A109283
:10253000FE0A3ACE0E947701DC0112960D911C91A1
:102540000115110509F4E8CED801ED91FC91019037
:10255000F081E02DBE016B5E7F4FC80109958111AE
:1025600023CEF80100851185EBCF181619060CF45F
:102570001BCED2CEF1E0FF12BECE69E771E004CFF0
:102580001F920F920FB60F9211242F933F934F93E8
:102590005F936F937F938F939F93AF93BF93EF93CB
:1025A000FF938EE994E00E946703FF91EF91BF9142
:1025B000AF919F918F917F916F915F914F913F91DB
:1025C0002F910F900FBE0F901F9018951F920F9292
:1025D0000FB60F9211242F938F939F93EF93FF9336
:1025E000E091AE04F091AF048081E091B404F091E9
:1025F000B50482FD1BC090818091B7048F5F8F73FB
:102600002091B804821741F0E091B704F0E0E2565F
:10261000FB4F958F8093B704FF91EF919F918F911E
:102620002F910F900FBE0F901F9018958081F4CFBF
:102630001F920F920FB60F9211242F933F938F93F7
:102640009F93AF93BF938091D4039091D503A091B2
:10265000D603B091D7033091C00323E0230F2D3769
:1026600058F50196A11DB11D2093C0038093D4039A
:102670009093D503A093D603B093D7038091C10361
:102680009091C203A091C303B091C4030196A11D10
:10269000B11D8093C1039093C203A093C303B09371
:1026A000C403BF91AF919F918F913F912F910F9054
:1026B0000FBE0F901F90189526E8230F0296A11DBC
:1026C000B11DD2CF1F920F920FB60F9211242F93EC
:1026D0003F934F935F936F937F938F939F93AF93AA
:1026E000BF93EF93FF938091B900887F803609F400
:1026F0004AC0F0F5883209F4A7C018F5803109F412
:102700009BC0B8F4882309F4F9C0883009F494C058
:10271000FF91EF91BF91AF919F918F917F916F91B9
:102720005F914F913F912F910F900FBE0F901F908F
:102730001895883109F488C0803251F780932204BB
:1027400014C0803409F49DC040F48033B9F3883359
:10275000F9F68093220485ECB0C0803509F485C079
:10276000883509F496C0883499F60E94210CD0CFA0
:10277000883909F48CC038F5883729F050F4883648
:1027800011F0803729F683E0809324041092BF0370
:1027900057C0883809F47BC0803919F0803809F0B7
:1027A000B7CF8091BF03803208F071C0E091BF03C2
:1027B00081E08E0F8093BF038091BB00F0E0E15673
:1027C000FC4F80833DC0803B39F0E0F4803A09F44F
:1027D00079C0883A09F09CCF84E080932404109259
:1027E0009E0310929D03E091C703F091C8030995E1
:1027F00080919D0381110FC081E080939D03109211
:102800007D0309C0803C09F4A6CF883C09F4A3CF1E
:10281000883B09F07DCFE0919E0381E08E0F80938D
:102820009E03F0E0E358FC4F80818093BB009091C1
:102830009E0380919D0329C08091FF038093BB007C
:1028400085EC8093BC0064CF90912104809120049A
:10285000981758F5E091210481E08E0F80932104B0
:10286000F0E0E050FC4F8081E9CFE091210481E06D
:102870008E0F809321048091BB00F0E0E050FC4F6C
:10288000808390912104809120049817C8F285E8F4
:10289000D8CFE091210481E08E0F809321048091B4
:1028A000BB00F0E0E050FC4F808380912304811155
:1028B0005CCF81E08093FE0384EA8093BC00109299
:1028C000240426CF85EC8093BC00109224048091D0
:1028D000BF03803230F4E091BF03F0E0E156FC4FDB
:1028E00010826091BF0370E0E091C503F091C603D0
:1028F0008FE993E009951092BF030ACF109222044A
:1029000034CF0F931F93CF93DF93EC01162F042F37
:102910008FEF888319821A8284E28B831C821D8246
:1029200080E090E29F838E83198618861B861A8624
:102930001C8688E7E4E3F1E0DE011D9601900D922C
:102940008A95E1F7FE01EB57FF4F10821182128248
:102950001382349680E090E0A0E8BFE38083918307
:10296000A283B38334961082319610821182128230
:10297000138261E0812F0E946E04FE01EE56FF4F2C
:102980001083CD56DF4F0883DF91CF911F910F91B8
:102990000895CF92DF92EF92FF921092510410921D
:1029A000500488EE93E0A0E0B0E08093520490934E
:1029B0005304A0935404B09355042AED31E03093AE
:1029C0004F0420934E042FEF3FEF30935B0420938E
:1029D0005A041092A1041092A0048093A204909330
:1029E000A304A093A404B093A5042CEE31E030938B
:1029F0009F0420939E042DEC30E03093AB04209391
:102A0000AA042CEC30E03093AD042093AC0428EC05
:102A100030E03093AF042093AE0429EC30E03093E3
:102A2000B1042093B0042AEC30E03093B304209337
:102A3000B2042EEC30E03093B5042093B40410922D
:102A4000B7041092B8041092B9041092BA0410920C
:102A50003E0510923D0580933F0590934005A0935D
:102A60004105B09342058EEF91E090933C05809331
:102A70003B051092C1071092C50788E18093D007EB
:102A80001092D20781E08093D3071092D40710925E
:102A9000D5071092D6071092D7071092D807109238
:102AA000DE071092DD071092E1071092E007E2EED8
:102AB000F7E0119287E0E23FF807D9F71092B907E3
:102AC0001092BA071092BB071092BC0760E089E031
:102AD0000E946E0489E090E09093B4078093B3075E
:102AE00082E3C82ED12CE12CF12CC092BD07D092EC
:102AF000BE07E092BF07F092C0071092AB0710929A
:102B0000AC071092AD071092AE0760E083E10E941F
:102B10006E0483E190E09093A6078093A507C0928E
:102B2000AF07D092B007E092B107F092B2071092CF
:102B30009D0710929E0710929F071092A00760E0D9
:102B400084E10E946E0484E190E090939807809362
:102B50009707C092A107D092A207E092A307F09234
:102B6000A40740E068E087E495E00E94811441E01A
:102B700062E18BED95E00E94811442E065E18FE611
:102B800096E00E94811443E066E183E097E0FF90C5
:102B9000EF90DF90CF900C948114CF93DF93CDB75B
:102BA000DEB7C75AD1090FB6F894DEBF0FBECDBF4E
:102BB000789484B5826084BD84B5816084BD85B518
:102BC000826085BD85B5816085BD80916E00816024
:102BD00080936E00109281008091810082608093CA
:102BE00081008091810081608093810080918000CC
:102BF0008160809380008091910082608093910039
:102C0000809191008160809391008091900081601B
:102C1000809390008091C10084608093C100809176
:102C2000C10082608093C1008091C1008160809367
:102C3000C1008091C30081608093C3008091C00077
:102C400082608093C0008091C20081608093C20046
:102C500080917A00846080937A0080917A0082600B
:102C600080937A0080917A00816080937A008091CD
:102C70007A00806880937A001092FD031092ED0331
:102C80001092EF038091D70081608093D70080EA93
:102C90008093D80089B5806189BD89B5826089BD7E
:102CA00009B400FEFDCF61E070E080E090E00E949A
:102CB000C4048091D8008F7C80618093D80080917B
:102CC000E000807F8093E0008091E1008E7E809321
:102CD000E1008DE08093E200559A209AE091AE04E5
:102CE000F091AF0482E08083E091AA04F091AB04FC
:102CF0001082E091AC04F091AD048FE380831092D8
:102D0000B604E091B204F091B30486E08083E091D0
:102D1000B004F091B104808180618083E091B004BF
:102D2000F091B104808188608083E091B004F091DB
:102D3000B104808180688083E091B004F091B10497
:102D400080818F7D80831092CA031092C9031092F4
:102D50004B0410924A040E94A20581ED92E09093E8
:102D6000C8038093C70382ED92E09093C6038093DB
:102D7000C50361E086E00E946E0448E050E060E830
:102D800070E08BED93E00E94C12348E050E060E8E2
:102D900070E08CEC93E00E94C1230E948B0D609048
:102DA000AC017090AD018090AE011092C2071092FC
:102DB000C3071092CE071092CF071092C807109247
:102DC000CB071092CD071092D1078EE994E00E94B4
:102DD00031031816190664F48EE994E00E940F037B
:102DE000082FF82E80E8800F883780F50093DF07E2
:102DF0008091C207882309F42BC29090C4070091E8
:102E0000C1078091D803882309F4D0C1809127019C
:102E1000853009F4CBC1A7E4EA2EA5E0FA2ED12C27
:102E2000C12C809123018C151D0409F00CF487C17D
:102E3000F7018181811103C0C7010E94DA08FFEF09
:102E4000CF1ADF0A24E9E20EF11CEBCF27EF20179F
:102E500020F4802F0E94FE00CBCFE02E07FD42C061
:102E60002091DF0730E08091C50790E0AC0140572A
:102E70005F4F2417350709F0BCC00093C1070E94BB
:102E80003D038093C4079091C1072091E0073091E2
:102E9000E107882309F488C0E92FF0E043E0F595C5
:102EA000E7954A95E1F7EF53F84F81A19770482FC6
:102EB00050E0092E02C0559547950A94E2F740FD6F
:102EC00011C041E04093C2072F5F3F4F3093E107AD
:102ED0002093E00721E030E001C0220F9A95EAF745
:102EE000822B81A38091E0079091E107892B09F063
:102EF000B1C081E08093D307E7FC41C02091DF0798
:102F00008091C50790E080529F4F2817190679F4E9
:102F100081E08093C8070E943D0370E8879FC0014D
:102F20001124800F911D9093C7078093C6072091AD
:102F3000DF078091C50790E080559F4F281719063D
:102F400079F4EE24E394E092CB070093C9070E9442
:102F50003D038093CA078091C9078B3709F47DC070
:102F60002091DF078091C50790E080539F4F28177D
:102F7000190629F481E08093CD070093CC07809156
:102F8000DF07803F09F034CF8FE7F81275C08EE974
:102F900094E00E943103892BD1F38EE994E00E94E2
:102FA0000F03873FA1F724CF81E08093C307E92F68
:102FB000F0E083E0F595E7958A95E1F7EF53F84F58
:102FC000977041E050E0BA0102C0660F771F9A95F2
:102FD000E2F7CB01809591A1892381A312161306F4
:102FE0000CF080CF215031093093E1072093E007A6
:102FF00079CF80589F4F2817390709F073CF009376
:10300000C1070E943D0381E08093C3072091C1075F
:10301000E22FF0E0B3E0F595E795BA95E1F7EF53CD
:10302000F84F277081E090E001C0880F2A95EAF7F9
:10303000809591A1892381A38091E0079091E10778
:10304000181619060CF04ECF01979093E107809364
:10305000E00748CF1092D3074FCF1092E1071092AC
:10306000E007E092D307E2EEF7E082EF97E01192FB
:103070008E179F07E1F774CF81E08093D1078EE927
:1030800094E00E943103892BD1F38EE994E00E94F1
:103090000F038093D407873F09F4AACE8EE994E00A
:1030A0000E943103892BD1F38EE994E00E940F0333
:1030B0008093D507873F09F49BCE8EE994E00E9468
:1030C0003103892BD1F38EE994E00E940F038093A2
:1030D000D607873F09F48CCE8EE994E00E94310335
:1030E000892BD1F38EE994E00E940F038093D707D8
:1030F000873F09F47DCE8EE994E00E943103892B4D
:10310000D1F38EE994E00E940F038093D807873FA4
:1031100009F46ECE00E08EE994E00E943103892B21
:10312000D1F38EE994E00E940F03873F09F460CE4B
:10313000E02FF0E0EF53F84F808F0F5FECCF40911E
:10314000D80350E0FA01E553FC4F208180914A05F5
:10315000203801F5ECECF3E030E020E024173507EF
:103160004CF49191903811F009130FC024533C4F47
:10317000F9010083081760F090E0CB960817190654
:1031800009F00CF4E8C00C50F9CF2F5F3F4FE6CFA9
:10319000045FF0CF281708F45BC090E0CB962817A7
:1031A000190611F00CF054C00083022FD12CC12C51
:1031B000E6E52E2EF4E93F2E492C512CA02EB12C01
:1031C00080912301282F30E0C216D3060CF040C0B6
:1031D0004091D903EC2C413091F4813009F49CC02A
:1031E000823009F07EC08091CB0380588093CB035E
:1031F00090E0880F892F881F990BE82E182F8E2DAD
:1032000090E0389EF001399EF00D1124E95BFA4FF1
:1032100051815111ABC020912701253009F07FC0A9
:1032200041E0602F87E495E00E94E80841E0602FCC
:103230008BED95E00E94E80841E0602F8FE696E074
:103240000E94E80841E0602F83E097E00E94E808D0
:103250008091C307882309F437C14091C1072091A9
:10326000D8032111F4C02091230130E0E7E4F5E018
:1032700090E080E0821793070CF0D4C15181552370
:1032800009F4CCC152814513C9C1EBEDF3E027E04D
:1032900030E06781603809F47CC140912701F90171
:1032A000E552FC4F7F01453009F0F9C041E087E469
:1032B00095E00E94E80841E0F70160818BED95E020
:1032C0000E94E80841E0F70160818FE696E00E94E5
:1032D000E80841E0F701608183E097E00E94E80898
:1032E000F0C0833059F48091CB038A5A8093CB038A
:1032F000622D0E948D23182FE12E81CF8430E1F7BB
:103300008091CB03805C8093CB0390E066E0959541
:1033100087956A95E1F771CF10E0E12C70CF4230CC
:10332000F0F4E39C70011124B701695B7A4F7B01D3
:1033300041E0602FC7010E94E808692DC7010E9483
:10334000BB088091D9038D7F09F082CF8091230142
:10335000823008F47DCF802F0E94170A79CF492D43
:1033600050E0602F70E00E94A009EBCF215031099E
:10337000C216D30609F042C0423009F043C0209182
:103380004A050217F8F030E0255C3F4F2A153B054F
:10339000CCF0EBEDF3E030E020E05191503869F4EF
:1033A00025523C4F389EF001399EF00D1124E95B07
:1033B000FA4F5281F901508305C02F5F3F4F2830EB
:1033C000310559F720912701253049F541E0602F5B
:1033D00087E495E00E94E80841E0602F8BED95E0DE
:1033E0000E94E80841E0602F8FE696E00E94E8081E
:1033F00041E0602F83E097E00E94E8087FEFC71A62
:10340000D70ADECEEBEDF3E030E020E0519150380A
:1034100039F22F5F3F4F28303105C1F7D3CF42300B
:1034200029F4A201B5010E94A009E8CFE39C700134
:103430001124B701695B7A4F7B0141E0602FC7011E
:103440000E94E808692DC7010E94BB08D7CF809170
:103450002701853009F407CFECECF3E090E080E041
:1034600030E0BF016C5C7340621773076CF0FC01C5
:10347000E453FC4F80E89F012C5C33402830310539
:103480000CF0F1CE8193F7CF5191503851F345179D
:1034900041F3DC01A453BC4F5C930196E2CF209131
:1034A000D903223009F06AC024E9289FF001299F3E
:1034B000F00D1124E95BFA4F448550E070E00E9462
:1034C000A00980E8F70180838091D307882309F45D
:1034D000CFC08091E703813021F460E086E00E9454
:1034E000400483EB97E00E943A0A2091E6032817F4
:1034F000190609F4A9C087E997E00E943A0A7C01FD
:1035000085EA97E00E943A0A6C0183EB97E00E94FB
:103510003A0A892B09F096C183E0CD2809F0A8C1A9
:1035200084E0EF2809F4A4C186E0809327018FEF9F
:10353000809347058093DB0581E08093230183EB33
:1035400097E00E943A0A21E0892B09F420E02093B9
:10355000E60385EA97E00E943A0A21E0892B09F404
:1035600020E02093E50387E997E00E943A0A21E0F2
:10357000892B09F420E02093E4037AC044E9489FB2
:103580009001499F300D112441E0C901895B9A4F98
:10359000A5CE2150310931972F3F320709F079CE5E
:1035A00020912701253089F487E495E00E94DA080C
:1035B0008BED95E00E94DA088FE696E00E94DA082B
:1035C00083E097E00E94DA087FCF2091DA03213070
:1035D000D9F424E9289FF001299FF00D1124E95B1B
:1035E000FA4F11822FB7F8948091D4039091D503AC
:1035F000A091D603B091D7032FBFE257FF4F80832E
:103600009183A283B38360CF44E9489F9001499F8F
:10361000300D1124C901895B9A4FD4CF0196EC5625
:10362000FF4F28CEEBEDF3E090E080E021914213D4
:1036300006C085529C4F20E8FC01208345CF0196AF
:103640008830910599F740CF85EA97E00E943A0AC1
:103650002091E5032817190609F04DCF87E997E077
:103660000E943A0A2091E4032817190609F043CF73
:103670008091C807882379F080912701813019F063
:10368000863009F0FBC06091C6077091C70787E4D8
:1036900095E00E947A088091CB07882309F472C0D4
:1036A0008091C9079091E30389130CC0882351F0DE
:1036B00080912701863031F46091CA0787E495E054
:1036C0000E94F5079091C9078091240198130DC0BD
:1036D00080912701982F9D7F913009F01CC1609146
:1036E000CA0783E097E00E94F5079091C90780918F
:1036F000250198130AC080912701863031F460912A
:10370000CA078FE696E00E94F5079091C90780915D
:10371000260198130AC080912701863031F4609108
:10372000CA0783E097E00E94F5078091C9078B37AD
:1037300049F58091E703813021F460E086E00E9442
:10374000400480E88093DB038093DC038093DD03F7
:103750008093DE038093DF038093E0038093E10393
:103760008093E20387E495E00E94DA088BED95E010
:103770000E94DA088FE696E00E94DA0883E097E07C
:103780000E94DA088091CD07882351F080912701AB
:10379000813031F46091CC078FE696E00E94F50706
:1037A0008091CE07882329F08091E70361E0882388
:1037B00049F08091CF07882341F08091E703811180
:1037C00004C060E086E00E9440048091DA0381300A
:1037D00009F0A9C057E4E52E55E0F52ED12CC12CF7
:1037E000809123018C151D0409F00CF49CC0F70195
:1037F0008181811120C02FB7F8948091D4039091DA
:10380000D503A091D603B091D7032FBFE257FF4F46
:103810004081518162817381841B950BA60BB70B8C
:103820004597A105B10538F08091D307811103C0F8
:10383000C7010E94DA08FFEFCF1ADF0A24E9E20E7F
:10384000F11CCECFCD2849F081E0809327018093F1
:1038500047059FEF9093DB0570CE85E0EF2809F0D8
:1038600064CE82E0809327018093470593E0F2CFF6
:10387000809327019FEF90934705ECCF823079F436
:103880006091C6077091C70787E495E00E947A08A7
:103890006091C6077091C7078BED95E0FACE833033
:1038A000B9F46091C6077091C70787E495E00E945C
:1038B0007A086091C6077091C7078BED95E00E946A
:1038C0007A086091C6077091C7078FE696E0E1CE4F
:1038D0008450823008F0DFCE6091C6077091C70730
:1038E00087E495E00E947A086091C6077091C70747
:1038F0008BED95E00E947A086091C6077091C7072A
:103900008FE696E00E947A086091C6077091C7071B
:1039100083E097E0BECE863009F0E7CE6091CA071B
:103920008BED95E0E0CE8091D107882309F48CC41B
:103930008091D407823009F01CC18091D507803472
:1039400009F017C18091D7078F3F09F012C180910C
:10395000D607853009F00DC161E086E00E94400481
:1039600080E193E00E941B0BF12CE12C60E0C70189
:103970000E943C214FEFE41AF40AE11464E0F606D9
:10398000A9F788E7E4E3F1E0DE01119601900D92DA
:103990008A95E1F780E2EFEAF1E0DE01A758BF4F38
:1039A00001900D928A95E1F7C756DF4F68827982C0
:1039B0008A82C959D04082E0C256DF4F8883CE59EF
:1039C000D040C156DF4F8883CF59D040C955DF4F13
:1039D0001882C75AD040CA55DF4F1882C65AD04005
:1039E00084E2CB55DF4F8883C55AD04088E1CC555F
:1039F000DF4F8883C45AD040CD55DF4F1882C35A59
:103A0000D040CE55DF4F1882C25AD040CF55DF4F3D
:103A10001882C15AD040C056DF4F1882C05AD040D9
:103A2000BE016A557F4F90E080E00E94430DBE01C9
:103A30006B557F4F81E090E00E94430DCE01875887
:103A40009F4F0E94720CBE016F5F7F4F82E490E037
:103A50000E94100DBE016F5F7F4F8AEB90E00E94C5
:103A6000100DBE016F5F7F4F82E391E00E94100D49
:103A7000BE016F5F7F4F8AEA91E00E94100DCE0178
:103A800087569F4F0E949B0CCE0182569F4F0E94EB
:103A9000C50CBE0169557F4F87E292E00E94430D3D
:103AA00081E090E0C456DF4F99838883CC59D040A1
:103AB000BE0164567F4F88E292E00E94E90C82E0EA
:103AC00090E0C456DF4F99838883CC59D040BE0123
:103AD00064567F4F89E292E00E94E90C83E090E017
:103AE000C456DF4F99838883CC59D040BE016456B9
:103AF0007F4F8AE292E00E94E90CBE016C557F4F35
:103B00008BE292E00E94430DBE016D557F4F8CE227
:103B100092E00E94430DBE016E557F4F8DE292E010
:103B20000E94430DBE016F557F4F8EE292E00E94CE
:103B3000430DBE0160567F4F8FE292E00E94430D1D
:103B4000C456DF4F19821882CC59D040BE0164564A
:103B50007F4F80E392E00E94E90C64EF71E080E027
:103B600090E00E94C40460E086E00E9440040E944D
:103B70008B0D8091D407823021F58091D507803458
:103B800001F58091D7078F31E1F48091D607853018
:103B9000C1F461E086E00E9440048091D9078093DF
:103BA000C50765EC77E090E080E00E94430D64EF8C
:103BB00071E080E090E00E94C40460E086E00E9432
:103BC00040048091D407823051F58091D50780342C
:103BD00031F58091D707803211F58091D607853075
:103BE000F1F461E086E00E9440048091D90780935F
:103BF0004A058093DE0580937206809306076AE487
:103C000075E081E090E00E94430D64EF71E080E098
:103C100090E00E94C40460E086E00E94400480912D
:103C2000D407823009F063C08091D507803409F051
:103C30005EC08091D707853109F059C08091D607C1
:103C4000853009F054C061E086E00E944004E090B5
:103C5000D80778E0E79E70011124C7018D5F9E4F61
:103C60007C016091DA07E0E86E9FC0011124609149
:103C7000D907680F792F711D072E000C880B990B3F
:103C80000E94662220E030E04AE754E40E944A2184
:103C9000F701608371838283938383E091E00E94C4
:103CA000720CE091D807F4E9EF9FC0011124895B01
:103CB0009A4FDC01AB57BF4F28E0E29FF00111247F
:103CC000ED5FFE4F40815181628173814D935D9321
:103CD0006D937C9313970E94720764EF71E080E00C
:103CE00090E00E94C40460E086E00E94400480915D
:103CF000D407823009F063C08091D507803409F081
:103D00005EC08091D707863109F059C08091D607EF
:103D1000853009F054C061E086E00E944004E090E4
:103D2000D80748E0E49E70011124B7016D5F7E4F13
:103D30007B016091DA0770E8679FC00111246091F0
:103D4000D907680F792F711D072E000C880B990B6E
:103D50000E94662220E030E44CE156E40E94BC213F
:103D6000F701648375838683978383E091E00E94E3
:103D7000720CE091D807F4E9EF9FC0011124895B30
:103D80009A4FDC01A757BF4F28E0E29FF0011124B2
:103D9000ED5FFE4F44815581668177814D935D9340
:103DA0006D937C9313970E94720764EF71E080E03B
:103DB00090E00E94C40460E086E00E94400480918C
:103DC000D407823009F084C08091D507803449F54A
:103DD0008091D707873109F0ACC18091D607853033
:103DE00001F58091D807E091C10744E9849FD00193
:103DF0001124A95BBA4F13969C91E91BFF0B6AE44F
:103E0000869FE00DF11D1124EE0FFF1FE95BFA4FB5
:103E1000858596852091D907211130C00197968715
:103E200085878091D507803409F057C08091D707E6
:103E30008D3109F052C08091D607853009F04DC010
:103E400061E086E00E944004E091D807E33009F089
:103E500057C18091D9078093E30363EE73E08CE24E
:103E600092E00E94430D64EF71E080E090E00E94D8
:103E7000C40460E086E00E9440042FC00196CFCFCA
:103E8000813029F468EE75E08AEB90E062C18230FF
:103E900029F46CE776E082E391E05BC1833009F0BE
:103EA0005AC160E177E08AEA91E053C175018AE383
:103EB000A816B10409F066C18BE193E00E94190BCA
:103EC0008091D8070E94290B86E493E00E941B0B87
:103ED0008091D407823009F4A4CF8091D407823036
:103EE000A1F58091D507803481F58091D7078E3177
:103EF00061F58091D607853041F561E086E00E944A
:103F00004004E091D807F0E0EF5FFE4F8091D907C1
:103F1000808381E091E00E94C50C8091D8078111D7
:103F2000FDC08091010180934B058093DF05809354
:103F300073068093070764EF71E080E090E00E94D1
:103F4000C40460E086E00E9440048091D40782307F
:103F500071F58091D507803451F58091D707813272
:103F600031F58091D607853011F561E086E00E9439
:103F700040048091D8078093E70367EE73E087E2FF
:103F800092E00E94430D8091E7038093D4058093D3
:103F900068068093FC068093900764EF71E080E0F0
:103FA00090E00E94C40460E086E00E94400480919A
:103FB000D407823041F58091D507803421F5809176
:103FC000D707823201F58091D6078530E1F461E0B0
:103FD00086E00E9440048091D8078093000160E051
:103FE00071E08BE292E00E94430D8091000180938A
:103FF000D00764EF71E080E090E00E94C40460E0CC
:1040000086E00E9440048091D407823021F580919F
:10401000D507803401F58091D7078332E1F4809190
:10402000D6078530C1F461E086E00E9440048091AB
:10403000D8078093D90369ED73E08DE292E00E9486
:10404000430D64EF71E080E090E00E94C40460E002
:1040500086E00E9440048091D407823021F580914F
:10406000D507803401F58091D7078432E1F480913F
:10407000D6078530C1F461E086E00E94400480915B
:10408000D8078093D80368ED73E08EE292E00E9437
:10409000430D64EF71E080E090E00E94C40460E0B2
:1040A00086E00E9440048091D407823009F0CCC0A1
:1040B0008091D507803409F0C7C08091D707853239
:1040C00009F0C2C08091D607853009F0BDC061E01B
:1040D00086E00E9440048091D8078093DA036AED5D
:1040E00073E08FE292E00E94430D64EF71E080E0A4
:1040F00090E00E94C40460E086E00E944004A4C0F6
:10410000E33008F0B0CEF0E0EC5DFE4F8091D907CF
:10411000808384E291E00E949B0CA5CE80910201F5
:1041200080934C058093E005809374068093080784
:1041300002CF883109F075CE8091D607853009F01D
:1041400070CE8091D80781119BCE64E575E082E442
:1041500090E00E94100D8BE193E00E94190B80917A
:10416000D8070E94290B83E293E00E941B0BE09189
:10417000D80774E9E79FF0011124EC5AFA4FEE24B6
:10418000E394F12C82819381670121E0C21AD10866
:1041900057014FEFA41AB40A208131813296821759
:1041A000930730F0228133812817390708F07ECE3B
:1041B0008AE293E00E94190BE091D80764E9E69F38
:1041C000F0011124E95BFA4F83818E0D9F2D911D23
:1041D0000E940E0C8091D8070AE4F601089FE00DBA
:1041E000F11D1124EE0FFF1FE95BFA4F85859685BF
:1041F0000E943E0B8091D807F701089FE00DF11D4A
:104200001124EE0FFF1FE95BFA4F858596850E940A
:104210003E0B8091D807F501089FE00DF11D112498
:10422000EE0FFF1FE95BFA4F858596850E943E0BD6
:104230008BE193E00E94190B8091D8070E94290B13
:1042400081E393E00E941B0B80E090E0892B11F446
:104250000C94D5160E945303882311F40C94D516A0
:104260000E9400000C94D516F999FECF92BD81BD35
:10427000F89A992780B50895262FF999FECF1FBA8D
:1042800092BD81BD20BD0FB6F894FA9AF99A0FBE7F
:10429000019608955058BB27AA270E9462210C94CA
:1042A000DC220E94CE2238F00E94D52220F039F480
:1042B0009F3F19F426F40C94CB220EF4E095E7FB13
:1042C0000C94C522E92F0E94ED2258F3BA17620719
:1042D00073078407950720F079F4A6F50C940F2353
:1042E0000EF4E0950B2EBA2FA02D0B01B901900111
:1042F0000C01CA01A0011124FF27591B99F0593F55
:1043000050F4503E68F11A16F040A22F232F342F9C
:104310004427585FF3CF469537952795A795F040EA
:104320005395C9F77EF41F16BA0B620B730B840BFF
:10433000BAF09150A1F0FF0FBB1F661F771F881FB7
:10434000C2F70EC0BA0F621F731F841F48F487950F
:1043500077956795B795F7959E3F08F0B0CF939501
:10436000880F08F09927EE0F9795879508950E947A
:10437000A12208F481E008950E94D0210C94DC224F
:104380000E94D52258F00E94CE2240F029F45F3FCF
:1043900029F00C94C52251110C9410230C94CB22BB
:1043A0000E94ED2268F39923B1F3552391F3951BF5
:1043B000550BBB27AA2762177307840738F09F5F46
:1043C0005F4F220F331F441FAA1FA9F335D00E2EB3
:1043D0003AF0E0E832D091505040E695001CCAF720
:1043E0002BD0FE2F29D0660F771F881FBB1F2617E3
:1043F00037074807AB07B0E809F0BB0B802DBF01BA
:10440000FF2793585F4F3AF09E3F510578F00C9488
:10441000C5220C9410235F3FE4F3983ED4F38695B5
:1044200077956795B795F7959F5FC9F7880F911DA9
:104430009695879597F90895E1E0660F771F881F95
:10444000BB1F621773078407BA0720F0621B730B48
:10445000840BBA0BEE1F88F7E09508950E94352271
:104460006894B1110C94102308950E94F52288F0ED
:104470009F5798F0B92F9927B751B0F0E1F0660F28
:10448000771F881F991F1AF0BA95C9F714C0B13069
:1044900091F00E940F23B1E008950C940F23672F31
:1044A000782F8827B85F39F0B93FCCF38695779598
:1044B0006795B395D9F73EF4909580957095619581
:1044C0007F4F8F4F9F4F0895E89409C097FB3EF4AC
:1044D00090958095709561957F4F8F4F9F4F992351
:1044E000A9F0F92F96E9BB279395F69587957795CF
:1044F0006795B795F111F8CFFAF4BB0F11F460FF8F
:104500001BC06F5F7F4F8F4F9F4F16C0882311F0E6
:1045100096E911C0772321F09EE8872F762F05C0FA
:10452000662371F096E8862F70E060E02AF09A9595
:10453000660F771F881FDAF7880F9695879597F98A
:104540000895990F0008550FAA0BE0E8FEEF161624
:104550001706E807F907C0F012161306E407F50777
:1045600098F0621B730B840B950B39F40A2661F0EB
:10457000232B242B252B21F408950A2609F4A1408E
:10458000A6958FEF811D811D089597F99F6780E89B
:1045900070E060E008959FEF80EC089500240A9495
:1045A0001616170618060906089500240A9412160E
:1045B0001306140605060895092E0394000C11F441
:1045C000882352F0BB0F40F4BF2B11F460FF04C0EE
:1045D0006F5F7F4F8F4F9F4F089557FD9058440F47
:1045E000551F59F05F3F71F04795880F97FB991F52
:1045F00061F09F3F79F0879508951216130614060F
:10460000551FF2CF4695F1DF08C01616170618069B
:10461000991FF1CF86957105610508940895E89476
:10462000BB2766277727CB0197F908950E94A1221F
:1046300008F48FEF08950E942E230C94DC220E9430
:10464000CE2238F00E94D52220F0952311F00C9450
:10465000C5220C94CB2211240C9410230E94ED222D
:1046600070F3959FC1F3950F50E0551F629FF001C5
:10467000729FBB27F00DB11D639FAA27F00DB11DDE
:10468000AA1F649F6627B00DA11D661F829F222767
:10469000B00DA11D621F739FB00DA11D621F839FEE
:1046A000A00D611D221F749F3327A00D611D231FC4
:1046B000849F600D211D822F762F6A2F11249F5712
:1046C00050409AF0F1F088234AF0EE0FFF1FBB1F15
:1046D000661F771F881F91505040A9F79E3F5105D4
:1046E00080F00C94C5220C9410235F3FE4F3983EB5
:1046F000D4F3869577956795B795F795E7959F5F7E
:10470000C1F7FE2B880F911D9695879597F908950F
:104710000E94A122880B990B0895991B79E004C08F
:10472000991F961708F0961B881F7A95C9F78095F0
:104730000895A1E21A2EAA1BBB1BFD010DC0AA1FE2
:10474000BB1FEE1FFF1FA217B307E407F50720F0FA
:10475000A21BB30BE40BF50B661F771F881F991F75
:104760001A9469F760957095809590959B01AC01BE
:10477000BD01CF010895EE0FFF1F0590F491E02DCC
:104780000994DC0101C06D9341505040E0F7089559
:04479000F894FFCFCB
:10479400180202000000000000803F00000000003A
:1047A40000803F000000000000803F000000000087
:1047B40000803F0401474A04FFFFFFFF00E10000BF
:1047C40000000000000044008900CD0011015501E3
:1047D4009A01DE0122026602AB02EF023303770381
:1047E400BC03000444048804CD041105550599054F
:1047F400DE0522066606AA06EF0633077707BB071F
:10480400000844088808CC08110955099909DD09EC
:10481400220A660AAA0AEE0A330B770BBB0BFF0BBC
:10482400440C880CCC0C100D550D990DDD0D210E8A
:10483400660EAA0EEE0E320F770FBB0F01474A0029
:104844000000000000803F000000000000803F00E6
:104854000000000000803F000000000000803F00D6
:10486400C18081000000000000008B01F604AC014F
:10487400A101F201B001CE01000000008803D302BF
:104884000003D40331030F032303000000003806A0
:104894000B066F07E1050406F105E2050D0A006E3B
:1048A400616E00696E66006F7666004D66724944FB
:1048B4003A20004343303A20004343313A20004336
:1048C40043323A20004343333A200042656E642069
:1048D40055703A200042656E6420446F776E3A202A
:1048E4000043683A20004C6F77657374204D696407
:1048F40069204E6F74653A20004F722047617465D9
:1049040020456E61626C65643A20005070716E3AA5
:104914002000566F69636520416C6C6F633A200018
:10492400566F696365204F66667365743A20004864
:104934006F6C6420466F7220526C733A20005630BC
:10494400204F66667365743A2000563020476169CB
:104954006E3A20005631204F66667365743A200023
:104964005631204761696E3A20005632204F666600
:104974007365743A20005632204761696E3A20000C
:104984005633204F66667365743A200056332047C9
:1049940061696E3A20004D6964694E756D3A200074
:1049A40053657420454550524F4D00566F696365F9
:1049B4003A2000205361766564004D6964693A20A9
:1049C4000020566572696669636174696F6E20467A
:1049D40061696C6564002056657269666963617417
:0C49E400696F6E20506173736564000001
:00000001FF
