:100000000C94D4000C94FC000C94FC000C94FC00A8
:100010000C94FC000C94FC000C94FC000C94FC0070
:100020000C94FC000C94FC000C94E80E0C94570FFC
:100030000C94FC000C94FC000C94FC000C94FC0050
:100040000C94FC000C94FC000C94FC000C94FC0040
:100050000C94FC000C94FC000C94FC000C94E1113A
:100060000C94FC000C94AF110C9489110C94FC00BE
:100070000C94FC000C94FC000C94FC000C94FC0010
:100080000C94FC000C94FC000C94FC000C94FC0000
:100090000C942B120C94FC000C94FC000C94FC00AF
:1000A0000C94FC000C94FC000C94FC00000000007C
:1000B0002300260029002C002F000000000024004F
:1000C00027002A002D003000000000002500280035
:1000D0002B002E0031000404040404030405020272
:1000E00002020403020202020606060606060404D1
:1000F0000202020404040802011040804010204063
:10010000804080080204018040201002011080100D
:10011000204040200000000200090F0000030401FD
:10012000000C0000000000000000000000000000C3
:10013000000000080B000202020000090400000198
:10014000020200000524001001052401010104241D
:10015000020605240600010705810310004009047A
:100160000100020A00000007050202400000070526
:1001700083024000000403090412010002EF02019F
:1001800040D80498E8000101020301556E6B6E6FC0
:10019000776E004D696469566F6C747320446573A3
:1001A0006B746F7000008F1311241FBECFEFDAE065
:1001B000DEBFCDBF13E0A0E0B1E0ECE5F0E402C0AB
:1001C00005900D92AA33B107D9F727E0AAE3B3E06F
:1001D00001C01D92A23AB207E1F710E0C4EDD0E0F1
:1001E00004C02197FE010E941F20C33DD107C9F71B
:1001F0000E9445140C942C200C940000FC0180916A
:10020000CE03882311F13FB7F89482E08093E90090
:100210002091F200822F90E01816190614F481E064
:1002200090E0882339F0289844E64093CD0340912C
:10023000F1004083222339F02091F200211103C004
:100240002BE62093E8003FBF08958FEF9FEF0895BE
:100250002FB7F89483E08093E9009091E800892F0C
:10026000807295FF04C09091F20080E4891B2FBF3B
:1002700008958091C50381110DC082E08093C10370
:1002800084E08093C2031092C4031092C30381E000
:100290008093C50381EC93E00895CF93DF931F9281
:1002A000CDB7DEB76983DC01ED91FC910280F3816B
:1002B000E02D41E050E0BE016F5F7F4F09950F9048
:1002C000DF91CF91089583E08093E9008091F2005F
:1002D000882319F08AE38093E80008950E9428019A
:1002E00090E00895CF93DF931F92CDB7DEB7FC0166
:1002F0008485958597FD08C02FEF3FEF35872487CC
:100300000F90DF91CF910895CE0101960E94FE00DB
:10031000019719F4898190E0F3CF8FEF9FEFF0CF31
:100320000F931F93CF93DF931F92CDB7DEB78C014E
:10033000FC018485958597FF0BC0CE0101960E9434
:10034000FE00019771F4898190E0F8019587848718
:10035000F801848595850F90DF91CF911F910F91C2
:1003600008958FEF9FEFF1CFFC018485958597FD70
:100370000BC09FB7F89482E08093E9008091F2006F
:100380009FBF90E0019608959FB7F89482E0809314
:10039000E9008091F2009FBF90E008954091BB0377
:1003A0005091BC032091B9033091BA03421753070F
:1003B000B4F49091E8009570E1F39091E80092FD1B
:1003C00019C08093F1008091BB039091BC0301960A
:1003D0008F739927892B19F48EEF8093E800809111
:1003E000BB039091BC0301969093BC038093BB0325
:1003F00081E0089580E00895EF92FF920F931F939C
:10040000CF93DF93F82E192FE62E042F81E0860F6D
:10041000880F0E94CE0183E00E94CE01CF2DD12F04
:10042000EC0EFD2EF11CCE15DF05B9F007FF13C051
:10043000FE0184910E94CE01182F80E00E94CE011F
:10044000812321968111EFCFDF91CF911F910F91E1
:10045000FF90EF9008958881EDCF81E0F5CFDF9296
:10046000EF92FF920F931F93CF93DF93D82E8A01C1
:10047000EB017B01E40EF51ECE15DF0559F0D7FE2A
:1004800012C0FE0184910E94CE0121968111F4CF09
:100490000FEF1FEFC801DF91CF911F910F91FF90D8
:1004A000EF90DF9008958881EECF0F931F93CF9345
:1004B000DF931F92CDB7DEB782E0898342E450E03C
:1004C00063E371E080E80E942F020E943901DC01A1
:1004D00012960D911C910115110589F0D801ED912D
:1004E000FC910280F381E02DBE016F5F7F4FC80158
:1004F000099597FD04C0F80100851185ECCF89812D
:100500000F90DF91CF911F910F910895615030F0BE
:100510002091F100FC0120830196F8CF289884E611
:100520008093CD03089508950895AF92BF92CF921E
:10053000DF92EF92FF920F931F93CF93DF936C01A3
:100540007B018B01040F151FEB015E01AE18BF0884
:10055000C017D10759F06991D601ED91FC91019036
:10056000F081E02DC6010995892B79F7C501DF914E
:10057000CF911F910F91FF90EF90DF90CF90BF90A0
:10058000AF900895FC01538D448D252F30E0842FCA
:1005900090E0821B930B541710F0CF9608950197AB
:1005A0000895FC01918D828D981761F0A28DAE0F98
:1005B000BF2FB11D5D968C91928D9F5F9F73928F1F
:1005C00090E008958FEF9FEF0895FC01918D828D4B
:1005D000981731F0828DE80FF11D858D90E0089518
:1005E0008FEF9FEF0895FC01918D228D892F90E070
:1005F000805C9F4F821B91098F73992708958FE626
:1006000094E00E94F30221E0892B09F420E0822F7C
:10061000089580E090E0892B29F00E94FF0281116B
:100620000C9400000895FC01A48DA80FB92FB11DF2
:10063000A35ABF4F2C91848D90E001968F73992718
:10064000848FA689B7892C93A089B1898C918274F3
:100650008C93938D848D981306C00288F389E02DC6
:1006600080818F7D80830895EF92FF920F931F9377
:10067000CF93DF93EC0181E0888F9B8D8C8D981355
:1006800019C0E889F989808185FF14C09FB7F89463
:10069000EE89FF896083E889F9898081827480838B
:1006A0009FBF81E090E0DF91CF911F910F91FF906C
:1006B000EF900895F62E0B8D10E00F5F1F4F0F7314
:1006C0001127E02E8C8D8E110CC00FB607FCFACFCF
:1006D000E889F989808185FFF5CFCE010E94130357
:1006E000F1CFEB8DEC0FFD2FF11DE35AFF4FF082A0
:1006F0009FB7F8940B8FEA89FB8980818062CFCF06
:10070000CF93DF93EC01888D8823B9F0AA89BB8948
:10071000E889F9898C9185FD03C0808186FD0DC033
:100720000FB607FCF7CF8C9185FFF2CF808185FF54
:10073000EDCFCE010E941303E9CFDF91CF91089551
:1007400081508F3008F047C0E82FF0E0E655FC4FAD
:100750000C941F20C703CB03B903BF03C303EB03F0
:10076000EB03EB03CE03D403D803DC03E203EB0378
:10077000E603809180008F778093800008958091B8
:1007800080008F7DF9CF80918000877FF5CF84B581
:100790008F7784BD089584B58F7DFBCF80919000C5
:1007A0008F77809390000895809190008F7DF9CF8E
:1007B00080919000877FF5CF8091C0008F778093E4
:1007C000C00008958091C0008F7DF9CF8091C20054
:1007D000877F8093C20008951F93CF93DF93282FC4
:1007E00030E0F901EC5EFE4F8491F901EB50FF4FD0
:1007F000D491F901EA52FF4FC491CC23A9F0162FEE
:1008000081110E94A003EC2FF0E0EE0FFF1FE853D0
:10081000FF4FA591B4918FB7F894EC91111108C0D6
:10082000D095DE23DC938FBFDF91CF911F91089588
:10083000DE2BF8CFCF93DF9390E0FC01EB50FF4F1E
:1008400024918A529F4FFC0184918823D1F090E03B
:10085000880F991FFC01E654FF4FA591B491FC014C
:10086000E853FF4FC591D49161110EC09FB7F89422
:100870008C91E22FE0958E238C932881E223E883EC
:100880009FBFDF91CF9108958FB7F894EC91E22B41
:10089000EC938FBFF6CF3FB7F8948091A30390916C
:1008A000A403A091A503B091A60326B5A89B05C0FB
:1008B0002F3F19F00196A11DB11D3FBFBA2FA92FDF
:1008C000982F8827BC01CD01620F711D811D911DDC
:1008D00042E0660F771F881F991F4A95D1F7089548
:1008E0008F929F92AF92BF92CF92DF92EF92FF9240
:1008F0004B015C010E944B046B017C010E944B0484
:100900006C197D098E099F09683E73408105910528
:10091000A8F321E0821A9108A108B10888EEC80E58
:1009200083E0D81EE11CF11C81149104A104B104E0
:1009300029F7FF90EF90DF90CF90BF90AF909F90FE
:100940008F9008958F929F92AF92BF92CF92DF9235
:10095000EF92FF920F931F93CF93DF936C017B0174
:100960008A0180913201882309F45CC08091CE0312
:10097000882309F457C08091C00380FF05C080918F
:10098000E00082608093E000E801B12C8AEFA82E9D
:1009900093E0892E2AE3922E209711F4BB20D9F1FF
:1009A0000E94280181110AC0AA94AA20D9F161E00D
:1009B00070E080E090E00E947004EECF8C171D067E
:1009C00011F00CF08C2F9FB7F8948092E9002091E1
:1009D000E80025FD02C09FBFDFCF282F30E0C21BFB
:1009E000D30BF701815020F041914093F100FACFF1
:1009F000E20EF31EBB2021F09092E800B12CEBCF69
:100A00008091E80085FDE7CF9092E800BB24B39485
:100A1000209709F3F3CF5D9884E68093BF03101607
:100A200011063CF081E090E0F6019383828310E0B0
:100A300000E0C801DF91CF911F910F91FF90EF90DF
:100A4000DF90CF90BF90AF909F908F9008952091AE
:100A50007B03260F3327331F21323105ECF420911D
:100A6000F503FC0190E080E0243069F082E0089515
:100A7000A0917B032191AC01455A5C4FA40FB52F87
:100A8000B11D2C930196861798F380917B03680F14
:100A900060937B0380E0089581E008951092F50350
:100AA00081E08093F4031092CF0361E082E00E9422
:100AB000EC0361E083E00E94EC03E9EBF0E080816D
:100AC0008E7F808380818D7F808388E48093B800CF
:100AD00085E48093BC000895CF93DF9391E09093D9
:100AE0005A038823B9F0C091B800D091BA00809120
:100AF000BC008A7B8093BC0060E082E00E94EC0333
:100B000060E083E00E94EC030E944E05D093BA009F
:100B1000C093B800DF91CF9108950895E091AC03A0
:100B20008091AB03E81730F4F0E0E65CFC4F808185
:100B300090E008958FEF9FEF08959091AC0380911E
:100B4000AB032FEF3FEF981748F4E92FF0E0E65C96
:100B5000FC4F208130E09F5F9093AC03C901089562
:100B60008091AB039091AC03891B990B0895CF92B0
:100B7000DF92EF92FF920F931F93CF93DF937C014D
:100B8000CB018A0120911E04222389F0EB016B0125
:100B9000C40ED51ECC15DD0569F06991D701ED9124
:100BA000FC910190F081E02DC7010995F3CF642FEE
:100BB0000E942705C801DF91CF911F910F91FF90EF
:100BC000EF90DF90CF900895CF93DF931F92CDB732
:100BD000DEB7698320911E042223F9F020911B04C3
:100BE000203258F021E030E0FC013383228390E092
:100BF00080E00F90DF91CF91089580911C04E82F41
:100C0000F0E0E550FC4F998190838F5F80931C0446
:100C100080931B0481E090E0ECCF61E0CE0101966F
:100C20000E942705F7CF682F8CE095E00C94E4052F
:100C3000CF92DF92EF92FF920F931F93CF93C82F23
:100C4000192F81E080931E0480E680931D0410928A
:100C50001C0410921B04613009F489C008F482C09E
:100C6000623009F487C0633009F487C0612F8CE0DB
:100C700095E00E94E4056C2F8CE095E00E94E4056D
:100C8000C0911B04C13208F0A0C00E944B046B014C
:100C90007C018091F503811173C082E08093F5039C
:100CA00081E08093F4038FEF8093F3031092F203BB
:100CB000C093F103ABEFB3E0E1EDF3E080E0C813E4
:100CC00092C01092D0038091D003806C8093D003A7
:100CD0008091CF03813009F08AC01092CF030E9427
:100CE0004B046B017C018091D0038093BB00809109
:100CF000F7039091F803A091F903B091FA03892BBF
:100D00008A2B8B2BA1F00E944B040091F7031091CA
:100D1000F8032091F9033091FA036C197D098E09CB
:100D20009F09061717072807390708F44AC080915A
:100D3000BC0083FDD8CF85EC8093BC000E944B049F
:100D40006B017C018091F503823009F452C08091DF
:100D5000F3038F3FD1F18091F3038032B1F18091A1
:100D6000F30333C080E490E00E9413067FCF82E457
:100D700090E0FACF84E490E0F7CF86E490E0F4CFFF
:100D80008091F7039091F803A091F903B091FA03D1
:100D9000892B8A2B8B2B09F47CCF0E944B0400916A
:100DA000F7031091F8032091F9033091FA036C19BD
:100DB0007D098E099F09061717072807390708F0CC
:100DC00068CF8091F6030E946C0510921C0410926B
:100DD0001B0410921E04CF911F910F91FF90EF9072
:100DE000DF90CF9008959D9191938F5F68CF85EEAE
:100DF000A3CF8091F7039091F803A091F903B091EC
:100E0000FA03892B8A2B8B2B09F49CCF0E944B046D
:100E10000091F7031091F8032091F9033091FA0340
:100E20006C197D098E099F090617170728073907CE
:100E300008F088CFC6CF90E080E008952F923F92CF
:100E40004F925F926F927F928F929F92AF92BF92DA
:100E5000CF92DF92EF92FF920F931F93CF93DF9386
:100E6000EC01FC01EC57FF4F80809180A280B380A1
:100E70003496408051806280738020E030E0A90188
:100E8000C501B4010E94271E81110AC020E030E094
:100E900040E85FE3C301B2010E94271E882389F165
:100EA0001E0188E7280E311C0FEF1FE06C857D8541
:100EB00090E080E00E94D41EA30192010E948B1F4B
:100EC000A50194010E94BB1D6B017C0120E030E074
:100ED000A9010E94861F20E030E040E05FE387FD2B
:100EE00023C0C701B6010E94BB1D0E949E1E611552
:100EF00080E17807F0F47D876C8722962C163D06FA
:100F0000A9F6DF91CF911F910F91FF90EF90DF90A5
:100F1000CF90BF90AF909F908F907F906F905F9099
:100F20004F903F902F900895C701B6010E94BA1DBF
:100F3000DCCF77FF03C01D861C86DFCF1D870C87A3
:100F4000DCCFCF93DF93EC01C257DF4F70E090E02E
:100F500080E00E94D41E20E030EF4FE755E40E946D
:100F60008B1F20E030E04EEF52E40E942C1E0E94C6
:100F7000A51ECB016881DF91CF910C941806CF920A
:100F8000DF92EF92FF92CF93DF93EC016E817F812E
:100F9000613080E27807C8F190E080E00E94D41EC2
:100FA00020E030E040E056E40E94BA1D20E038EF37
:100FB0004FEF55E40E942C1E6B017C0168857985FA
:100FC00090E080E00E94D41E9B01AC01C701B601F5
:100FD0000E948B1F6B017C0120E030E0A9010E9480
:100FE000861F20E030E040E05FE387FD27C0C701B7
:100FF000B6010E94BB1D0E949E1ECB01DF91CF91C6
:10100000FF90EF90DF90CF900895611580E2780710
:10101000D1F090E080E00E94D41E20E030E040E07B
:1010200056E40E94BA1D20E030E040E059E30E94FF
:101030008B1F6B017C016A857B85C2CFC701B6011E
:101040000E94BA1DD8CF70E060E0D7CFEF92FF9238
:101050000F931F93CF93DF93FC0177836683C28145
:10106000E380CE1578F1F12CD0E0C701CB968C1738
:101070009D0744F18F01CF010E94BF07CE19DF0900
:101080002696CC0FDD1FC00FD11F28813981280F74
:10109000391FF801EE57FF4F808191818217930726
:1010A0002CF0C90137FF02C090E080E0F801E25760
:1010B000FF4F6081DF91CF911F910F91FF90EF90D3
:1010C0000C941806DF91CF911F910F91FF90EF9034
:1010D0000895CF93FC01C081CF3FC1F070E090E054
:1010E00080E00E94D41E20E030EF4FE755E40E94DC
:1010F0008B1F20E030E04EEF52E40E942C1E0E9435
:10110000A51ECB016C2FCF910C941806CF9108959A
:10111000CF93DF93EC01FC01E357FF4F60E0808148
:101120000E94EC031982DF91CF910895AF92BF9294
:10113000DF92EF92FF920F931F93CF93DF93EC0117
:10114000D42EAB806A1508F49DC0B12C9501255CA6
:101150003F4F062F10E0201731070CF493C06A832D
:101160006C8170E0C801860F971FF801EA19FB092E
:101170003696EE0FFF1FEC0FFD1FE080F180281761
:1011800039070CF060C0072E000C880B990B0E94E9
:10119000D61E20E030E848E852E40E948B1F0E94EF
:1011A000A51E798768876D8170E0061B170B0A15ED
:1011B0001B050CF057C0072E000C880B990B0E94E2
:1011C000D61E20E030E848E852E40E948B1F0E94BF
:1011D000A51E7B876A87CE010E94BF07E80EF91E15
:1011E000FE01EE57FF4F808191818E159F052CF0F7
:1011F000C701F7FE02C090E080E0FE01E257FF4F1A
:1012000060810E941806DD2049F061E0FE01E3578D
:10121000FF4F80810E94EC0381E08983FE01E45747
:10122000FF4F80818130B1F5C157DF4F61E0888188
:10123000DF91CF911F910F91FF90EF90DF90BF90C2
:10124000AF900C94EC03FC01EA19FB093696EE0F03
:10125000FF1FEC0FFD1F808191818E199F099987D7
:101260008887A1CFF801EA19FB093696EE0FFF1F18
:10127000EC0FFD1F808191819701281B390B3B8763
:101280002A87A9CFFE01E357FF4F60E080810E94CB
:10129000EC031982DF91CF911F910F91FF90EF9096
:1012A000DF90BF90AF9008950F931F93CF93DF937C
:1012B000EC01288139813327F901EC5EFE4F8491DE
:1012C000F901EB50FF4F0491F901EA52FF4F1491DD
:1012D000112309F453C081110E94A003E12FF0E013
:1012E000EE0FFF1FE455FF4FA591B491EC910E2333
:1012F00031E020E009F430E0832F922F2A813B81F6
:101300002817390779F02FB7F89440919F0350912F
:10131000A0036091A1037091A2032FBF4E835F834E
:10132000688779872FB7F89440919F035091A00365
:101330006091A1037091A2032FBF0E811F812885A8
:101340003985401B510B620B730B0A851B852C855D
:101350003D85041715072607370738F42C813D8192
:101360002817390711F09D838C839B838A838C8196
:101370009D81DF91CF911F910F91089590E080E0C2
:10138000BDCFFC0101900020E9F73197AF01481B68
:10139000590BBC018FE694E00C9495028F929F92BA
:1013A000AF92BF920F931F93CF93DF93CDB7DEB76A
:1013B000A1970FB6F894DEBF0FBECDBF19A2423081
:1013C00008F44AE08E010F5D1F4F842E912CB12C42
:1013D000A12CA50194010E94FD1FE62FB901CA01AD
:1013E000EA30F4F4E05DD801EE938D01232B242B39
:1013F000252B79F790E080E0109719F0CD010E943D
:10140000C109A1960FB6F894DEBF0FBECDBFDF9124
:10141000CF911F910F91BF90AF909F908F900895A3
:10142000E95CE1CFCF92DF92EF92FF92CF93DF930F
:101430006B017C016DE28FE694E00E943403EC01C5
:1014400066277727CB016C197D098E099F094AE031
:101450000E94CE098C0F9D1FDF91CF91FF90EF90DE
:10146000DF90CF9008950C94C109CF93DF930E9431
:10147000C109EC018BE092E00E94C1098C0F9D1F15
:10148000DF91CF910895CF93DF93BC0190E080E08E
:101490004AE00E94CE09EC018BE092E00E94C10973
:1014A0008C0F9D1FDF91CF9108958F929F92AF92E5
:1014B000BF92CF92DF92EF92FF921F93CF93DF9371
:1014C0006B017C01AC019B010E94F81F8823B9F0DD
:1014D0008EE092E00E94C109EC018BE092E00E9454
:1014E000C1098C0F9D1FDF91CF911F91FF90EF904D
:1014F000DF90CF90BF90AF909F908F90089546015E
:101500005701E894B7F82FEF3FEF4FE75FE7C501CA
:10151000B4010E94F81F81110DC02FEF3FEF4FE77C
:101520005FE7C501B4010E94271E18161CF482E172
:1015300092E0D0CF2FEF3FEF4FE75FE4C701B60156
:101540000E94861F18161CF486E192E0C3CF2FEF8D
:101550003FEF4FE75FECC701B6010E94271E87FDF2
:10156000F3CF20E030E0A901C701B6010E94271E99
:10157000D0E0C0E087FF0AC06DE28FE694E00E94F1
:101580003403EC01F7FAF094F7F8F09426E137EB26
:1015900041E558E3C701B6010E94BB1D6B017C0108
:1015A0000E94A51E4B015C010E94D41E9B01AC0150
:1015B000C701B6010E94BA1D6B017C014AE0C5015A
:1015C000B4010E94CE09C80FD91F6EE28FE694E0E5
:1015D0000E943403C80FD91F15E0115009F47DCFC4
:1015E00020E030E040E251E4C701B6010E948B1FC9
:1015F0004B015C010E94A51E6B01F12CE12C4AE01D
:10160000C701B6010E94CE09C80FD91FC701B60194
:101610000E94D41E9B01AC01C501B4010E94BA1DF9
:101620006B017C01DACF682F70E090E080E04AE047
:101630000C94CE09CF93DF930E94130BEC018BE047
:1016400092E00E94C1098C0F9D1FDF91CF910895F8
:10165000CF93DF93BC01990F880B990B4AE00E944E
:10166000CE09EC018BE092E00E94C1098C0F9D1F16
:10167000DF91CF91089585ED8093BC008091F703B1
:101680009091F803A091F903B091FA030796A11D78
:10169000B11D23E0B695A795979587952A95D1F723
:1016A0002091BC0024FD03C01092F50308954091E1
:1016B000F7035091F8036091F9037091FA03452BF9
:1016C000462B472B69F30097A105B10541F025E3AF
:1016D0002A95F1F700000197A109B109E1CF8091A6
:1016E000F6030C946C05FF920F931F93CF93DF9337
:1016F000EC01F62E08811981C8010E94A41DF8167C
:1017000021F06F2DC8010E94AC1DCE01DF91CF9159
:101710001F910F91FF900895CF92DF92EF92FF9269
:101720000F931F93CF93DF9300D0CDB7DEB76C013B
:101730007C0102E010E01A830983F70161917F01C7
:10174000CE0101960E94730B0F5F1F4F02321105ED
:1017500091F7C6010F900F90DF91CF911F910F91DC
:10176000FF90EF90DF90CF900895CF92DF92EF92AD
:10177000FF920F931F93CF93DF9300D0CDB7DEB7C7
:101780006C017C0102E212E01A830983F701619186
:101790007F01CE0101960E94730B0F5F1F4F053230
:1017A000F2E01F0789F7C6010F900F90DF91CF91EC
:1017B0001F910F91FF90EF90DF90CF9008950F93BE
:1017C0001F93CF93DF9300D0CDB7DEB78C0185E2B6
:1017D00092E09A838983F8016081CE0101960E948C
:1017E000730B86E292E09A838983F8016181CE01CE
:1017F00001960E94730BC8010F900F90DF91CF915B
:101800001F910F910895EF92FF920F931F93CF9323
:10181000DF9300D0CDB7DEB78C017B019A8389833B
:10182000FB016081CE0101960E94730B0F5F1F4F79
:101830001A830983F7016181CE0101960E94730B1F
:10184000C7010F900F90DF91CF911F910F91FF90E3
:10185000EF900895AF92BF92CF92DF92EF92FF92F6
:101860000F931F93CF93DF9300D0CDB7DEB78B01DB
:101870006B0128E7C20ED11C7B015C01A61AB70AD6
:10188000C5018E0D9F1D9A838983F70161917F01A8
:10189000CE0101960E94730BEC14FD0489F7C80178
:1018A0000F900F90DF91CF911F910F91FF90EF90CC
:1018B000DF90CF90BF90AF9008950F931F93CF9379
:1018C000DF9300D0CDB7DEB78B019A838983FB010C
:1018D0006081CE0101960E94730BC8010F900F909A
:1018E000DF91CF911F910F910895CF92DF92EF92E8
:1018F000FF920F931F93CF93DF93EB017B0128E7B8
:10190000E20EF11C8B016C01C61AD70AC601800FCA
:10191000911F0E94A41DF80181938F01EE15FF0510
:10192000A9F7CE01DF91CF911F910F91FF90EF901A
:10193000DF90CF900895CF93DF93EB010E94A41D19
:101940008883CE01DF91CF9108950F931F93CF939A
:10195000DF9366E877E090E080E00E949B0C6BE10B
:1019600075E081E090E00E949B0C6BEA75E081E0FD
:1019700090E00E949B0C6BE376E081E090E00E9497
:101980009B0C6BEC76E081E090E00E949B0C03E006
:1019900011E0C2E0D0E0CE010E94A41DF8018193C5
:1019A0008F012196C232D105B1F764E275E082E47D
:1019B00090E00E94750C64EB75E08AEB90E00E9469
:1019C000750C64E476E082E391E00E94750C64EDAE
:1019D00076E08AEA91E00E94750C82E292E00E9431
:1019E000A41D8093230183E292E00E94A41D8093B2
:1019F000240184E292E00E94A41D8093250185E2E7
:101A000092E00E94A41D8093010186E292E00E9470
:101A1000A41D8093020168EB73E087E292E00E94CC
:101A20009B0C9091010190931C0580910201809381
:101A30001D059093AC058093AD0590933C06809373
:101A40003D069093CC068093CD0680910301909142
:101A50000401A0910501B091060180939C0590932B
:101A60009D05A0939E05B0939F05809107019091DD
:101A70000801A0910901B0910A018093A0059093FB
:101A8000A105A093A205B093A30580910B019091AD
:101A90000C01A0910D01B0910E0180932C06909342
:101AA0002D06A0932E06B0932F0680910F019091E2
:101AB0001001A0911101B091120180933006909312
:101AC0003106A0933206B0933306809113019091B2
:101AD0001401A0911501B09116018093BC0690935A
:101AE000BD06A093BE06B093BF06809117019091EA
:101AF0001801A0911901B0911A018093C00690932A
:101B0000C106A093C206B093C30680911B019091B9
:101B10001C01A0911D01B0911E0180934C07909370
:101B20004D07A0934E07B0934F0780911F019091EE
:101B30002001A0912101B091220180935007909340
:101B40005107A0935207B093530788E195E00E9494
:101B50001E0788EA95E00E941E0788E396E00E942F
:101B60001E0788EC96E00E941E078091B8038093C0
:101B7000A405809334068093C406809354078AE1B9
:101B800092E00E94330A82E00E941A0B8AE192E0FE
:101B90000E94330A80E40E941A0B8BE292E00E94BA
:101BA000330A809123010E941A0B81E392E00E9484
:101BB000330A809124010E941A0B87E392E00E946D
:101BC000330A809125010E941A0B8EE193E00E9456
:101BD000330A809101010E941A0B8DE293E00E946A
:101BE000330A809102010E941A0B8DE392E00E9459
:101BF000330A8091860790E001960E94280B87E4C3
:101C000092E00E94330A80911B050E94130B8FE221
:101C100092E00E94330A8091AB050E94130B8FE281
:101C200092E00E94330A80913B060E94130B8FE2E0
:101C300092E00E94330A8091CB060E941A0B8AE53B
:101C400092E00E94330A8091B8030E941A0B8CE63E
:101C500092E00E94330A60919C0570919D058091ED
:101C60009E0590919F050E94550A88E792E00E9488
:101C7000330A6091A0057091A1058091A205909111
:101C8000A3050E94550A82E892E00E94330A6091FF
:101C90002C0670912D0680912E0690912F060E94A1
:101CA000550A8EE892E00E94330A609130067091E6
:101CB000310680913206909133060E94550A88E9D8
:101CC00092E00E94330A6091BC067091BD0680913B
:101CD000BE069091BF060E94550A84EA92E00E94D7
:101CE000330A6091C0067091C1068091C20690913E
:101CF000C3060E94550A8EEA92E00E94330A609160
:101D00004C0770914D0780914E0790914F070E94AC
:101D1000550A8AEB92E00E94330A60915007709155
:101D2000510780915207909153070E94550AC4E2CF
:101D3000D5E010E000E084EC92E00E94330A60916C
:101D40001B05600F712F711D072E000C880B990B5E
:101D50004AE00E94CE098FE292E00E94330A699124
:101D6000799190E080E04AE00E94CE098FE292E013
:101D70000E94330AFE01E257FF4F6081718190E0BB
:101D800080E04AE00E94CE098FE292E00E94330A8E
:101D9000FE01E25EFE4F6081718190E080E04AE0EA
:101DA0000E94CE098FE292E00E94330AFE01E255C2
:101DB000FE4F808191810E94430A0F5F1F4F0C33B9
:101DC000110509F0B8CFDF91CF911F910F910895C0
:101DD0001F920F920FB60F9211248F939F938091B1
:101DE000E1009091E100937F9093E10083FF0FC0A9
:101DF0001092E90091E09093EB001092EC0092E3D6
:101E00009093ED001092CE0398E09093F00082FF43
:101E100022C093E09093E9009091F200992319F089
:101E20009AE39093E8009091BF03992341F0909139
:101E3000BF0391509093BF03911101C05D9A90919F
:101E4000CD03992341F09091CD0391509093CD0310
:101E5000911101C0289A84FF18C08091E2008E7E03
:101E600081608093E2008091E1008F7E8093E100A9
:101E70008091C0038E7E80618093C0039F918F917B
:101E80000F900FBE0F901F90189580FFF7CF809195
:101E9000E2008E7E80618093E2008091E1008E7E80
:101EA0008093E1008091C0038E7E8160E5CF1F9218
:101EB0000F920FB60F921124CF92DF92EF92FF9202
:101EC0000F931F932F933F934F935F936F937F9342
:101ED0008F939F93AF93BF93EF93FF93CF93DF9332
:101EE000CDB7DEB76C97DEBFCDBF1092E900809111
:101EF000E80083FF25C068E0CE0145960E94860277
:101F000082EF8093E8008D8987FF39C09091E800C7
:101F100090FFFCCF982F907609F034C19E894F89AD
:101F2000588D2F89F88C911131C0803861F58091DE
:101F3000BE038093F1001092F1008EEF8093E800D1
:101F40006C960FB6F894DEBF0FBECDBFDF91CF9178
:101F5000FF91EF91BF91AF919F918F917F916F9181
:101F60005F914F913F912F911F910F91FF90EF90B3
:101F7000DF90CF900F900FBE0F901F9018959EEF9F
:101F80009093E800C7CF1092F100D5CF913059F46B
:101F90008111D3CF4130510581F68091BE038D7FF1
:101FA0008093BE03CACF933049F48111C6CF41302C
:101FB000510519F68091BE038260F2CF953041F44D
:101FC0008091E80080FFFCCF20682093E300B5CF2C
:101FD000963009F0A9C00B8D1C8D22E01092E9000B
:101FE0001092BC031092BB03F2122EC01092BA03DF
:101FF0001092B9030E9455021F8299E09983FA82D8
:1020000091E09E8390EA98879AEF99872091BB038D
:102010003091BC03275F3F4F3C832B838D8310920D
:10202000E9001092BC031092BB031093BA03009313
:10203000B90349E050E0BE016F5F7F4F80E00E942E
:102040002F020E94550279CF1093BA030093B9036F
:102050000E943901DC0112960D911C9101151105A8
:1020600009F451C1D801ED91FC910480F581E02D76
:10207000BE016B5E7F4FC8010995009709F03EC114
:10208000F80100851185EACFF3E0FF120EC08F89B9
:10209000882309F440C0823061F440E861E183E9BB
:1020A00091E00E94FC01811148CF81E28093EB0016
:1020B00047CF813029F440E867E08BE891E0F1CF29
:1020C000833099F70E943901DC011296ED90FC9063
:1020D0008E010F5F1F4F6801E114F10479F0D70101
:1020E000ED91FC910680F781E02DB801C7010995BB
:1020F000080F111DF701E084F184EECFD8011C9286
:10210000F60101900020E9F73197BF016C197D09B4
:1021100040E0C601C6CF65E771E0FB01449150E0A5
:1021200080E80E942F0209CF973009F4BECF983083
:1021300021F481E08093F10000CF993009F0FDCEC9
:10214000837009F0B2CFEFECF1E081E031E096E38B
:102150002191222371F08093E9003093EB00DF019D
:1021600011972C912093EC009093ED008F5F8730B6
:1021700079F78EE78093EA001092EA008F898093C6
:10218000CE03DBCE8B8D9C8D1092E9001092BC03A8
:102190001092BB039093BA038093B903898D811188
:1021A00092C08E899D89913A49F4813209F07DCFA0
:1021B00047E050E06BE271E080E0B3CF913209F08C
:1021C00074CF833269F48F89988DB0E0A0E080935A
:1021D000270190932801A0932901B0932A01ADCE45
:1021E000803269F48091E80082FFFCCF67E08BE2E7
:1021F00091E00E9486028BEF8093E8009ECE8232AF
:1022000009F09BCE8F8980933201EEEFFFE7859135
:1022100094918B3F9C4D51F1E0E0F8E080912B01CF
:1022200090912C01A0912D01B0912E01803B944002
:10223000A105B105F1F48091320180FD1AC0EE3F95
:102240008AE0F80789F587E797E791838083809193
:1022500060008093BD0388E19BE00FB6F894A895D9
:10226000809360000FBE9093600067CEEEEFFAE0BF
:10227000D5CF808191818737974709F05ECEA895A9
:10228000809160008861809360008091BD0380939D
:102290006000EE3F2AE0F20789F08091FE0A9091FB
:1022A000FF0A9183808349CE808191818737980787
:1022B00051F29093FF0A8093FE0AC5CF1092FF0A55
:1022C0001092FE0A3ACE0E943901DC0112960D915D
:1022D0001C910115110509F4E8CED801ED91FC918E
:1022E0000190F081E02DBE016B5E7F4FC801099522
:1022F000811123CEF80100851185EBCF1816190640
:102300000CF41BCED2CEF1E0FF12BECE69E771E035
:1023100004CF1F920F920FB60F9211242F933F9369
:102320004F935F936F937F938F939F93AF93BF93DD
:10233000EF93FF938FE694E00E941303FF91EF91D8
:10234000BF91AF919F918F917F916F915F914F91CD
:102350003F912F910F900FBE0F901F9018951F92D5
:102360000F920FB60F9211242F938F939F93EF9399
:10237000FF93E0917F04F09180048081E0918504D7
:10238000F091860482FD1BC09081809188048F5F4C
:102390008F7320918904821741F0E0918804F0E066
:1023A000E159FB4F958F80938804FF91EF919F91A6
:1023B0008F912F910F900FBE0F901F9018958081D5
:1023C000F4CF1F920F920FB60F9211242F933F93C9
:1023D0008F939F93AF93BF9380919F039091A0039E
:1023E000A091A103B091A20330919E0323E0230F9B
:1023F0002D3758F50196A11DB11D20939E038093A2
:102400009F039093A003A093A103B093A203809194
:10241000A3039091A403A091A503B091A6030196F4
:10242000A11DB11D8093A3039093A403A093A503C2
:10243000B093A603BF91AF919F918F913F912F9140
:102440000F900FBE0F901F90189526E8230F02964D
:10245000A11DB11DD2CF1F920F920FB60F92112462
:102460002F933F934F935F936F937F938F939F939C
:10247000AF93BF93EF93FF938091B900887F80362D
:1024800009F44AC0F0F5883209F4A7C018F5803184
:1024900009F49BC0B8F4882309F4F9C0883009F422
:1024A00094C0FF91EF91BF91AF919F918F917F91D8
:1024B0006F915F914F913F912F910F900FBE0F90B1
:1024C0001F901895883109F488C0803251F78093A5
:1024D000F30314C0803409F49DC040F48033B9F391
:1024E0008833F9F68093F30385ECB0C0803509F4A6
:1024F00085C0883509F496C0883499F60E943B0B54
:10250000D0CF883909F48CC038F5883729F050F4D9
:10251000883611F0803729F683E08093F503109216
:102520009D0357C0883809F47BC0803919F0803882
:1025300009F0B7CF80919D03803208F071C0E0911F
:102540009D0381E08E0F80939D038091BB00F0E09E
:10255000E358FC4F80833DC0803B39F0E0F4803A83
:1025600009F479C0883A09F09CCF84E08093F503A0
:1025700010927C0310927B03E091A903F091AA03CF
:10258000099580917B0381110FC081E080937B03CB
:1025900010925B0309C0803C09F4A6CF883C09F483
:1025A000A3CF883B09F07DCFE0917C0381E08E0FC3
:1025B00080937C03F0E0E55AFC4F80818093BB0060
:1025C00090917C0380917B0329C08091D0038093FC
:1025D000BB0085EC8093BC0064CF9091F2038091A6
:1025E000F103981758F5E091F20381E08E0F809384
:1025F000F203F0E0EF52FC4F8081E9CFE091F2036B
:1026000081E08E0F8093F2038091BB00F0E0EF52E7
:10261000FC4F80839091F2038091F1039817C8F2E8
:1026200085E8D8CFE091F20381E08E0F8093F2032A
:102630008091BB00F0E0EF52FC4F80838091F40367
:1026400081115CCF81E08093CF0384EA8093BC004A
:102650001092F50326CF85EC8093BC001092F50311
:1026600080919D03803230F4E0919D03F0E0E358C7
:10267000FC4F108260919D0370E0E091A703F09100
:10268000A8038DE793E0099510929D030ACF10925D
:10269000F30334CF0F931F93CF93DF93EC01162FE7
:1026A000042F8FEF888319821A8284E28B831C8225
:1026B0001D8280E090E29F838E83198618861B8698
:1026C0001A8688E7E3E3F1E0DE011C9601900D92A3
:1026D0008A95E1F7FE01EC57FF4F108211821282BA
:1026E0001382349680E090E0A0E8BFE3808391837A
:1026F000A283B38334961082339686E0808361E0B0
:10270000812F0E941A04FE01E357FF4F1083C25726
:10271000DF4F0883DF91CF911F910F910895CF92E2
:10272000DF92EF92FF92CF93DF93EFE1F4E0138219
:10273000128288EE93E0A0E0B0E084839583A683C4
:10274000B78329ED31E0318320832FEF3FEF3587C9
:102750002487EFE6F4E01382128284839583A683B4
:10276000B7832BEE31E0318320832DEC30E03587C9
:1027700024872CEC30E03787268728EC30E0318B3B
:10278000208B29EC30E0338B228B2AEC30E0358B28
:10279000248B2EEC30E0378B268B118E128E138E0D
:1027A000148EECE0F5E01382128284839583A68375
:1027B000B7838DEF91E091838083E2E8F7E01482A4
:1027C000108A81E0818B128A138A148A158A168AEC
:1027D000148E138E178E168EC4E7D7E01E821F82CA
:1027E0001886198660E089E00E941A0489E090E06A
:1027F0009983888382E3C82ED12CE12CF12CCA86E0
:10280000DB86EC86FD86C6E6D7E01E821F82188630
:10281000198660E083E10E941A0483E190E09983C5
:102820008883CA86DB86EC86FD86C8E5D7E01E82F3
:102830001F821886198660E084E10E941A0484E1F0
:1028400090E099838883CA86DB86EC86FD8640E02B
:1028500068E088E195E00E944A1341E062E188EA7D
:1028600095E00E944A1342E065E188E396E00E9409
:102870004A1343E066E188EC96E0DF91CF91FF9048
:10288000EF90DF90CF900C944A13CF93DF93CDB7A6
:10289000DEB7C25AD1090FB6F894DEBF0FBECDBF66
:1028A000789484B5826084BD84B5816084BD85B52B
:1028B000826085BD85B5816085BD80916E00816037
:1028C00080936E00109281008091810082608093DD
:1028D00081008091810081608093810080918000DF
:1028E000816080938000809191008260809391004C
:1028F000809191008160809391008091900081602F
:10290000809390008091C10084608093C100809189
:10291000C10082608093C1008091C100816080937A
:10292000C1008091C30081608093C3008091C0008A
:1029300082608093C0008091C20081608093C20059
:1029400080917A00846080937A0080917A0082601E
:1029500080937A0080917A00816080937A008091E0
:102960007A00806880937A001092CE031092BE03A2
:102970001092C0038091D70081608093D70080EAD5
:102980008093D80089B5806189BD89B5826089BD91
:1029900009B400FEFDCF61E070E080E090E00E94AD
:1029A00070048091D8008F7C80618093D8008091E2
:1029B000E000807F8093E0008091E1008E7E809334
:1029C000E1008DE08093E200559A209AE0917F0427
:1029D000F091800482E08083E0917B04F0917C049C
:1029E0001082E0917D04F0917E048FE38083109249
:1029F0008704E0918304F091840486E08083E09171
:102A00008104F0918204808180618083E09181045F
:102A1000F0918204808188608083E0918104F0914C
:102A20008204808180688083E0918104F091820437
:102A300080818F7D80831092AC031092AB03109243
:102A40001C0410921B040E944E0583E992E09093AF
:102A5000AA038093A90384E992E09093A80380934A
:102A6000A70361E086E00E941A0448E050E060E8B5
:102A700070E08DEA93E00E9425200E94A50C409012
:102A8000AB015090AC016090AD0122242394312C15
:102A9000109283071092840710928F07109290076C
:102AA0001092890710928C0710928E07109291074E
:102AB0008FE694E00E94F302181619060CF075C018
:102AC0008FE694E00E94D102182F082FF82E87FF7E
:102AD00074C780939F078091A0079091A107892BCD
:102AE00009F066C181E080939307F7FC4EC0209106
:102AF0009F078091860790E080529F4F2817190604
:102B0000D1F481E0809389078FE694E00E94F3027C
:102B1000892BD1F38FE694E00E94D1029695982FED
:102B200088279795879580789F77810F911D90933F
:102B300088078093870720919F078091860790E000
:102B400080559F4F2817190689F481E080938C07E0
:102B500010938A078FE694E00E94F302892BD1F349
:102B60008FE694E00E94D10280938B0720919F070B
:102B70008091860790E080539F4F2817190629F40B
:102B800081E080938E0710938D0780919F0796E0D8
:102B9000980F923008F00FC181E080938F078093E7
:102BA000920730929E0720929D0780918307882389
:102BB00099F10091850710918207E8E18E2EE5E0FA
:102BC0009E2E7401D12CC12C70900001A72CB12C29
:102BD000CA14DB040CF5F70181818111AAC180912F
:102BE0002601853009F079C141E0612F88E195E047
:102BF0000E94960841E0612F88EA95E00E949608BD
:102C000041E0612F88E396E00E94960841E0612F41
:102C100088EC96E00E94960880918407882309F446
:102C200040C0409182078091000190E0E8E1F5E02A
:102C300030E020E0281739070CF0F2C1518155230C
:102C400009F4E9C152814513E6C1EDEAF3E007E07A
:102C500010E06781603809F4B9C1809126010355FD
:102C60001C4F853009F0A8C141E088E195E00E9441
:102C7000960841E0F801608188EA95E00E94960894
:102C800041E0F801608188E396E00E94960841E007
:102C9000F801608188EC96E00E94960880E8F801CF
:102CA000808380919307882309F4E0C18091B80361
:102CB000813021F460E086E00E94EC0384E797E035
:102CC0000E9454092091B7032817190609F4BAC1C4
:102CD00088E597E00E9454098C0186E697E00E94FF
:102CE00054097C0184E797E00E945409892B09F07C
:102CF00035C583E0EF2809F047C584E0012B09F4CE
:102D000043C586E0809326018FEF8093180580935A
:102D1000A80581E08093000184E797E00E945409B0
:102D200021E0892B09F420E02093B70386E697E0A1
:102D30000E94540921E0892B09F420E02093B60376
:102D400088E597E00E94540921E0892B09F420E0EE
:102D50002093B5038BC181E080938407121613067C
:102D60000CF054C6215031094DC680589F4F28178A
:102D7000390709F0B0CE8FE694E00E94F302892B68
:102D8000D1F38FE694E00E94D10281E08093840722
:102D9000109382078091A0079091A1071816190639
:102DA0000CF099CE01979093A1078093A00793CE42
:102DB000109293079ACE8C3F31F41092920781E0E3
:102DC00080939007F2CE883F19F58091920788236F
:102DD00009F4EBCE80919D0790919E07009749F4EE
:102DE00021E020938F07019690939E0780939D0783
:102DF000DCCE8B30910521F421E020939007F3CFB6
:102E00008731910581F710929E0710929D07CDCED4
:102E1000803F09F0CACE81E0809391078FE694E06D
:102E20000E94F302892BD1F38FE694E00E94D10235
:102E30008FE694E00E94F302892BD1F38FE694E0B1
:102E40000E94D102809394078FE694E00E94F302DF
:102E5000892BD1F38FE694E00E94D10280939507ED
:102E60008FE694E00E94F302892BD1F38FE694E081
:102E70000E94D102809396078FE694E00E94F302AD
:102E8000892BD1F38FE694E00E94D10280939707BB
:102E90008FE694E00E94F302892BD1F38FE694E051
:102EA0000E94D1028093980710E0073F09F47DCE7D
:102EB0008FE694E00E94F302892BD1F38FE694E031
:102EC0000E94D102082F873F09F46FCEE12FF0E076
:102ED000EE57F84F878B1F5FE8CF20E92C9DC0018C
:102EE0002D9D900D11249C01285E3A4F790141E0FF
:102EF000612FC9010E949608602FC7010E946908CE
:102F000031E0371508F088CEF12CE12CF4018181F5
:102F1000811105C040E0612FC4010E949608FFEFB7
:102F2000EF1AFF0A20E9820E911CEA14FB0474F3E5
:102F300073CE31E0A31AB108CA14DB0449F5EDEAF7
:102F4000F3E090E080E02191203849F583559C4FD3
:102F5000F7012281FC0120838091260141E0612F4D
:102F6000853011F588E195E00E94960841E0612FD7
:102F700088EA95E00E94960841E0612F88E396E098
:102F80000E94960841E0612F88EC96E00E94960826
:102F9000FFEFCF1ADF0A20E9E20EF11C15CE0196F1
:102FA0008830910581F6D8CFC7010E949608602F1E
:102FB000C7010E946908ECCF40E9429FC001439FCE
:102FC000900D112441E0885E9A4F66CE01501109A0
:102FD00031970F3F100709F03CCE809126018530D4
:102FE00089F488E195E00E94880888EA95E00E94CB
:102FF000880888E396E00E94880888EC96E00E94A2
:1030000088084FCE40E9429FC001439F900D112494
:10301000885E9A4FF4CF2F5F3F4FE057FF4F0ACEA5
:10302000EDEAF3E090E080E02191421306C0835581
:103030009C4F20E8FC01208334CE01968830910516
:1030400099F72FCE86E697E00E9454092091B603A7
:103050002817190609F03CCE88E597E00E9454092C
:103060002091B5032817190609F032CE80918907FF
:10307000882379F080912601813019F0863009F09B
:1030800089C3609187077091880788E195E00E9465
:10309000260880918C07882399F190918A07809166
:1030A000230198130DC080912601982F9D7F9130A8
:1030B00009F0BDC360918B0788EC96E00E94A107E0
:1030C00090918A078091240198130AC0809126016B
:1030D000863031F460918B0788E396E00E94A10767
:1030E00090918A078091250198130AC0809126014A
:1030F000863031F460918B0788EC96E00E94A1073E
:1031000080918E07882351F080912601813031F41F
:1031100060918D0788E396E00E94A10780918F0758
:10312000882329F08091B80361E0882349F08091D9
:103130009007882341F08091B803811104C060E0BA
:1031400086E00E94EC0380919107882309F4ECC487
:1031500080919407823009F01DC1809195078034D9
:1031600009F018C1809197078F3F09F013C1809132
:103170009607853009F00EC161E086E00E94EC03FD
:103180008EEC92E00E94350A10E000E060E0C80199
:103190000E94AC1D0F5F1F4F0115F4E01F07B1F730
:1031A00088E7E3E3F1E0DE01119601900D928A9544
:1031B000E1F780E2EEEAF1E0DE01A758BF4F0190AF
:1031C0000D928A95E1F7C756DF4F488259826A828D
:1031D000C959D04082E0C256DF4F8883CE59D040D3
:1031E000C156DF4F8883CF59D040CE55DF4F18826C
:1031F000C25AD040CF55DF4F1882C15AD04084E226
:10320000C056DF4F8883C05AD040BE016F557F4FF4
:1032100090E080E00E945D0CBE0160567F4F81E02F
:1032200090E00E945D0CCE0187589F4F0E948C0B4E
:10323000BE016F5F7F4F82E490E00E942A0CBE01C6
:103240006F5F7F4F8AEB90E00E942A0CBE016F5F98
:103250007F4F82E391E00E942A0CBE016F5F7F4F97
:103260008AEA91E00E942A0CCE0187569F4F0E9465
:10327000B50BCE0182569F4F0E94DF0BBE016E55EB
:103280007F4F87E292E00E945D0CC456DF4F398287
:103290002882CC59D040BE0164567F4F88E292E02C
:1032A0000E94030C22E030E0C456DF4F39832883AC
:1032B000CC59D040BE0164567F4F89E292E00E9413
:1032C000030C83E090E0C456DF4F99838883CC5988
:1032D000D040BE0164567F4F8AE292E00E94030C08
:1032E000C456DF4F19821882CC59D040BE016456B3
:1032F0007F4F8BE292E00E94030CC456DF4F19828D
:103300001882CC59D040BE0164567F4F8CE292E0C7
:103310000E94030CC456DF4F19821882CC59D0404A
:10332000BE0164567F4F8DE292E00E94030CC456AA
:10333000DF4F19821882CC59D040BE0164567F4FAE
:103340008EE292E00E94030CC456DF4F198218826D
:10335000CC59D040BE0164567F4F8FE292E00E946C
:10336000030CC456DF4F19821882CC59D040BE01DD
:1033700064567F4F80E392E00E94030C64EF71E09B
:1033800080E090E00E94700460E086E00E94EC0320
:103390000E94A50C80919407823071F58091950769
:1033A000803451F5809197078F3131F580919607E0
:1033B000853011F561E086E00E94EC038091990769
:1033C0008093860766E877E090E080E00E945D0CDD
:1033D0008DE392E00E94330A8091860790E0019687
:1033E0000E94280B64EF71E080E090E00E9470047E
:1033F00060E086E00E94EC0380919407823091F5B2
:1034000080919507803471F580919707803251F54E
:1034100080919607853031F561E086E00E94EC03EB
:103420008091990780931B058093AB0580933B06A1
:103430008093CB066BE175E081E090E00E945D0C2B
:1034400087E492E00E94330A80911B050E941A0BC8
:1034500064EF71E080E090E00E94700460E086E03C
:103460000E94EC0380919407823009F07FC0809124
:103470009507803409F07AC080919707853109F06B
:1034800075C080919607853009F070C061E086E0D4
:103490000E94EC030091980798E0099F8001112495
:1034A0000D5F1E4F60919A07E0E86E9FC0011124E6
:1034B00060919907680F792F711D072E000C880BFA
:1034C000990B0E94D61E20E030E04AE754E40E94A7
:1034D000BA1DF801608371838283938383E091E056
:1034E0000E948C0B2091980730E010E9129FC001D8
:1034F000139F900D1124885E9A4FDC01AC57BF4F8B
:1035000073E0220F331F7A95E1F7F901ED5FFE4F6B
:1035100040815181628173814D935D936D937C9362
:1035200013970E941E0789ED92E00E94330A809152
:1035300098070E941A0B8FE692E00E94330AE091EE
:1035400098071E9FF0011124E456FA4F60817181A3
:10355000828193810E94550A64EF71E080E090E0DF
:103560000E94700460E086E00E94EC038091940762
:10357000823009F07FC080919507803409F07AC0CD
:1035800080919707863109F075C080919607853044
:1035900009F070C061E086E00E94EC03009198079A
:1035A000F8E00F9F800111240D5F1E4F60919A0774
:1035B00020E8629FC001112460919907680F792F5C
:1035C000711D072E000C880B990B0E94D61E20E05F
:1035D00030E44CE156E40E942C1EF80164837583AC
:1035E0008683978383E091E00E948C0B209198075B
:1035F00030E010E9129FC001139F900D1124885EE6
:103600009A4FDC01A857BF4F63E0220F331F6A9522
:10361000E1F7F901ED5FFE4F4481558166817781C5
:103620004D935D936D937C9313970E941E0789EDD4
:1036300092E00E94330A809198070E941A0B8BE750
:1036400092E00E94330AE09198071E9FF001112436
:10365000E056FA4F60817181828193810E94550A00
:1036600064EF71E080E090E00E94700460E086E02A
:103670000E94EC0380919407823009F009C1809187
:103680009507803449F580919707873109F0C1C1CA
:1036900080919607853001F580919807E091820727
:1036A000F0E98F9FD0011124A85EBA4F13969C9128
:1036B000E91BFF0B28E4829FE00DF11D1124EE0FA2
:1036C000FF1FEC5DFA4F80819181209199072111B4
:1036D000B6C001979183808380919507803409F06B
:1036E000DCC0809197078D3109F0D7C08091960793
:1036F000853009F0D2C061E086E00E94EC03E091E1
:103700009807F0E0ED5DFE4F80919907808383E29A
:1037100091E00E94B50B8BE292E00E94330A809107
:1037200023010E941A0B81E392E00E94330A8091E8
:1037300024010E941A0B87E392E00E94330A8091D1
:1037400025010E941A0B64EF71E080E090E00E9476
:10375000700460E086E00E94EC039FC0EF2849F00F
:1037600081E080932601809318059FEF9093A80530
:10377000D1CA85E0012B09F0C5CA82E080932601F9
:103780008093180593E0F2CF809326019FEF9093EA
:103790001805ECCF823079F4609187077091880723
:1037A00088E195E00E94260860918707709188075C
:1037B00088EA95E06CCC8330B9F46091870770910A
:1037C000880788E195E00E9426086091870770913C
:1037D000880788EA95E00E94260860918707709123
:1037E000880788E396E053CC8450823008F051CCAF
:1037F000609187077091880788E195E00E9426080C
:10380000609187077091880788EA95E00E942608F2
:10381000609187077091880788E396E00E942608E8
:10382000609187077091880788EC96E030CC8630ED
:1038300009F046CC60918B0788EA95E03FCC019671
:1038400049CF813029F464EB75E08AEB90E0F1C058
:10385000823029F464E476E082E391E0EAC08330C8
:1038600009F0E9C064ED76E08AEA91E0E2C0870100
:103870000A33110509F0F5C089ED92E00E94330A80
:10388000809198070E94130B84E093E00E94350A10
:1038900080919407823009F41FCF80919407823081
:1038A000E1F5809195078034C1F5809197078E31BD
:1038B000A1F580919607853081F561E086E00E9450
:1038C000EC03E0919807F0E0EF5FFE4F80919907DD
:1038D000808381E091E00E94DF0B80919807811145
:1038E0005BC08091010180931C058093AC0580939F
:1038F0003C068093CC0689E193E00E94330A8091D4
:1039000001010E941A0B64EF71E080E090E00E94D8
:10391000700460E086E00E94EC038091940782309E
:1039200009F002C180919507803409F0FDC08091B3
:103930009707813209F0F8C080919607853009F029
:10394000F3C061E086E00E94EC03809198078093C9
:10395000B80368EB73E087E292E00E945D0C80910F
:10396000B8038093A405809334068093C4068093A3
:1039700054078AE592E00E94330A8091B8030E94BE
:103980001A0B64EF71E080E090E00E94700460E048
:1039900086E00E94EC03C8C08091020180931D055F
:1039A0008093AD0580933D068093CD0688E293E039
:1039B0000E94330A80910201A4CF20919F0730E03A
:1039C0008091860790E0AC0140575F4F2417350780
:1039D00009F0CBC98FE694E00E94F302892BD1F362
:1039E0008FE694E00E94D102809385072091A00782
:1039F0003091A107882309F4AEC981E08093830741
:103A00002F5F3F4F3093A1072093A00710938207A9
:103A100062C8883109F060CE80919607853009F040
:103A20005BCE8091980781110CCF64E275E082E44F
:103A300090E00E942A0C89ED92E00E94330A809166
:103A400098070E94130B81EE92E00E94350AE091E4
:103A5000980730E9E39FF0011124EC5DFA4F01E093
:103A600010E082819381680121E0C21AD1087801B7
:103A70003FEFE31AF30A20813181329682179307D0
:103A800030F0228133812817390708F0F0CE88EE14
:103A900092E00E94330AE091980780E9E89FF001E4
:103AA0001124E85EFA4F8381800F912F911D0E94AF
:103AB000280B8091980798E4B92EF601B89EE00D86
:103AC000F11D1124EE0FFF1FEC5DFA4F80819181F3
:103AD0000E94430A80919807F801B89EE00DF11DFD
:103AE0001124EE0FFF1FEC5DFA4F808191810E943F
:103AF000430A80919807F701B89EE00DF11D11244B
:103B0000EE0FFF1FEC5DFA4F808191810E94430A06
:103B100089ED92E00E94330A809198070E94130B6E
:103B20008FEE92E00E94350AE0E0F0E0EF2B11F416
:103B30000C9448150E94FF02882311F40C9445153B
:103B40000E9400000C944515F999FECF92BD81BDED
:103B5000F89A992780B50895262FF999FECF1FBAB4
:103B600092BD81BD20BD0FB6F894FA9AF99A0FBEA6
:103B7000019608955058BB27AA270E94D21D0C9485
:103B80004C1F0E943E1F38F00E94451F20F039F460
:103B90009F3F19F426F40C943B1F0EF4E095E7FBCD
:103BA0000C94351FE92F0E945D1F58F3BA17620766
:103BB00073078407950720F079F4A6F50C947F1F0E
:103BC0000EF4E0950B2EBA2FA02D0B01B901900138
:103BD0000C01CA01A0011124FF27591B99F0593F7C
:103BE00050F4503E68F11A16F040A22F232F342FC4
:103BF0004427585FF3CF469537952795A795F04012
:103C00005395C9F77EF41F16BA0B620B730B840B26
:103C1000BAF09150A1F0FF0FBB1F661F771F881FDE
:103C2000C2F70EC0BA0F621F731F841F48F4879536
:103C300077956795B795F7959E3F08F0B0CF939528
:103C4000880F08F09927EE0F9795879508950E94A1
:103C5000111F08F481E008950E94401E0C944C1F2F
:103C60000E94451F58F00E943E1F40F029F45F3F1C
:103C700029F00C94351F51110C94801F0C943B1F9C
:103C80000E945D1F68F39923B1F3552391F3951BAF
:103C9000550BBB27AA2762177307840738F09F5F6D
:103CA0005F4F220F331F441FAA1FA9F335D00E2EDA
:103CB0003AF0E0E832D091505040E695001CCAF747
:103CC0002BD0FE2F29D0660F771F881FBB1F26170A
:103CD00037074807AB07B0E809F0BB0B802DBF01E1
:103CE000FF2793585F4F3AF09E3F510578F00C94B0
:103CF000351F0C94801F5F3FE4F3983ED4F3869504
:103D000077956795B795F7959F5FC9F7880F911DD0
:103D10009695879597F90895E1E0660F771F881FBC
:103D2000BB1F621773078407BA0720F0621B730B6F
:103D3000840BBA0BEE1F88F7E09508950E94A51E2C
:103D40006894B1110C94801F08950E94651F88F03B
:103D50009F5798F0B92F9927B751B0F0E1F0660F4F
:103D6000771F881F991F1AF0BA95C9F714C0B13090
:103D700091F00E947F1FB1E008950C947F1F672F80
:103D8000782F8827B85F39F0B93FCCF386957795BF
:103D90006795B395D9F73EF49095809570956195A8
:103DA0007F4F8F4F9F4F0895E89409C097FB3EF4D3
:103DB00090958095709561957F4F8F4F9F4F992378
:103DC000A9F0F92F96E9BB279395F69587957795F6
:103DD0006795B795F111F8CFFAF4BB0F11F460FFB6
:103DE0001BC06F5F7F4F8F4F9F4F16C0882311F00E
:103DF00096E911C0772321F09EE8872F762F05C022
:103E0000662371F096E8862F70E060E02AF09A95BC
:103E1000660F771F881FDAF7880F9695879597F9B1
:103E20000895990F0008550FAA0BE0E8FEEF16164B
:103E30001706E807F907C0F012161306E407F5079E
:103E400098F0621B730B840B950B39F40A2661F012
:103E5000232B242B252B21F408950A2609F4A140B5
:103E6000A6958FEF811D811D089597F99F6780E8C2
:103E700070E060E008959FEF80EC089500240A94BC
:103E80001616170618060906089500240A94121635
:103E90001306140605060895092E0394000C11F468
:103EA000882352F0BB0F40F4BF2B11F460FF04C015
:103EB0006F5F7F4F8F4F9F4F089557FD9058440F6E
:103EC000551F59F05F3F71F04795880F97FB991F79
:103ED00061F09F3F79F08795089512161306140636
:103EE000551FF2CF4695F1DF08C0161617061806C3
:103EF000991FF1CF86957105610508940895E8949E
:103F0000BB2766277727CB0197F908950E94111FD9
:103F100008F48FEF08950E949E1F0C944C1F0E947E
:103F20003E1F38F00E94451F20F0952311F00C949D
:103F3000351F0C943B1F11240C94801F0E945D1FA1
:103F400070F3959FC1F3950F50E0551F629FF001EC
:103F5000729FBB27F00DB11D639FAA27F00DB11D05
:103F6000AA1F649F6627B00DA11D661F829F22278E
:103F7000B00DA11D621F739FB00DA11D621F839F15
:103F8000A00D611D221F749F3327A00D611D231FEB
:103F9000849F600D211D822F762F6A2F11249F5739
:103FA00050409AF0F1F088234AF0EE0FFF1FBB1F3C
:103FB000661F771F881F91505040A9F79E3F5105FB
:103FC00080F00C94351F0C94801F5F3FE4F3983E03
:103FD000D4F3869577956795B795F795E7959F5FA5
:103FE000C1F7FE2B880F911D9695879597F9089537
:103FF0000E94111F880B990B0895A1E21A2EAA1B8B
:10400000BB1BFD010DC0AA1FBB1FEE1FFF1FA21788
:10401000B307E407F50720F0A21BB30BE40BF50B85
:10402000661F771F881F991F1A9469F7609570950E
:10403000809590959B01AC01BD01CF010895EE0FD5
:10404000FF1F0590F491E02D0994DC0101C06D93F0
:0C40500041505040E0F70895F894FFCF75
:10405C00040202000000000000803F00000000008D
:10406C0000803F000000000000803F0000000000C6
:10407C0000803F01474A04FFFFFFFF00E100000002
:10408C00000000000044008900CD00110155019A88
:10409C0001DE0122026602AB02EF0233037703BC9E
:1040AC0003000444048804CD04110555059905DE6C
:1040BC000522066606AA06EF0633077707BB07003C
:1040CC000844088808CC08110955099909DD09220A
:1040DC000A660AAA0AEE0A330B770BBB0BFF0B44DA
:1040EC000C880CCC0C100D550D990DDD0D210E66A8
:1040FC000EAA0EEE0E320F770FBB0F01474A0000CF
:10410C0000000000803F000000000000803F000025
:10411C0000000000803F000000000000803F00C154
:10412C008081000000000000004D01A2046E0163BC
:10413C0001B401720190010000000034039502C229
:10414C00028003F302D102E50200000000E405B78F
:10415C00051B078D05B0059D058E050D0A006E61CA
:10416C006E00696E66006F7666004D616E756661F5
:10417C0063747572657249443A20004343313A20A6
:10418C00004343323A20004343333A2000436861F2
:10419C006E6E656C3A20004C6F77657374204D69B8
:1041AC006469204E6F74653A20004F722047617429
:1041BC006520456E61626C65643A20005630204F74
:1041CC0066667365743A20005630204761696E3A12
:1041DC0020005631204F66667365743A20005631C4
:1041EC00204761696E3A20005632204F666673652F
:1041FC00743A20005632204761696E3A20005633DB
:10420C00204F66667365743A200056332047616907
:10421C006E3A20004D6964694E756D3A2000536505
:10422C007420454550524F4D00566F6963653A20D6
:10423C0000205361766564004D6964693A20002062
:10424C00566572696669636174696F6E204661694F
:10425C006C65640020566572696669636174696F88
:10426C006E205061737365640050697463684265B5
:10427C006E642055703A2000506974636842656E14
:0A428C006420446F776E3A200000B2
:00000001FF
