:100000000C94D4000C94FC000C94FC000C94FC00A8
:100010000C94FC000C94FC000C94FC000C94FC0070
:100020000C94FC000C94FC000C94630F0C94D20F05
:100030000C94FC000C94FC000C94FC000C94FC0050
:100040000C94FC000C94FC000C94FC000C94FC0040
:100050000C94FC000C94FC000C94FC000C945C12BE
:100060000C94FC000C942A120C9404120C94FC00C6
:100070000C94FC000C94FC000C94FC000C94FC0010
:100080000C94FC000C94FC000C94FC000C94FC0000
:100090000C94A6120C94FC000C94FC000C94FC0034
:1000A0000C94FC000C94FC000C94FC00000000007C
:1000B0002300260029002C002F000000000024004F
:1000C00027002A002D003000000000002500280035
:1000D0002B002E0031000404040404030405020272
:1000E00002020403020202020606060606060404D1
:1000F0000202020404040802011040804010204063
:10010000804080080204018040201002011080100D
:10011000204040200000000200090F0000030401FD
:10012000000C0000000000000000000000000000C3
:10013000000000080B000202020000090400000198
:10014000020200000524001001052401010104241D
:10015000020605240600010705810310004009047A
:100160000100020A00000007050202400000070526
:1001700083024000000403090412010002EF02019F
:1001800040D80498E8000101020301556E6B6E6FC0
:10019000776E004D696469566F6C747320446573A3
:1001A0006B746F7000000A1411241FBECFEFDAE0E9
:1001B000DEBFCDBF13E0A0E0B1E0ECE3F3E402C0AA
:1001C00005900D92AA34B107D9F727E0AAE4B3E06D
:1001D00001C01D92A43CB207E1F710E0C4EDD0E0ED
:1001E00004C02197FE010E948F21C33DD107C9F7AA
:1001F0000E940C150C949C210C94000096E0980F22
:10020000923060F481E08093A0078093A40781E09E
:1002100090E09093B0078093AF0708958C3F31F43E
:100220001092A40781E08093A1070895883FA9F761
:100230008091A407882389F38091AF079091B0073C
:100240002091A207009769F431E03093A007215074
:10025000330B8217930771F41092B0071092AF0717
:100260000895322F3695381719068CF731E0309300
:10027000A107EDCF0196CDCFFC018091DF0388234C
:1002800011F13FB7F89482E08093E9002091F200E9
:10029000822F90E01816190614F481E090E088236C
:1002A00039F0289844E64093DE034091F100408302
:1002B000222339F02091F200211103C02BE6209374
:1002C000E8003FBF08958FEF9FEF08952FB7F89490
:1002D00083E08093E9009091E800892F807295FF78
:1002E00004C09091F20080E4891B2FBF0895809193
:1002F000D60381110DC082E08093D20384E0809305
:10030000D3031092D5031092D40381E08093D603D7
:1003100082ED93E00895CF93DF931F92CDB7DEB7C0
:100320006983DC01ED91FC910280F381E02D41E0D5
:1003300050E0BE016F5F7F4F09950F90DF91CF9125
:10034000089583E08093E9008091F200882319F0FA
:100350008AE38093E80008950E94660190E0089582
:10036000CF93DF931F92CDB7DEB7FC0184859585CF
:1003700097FD08C02FEF3FEF358724870F90DF915F
:10038000CF910895CE0101960E943C01019719F486
:10039000898190E0F3CF8FEF9FEFF0CF0F931F9302
:1003A000CF93DF931F92CDB7DEB78C01FC0184851C
:1003B000958597FF0BC0CE0101960E943C010197E5
:1003C00071F4898190E0F80195878487F80184852C
:1003D00095850F90DF91CF911F910F9108958FEF29
:1003E0009FEFF1CFFC018485958597FD0BC09FB7EA
:1003F000F89482E08093E9008091F2009FBF90E042
:10040000019608959FB7F89482E08093E900809167
:10041000F2009FBF90E008954091CC035091CD032E
:100420002091CA033091CB0342175307B4F4909143
:10043000E8009570E1F39091E80092FD19C0809377
:10044000F1008091CC039091CD0301968F73992791
:10045000892B19F48EEF8093E8008091CC03909162
:10046000CD0301969093CD038093CC0381E0089552
:1004700080E00895EF92FF920F931F93CF93DF9345
:10048000F82E192FE62E042F81E0860F880F0E9488
:100490000C0283E00E940C02CF2DD12FEC0EFD2E1A
:1004A000F11CCE15DF05B9F007FF13C0FE018491E2
:1004B0000E940C02182F80E00E940C0281232196DA
:1004C0008111EFCFDF91CF911F910F91FF90EF90AE
:1004D00008958881EDCF81E0F5CFDF92EF92FF9212
:1004E0000F931F93CF93DF93D82E8A01EB017B01EB
:1004F000E40EF51ECE15DF0559F0D7FE12C0FE0141
:1005000084910E940C0221968111F4CF0FEF1FEF0E
:10051000C801DF91CF911F910F91FF90EF90DF9075
:1005200008958881EECF0F931F93CF93DF931F928F
:10053000CDB7DEB782E0898342E450E063E371E047
:1005400080E80E946D020E947701DC0112960D91F5
:100550001C910115110589F0D801ED91FC910280E3
:10056000F381E02DBE016F5F7F4FC801099597FDB4
:1005700004C0F80100851185ECCF89810F90DF91CF
:10058000CF911F910F910895615030F02091F100AB
:10059000FC0120830196F8CF289884E68093DE033F
:1005A000089508950895AF92BF92CF92DF92EF928F
:1005B000FF920F931F93CF93DF936C017B018B010D
:1005C000040F151FEB015E01AE18BF08C017D1075D
:1005D00059F06991D601ED91FC910190F081E02DE7
:1005E000C6010995892B79F7C501DF91CF911F913C
:1005F0000F91FF90EF90DF90CF90BF90AF90089554
:10060000FC01538D448D252F30E0842F90E0821B18
:10061000930B541710F0CF96089501970895FC019D
:10062000918D828D981761F0A28DAE0FBF2FB11DF5
:100630005D968C91928D9F5F9F73928F90E008954D
:100640008FEF9FEF0895FC01918D828D981731F007
:10065000828DE80FF11D858D90E008958FEF9FEF5B
:100660000895FC01918D228D892F90E0805C9F4F31
:10067000821B91098F739927089580E894E00E9466
:100680003103892BD1F380E894E00E943103892B58
:10069000D1F380E894E00E940F03883F18F00E9495
:1006A000FE00F1CF089580E894E00E94310321E03C
:1006B000892B09F420E0822F089580E090E0892BB7
:1006C00029F00E94530381110C9400000895FC014D
:1006D000A48DA80FB92FB11DA35ABF4F2C91848DA3
:1006E00090E001968F739927848FA689B7892C9300
:1006F000A089B1898C9182748C93938D848D981389
:1007000006C00288F389E02D80818F7D8083089563
:10071000EF92FF920F931F93CF93DF93EC0181E051
:10072000888F9B8D8C8D981319C0E889F9898081F9
:1007300085FF14C09FB7F894EE89FF896083E8892C
:10074000F9898081827480839FBF81E090E0DF918E
:10075000CF911F910F91FF90EF900895F62E0B8D82
:1007600010E00F5F1F4F0F731127E02E8C8D8E113D
:100770000CC00FB607FCFACFE889F989808185FFA4
:10078000F5CFCE010E946703F1CFEB8DEC0FFD2F6B
:10079000F11DE35AFF4FF0829FB7F8940B8FEA895F
:1007A000FB8980818062CFCFCF93DF93EC01888D6E
:1007B0008823B9F0AA89BB89E889F9898C9185FDDC
:1007C00003C0808186FD0DC00FB607FCF7CF8C916A
:1007D00085FFF2CF808185FFEDCFCE010E946703B8
:1007E000E9CFDF91CF91089581508F3008F047C055
:1007F000E82FF0E0E250FC4F0C948F211B041F0403
:100800000D04130417043F043F043F04220428048A
:100810002C04300436043F043A04809180008F7722
:10082000809380000895809180008F7DF9CF809122
:100830008000877FF5CF84B58F7784BD089584B518
:100840008F7DFBCF809190008F77809390000895EB
:10085000809190008F7DF9CF80919000877FF5CFB8
:100860008091C0008F778093C00008958091C00070
:100870008F7DF9CF8091C200877F8093C200089559
:100880001F93CF93DF93282F30E0F901EC5EFE4FEA
:100890008491F901EB50FF4FD491F901EA52FF4FD7
:1008A000C491CC23A9F0162F81110E94F403EC2FE0
:1008B000F0E0EE0FFF1FE853FF4FA591B4918FB703
:1008C000F894EC91111108C0D095DE23DC938FBF12
:1008D000DF91CF911F910895DE2BF8CFCF93DF9357
:1008E00090E0FC01EB50FF4F24918A529F4FFC0196
:1008F00084918823D1F090E0880F991FFC01E65481
:10090000FF4FA591B491FC01E853FF4FC591D491DD
:1009100061110EC09FB7F8948C91E22FE0958E2361
:100920008C932881E223E8839FBFDF91CF910895C4
:100930008FB7F894EC91E22BEC938FBFF6CF3FB7D3
:10094000F8948091B3039091B403A091B503B09152
:10095000B60326B5A89B05C02F3F19F00196A11D2F
:10096000B11D3FBFBA2FA92F982F8827BC01CD01F9
:10097000620F711D811D911D42E0660F771F881F58
:10098000991F4A95D1F708958F929F92AF92BF9287
:10099000CF92DF92EF92FF924B015C010E949F0485
:1009A0006B017C010E949F046C197D098E099F09CF
:1009B000683E734081059105A8F321E0821A9108F1
:1009C000A108B10888EEC80E83E0D81EE11CF11C16
:1009D00081149104A104B10429F7FF90EF90DF90F6
:1009E000CF90BF90AF909F908F9008958F929F92DD
:1009F000AF92BF92CF92DF92EF92FF920F931F932D
:100A0000CF93DF936C017B018A01809133018823AE
:100A100009F45CC08091DF03882309F457C08091FA
:100A2000D10380FF05C08091E00082608093E000E8
:100A3000E801B12C8AEFA82E93E0892E2AE3922EAA
:100A4000209711F4BB20D9F10E94660181110AC0E0
:100A5000AA94AA20D9F161E070E080E090E00E94C1
:100A6000C404EECF8C171D0611F00CF08C2F9FB72D
:100A7000F8948092E9002091E80025FD02C09FBF14
:100A8000DFCF282F30E0C21BD30BF701815020F0BD
:100A900041914093F100FACFE20EF31EBB2021F00A
:100AA0009092E800B12CEBCF8091E80085FDE7CF74
:100AB0009092E800BB24B394209709F3F3CF5D989C
:100AC00084E68093D003101611063CF081E090E09C
:100AD000F6019383828310E000E0C801DF91CF919B
:100AE0001F910F91FF90EF90DF90CF90BF90AF904C
:100AF0009F908F90089520918B03260F3327331FEB
:100B000021323105ECF420910604FC0190E080E0F4
:100B1000243069F082E00895A0918B032191AC010B
:100B200045595C4FA40FB52FB11D2C930196861724
:100B300098F380918B03680F60938B0380E0089596
:100B400081E008951092060481E0809305041092DC
:100B5000E00361E082E00E94400461E083E00E94E3
:100B60004004E9EBF0E080818E7F808380818D7F7F
:100B7000808388E48093B80085E48093BC00089566
:100B8000CF93DF9391E090936A038823B9F0C091EB
:100B9000B800D091BA008091BC008A7B8093BC00E1
:100BA00060E082E00E94400460E083E00E94400434
:100BB0000E94A205D093BA00C093B800DF91CF91F4
:100BC00008950895E091BC038091BB03E81730F4C9
:100BD000F0E0E65BFC4F808190E008958FEF9FEF9F
:100BE00008959091BC038091BB032FEF3FEF9817BE
:100BF00048F4E92FF0E0E65BFC4F208130E09F5F96
:100C00009093BC03C90108958091BB039091BC03EC
:100C1000891B990B0895CF92DF92EF92FF920F9369
:100C20001F93CF93DF937C01CB018A0120912F0486
:100C3000222389F0EB016B01C40ED51ECC15DD0516
:100C400069F06991D701ED91FC910190F081E02D5F
:100C5000C7010995F3CF642F0E947B05C801DF917E
:100C6000CF911F910F91FF90EF90DF90CF9008955B
:100C7000CF93DF931F92CDB7DEB7698320912F0406
:100C80002223F9F020912C04203258F021E030E0AA
:100C9000FC013383228390E080E00F90DF91CF91BD
:100CA000089580912D04E82FF0E0E45FFB4F9981D7
:100CB00090838F5F80932D0480932C0481E090E0DB
:100CC000ECCF61E0CE0101960E947B05F7CF682F43
:100CD0008DE195E00C943806CF92DF92EF92FF926F
:100CE0000F931F93CF93C82F192F81E080932F0468
:100CF00080E680932E0410922D0410922C04613013
:100D000009F489C008F482C0623009F487C06330F6
:100D100009F487C0612F8DE195E00E9438066C2FA1
:100D20008DE195E00E943806C0912C04C13208F094
:100D3000A0C00E949F046B017C0180910604811178
:100D400073C082E08093060481E0809305048FEFF6
:100D50008093040410920304C0930204ACE0B4E056
:100D6000E2EEF3E080E0C81392C01092E1038091BC
:100D7000E103806C8093E1038091E003813009F00E
:100D80008AC01092E0030E949F046B017C01809155
:100D9000E1038093BB008091080490910904A09125
:100DA0000A04B0910B04892B8A2B8B2BA1F00E9493
:100DB0009F04009108041091090420910A043091C5
:100DC0000B046C197D098E099F0906171707280760
:100DD000390708F44AC08091BC0083FDD8CF85EC68
:100DE0008093BC000E949F046B017C0180910604EB
:100DF000823009F452C0809104048F3FD1F1809178
:100E000004048032B1F18091040433C080E490E0A6
:100E10000E9467067FCF82E490E0FACF84E490E0FE
:100E2000F7CF86E490E0F4CF809108049091090414
:100E3000A0910A04B0910B04892B8A2B8B2B09F407
:100E40007CCF0E949F040091080410910904209116
:100E50000A0430910B046C197D098E099F0906174D
:100E600017072807390708F068CF809107040E9408
:100E7000C00510922D0410922C0410922F04CF91D3
:100E80001F910F91FF90EF90DF90CF9008959D916B
:100E900091938F5F68CF85EEA3CF809108049091E6
:100EA0000904A0910A04B0910B04892B8A2B8B2B87
:100EB00009F49CCF0E949F0400910804109109043A
:100EC00020910A0430910B046C197D098E099F0949
:100ED000061717072807390708F088CFC6CF90E014
:100EE00080E008952F923F924F925F926F927F928F
:100EF0008F929F92AF92BF92CF92DF92EF92FF922A
:100F00000F931F93CF93DF93EC01FC01EC57FF4F3E
:100F100080809180A280B38034964080518062802E
:100F2000738020E030E0A901C501B4010E94971F41
:100F300081110AC020E030E040E85FE3C301B20164
:100F40000E94971F882389F11E0188E7280E311C13
:100F50000FEF1FE06C857D8590E080E00E944420CB
:100F6000A30192010E94FB20A50194010E942B1F66
:100F70006B017C0120E030E0A9010E94F62020E016
:100F800030E040E05FE387FD23C0C701B6010E9467
:100F90002B1F0E940E20611580E17807F0F47D87F9
:100FA0006C8722962C163D06A9F6DF91CF911F91F2
:100FB0000F91FF90EF90DF90CF90BF90AF909F90F8
:100FC0008F907F906F905F904F903F902F900895FB
:100FD000C701B6010E942A1FDCCF77FF03C01D8620
:100FE0001C86DFCF1D870C87DCCFCF93DF93EC010E
:100FF000C257DF4F70E090E080E00E94442020E084
:1010000030EF4FE755E40E94FB2020E030E04EEF48
:1010100052E40E949C1F0E941520CB016881DF9141
:10102000CF910C946C06CF92DF92EF92FF92CF9308
:10103000DF93EC016E817F81613080E27807C8F137
:1010400090E080E00E94442020E030E040E056E460
:101050000E942A1F20E038EF4FEF55E40E949C1FAA
:101060006B017C016885798590E080E00E944420D6
:101070009B01AC01C701B6010E94FB206B017C0102
:1010800020E030E0A9010E94F62020E030E040E0BE
:101090005FE387FD27C0C701B6010E942B1F0E9496
:1010A0000E20CB01DF91CF91FF90EF90DF90CF909A
:1010B0000895611580E27807D1F090E080E00E9409
:1010C000442020E030E040E056E40E942A1F20E067
:1010D00030E040E059E30E94FB206B017C016A850F
:1010E0007B85C2CFC701B6010E942A1FD8CF70E00E
:1010F00060E0D7CFEF92FF920F931F93CF93DF93D0
:10110000FC0177836683C281E380CE1578F1F12CF0
:10111000D0E0C701CB968C179D0744F18F01CF011A
:101120000E941308CE19DF092696CC0FDD1FC00FD1
:10113000D11F28813981280F391FF801EE57FF4F41
:1011400080819181821793072CF0C90137FF02C07B
:1011500090E080E0F801E257FF4F6081DF91CF918E
:101160001F910F91FF90EF900C946C06DF91CF913F
:101170001F910F91FF90EF900895CF93FC01C081D4
:10118000CF3FC1F070E090E080E00E94442020E07A
:1011900030EF4FE755E40E94FB2020E030E04EEFB7
:1011A00052E40E949C1F0E941520CB016C2FCF910E
:1011B0000C946C06CF910895CF93DF93EC01FC0162
:1011C000E357FF4F60E080810E9440041982DF9165
:1011D000CF910895AF92BF92DF92EF92FF920F935B
:1011E0001F93CF93DF93EC01D42EAB806A1508F4E4
:1011F0009DC0B12C9501255C3F4F062F10E02017B4
:1012000031070CF493C06A836C8170E0C801860FCB
:10121000971FF801EA19FB093696EE0FFF1FEC0F36
:10122000FD1FE080F180281739070CF060C0072E01
:10123000000C880B990B0E94462020E030E848E81B
:1012400052E40E94FB200E941520798768876D81F7
:1012500070E0061B170B0A151B050CF057C0072E74
:10126000000C880B990B0E94462020E030E848E8EB
:1012700052E40E94FB200E9415207B876A87CE01E2
:101280000E941308E80EF91EFE01EE57FF4F808101
:1012900091818E159F052CF0C701F7FE02C090E0EA
:1012A00080E0FE01E257FF4F60810E946C06DD2066
:1012B00049F061E0FE01E357FF4F80810E94400446
:1012C00081E08983FE01E457FF4F80818130B1F5D1
:1012D000C157DF4F61E08881DF91CF911F910F915E
:1012E000FF90EF90DF90BF90AF900C944004FC0112
:1012F000EA19FB093696EE0FFF1FEC0FFD1F8081E8
:1013000091818E199F0999878887A1CFF801EA19E1
:10131000FB093696EE0FFF1FEC0FFD1F80819181B8
:101320009701281B390B3B872A87A9CFFE01E3577A
:10133000FF4F60E080810E9440041982DF91CF91CD
:101340001F910F91FF90EF90DF90BF90AF900895A5
:101350000F931F93CF93DF93EC01288139813327BB
:10136000F901EC5EFE4F8491F901EB50FF4F0491BF
:10137000F901EA52FF4F1491112309F453C081116E
:101380000E94F403E12FF0E0EE0FFF1FE455FF4F42
:10139000A591B491EC910E2331E020E009F430E006
:1013A000832F922F2A813B812817390779F02FB795
:1013B000F8944091AF035091B0036091B1037091E4
:1013C000B2032FBF4E835F83688779872FB7F89466
:1013D0004091AF035091B0036091B1037091B2039B
:1013E0002FBF0E811F8128853985401B510B620B51
:1013F000730B0A851B852C853D8504171507260769
:10140000370738F42C813D812817390711F09D8367
:101410008C839B838A838C819D81DF91CF911F91E7
:101420000F91089590E080E0BDCFFC010190002075
:10143000E9F73197AF01481B590BBC0180E894E0F4
:101440000C94D3028F929F92AF92BF920F931F93EF
:10145000CF93DF93CDB7DEB7A1970FB6F894DEBF79
:101460000FBECDBF19A2423008F44AE08E010F5DD5
:101470001F4F842E912CB12CA12CA50194010E9408
:101480006D21E62FB901CA01EA30F4F4E05DD8011C
:10149000EE938D01232B242B252B79F790E080E010
:1014A000109719F0CD010E94150AA1960FB6F89475
:1014B000DEBF0FBECDBFDF91CF911F910F91BF90C7
:1014C000AF909F908F900895E95CE1CFCF92DF922B
:1014D000EF92FF92CF93DF936B017C016DE280E886
:1014E00094E00E948803EC0166277727CB016C19F2
:1014F0007D098E099F094AE00E94220A8C0F9D1FD8
:10150000DF91CF91FF90EF90DF90CF9008950C94F2
:10151000150ACF93DF930E94150AEC018CE092E04C
:101520000E94150A8C0F9D1FDF91CF910895682F9F
:1015300070E090E080E04AE00C94220ACF93DF93C1
:101540000E94970AEC018CE092E00E94150A8C0F31
:101550009D1FDF91CF910895CF93DF93BC0190E061
:1015600080E04AE00E94220AEC018CE092E00E94B6
:10157000150A8C0F9D1FDF91CF9108958F929F9236
:10158000AF92BF92CF92DF92EF92FF921F93CF93D1
:10159000DF936B017C01AC019B010E9468218823D1
:1015A000B9F08FE092E00E94150AEC018CE092E025
:1015B0000E94150A8C0F9D1FDF91CF911F91FF9004
:1015C000EF90DF90CF90BF90AF909F908F90089555
:1015D00046015701E894B7F82FEF3FEF4FE75FE779
:1015E000C501B4010E94682181110DC02FEF3FEFAA
:1015F0004FE75FE7C501B4010E94971F18161CF45E
:1016000083E192E0D0CF2FEF3FEF4FE75FE4C701D8
:10161000B6010E94F62018161CF487E192E0C3CFB1
:101620002FEF3FEF4FE75FECC701B6010E94971F16
:1016300087FDF3CF20E030E0A901C701B6010E9489
:10164000971FD0E0C0E087FF0AC06DE280E894E019
:101650000E948803EC01F7FAF094F7F8F09426E181
:1016600037EB41E558E3C701B6010E942B1F6B0120
:101670007C010E9415204B015C010E9444209B01CB
:10168000AC01C701B6010E942A1F6B017C014AE030
:10169000C501B4010E94220AC80FD91F6EE280E87A
:1016A00094E00E948803C80FD91F15E0115009F477
:1016B0007DCF20E030E040E251E4C701B6010E9456
:1016C000FB204B015C010E9415206B01F12CE12CE9
:1016D0004AE0C701B6010E94220AC80FD91FC701FC
:1016E000B6010E9444209B01AC01C501B4010E94D7
:1016F0002A1F6B017C01DACFCF93DF93BC01990FD6
:10170000880B990B4AE00E94220AEC018CE092E0DF
:101710000E94150A8C0F9D1FDF91CF91089585EDD2
:101720008093BC008091080490910904A0910A0460
:10173000B0910B040796A11DB11D23E0B695A795A6
:10174000979587952A95D1F72091BC0024FD03C079
:101750001092060408954091080450910904609184
:101760000A0470910B04452B462B472B69F3009715
:10177000A105B10541F025E32A95F1F70000019795
:10178000A109B109E1CF809107040C94C005FF9233
:101790000F931F93CF93DF93EC01F62E08811981ED
:1017A000C8010E94141FF81621F06F2DC8010E9475
:1017B0001C1FCE01DF91CF911F910F91FF900895D3
:1017C000CF92DF92EF92FF920F931F93CF93DF930D
:1017D00000D0CDB7DEB76C017C0102E010E01A83C7
:1017E0000983F70161917F01CE0101960E94C70B29
:1017F0000F5F1F4F0232110591F7C6010F900F9036
:10180000DF91CF911F910F91FF90EF90DF90CF90DC
:101810000895CF92DF92EF92FF920F931F93CF9391
:10182000DF9300D0CDB7DEB76C017C0102E212E09D
:101830001A830983F70161917F01CE0101960E940D
:10184000C70B0F5F1F4F0532F2E01F0789F7C60174
:101850000F900F90DF91CF911F910F91FF90EF901C
:10186000DF90CF9008950F931F93CF93DF9300D015
:10187000CDB7DEB78C0185E292E09A838983F801C7
:101880006081CE0101960E94C70B86E292E09A83A6
:101890008983F8016181CE0101960E94C70BC801BE
:1018A0000F900F90DF91CF911F910F910895EF92BC
:1018B000FF920F931F93CF93DF9300D0CDB7DEB786
:1018C0008C017B019A838983FB016081CE010196A3
:1018D0000E94C70B0F5F1F4F1A830983F7016181B5
:1018E000CE0101960E94C70BC7010F900F90DF91A8
:1018F000CF911F910F91FF90EF900895AF92BF92FB
:10190000CF92DF92EF92FF920F931F93CF93DF93CB
:1019100000D0CDB7DEB78B016B0128E7C20ED11C1A
:101920007B015C01A61AB70AC5018E0D9F1D9A8323
:101930008983F70161917F01CE0101960E94C70B57
:10194000EC14FD0489F7C8010F900F90DF91CF913F
:101950001F910F91FF90EF90DF90CF90BF90AF90CD
:1019600008950F931F93CF93DF9300D0CDB7DEB7C9
:101970008B019A838983FB016081CE0101960E94CD
:10198000C70BC8010F900F90DF91CF911F910F915E
:101990000895CF92DF92EF92FF920F931F93CF9310
:1019A000DF93EB017B0128E7E20EF11C8B016C0158
:1019B000C61AD70AC601800F911F0E94141FF80192
:1019C00081938F01EE15FF05A9F7CE01DF91CF912D
:1019D0001F910F91FF90EF90DF90CF900895CF93DC
:1019E000DF93EB010E94141F8883CE01DF91CF911A
:1019F00008950F931F93CF93DF9367E977E090E00B
:101A000080E00E94EF0C6CE275E081E090E00E94C3
:101A1000EF0C6CEB75E081E090E00E94EF0C6CE461
:101A200076E081E090E00E94EF0C6CED76E081E0E2
:101A300090E00E94EF0C04E011E0C2E0D0E0CE01A3
:101A40000E94141FF80181938F012196C232D105A3
:101A5000B1F765E375E082E490E00E94C90C65ECA3
:101A600075E08AEB90E00E94C90C65E576E082E3C0
:101A700091E00E94C90C65EE76E08AEA91E00E944E
:101A8000C90C82E292E00E94141F8093240183E239
:101A900092E00E94141F8093250184E292E00E944C
:101AA000141F8093260185E292E00E94141F809308
:101AB000020186E292E00E94141F8093030169EC08
:101AC00073E087E292E00E94EF0C61E071E08BE24C
:101AD00092E00E94EF0C65EC73E08CE292E00E94D1
:101AE000EF0C9091020190932D058091030180935A
:101AF0002E059093BD058093BE0590934D0680936F
:101B00004E069093DD068093DE068091040190914D
:101B10000501A0910601B09107018093AD05909356
:101B2000AE05A093AF05B093B005809108019091E8
:101B30000901A0910A01B0910B018093B105909326
:101B4000B205A093B305B093B40580910C019091B8
:101B50000D01A0910E01B0910F0180933D0690936D
:101B60003E06A0933F06B0934006809110019091ED
:101B70001101A0911201B09113018093410690933D
:101B80004206A0934306B0934406809114019091BD
:101B90001501A0911601B09117018093CD06909385
:101BA000CE06A093CF06B093D006809118019091F5
:101BB0001901A0911A01B0911B018093D106909355
:101BC000D206A093D306B093D40680911C019091C5
:101BD0001D01A0911E01B0911F0180935D0790939C
:101BE0005E07A0935F07B0936007809120019091FA
:101BF0002101A0912201B09123018093610790936C
:101C00006207A0936307B093640789E295E00E949E
:101C1000720789EB95E00E94720789E496E00E94C2
:101C2000720789ED96E00E9472078091C903809344
:101C3000B505809345068093D5068093650780910E
:101C40000101811103C088E18093010180910101AC
:101C50008093A2078BE192E00E94870A82E00E94B3
:101C60009E0A8BE192E00E94870A80E40E949E0A0D
:101C700083E292E00E94870A8091C5030E949E0A37
:101C800089E292E00E94870A809124010E949E0AC4
:101C90008FE292E00E94870A809125010E949E0AAD
:101CA00085E392E00E94870A809126010E949E0AA5
:101CB00088E293E00E94870A809102010E949E0AB6
:101CC00087E393E00E94870A809103010E949E0AA5
:101CD0008BE392E00E94870A8091970790E001963B
:101CE0000E947C0B80E492E00E94870A80912C0580
:101CF0000E94970A87E292E00E94870A8091BC05C1
:101D00000E94970A87E292E00E94870A80914C061F
:101D10000E94970A87E292E00E94870A8091DC067F
:101D20000E949E0A83E592E00E94870A8091C9037F
:101D30000E949E0A85E692E00E94870A8091010136
:101D40000E949E0A8CE692E00E94870A6091AD058F
:101D50007091AE058091AF059091B0050E94BE0ACA
:101D600088E792E00E94870A6091B1057091B20500
:101D70008091B3059091B4050E94BE0A82E892E07A
:101D80000E94870A60913D0670913E0680913F0651
:101D9000909140060E94BE0A8EE892E00E94870A57
:101DA00060914106709142068091430690914406ED
:101DB0000E94BE0A88E992E00E94870A6091CD06DF
:101DC0007091CE068091CF069091D0060E94BE0AF7
:101DD00084EA92E00E94870A6091D1067091D2064F
:101DE0008091D3069091D4060E94BE0A8EEA92E0BA
:101DF0000E94870A60915D0770915E0780915F077E
:101E0000909160070E94BE0A8AEB92E00E94870AC6
:101E100060916107709162078091630790916407F8
:101E20000E94BE0AC5E3D5E010E000E084EC92E039
:101E30000E94870A60912C05600F712F711D072E7B
:101E4000000C880B990B4AE00E94220A87E292E07C
:101E50000E94870A6991799190E080E04AE00E94AF
:101E6000220A87E292E00E94870AFE01E257FF4FB2
:101E70006081718190E080E04AE00E94220A87E25E
:101E800092E00E94870AFE01E25EFE4F608171814E
:101E900090E080E04AE00E94220A87E292E00E94FD
:101EA000870AFE01E255FE4F808191810E94AC0AB3
:101EB0000F5F1F4F0C33110509F0B8CFDF91CF91A1
:101EC0001F910F9108951F920F920FB60F92112438
:101ED0008F939F938091E1009091E100937F909385
:101EE000E10083FF0FC01092E90091E09093EB00B6
:101EF0001092EC0092E39093ED001092DF0398E0D3
:101F00009093F00082FF22C093E09093E9009091BB
:101F1000F200992319F09AE39093E8009091D0038E
:101F2000992341F09091D00391509093D003911157
:101F300001C05D9A9091DE03992341F09091DE03F8
:101F400091509093DE03911101C0289A84FF18C02C
:101F50008091E2008E7E81608093E2008091E100BA
:101F60008F7E8093E1008091D1038E7E806180938B
:101F7000D1039F918F910F900FBE0F901F901895D6
:101F800080FFF7CF8091E2008E7E80618093E20037
:101F90008091E1008E7E8093E1008091D1038E7E5E
:101FA0008160E5CF1F920F920FB60F921124CF924E
:101FB000DF92EF92FF920F931F932F933F934F93D4
:101FC0005F936F937F938F939F93AF93BF93EF93A1
:101FD000FF93CF93DF93CDB7DEB76C97DEBFCDBF56
:101FE0001092E9008091E80083FF25C068E0CE01EF
:101FF00045960E94C40282EF8093E8008D8987FF96
:1020000039C09091E80090FFFCCF982F907609F0AE
:1020100034C19E894F89588D2F89F88C911131C018
:10202000803861F58091CF038093F1001092F10028
:102030008EEF8093E8006C960FB6F894DEBF0FBE6B
:10204000CDBFDF91CF91FF91EF91BF91AF919F9164
:102050008F917F916F915F914F913F912F911F9140
:102060000F91FF90EF90DF90CF900F900FBE0F90E9
:102070001F9018959EEF9093E800C7CF1092F10043
:10208000D5CF913059F48111D3CF4130510581F62C
:102090008091CF038D7F8093CF03CACF933049F4D3
:1020A0008111C6CF4130510519F68091CF0382606E
:1020B000F2CF953041F48091E80080FFFCCF20689A
:1020C0002093E300B5CF963009F0A9C00B8D1C8D8D
:1020D00022E01092E9001092CD031092CC03F2128C
:1020E0002EC01092CB031092CA030E9493021F824B
:1020F00099E09983FA8291E09E8390EA98879AEF1B
:1021000099872091CC033091CD03275F3F4F3C83CB
:102110002B838D831092E9001092CD031092CC0393
:102120001093CB030093CA0349E050E0BE016F5FF8
:102130007F4F80E00E946D020E94930279CF10933E
:10214000CB030093CA030E947701DC0112960D9124
:102150001C910115110509F451C1D801ED91FC91B3
:102160000480F581E02DBE016B5E7F4FC8010995AB
:10217000009709F03EC1F80100851185EACFF3E030
:10218000FF120EC08F89882309F440C0823061F4A9
:1021900040E861E183E991E00E943A02811148CF71
:1021A00081E28093EB0047CF813029F440E867E07B
:1021B0008BE891E0F1CF833099F70E947701DC0141
:1021C0001296ED90FC908E010F5F1F4F6801E11495
:1021D000F10479F0D701ED91FC910680F781E02DB3
:1021E000B801C7010995080F111DF701E084F184BA
:1021F000EECFD8011C92F60101900020E9F731974B
:10220000BF016C197D0940E0C601C6CF65E771E0EA
:10221000FB01449150E080E80E946D0209CF9730A5
:1022200009F4BECF983021F481E08093F10000CF13
:10223000993009F0FDCE837009F0B2CFE0EDF1E006
:1022400081E031E096E32191222371F08093E9004F
:102250003093EB00DF0111972C912093EC009093C9
:10226000ED008F5F873079F78EE78093EA00109258
:10227000EA008F898093DF03DBCE8B8D9C8D1092DB
:10228000E9001092CD031092CC039093CB0380937E
:10229000CA03898D811192C08E899D89913A49F432
:1022A000813209F07DCF47E050E06CE271E080E0E0
:1022B000B3CF913209F074CF833269F48F89988D4E
:1022C000B0E0A0E08093280190932901A0932A0117
:1022D000B0932B01ADCE803269F48091E80082FF8B
:1022E000FCCF67E08CE291E00E94C4028BEF809308
:1022F000E8009ECE823209F09BCE8F898093330115
:10230000EEEFFFE7859194918B3F9C4D51F1E0E01A
:10231000F8E080912C0190912D01A0912E01B091B7
:102320002F01803B9440A105B105F1F48091330168
:1023300080FD1AC0EE3F8AE0F80789F587E797E746
:1023400091838083809160008093CE0388E19BE03D
:102350000FB6F894A895809360000FBE909360002C
:1023600067CEEEEFFAE0D5CF80819181873797472E
:1023700009F05ECEA895809160008861809360002E
:102380008091CE0380936000EE3F2AE0F20789F04F
:102390008091FE0A9091FF0A9183808349CE8081CB
:1023A00091818737980751F29093FF0A8093FE0A34
:1023B000C5CF1092FF0A1092FE0A3ACE0E94770112
:1023C000DC0112960D911C910115110509F4E8CE5E
:1023D000D801ED91FC910190F081E02DBE016B5E82
:1023E0007F4FC8010995811123CEF8010085118521
:1023F000EBCF181619060CF41BCED2CEF1E0FF126B
:10240000BECE69E771E004CF1F920F920FB60F9214
:1024100011242F933F934F935F936F937F938F93E9
:102420009F93AF93BF93EF93FF9380E894E00E9454
:102430006703FF91EF91BF91AF919F918F917F9132
:102440006F915F914F913F912F910F900FBE0F9021
:102450001F9018951F920F920FB60F9211242F9371
:102460008F939F93EF93FF93E0919004F0919104E9
:102470008081E0919604F091970482FD1BC09081C9
:10248000809199048F5F8F7320919A04821741F095
:10249000E0919904F0E0E058FB4F958F8093990408
:1024A000FF91EF919F918F912F910F900FBE0F9001
:1024B0001F9018958081F4CF1F920F920FB60F9244
:1024C00011242F933F938F939F93AF93BF9380914A
:1024D000AF039091B003A091B103B091B2033091DA
:1024E000AE0323E0230F2D3758F50196A11DB11D32
:1024F0002093AE038093AF039093B003A093B103F6
:10250000B093B2038091B3039091B403A091B5034B
:10251000B091B6030196A11DB11D8093B3039093B2
:10252000B403A093B503B093B603BF91AF919F914D
:102530008F913F912F910F900FBE0F901F90189584
:1025400026E8230F0296A11DB11DD2CF1F920F9234
:102550000FB60F9211242F933F934F935F936F9376
:102560007F938F939F93AF93BF93EF93FF9380914C
:10257000B900887F803609F44AC0F0F5883209F442
:10258000A7C018F5803109F49BC0B8F4882309F47A
:10259000F9C0883009F494C0FF91EF91BF91AF91D9
:1025A0009F918F917F916F915F914F913F912F916B
:1025B0000F900FBE0F901F901895883109F488C0B6
:1025C000803251F78093040414C0803409F49DC014
:1025D00040F48033B9F38833F9F68093040485EC32
:1025E000B0C0803509F485C0883509F496C08834B8
:1025F00099F60E948F0BD0CF883909F48CC038F53A
:10260000883729F050F4883611F0803729F683E0B6
:10261000809306041092AD0357C0883809F47BC03C
:10262000803919F0803809F0B7CF8091AD0380323E
:1026300008F071C0E091AD0381E08E0F8093AD038F
:102640008091BB00F0E0E357FC4F80833DC0803BAE
:1026500039F0E0F4803A09F479C0883A09F09CCF67
:1026600084E08093060410928C0310928B03E09117
:10267000B903F091BA03099580918B0381110FC0C2
:1026800081E080938B0310926B0309C0803C09F4B6
:10269000A6CF883C09F4A3CF883B09F07DCFE09119
:1026A0008C0381E08E0F80938C03F0E0E559FC4FA2
:1026B00080818093BB0090918C0380918B0329C013
:1026C0008091E1038093BB0085EC8093BC0064CFD4
:1026D0009091030480910204981758F5E091030447
:1026E00081E08E0F80930304F0E0EE51FC4F808177
:1026F000E9CFE091030481E08E0F80930304809181
:10270000BB00F0E0EE51FC4F808390910304809178
:1027100002049817C8F285E8D8CFE091030481E05D
:102720008E0F809303048091BB00F0E0EE51FC4FCC
:1027300080838091050481115CCF81E08093E00368
:1027400084EA8093BC001092060426CF85EC809327
:10275000BC00109206048091AD03803230F4E09109
:10276000AD03F0E0E357FC4F10826091AD0370E0E1
:10277000E091B703F091B8038DE893E009951092CA
:10278000AD030ACF1092040434CF0F931F93CF935D
:10279000DF93EC01162F042F8FEF888319821A82A2
:1027A00084E28B831C821D8280E090E29F838E8373
:1027B000198618861B861A8688E7E4E3F1E0DE01B5
:1027C0001C9601900D928A95E1F7FE01EC57FF4FA0
:1027D0001082118212821382349680E090E0A0E889
:1027E000BFE380839183A283B383349610823396B0
:1027F00086E0808361E0812F0E946E04FE01E35732
:10280000FF4F1083C257DF4F0883DF91CF911F9195
:102810000F910895CF92DF92EF92FF9210923304BE
:102820001092320488EE93E0A0E0B0E0809334048C
:1028300090933504A0933604B09337042AED31E029
:1028400030933104209330042FEF3FEF30933D0459
:1028500020933C0410928304109282048093840499
:1028600090938504A0938604B09387042CEE31E006
:1028700030938104209380042DEC30E030938D045C
:1028800020938C042CEC30E030938F0420938E0442
:1028900028EC30E0309391042093900429EC30E050
:1028A00030939304209392042AEC30E03093950403
:1028B000209394042EEC30E03093970420939604F8
:1028C0001092990410929A0410929B0410929C0406
:1028D0001092200510921F058093210590932205E8
:1028E000A0932305B09324058EEF91E090931E05ED
:1028F00080931D051092970788E18093A20710929C
:10290000A40781E08093A5071092A6071092A7075D
:102910001092A8071092A9071092AA071092B00768
:102920001092AF071092B3071092B207E4EBF7E0F2
:10293000119287E0E43CF807D9F710928B071092C8
:102940008C0710928D0710928E0760E089E00E943C
:102950006E0489E090E0909386078093850782E378
:10296000C82ED12CE12CF12CC0928F07D092900769
:10297000E0929107F092920710927D0710927E07E5
:1029800010927F071092800760E083E10E946E043E
:1029900083E190E09093780780937707C092810756
:1029A000D0928207E0928307F092840710926F071B
:1029B00010927007109271071092720760E084E124
:1029C0000E946E0484E190E090936A078093690707
:1029D000C0927307D0927407E0927507F092760761
:1029E00040E068E089E295E00E94C51341E062E1C1
:1029F00089EB95E00E94C51342E065E189E496E029
:102A00000E94C51343E066E189ED96E0FF90EF90E8
:102A1000DF90CF900C94C513CF93DF93CDB7DEB783
:102A2000C45AD1090FB6F894DEBF0FBECDBF78945B
:102A300084B5826084BD84B5816084BD85B58260C3
:102A400085BD85B5816085BD80916E008160809374
:102A50006E001092810080918100826080938100DD
:102A600080918100816080938100809180008160ED
:102A7000809380008091910082608093910080918A
:102A8000910081608093910080919000816080939B
:102A900090008091C10084608093C1008091C1004A
:102AA00082608093C1008091C10081608093C100E9
:102AB0008091C30081608093C3008091C0008260D8
:102AC0008093C0008091C20081608093C200809199
:102AD0007A00846080937A0080917A00826080938B
:102AE0007A0080917A00816080937A0080917A00E8
:102AF000806880937A001092DF031092CF031092C7
:102B0000D1038091D70081608093D70080EA8093C1
:102B1000D80089B5806189BD89B5826089BD09B455
:102B200000FEFDCF61E070E080E090E00E94C40410
:102B30008091D8008F7C80618093D8008091E000E4
:102B4000807F8093E0008091E1008E7E8093E100A1
:102B50008DE08093E200559A209AE0919004F091E4
:102B6000910482E08083E0918C04F0918D041082C6
:102B7000E0918E04F0918F048FE38083109298048B
:102B8000E0919404F091950486E08083E0919204B2
:102B9000F0919304808180618083E0919204F091B0
:102BA0009304808188608083E0919204F091930483
:102BB000808180688083E0919204F0919304808109
:102BC0008F7D80831092BC031092BB0310922D0462
:102BD00010922C040E94A20581ED92E09093BA031A
:102BE0008093B90382ED92E09093B8038093B7038A
:102BF00061E086E00E946E0448E050E060E870E02A
:102C00008DEB93E00E9495210E94F90C4090AC015D
:102C10005090AD016090AE01AA24A394B12C109203
:102C20009407109295071092A0071092A107109296
:102C30009A0710929D0710929F071092A30780E8B1
:102C400094E00E943103181619066CF480E894E0B1
:102C50000E940F03182F082F80E8810F883708F093
:102C6000D8C01093B10780919407882399F10091FF
:102C7000960710919307E9E28E2EE5E09E2E7401EF
:102C8000D12CC12C70900001272C312CC214D304FC
:102C90000CF5F701818181115EC280912701853099
:102CA00009F02DC241E0612F89E295E00E94EA0817
:102CB00041E0612F89EB95E00E94EA0841E0612F35
:102CC00089E496E00E94EA0841E0612F89ED96E0F0
:102CD0000E94EA0880919507882309F440C040913A
:102CE00093078091000190E0E9E2F5E030E020E018
:102CF000281739070CF0A6C25181552309F49DC24B
:102D0000528145139AC2EDEBF3E007E010E06781D2
:102D1000603809F46DC24091270103541C4F4530BF
:102D200009F05CC241E089E295E00E94EA0841E0D6
:102D3000F801608189EB95E00E94EA0841E0F80122
:102D4000608189E496E00E94EA0841E0F801608130
:102D500089ED96E00E94EA0880E8F801808380917E
:102D6000A507882309F494C28091C903813021F416
:102D700060E086E00E94400485E897E00E94A80990
:102D80002091C8032817190609F46EC289E697E056
:102D90000E94A8098C0187E797E00E94A8097C019E
:102DA00085E897E00E94A809892B09F01BC683E0FB
:102DB000EF2809F02DC684E0012B09F429C686E02E
:102DC000809327018FEF809329058093B90581E0D7
:102DD0008093000185E897E00E94A80921E0892BF3
:102DE00009F420E02093C80387E797E00E94A80930
:102DF00021E0892B09F420E02093C70389E697E0BE
:102E00000E94A80921E0892B09F420E02093C60341
:102E10003FC2183F20F0812F0E94FE0024CFF12EE8
:102E200017FD41C02091B10730E08091970790E0F5
:102E3000AC0140575F4F2417350709F0B9C0109314
:102E400093070E943D0380939607909193072091EA
:102E5000B2073091B307882309F487C0E92FF0E067
:102E600083E0F595E7958A95E1F7ED56F84F81A156
:102E70009770482F50E0092E02C0559547950A9447
:102E8000E2F740FD10C041E0409394072F5F3F4FB1
:102E90003093B3072093B207950101C0220F9A9592
:102EA000EAF7822B81A38091B2079091B307892B17
:102EB00009F0B0C081E08093A507F7FC41C02091E4
:102EC000B1078091970790E080529F4F281719060D
:102ED00079F481E080939A070E943D0330E8839F54
:102EE000C0011124810F911D909399078093980739
:102EF0002091B1078091970790E080559F4F281748
:102F0000190679F4FF24F394F0929D0710939B0720
:102F10000E943D0380939C0780919B078B3709F4A7
:102F20007CC02091B1078091970790E080539F4F1C
:102F30002817190629F481E080939F0710939E07B4
:102F40008091B107803F09F08ECE0F3709F074C031
:102F500080E894E00E943103892BD1F380E894E06B
:102F60000E940F03873FA1F77ECE81E080939507F3
:102F7000E92FF0E0B3E0F595E795BA95E1F7ED5666
:102F8000F84F9770A50102C0440F551F9A95E2F7BC
:102F9000CA01809591A1892381A3121613060CF012
:102FA00082CF215031093093B3072093B2077BCFF2
:102FB00080589F4F2817390709F075CF1093930752
:102FC0000E943D0381E08093950780919307E82F4D
:102FD000F0E0A3E0F595E795AA95E1F7ED56F84FF7
:102FE0008770950102C0220F331F8A95E2F7C9014D
:102FF000809591A1892381A38091B2079091B30715
:10300000181619060CF04FCF01979093B3078093D1
:10301000B20749CF1092A50750CF1092B307109274
:10302000B207F092A507E4EBF7E0119244EC57E009
:103030004E175F07D1F775CF81E08093A30780E833
:1030400094E00E943103892BD1F380E894E00E9440
:103050000F038093A607873F09F405CE80E894E02C
:103060000E943103892BD1F380E894E00E940F0382
:103070008093A707873F09F4F6CD80E894E00E948B
:103080003103892BD1F380E894E00E940F038093F1
:10309000A807873F09F4E7CD80E894E00E94310358
:1030A000892BD1F380E894E00E940F038093A90755
:1030B000873F09F4D8CD80E894E00E943103892B42
:1030C000D1F380E894E00E940F038093AA07873F22
:1030D00009F4C9CD10E080E894E00E943103892B07
:1030E000D1F380E894E00E940F03873F09F4BBCD41
:1030F000E12FF0E0ED56F84F808F1F5FECCF20E915
:103100002C9DC0012D9D900D11249C01275D3A4FEF
:10311000790141E0612FC9010E94EA08602FC701CF
:103120000E94BD0831E0371508F0D4CDF12CE12C18
:10313000F4018181811105C040E0612FC4010E942A
:10314000EA08FFEFEF1AFF0A20E9820E911CE21451
:10315000F30474F3BFCD31E0231A3108C214D30451
:1031600049F5EDEBF3E090E080E02191203849F55E
:1031700083549C4FF7012281FC0120838091270119
:1031800041E0612F853011F589E295E00E94EA085F
:1031900041E0612F89EB95E00E94EA0841E0612F50
:1031A00089E496E00E94EA0841E0612F89ED96E00B
:1031B0000E94EA08FFEFCF1ADF0A20E9E20EF11CB5
:1031C00061CD01968830910581F6D8CFC7010E9464
:1031D000EA08602FC7010E94BD08ECCF40E9429F7A
:1031E000C001439F900D112441E0875D9A4FB2CDFD
:1031F0000150110931970F3F100709F088CD8091D8
:103200002701853089F489E295E00E94DC0889EB8A
:1032100095E00E94DC0889E496E00E94DC0889EDD4
:1032200096E00E94DC089BCD40E9429FC001439F8D
:10323000900D1124875D9A4FF4CF2F5F3F4FE057D9
:10324000FF4F56CDEDEBF3E090E080E0219142138B
:1032500006C083549C4F20E8FC01208380CD01965A
:103260008830910599F77BCD87E797E00E94A80900
:103270002091C7032817190609F088CD89E697E041
:103280000E94A8092091C6032817190609F07ECDCF
:1032900080919A07882379F080912701813019F075
:1032A000863009F0BBC3609198077091990789E255
:1032B00095E00E947A0880919D07882309F472C0E6
:1032C00080919B079091C50389130CC0882351F00E
:1032D00080912701863031F460919C0789E295E066
:1032E0000E94F50790919B078091240198130DC0CF
:1032F00080912701982F9D7F913009F0DCC3609168
:103300009C0789ED96E00E94F50790919B078091BC
:10331000250198130AC080912701863031F460910D
:103320009C0789E496E00E94F50790919B078091A5
:10333000260198130AC080912701863031F46091EC
:103340009C0789ED96E00E94F50780919B078B37DB
:1033500049F58091C903813021F460E086E00E9444
:10336000400480E88093BD038093BE038093BF0335
:103370008093C0038093C1038093C2038093C303EF
:103380008093C40389E295E00E94DC0889EB95E014
:103390000E94DC0889E496E00E94DC0889ED96E052
:1033A0000E94DC0880919F07882351F080912701BB
:1033B000813031F460919E0789E496E00E94F50720
:1033C0008091A007882329F08091C90361E08823B8
:1033D00049F08091A107882341F08091C9038111B0
:1033E00004C060E086E00E9440048091A307882327
:1033F00009F40AC58091A607823009F01CC18091AA
:10340000A707803409F017C18091A9078F3F09F001
:1034100012C18091A807853009F00DC161E086E0F6
:103420000E9440048EEC92E00E94890A10E000E0C5
:1034300060E0C8010E941C1F0F5F1F4F0115F4E0E0
:103440001F07B1F788E7E4E3F1E0DE011196019090
:103450000D928A95E1F780E2EFEAF1E0DE01A758EC
:10346000BF4F01900D928A95E1F7C756DF4F488212
:1034700059826A82C959D04082E0C256DF4F8883A0
:10348000CE59D040C156DF4F8883CF59D040CC555C
:10349000DF4F1882C45AD040CD55DF4F1882C35A2F
:1034A000D04084E2CE55DF4F8883C25AD04088E1B5
:1034B000CF55DF4F8883C15AD040C056DF4F1882A6
:1034C000C05AD040BE016D557F4F90E080E00E9411
:1034D000B10CBE016E557F4F81E090E00E94B10CAF
:1034E000CE0187589F4F0E94E00BBE016F5F7F4F58
:1034F00082E490E00E947E0CBE016F5F7F4F8AEBFA
:1035000090E00E947E0CBE016F5F7F4F82E391E0EE
:103510000E947E0CBE016F5F7F4F8AEA91E00E949D
:103520007E0CCE0187569F4F0E94090CCE01825619
:103530009F4F0E94330CBE016C557F4F87E292E093
:103540000E94B10CC456DF4FB982A882CC59D0403A
:10355000BE0164567F4F88E292E00E94570C82E0E1
:1035600090E0C456DF4F99838883CC59D040BE0188
:1035700064567F4F89E292E00E94570C83E090E00E
:10358000C456DF4F99838883CC59D040BE0164561E
:103590007F4F8AE292E00E94570CBE016F557F4F29
:1035A0008BE292E00E94B10CBE0160567F4F8CE22C
:1035B00092E00E94B10CC456DF4F19821882CC5998
:1035C000D040BE0164567F4F8DE292E00E94570CBE
:1035D000C456DF4F19821882CC59D040BE016456C0
:1035E0007F4F8EE292E00E94570CC456DF4F198243
:1035F0001882CC59D040BE0164567F4F8FE292E0D2
:103600000E94570CC456DF4F19821882CC59D04003
:10361000BE0164567F4F80E392E00E94570C64EF36
:1036200071E080E090E00E94C40460E086E00E94C7
:1036300040040E94F90C8091A607823071F58091B8
:10364000A707803451F58091A9078F3131F580911A
:10365000A807853011F561E086E00E944004809162
:10366000AB078093970767E977E090E080E00E94DE
:10367000B10C89ED92E00E94870A8091970790E053
:1036800001960E947C0B64EF71E080E090E00E9464
:10369000C40460E086E00E9440048091A607823066
:1036A00091F58091A707803471F58091A907803248
:1036B00051F58091A807853031F561E086E00E94E0
:1036C00040048091AB0780932C058093BC058093C8
:1036D0004C068093DC066CE275E081E090E00E948D
:1036E000B10C80E492E00E94870A80912C050E9430
:1036F0009E0A64EF71E080E090E00E94C40460E004
:1037000086E00E9440048091A607823009F07FC0C5
:103710008091A707803409F07AC08091A90785318C
:1037200009F075C08091A807853009F070C061E08C
:1037300086E00E9440040091AA0728E0029F8001D1
:1037400011240C5F1E4F6091AC0730E8639FC001ED
:1037500011246091AB07680F792F711D072E000CA3
:10376000880B990B0E94462020E030E04AE754E4A1
:103770000E942A1FF801608371838283938384E00F
:1037800091E00E94E00B2091AA0730E010E9129F1F
:10379000C001139F900D1124875D9A4FDC01AC5737
:1037A000BF4F73E0220F331F7A95E1F7F901EC5F09
:1037B000FE4F40815181628173814D935D936D9382
:1037C0007C9313970E94720783EE92E00E94870A0F
:1037D0008091AA070E949E0A8FE692E00E94870AC3
:1037E000E091AA071E9FF0011124E355FA4F608172
:1037F0007181828193810E94BE0A64EF71E080E052
:1038000090E00E94C40460E086E00E944004809141
:10381000A607823009F07FC08091A707803409F0A5
:103820007AC08091A907863109F075C08091A807F8
:10383000853009F070C061E086E00E94400400918C
:10384000AA07F8E00F9F800111240C5F1E4F6091C2
:10385000AC0720E8629FC00111246091AB07680F9C
:10386000792F711D072E000C880B990B0E944620A2
:1038700020E030E44CE156E40E949C1FF801648390
:1038800075838683978384E091E00E94E00B20910A
:10389000AA0730E010E9129FC001139F900D112478
:1038A000875D9A4FDC01A857BF4F63E0220F331F9B
:1038B0006A95E1F7F901EC5FFE4F4481558166811D
:1038C00077814D935D936D937C9313970E9472075C
:1038D00083EE92E00E94870A8091AA070E949E0AC6
:1038E0008BE792E00E94870AE091AA071E9FF001F1
:1038F0001124EF54FA4F60817181828193810E947B
:10390000BE0A64EF71E080E090E00E94C40460E0D1
:1039100086E00E9440048091A607823009F0FCC036
:103920008091A707803449F58091A907873109F074
:10393000E0C18091A807853001F58091AA07E09148
:103940009307F0E98F9FD0011124A75DBA4F13961A
:103950009C91E91BFF0B28E4829FE00DF11D1124CF
:10396000EE0FFF1FEB5CFA4F808191812091AB0736
:103970002111A9C00197918380838091A70780348A
:1039800009F0CFC08091A9078D3109F0CAC080919C
:10399000A807853009F0C5C061E086E00E944004B8
:1039A000E091AA07E33009F06FC18091AB078093E3
:1039B000C50365EC73E08CE292E00E94B10C83E2F7
:1039C00092E00E94870A8091C5030E949E0A64EFDC
:1039D00071E080E090E00E94C40460E086E00E9414
:1039E00040049FC0EF2849F081E080932701809335
:1039F00029059FEF9093B905EBC985E0012B09F0EC
:103A0000DFC982E0809327018093290593E0F2CFFC
:103A1000809327019FEF90932905ECCF823079F4B2
:103A2000609198077091990789E295E00E947A0861
:103A3000609198077091990789EB95E03ACC8330B3
:103A4000B9F4609198077091990789E295E00E9416
:103A50007A08609198077091990789EB95E00E9428
:103A60007A08609198077091990789E496E021CCD3
:103A70008450823008F01FCC6091980770919907AC
:103A800089E295E00E947A08609198077091990701
:103A900089EB95E00E947A086091980770919907E8
:103AA00089E496E00E947A086091980770919907DE
:103AB00089ED96E0FECB863009F027CC60919C071B
:103AC00089EB95E020CC019656CF813029F465EC46
:103AD00075E08AEB90E01DC1823029F465E576E05F
:103AE00082E391E016C1833009F015C165EE76E0FE
:103AF0008AEA91E00EC187010A33110509F021C15C
:103B000083EE92E00E94870A8091AA070E94970A9A
:103B10008EE093E00E94890A8091A607823009F422
:103B20002CCF8091A6078230E1F58091A7078034E1
:103B3000C1F58091A9078E31A1F58091A807853044
:103B400081F561E086E00E944004E091AA07F0E080
:103B5000EE5FFE4F8091AB07808382E091E00E9490
:103B6000330C8091AA078111B3C080910201809328
:103B70002D058093BD0580934D068093DD0683E27D
:103B800093E00E94870A809102010E949E0A64EFDE
:103B900071E080E090E00E94C40460E086E00E9452
:103BA00040048091A6078230B1F58091A707803448
:103BB00091F58091A907813271F58091A807853030
:103BC00051F561E086E00E9440048091AA0780934D
:103BD000C90369EC73E087E292E00E94B10C809126
:103BE000C9038093B505809345068093D5068093DD
:103BF000650783E592E00E94870A8091C9030E94CD
:103C00009E0A64EF71E080E090E00E94C40460E0EE
:103C100086E00E9440048091A607823009F0F4C03B
:103C20008091A707803409F0EFC08091A907823204
:103C300009F0EAC08091A807853009F0E5C061E08D
:103C400086E00E9440048091AA078093010161E010
:103C500071E08BE292E00E94B10C809101018093AF
:103C6000A20783E493E00E94870A809101010E94E9
:103C70009E0A64EF71E080E090E00E94C40460E07E
:103C800086E00E944004C0C0E33008F0A0CEF0E01F
:103C9000EC5DFE4F8091AB07808384E291E00E944F
:103CA000090C89E292E00E94870A809124010E9417
:103CB0009E0A8FE292E00E94870A809125010E946D
:103CC0009E0A85E392E00E94870A809126017DCEBC
:103CD0008091030180932E058093BE0580934E064C
:103CE0008093DE0682E393E00E94870A80910301BD
:103CF0004CCF883109F041CE8091A807853009F07A
:103D00003CCE8091AA078111E0CE65E375E082E4A4
:103D100090E00E947E0C83EE92E00E94870A8091E0
:103D2000AA070E94970A8BEE92E00E94890AE0910E
:103D3000AA0730E9E39FF0011124EB5CFA4F01E0A0
:103D400010E082819381680141E0C41AD1087801B2
:103D50005FEFE51AF50A20813181329682179307C9
:103D600030F0228133812817390708F0C4CE82EF62
:103D700092E00E94870AE091AA0780E9E89FF0019B
:103D80001124E75DFA4F8381800F912F911D0E94CE
:103D90007C0B8091AA0798E4992EF601989EE00D7D
:103DA000F11D1124EE0FFF1FEB5CFA4F8081918112
:103DB0000E94AC0A8091AA07F801989EE00DF11DBF
:103DC0001124EE0FFF1FEB5CFA4F808191810E945E
:103DD000AC0A8091AA07F701989EE00DF11D11240D
:103DE000EE0FFF1FEB5CFA4F808191810E94AC0ABD
:103DF00083EE92E00E94870A8091AA070E94970AA8
:103E000089EF92E00E94890A80E090E0892B11F40A
:103E10000C940F160E945303882311F40C940C1673
:103E20000E9400000C940C16F999FECF92BD81BD42
:103E3000F89A992780B50895262FF999FECF1FBAD1
:103E400092BD81BD20BD0FB6F894FA9AF99A0FBEC3
:103E5000019608955058BB27AA270E94421F0C9430
:103E6000BC200E94AE2038F00E94B52020F039F42A
:103E70009F3F19F426F40C94AB200EF4E095E7FB79
:103E80000C94A520E92F0E94CD2058F3BA176207A1
:103E900073078407950720F079F4A6F50C94EF20BA
:103EA0000EF4E0950B2EBA2FA02D0B01B901900155
:103EB0000C01CA01A0011124FF27591B99F0593F99
:103EC00050F4503E68F11A16F040A22F232F342FE1
:103ED0004427585FF3CF469537952795A795F0402F
:103EE0005395C9F77EF41F16BA0B620B730B840B44
:103EF000BAF09150A1F0FF0FBB1F661F771F881FFC
:103F0000C2F70EC0BA0F621F731F841F48F4879553
:103F100077956795B795F7959E3F08F0B0CF939545
:103F2000880F08F09927EE0F9795879508950E94BE
:103F3000812008F481E008950E94B01F0C94BC20F9
:103F40000E94B52058F00E94AE2040F029F45F3F57
:103F500029F00C94A52051110C94F0200C94AB2066
:103F60000E94CD2068F39923B1F3552391F3951B5B
:103F7000550BBB27AA2762177307840738F09F5F8A
:103F80005F4F220F331F441FAA1FA9F335D00E2EF7
:103F90003AF0E0E832D091505040E695001CCAF764
:103FA0002BD0FE2F29D0660F771F881FBB1F261727
:103FB00037074807AB07B0E809F0BB0B802DBF01FE
:103FC000FF2793585F4F3AF09E3F510578F00C94CD
:103FD000A5200C94F0205F3FE4F3983ED4F386953F
:103FE00077956795B795F7959F5FC9F7880F911DEE
:103FF0009695879597F90895E1E0660F771F881FDA
:10400000BB1F621773078407BA0720F0621B730B8C
:10401000840BBA0BEE1F88F7E09508950E941520D7
:104020006894B1110C94F02008950E94D52088F076
:104030009F5798F0B92F9927B751B0F0E1F0660F6C
:10404000771F881F991F1AF0BA95C9F714C0B130AD
:1040500091F00E94EF20B1E008950C94EF20672FBB
:10406000782F8827B85F39F0B93FCCF386957795DC
:104070006795B395D9F73EF49095809570956195C5
:104080007F4F8F4F9F4F0895E89409C097FB3EF4F0
:1040900090958095709561957F4F8F4F9F4F992395
:1040A000A9F0F92F96E9BB279395F6958795779513
:1040B0006795B795F111F8CFFAF4BB0F11F460FFD3
:1040C0001BC06F5F7F4F8F4F9F4F16C0882311F02B
:1040D00096E911C0772321F09EE8872F762F05C03F
:1040E000662371F096E8862F70E060E02AF09A95DA
:1040F000660F771F881FDAF7880F9695879597F9CF
:104100000895990F0008550FAA0BE0E8FEEF161668
:104110001706E807F907C0F012161306E407F507BB
:1041200098F0621B730B840B950B39F40A2661F02F
:10413000232B242B252B21F408950A2609F4A140D2
:10414000A6958FEF811D811D089597F99F6780E8DF
:1041500070E060E008959FEF80EC089500240A94D9
:104160001616170618060906089500240A94121652
:104170001306140605060895092E0394000C11F485
:10418000882352F0BB0F40F4BF2B11F460FF04C032
:104190006F5F7F4F8F4F9F4F089557FD9058440F8B
:1041A000551F59F05F3F71F04795880F97FB991F96
:1041B00061F09F3F79F08795089512161306140653
:1041C000551FF2CF4695F1DF08C0161617061806E0
:1041D000991FF1CF86957105610508940895E894BB
:1041E000BB2766277727CB0197F908950E94812086
:1041F00008F48FEF08950E940E210C94BC200E94B9
:10420000AE2038F00E94B52020F0952311F00C94D8
:10421000A5200C94AB2011240C94F0200E94CD20FA
:1042200070F3959FC1F3950F50E0551F629FF00109
:10423000729FBB27F00DB11D639FAA27F00DB11D22
:10424000AA1F649F6627B00DA11D661F829F2227AB
:10425000B00DA11D621F739FB00DA11D621F839F32
:10426000A00D611D221F749F3327A00D611D231F08
:10427000849F600D211D822F762F6A2F11249F5756
:1042800050409AF0F1F088234AF0EE0FFF1FBB1F59
:10429000661F771F881F91505040A9F79E3F510518
:1042A00080F00C94A5200C94F0205F3FE4F3983E3E
:1042B000D4F3869577956795B795F795E7959F5FC2
:1042C000C1F7FE2B880F911D9695879597F9089554
:1042D0000E948120880B990B0895A1E21A2EAA1B37
:1042E000BB1BFD010DC0AA1FBB1FEE1FFF1FA217A6
:1042F000B307E407F50720F0A21BB30BE40BF50BA3
:10430000661F771F881F991F1A9469F7609570952B
:10431000809590959B01AC01BD01CF010895EE0FF2
:10432000FF1F0590F491E02D0994DC0101C06D930D
:0C43300041505040E0F70895F894FFCF92
:10433C0004180202000000000000803F0000000092
:10434C000000803F000000000000803F00000000E3
:10435C000000803F01474A04FFFFFFFF00E100001F
:10436C0000000000000044008900CD00110155013F
:10437C009A01DE0122026602AB02EF0233037703DD
:10438C00BC03000444048804CD04110555059905AB
:10439C00DE0522066606AA06EF0633077707BB077B
:1043AC00000844088808CC08110955099909DD0949
:1043BC00220A660AAA0AEE0A330B770BBB0BFF0B19
:1043CC00440C880CCC0C100D550D990DDD0D210EE7
:1043DC00660EAA0EEE0E320F770FBB0F01474A0086
:1043EC000000000000803F000000000000803F0043
:1043FC000000000000803F000000000000803F0033
:10440C00C18081000000000000008B01F604AC01AB
:10441C00A101F201B001CE01000000008803D3021B
:10442C000003D40331030F032303000000003806FC
:10443C000B066F07E1050406F105E2050D0A006E97
:10444C00616E00696E66006F7666004D6672494457
:10445C003A20004343303A20004343313A20004392
:10446C0043323A20004343333A200043683A200059
:10447C004C6F77657374204D696469204E6F746559
:10448C003A20004F72204761746520456E61626C62
:10449C0065643A20005070716E3A20005630204FFF
:1044AC0066667365743A20005630204761696E3A2F
:1044BC0020005631204F66667365743A20005631E1
:1044CC00204761696E3A20005632204F666673654C
:1044DC00743A20005632204761696E3A20005633F8
:1044EC00204F66667365743A200056332047616925
:1044FC006E3A20004D6964694E756D3A2000536523
:10450C007420454550524F4D004368616E6E656C8A
:10451C003A2000566F6963653A2000205361766536
:10452C0064004D6964693A200020566572696669B9
:10453C00636174696F6E204661696C656400205616
:10454C006572696669636174696F6E20506173731B
:10455C00656400506974636842656E642055703AF6
:10456C002000506974636842656E6420446F776EF6
:0A457C003A20007070716E3A2000C2
:00000001FF
