:100000000C94D4000C94FC000C94FC000C94FC00A8
:100010000C94FC000C94FC000C94FC000C94FC0070
:100020000C94FC000C94FC000C94F90E0C94680FDA
:100030000C94FC000C94FC000C94FC000C94FC0050
:100040000C94FC000C94FC000C94FC000C94FC0040
:100050000C94FC000C94FC000C94FC000C94F21129
:100060000C94FC000C94C0110C949A110C94FC009C
:100070000C94FC000C94FC000C94FC000C94FC0010
:100080000C94FC000C94FC000C94FC000C94FC0000
:100090000C943C120C94FC000C94FC000C94FC009E
:1000A0000C94FC000C94FC000C94FC00000000007C
:1000B0002300260029002C002F000000000024004F
:1000C00027002A002D003000000000002500280035
:1000D0002B002E0031000404040404030405020272
:1000E00002020403020202020606060606060404D1
:1000F0000202020404040802011040804010204063
:10010000804080080204018040201002011080100D
:10011000204040200000000200090F0000030401FD
:10012000000C0000000000000000000000000000C3
:10013000000000080B000202020000090400000198
:10014000020200000524001001052401010104241D
:10015000020605240600010705810310004009047A
:100160000100020A00000007050202400000070526
:1001700083024000000403090412010002EF02019F
:1001800040D80498E8000101020301556E6B6E6FC0
:10019000776E004D696469566F6C747320446573A3
:1001A0006B746F700000A01311241FBECFEFDAE054
:1001B000DEBFCDBF13E0A0E0B1E0E4EAF1E402C0AD
:1001C00005900D92A234B107D9F727E0A2E4B3E07D
:1001D00001C01D92AB3AB207E1F710E0C4EDD0E0E8
:1001E00004C02197FE010E94C320C33DD107C9F777
:1001F0000E9458140C94D0200C940000FC018091B3
:10020000D603882311F13FB7F89482E08093E90088
:100210002091F200822F90E01816190614F481E064
:1002200090E0882339F0289844E64093D503409124
:10023000F1004083222339F02091F200211103C004
:100240002BE62093E8003FBF08958FEF9FEF0895BE
:100250002FB7F89483E08093E9009091E800892F0C
:10026000807295FF04C09091F20080E4891B2FBF3B
:1002700008958091CD0381110DC082E08093C90360
:1002800084E08093CA031092CC031092CB0381E0E8
:100290008093CD0389EC93E00895CF93DF931F9271
:1002A000CDB7DEB76983DC01ED91FC910280F3816B
:1002B000E02D41E050E0BE016F5F7F4F09950F9048
:1002C000DF91CF91089583E08093E9008091F2005F
:1002D000882319F08AE38093E80008950E9428019A
:1002E00090E00895CF93DF931F92CDB7DEB7FC0166
:1002F0008485958597FD08C02FEF3FEF35872487CC
:100300000F90DF91CF910895CE0101960E94FE00DB
:10031000019719F4898190E0F3CF8FEF9FEFF0CF31
:100320000F931F93CF93DF931F92CDB7DEB78C014E
:10033000FC018485958597FF0BC0CE0101960E9434
:10034000FE00019771F4898190E0F8019587848718
:10035000F801848595850F90DF91CF911F910F91C2
:1003600008958FEF9FEFF1CFFC018485958597FD70
:100370000BC09FB7F89482E08093E9008091F2006F
:100380009FBF90E0019608959FB7F89482E0809314
:10039000E9008091F2009FBF90E008954091C3036F
:1003A0005091C4032091C1033091C20342175307F7
:1003B000B4F49091E8009570E1F39091E80092FD1B
:1003C00019C08093F1008091C3039091C4030196FA
:1003D0008F739927892B19F48EEF8093E800809111
:1003E000C3039091C40301969093C4038093C30305
:1003F00081E0089580E00895EF92FF920F931F939C
:10040000CF93DF93F82E192FE62E042F81E0860F6D
:10041000880F0E94CE0183E00E94CE01CF2DD12F04
:10042000EC0EFD2EF11CCE15DF05B9F007FF13C051
:10043000FE0184910E94CE01182F80E00E94CE011F
:10044000812321968111EFCFDF91CF911F910F91E1
:10045000FF90EF9008958881EDCF81E0F5CFDF9296
:10046000EF92FF920F931F93CF93DF93D82E8A01C1
:10047000EB017B01E40EF51ECE15DF0559F0D7FE2A
:1004800012C0FE0184910E94CE0121968111F4CF09
:100490000FEF1FEFC801DF91CF911F910F91FF90D8
:1004A000EF90DF9008958881EECF0F931F93CF9345
:1004B000DF931F92CDB7DEB782E0898342E450E03C
:1004C00063E371E080E80E942F020E943901DC01A1
:1004D00012960D911C910115110589F0D801ED912D
:1004E000FC910280F381E02DBE016F5F7F4FC80158
:1004F000099597FD04C0F80100851185ECCF89812D
:100500000F90DF91CF911F910F910895615030F0BE
:100510002091F100FC0120830196F8CF289884E611
:100520008093D503089508950895AF92BF92CF9216
:10053000DF92EF92FF920F931F93CF93DF936C01A3
:100540007B018B01040F151FEB015E01AE18BF0884
:10055000C017D10759F06991D601ED91FC91019036
:10056000F081E02DC6010995892B79F7C501DF914E
:10057000CF911F910F91FF90EF90DF90CF90BF90A0
:10058000AF900895FC01538D448D252F30E0842FCA
:1005900090E0821B930B541710F0CF9608950197AB
:1005A0000895FC01918D828D981761F0A28DAE0F98
:1005B000BF2FB11D5D968C91928D9F5F9F73928F1F
:1005C00090E008958FEF9FEF0895FC01918D828D4B
:1005D000981731F0828DE80FF11D858D90E0089518
:1005E0008FEF9FEF0895FC01918D228D892F90E070
:1005F000805C9F4F821B91098F739927089587E72D
:1006000094E00E94F30221E0892B09F420E0822F7C
:10061000089580E090E0892B29F00E94FF0281116B
:100620000C9400000895FC01A48DA80FB92FB11DF2
:10063000A35ABF4F2C91848D90E001968F73992718
:10064000848FA689B7892C93A089B1898C918274F3
:100650008C93938D848D981306C00288F389E02DC6
:1006600080818F7D80830895EF92FF920F931F9377
:10067000CF93DF93EC0181E0888F9B8D8C8D981355
:1006800019C0E889F989808185FF14C09FB7F89463
:10069000EE89FF896083E889F9898081827480838B
:1006A0009FBF81E090E0DF91CF911F910F91FF906C
:1006B000EF900895F62E0B8D10E00F5F1F4F0F7314
:1006C0001127E02E8C8D8E110CC00FB607FCFACFCF
:1006D000E889F989808185FFF5CFCE010E94130357
:1006E000F1CFEB8DEC0FFD2FF11DE35AFF4FF082A0
:1006F0009FB7F8940B8FEA89FB8980818062CFCF06
:10070000CF93DF93EC01888D8823B9F0AA89BB8948
:10071000E889F9898C9185FD03C0808186FD0DC033
:100720000FB607FCF7CF8C9185FFF2CF808185FF54
:10073000EDCFCE010E941303E9CFDF91CF91089551
:1007400081508F3008F047C0E82FF0E0E655FC4FAD
:100750000C94C320C703CB03B903BF03C303EB034C
:10076000EB03EB03CE03D403D803DC03E203EB0378
:10077000E603809180008F778093800008958091B8
:1007800080008F7DF9CF80918000877FF5CF84B581
:100790008F7784BD089584B58F7DFBCF80919000C5
:1007A0008F77809390000895809190008F7DF9CF8E
:1007B00080919000877FF5CF8091C0008F778093E4
:1007C000C00008958091C0008F7DF9CF8091C20054
:1007D000877F8093C20008951F93CF93DF93282FC4
:1007E00030E0F901EC5EFE4F8491F901EB50FF4FD0
:1007F000D491F901EA52FF4FC491CC23A9F0162FEE
:1008000081110E94A003EC2FF0E0EE0FFF1FE853D0
:10081000FF4FA591B4918FB7F894EC91111108C0D6
:10082000D095DE23DC938FBFDF91CF911F91089588
:10083000DE2BF8CFCF93DF9390E0FC01EB50FF4F1E
:1008400024918A529F4FFC0184918823D1F090E03B
:10085000880F991FFC01E654FF4FA591B491FC014C
:10086000E853FF4FC591D49161110EC09FB7F89422
:100870008C91E22FE0958E238C932881E223E883EC
:100880009FBFDF91CF9108958FB7F894EC91E22B41
:10089000EC938FBFF6CF3FB7F8948091AB03909164
:1008A000AC03A091AD03B091AE0326B5A89B05C0E3
:1008B0002F3F19F00196A11DB11D3FBFBA2FA92FDF
:1008C000982F8827BC01CD01620F711D811D911DDC
:1008D00042E0660F771F881F991F4A95D1F7089548
:1008E0008F929F92AF92BF92CF92DF92EF92FF9240
:1008F0004B015C010E944B046B017C010E944B0484
:100900006C197D098E099F09683E73408105910528
:10091000A8F321E0821A9108A108B10888EEC80E58
:1009200083E0D81EE11CF11C81149104A104B104E0
:1009300029F7FF90EF90DF90CF90BF90AF909F90FE
:100940008F9008958F929F92AF92BF92CF92DF9235
:10095000EF92FF920F931F93CF93DF936C017B0174
:100960008A0180913301882309F45CC08091D60309
:10097000882309F457C08091C80380FF05C0809187
:10098000E00082608093E000E801B12C8AEFA82E9D
:1009900093E0892E2AE3922E209711F4BB20D9F1FF
:1009A0000E94280181110AC0AA94AA20D9F161E00D
:1009B00070E080E090E00E947004EECF8C171D067E
:1009C00011F00CF08C2F9FB7F8948092E9002091E1
:1009D000E80025FD02C09FBFDFCF282F30E0C21BFB
:1009E000D30BF701815020F041914093F100FACFF1
:1009F000E20EF31EBB2021F09092E800B12CEBCF69
:100A00008091E80085FDE7CF9092E800BB24B39485
:100A1000209709F3F3CF5D9884E68093C7031016FF
:100A200011063CF081E090E0F6019383828310E0B0
:100A300000E0C801DF91CF911F910F91FF90EF90DF
:100A4000DF90CF90BF90AF909F908F9008952091AE
:100A50008303260F3327331F21323105ECF4209115
:100A6000FD03FC0190E080E0243069F082E008950D
:100A7000A09183032191AC014D595C4FA40FB52F78
:100A8000B11D2C930196861798F380918303680F0C
:100A90006093830380E0089581E008951092FD0340
:100AA00081E08093FC031092D70361E082E00E9412
:100AB000EC0361E083E00E94EC03E9EBF0E080816D
:100AC0008E7F808380818D7F808388E48093B800CF
:100AD00085E48093BC000895CF93DF9391E09093D9
:100AE00062038823B9F0C091B800D091BA00809118
:100AF000BC008A7B8093BC0060E082E00E94EC0333
:100B000060E083E00E94EC030E944E05D093BA009F
:100B1000C093B800DF91CF9108950895E091B40398
:100B20008091B303E81730F4F0E0EE5BFC4F808176
:100B300090E008958FEF9FEF08959091B403809116
:100B4000B3032FEF3FEF981748F4E92FF0E0EE5B87
:100B5000FC4F208130E09F5F9093B403C90108955A
:100B60008091B3039091B403891B990B0895CF92A0
:100B7000DF92EF92FF920F931F93CF93DF937C014D
:100B8000CB018A0120912604222389F0EB016B011D
:100B9000C40ED51ECC15DD0569F06991D701ED9124
:100BA000FC910190F081E02DC7010995F3CF642FEE
:100BB0000E942705C801DF91CF911F910F91FF90EF
:100BC000EF90DF90CF900895CF93DF931F92CDB732
:100BD000DEB76983209126042223F9F020912304B3
:100BE000203258F021E030E0FC013383228390E092
:100BF00080E00F90DF91CF91089580912404E82F39
:100C0000F0E0ED5FFB4F998190838F5F8093240428
:100C10008093230481E090E0ECCF61E0CE01019667
:100C20000E942705F7CF682F84E195E00C94E40536
:100C3000CF92DF92EF92FF920F931F93CF93C82F23
:100C4000192F81E08093260480E68093250410927A
:100C5000240410922304613009F489C008F482C08E
:100C6000623009F487C0633009F487C0612F84E1E2
:100C700095E00E94E4056C2F84E195E00E94E40574
:100C8000C0912304C13208F0A0C00E944B046B0144
:100C90007C018091FD03811173C082E08093FD038C
:100CA00081E08093FC038FEF8093FB031092FA03A3
:100CB000C093F903A3E0B4E0E9EDF3E080E0C813EA
:100CC00092C01092D8038091D803806C8093D8038F
:100CD0008091D703813009F08AC01092D7030E9417
:100CE0004B046B017C018091D8038093BB00809101
:100CF000FF0390910004A0910104B0910204892B9C
:100D00008A2B8B2BA1F00E944B040091FF031091C2
:100D1000000420910104309102046C197D098E09B0
:100D20009F09061717072807390708F44AC080915A
:100D3000BC0083FDD8CF85EC8093BC000E944B049F
:100D40006B017C018091FD03823009F452C08091D7
:100D5000FB038F3FD1F18091FB038032B1F1809191
:100D6000FB0333C080E490E00E9413067FCF82E44F
:100D700090E0FACF84E490E0F7CF86E490E0F4CFFF
:100D80008091FF0390910004A0910104B0910204AE
:100D9000892B8A2B8B2B09F47CCF0E944B0400916A
:100DA000FF031091000420910104309102046C199A
:100DB0007D098E099F09061717072807390708F0CC
:100DC00068CF8091FE030E946C051092240410925B
:100DD000230410922604CF911F910F91FF90EF9062
:100DE000DF90CF9008959D9191938F5F68CF85EEAE
:100DF000A3CF8091FF0390910004A0910104B091D2
:100E00000204892B8A2B8B2B09F49CCF0E944B0464
:100E10000091FF031091000420910104309102041D
:100E20006C197D098E099F090617170728073907CE
:100E300008F088CFC6CF90E080E008952F923F92CF
:100E40004F925F926F927F928F929F92AF92BF92DA
:100E5000CF92DF92EF92FF920F931F93CF93DF9386
:100E6000EC01FC01EC57FF4F80809180A280B380A1
:100E70003496408051806280738020E030E0A90188
:100E8000C501B4010E94CB1E81110AC020E030E0F0
:100E900040E85FE3C301B2010E94CB1E882389F1C1
:100EA0001E0188E7280E311C0FEF1FE06C857D8541
:100EB00090E080E00E94781FA30192010E942F2001
:100EC000A50194010E945F1E6B017C0120E030E0CF
:100ED000A9010E942A2020E030E040E05FE387FD86
:100EE00023C0C701B6010E945F1E0E94421F611508
:100EF00080E17807F0F47D876C8722962C163D06FA
:100F0000A9F6DF91CF911F910F91FF90EF90DF90A5
:100F1000CF90BF90AF909F908F907F906F905F9099
:100F20004F903F902F900895C701B6010E945E1E1A
:100F3000DCCF77FF03C01D861C86DFCF1D870C87A3
:100F4000DCCFCF93DF93EC01C257DF4F70E090E02E
:100F500080E00E94781F20E030EF4FE755E40E94C8
:100F60002F2020E030E04EEF52E40E94D01E0E947D
:100F7000491FCB016881DF91CF910C941806CF9265
:100F8000DF92EF92FF92CF93DF93EC016E817F812E
:100F9000613080E27807C8F190E080E00E94781F1D
:100FA00020E030E040E056E40E945E1E20E038EF92
:100FB0004FEF55E40E94D01E6B017C016885798556
:100FC00090E080E00E94781F9B01AC01C701B60150
:100FD0000E942F206B017C0120E030E0A9010E94DB
:100FE0002A2020E030E040E05FE387FD27C0C70112
:100FF000B6010E945F1E0E94421FCB01DF91CF917C
:10100000FF90EF90DF90CF900895611580E2780710
:10101000D1F090E080E00E94781F20E030E040E0D6
:1010200056E40E945E1E20E030E040E059E30E945A
:101030002F206B017C016A857B85C2CFC701B60179
:101040000E945E1ED8CF70E060E0D7CFEF92FF9293
:101050000F931F93CF93DF93FC0177836683C28145
:10106000E380CE1578F1F12CD0E0C701CB968C1738
:101070009D0744F18F01CF010E94BF07CE19DF0900
:101080002696CC0FDD1FC00FD11F28813981280F74
:10109000391FF801EE57FF4F808191818217930726
:1010A0002CF0C90137FF02C090E080E0F801E25760
:1010B000FF4F6081DF91CF911F910F91FF90EF90D3
:1010C0000C941806DF91CF911F910F91FF90EF9034
:1010D0000895CF93FC01C081CF3FC1F070E090E054
:1010E00080E00E94781F20E030EF4FE755E40E9437
:1010F0002F2020E030E04EEF52E40E94D01E0E94EC
:10110000491FCB016C2FCF910C941806CF910895F5
:10111000CF93DF93EC01FC01E357FF4F60E0808148
:101120000E94EC031982DF91CF910895AF92BF9294
:10113000DF92EF92FF920F931F93CF93DF93EC0117
:10114000D42EAB806A1508F49DC0B12C9501255CA6
:101150003F4F062F10E0201731070CF493C06A832D
:101160006C8170E0C801860F971FF801EA19FB092E
:101170003696EE0FFF1FEC0FFD1FE080F180281761
:1011800039070CF060C0072E000C880B990B0E94E9
:101190007A1F20E030E848E852E40E942F200E94A5
:1011A000491F798768876D8170E0061B170B0A1548
:1011B0001B050CF057C0072E000C880B990B0E94E2
:1011C0007A1F20E030E848E852E40E942F200E9475
:1011D000491F7B876A87CE010E94BF07E80EF91E70
:1011E000FE01EE57FF4F808191818E159F052CF0F7
:1011F000C701F7FE02C090E080E0FE01E257FF4F1A
:1012000060810E941806DD2049F061E0FE01E3578D
:10121000FF4F80810E94EC0381E08983FE01E45747
:10122000FF4F80818130B1F5C157DF4F61E0888188
:10123000DF91CF911F910F91FF90EF90DF90BF90C2
:10124000AF900C94EC03FC01EA19FB093696EE0F03
:10125000FF1FEC0FFD1F808191818E199F099987D7
:101260008887A1CFF801EA19FB093696EE0FFF1F18
:10127000EC0FFD1F808191819701281B390B3B8763
:101280002A87A9CFFE01E357FF4F60E080810E94CB
:10129000EC031982DF91CF911F910F91FF90EF9096
:1012A000DF90BF90AF9008950F931F93CF93DF937C
:1012B000EC01288139813327F901EC5EFE4F8491DE
:1012C000F901EB50FF4F0491F901EA52FF4F1491DD
:1012D000112309F453C081110E94A003E12FF0E013
:1012E000EE0FFF1FE455FF4FA591B491EC910E2333
:1012F00031E020E009F430E0832F922F2A813B81F6
:101300002817390779F02FB7F8944091A703509127
:10131000A8036091A9037091AA032FBF4E835F8336
:10132000688779872FB7F8944091A7035091A80355
:101330006091A9037091AA032FBF0E811F81288598
:101340003985401B510B620B730B0A851B852C855D
:101350003D85041715072607370738F42C813D8192
:101360002817390711F09D838C839B838A838C8196
:101370009D81DF91CF911F910F91089590E080E0C2
:10138000BDCFFC0101900020E9F73197AF01481B68
:10139000590BBC0187E794E00C9495028F929F92C1
:1013A000AF92BF920F931F93CF93DF93CDB7DEB76A
:1013B000A1970FB6F894DEBF0FBECDBF19A2423081
:1013C00008F44AE08E010F5D1F4F842E912CB12C42
:1013D000A12CA50194010E94A120E62FB901CA0108
:1013E000EA30F4F4E05DD801EE938D01232B242B39
:1013F000252B79F790E080E0109719F0CD010E943D
:10140000C109A1960FB6F894DEBF0FBECDBFDF9124
:10141000CF911F910F91BF90AF909F908F900895A3
:10142000E95CE1CFCF92DF92EF92FF92CF93DF930F
:101430006B017C016DE287E794E00E943403EC01CC
:1014400066277727CB016C197D098E099F094AE031
:101450000E94CE098C0F9D1FDF91CF91FF90EF90DE
:10146000DF90CF9008950C94C109CF93DF930E9431
:10147000C109EC018CE092E00E94C1098C0F9D1F14
:10148000DF91CF910895682F70E090E080E04AE00E
:101490000C94CE09CF93DF930E94430AEC018CE0B9
:1014A00092E00E94C1098C0F9D1FDF91CF9108959A
:1014B000CF93DF93BC0190E080E04AE00E94CE0928
:1014C000EC018CE092E00E94C1098C0F9D1FDF911E
:1014D000CF9108958F929F92AF92BF92CF92DF9259
:1014E000EF92FF921F93CF93DF936B017C01AC01CE
:1014F0009B010E949C208823B9F08FE092E00E941B
:10150000C109EC018CE092E00E94C1098C0F9D1F83
:10151000DF91CF911F91FF90EF90DF90CF90BF9020
:10152000AF909F908F90089546015701E894B7F8C7
:101530002FEF3FEF4FE75FE7C501B4010E949C200A
:1015400081110DC02FEF3FEF4FE75FE7C501B401F9
:101550000E94CB1E18161CF483E192E0D0CF2FEF2F
:101560003FEF4FE75FE4C701B6010E942A2018163B
:101570001CF487E192E0C3CF2FEF3FEF4FE75FEC22
:10158000C701B6010E94CB1E87FDF3CF20E030E0FB
:10159000A901C701B6010E94CB1ED0E0C0E087FFC1
:1015A0000AC06DE287E794E00E943403EC01F7FA89
:1015B000F094F7F8F09426E137EB41E558E3C701E2
:1015C000B6010E945F1E6B017C010E94491F4B0106
:1015D0005C010E94781F9B01AC01C701B6010E940B
:1015E0005E1E6B017C014AE0C501B4010E94CE0978
:1015F000C80FD91F6EE287E794E00E943403C80F3A
:10160000D91F15E0115009F47DCF20E030E040E211
:1016100051E4C701B6010E942F204B015C010E94DA
:10162000491F6B01F12CE12C4AE0C701B6010E9471
:10163000CE09C80FD91FC701B6010E94781F9B01B0
:10164000AC01C501B4010E945E1E6B017C01DACFC2
:10165000CF93DF93BC01990F880B990B4AE00E944E
:10166000CE09EC018CE092E00E94C1098C0F9D1F15
:10167000DF91CF91089585ED8093BC008091FF03A9
:1016800090910004A0910104B09102040796A11D5D
:10169000B11D23E0B695A795979587952A95D1F723
:1016A0002091BC0024FD03C01092FD0308954091D9
:1016B000FF03509100046091010470910204452BD6
:1016C000462B472B69F30097A105B10541F025E3AF
:1016D0002A95F1F700000197A109B109E1CF8091A6
:1016E000FE030C946C05FF920F931F93CF93DF932F
:1016F000EC01F62E08811981C8010E94481EF816D7
:1017000021F06F2DC8010E94501ECE01DF91CF91B4
:101710001F910F91FF900895CF92DF92EF92FF9269
:101720000F931F93CF93DF9300D0CDB7DEB76C013B
:101730007C0102E010E01A830983F70161917F01C7
:10174000CE0101960E94730B0F5F1F4F02321105ED
:1017500091F7C6010F900F90DF91CF911F910F91DC
:10176000FF90EF90DF90CF900895CF92DF92EF92AD
:10177000FF920F931F93CF93DF9300D0CDB7DEB7C7
:101780006C017C0102E212E01A830983F701619186
:101790007F01CE0101960E94730B0F5F1F4F053230
:1017A000F2E01F0789F7C6010F900F90DF91CF91EC
:1017B0001F910F91FF90EF90DF90CF9008950F93BE
:1017C0001F93CF93DF9300D0CDB7DEB78C0185E2B6
:1017D00092E09A838983F8016081CE0101960E948C
:1017E000730B86E292E09A838983F8016181CE01CE
:1017F00001960E94730BC8010F900F90DF91CF915B
:101800001F910F910895EF92FF920F931F93CF9323
:10181000DF9300D0CDB7DEB78C017B019A8389833B
:10182000FB016081CE0101960E94730B0F5F1F4F79
:101830001A830983F7016181CE0101960E94730B1F
:10184000C7010F900F90DF91CF911F910F91FF90E3
:10185000EF900895AF92BF92CF92DF92EF92FF92F6
:101860000F931F93CF93DF9300D0CDB7DEB78B01DB
:101870006B0128E7C20ED11C7B015C01A61AB70AD6
:10188000C5018E0D9F1D9A838983F70161917F01A8
:10189000CE0101960E94730BEC14FD0489F7C80178
:1018A0000F900F90DF91CF911F910F91FF90EF90CC
:1018B000DF90CF90BF90AF9008950F931F93CF9379
:1018C000DF9300D0CDB7DEB78B019A838983FB010C
:1018D0006081CE0101960E94730BC8010F900F909A
:1018E000DF91CF911F910F910895CF92DF92EF92E8
:1018F000FF920F931F93CF93DF93EB017B0128E7B8
:10190000E20EF11C8B016C01C61AD70AC601800FCA
:10191000911F0E94481EF80181938F01EE15FF056B
:10192000A9F7CE01DF91CF911F910F91FF90EF901A
:10193000DF90CF900895CF93DF93EB010E94481E74
:101940008883CE01DF91CF9108950F931F93CF939A
:10195000DF936EE877E090E080E00E949B0C63E20A
:1019600075E081E090E00E949B0C63EB75E081E004
:1019700090E00E949B0C63E476E081E090E00E949E
:101980009B0C63ED76E081E090E00E949B0C04E00C
:1019900011E0C2E0D0E0CE010E94481EF801819320
:1019A0008F012196C232D105B1F76CE275E082E475
:1019B00090E00E94750C6CEB75E08AEB90E00E9461
:1019C000750C6CE476E082E391E00E94750C6CED9E
:1019D00076E08AEA91E00E94750C82E292E00E9431
:1019E000481E8093240183E292E00E94481E809367
:1019F000250184E292E00E94481E8093260185E240
:101A000092E00E94481E8093020186E292E00E94CA
:101A1000481E8093030160EC73E087E292E00E942D
:101A20009B0C61E071E08BE292E00E949B0C909134
:101A300002019093240580910301809325059093E2
:101A4000B4058093B5059093440680934506909322
:101A5000D4068093D5068091040190910501A09150
:101A60000601B09107018093A4059093A505A0936A
:101A7000A605B093A7058091080190910901A09156
:101A80000A01B0910B018093A8059093A905A0933A
:101A9000AA05B093AB0580910C0190910D01A09126
:101AA0000E01B0910F018093340690933506A093F8
:101AB0003606B09337068091100190911101A091E4
:101AC0001201B09113018093380690933906A093C8
:101AD0003A06B0933B068091140190911501A091B4
:101AE0001601B09117018093C4069093C506A09388
:101AF000C606B093C7068091180190911901A09174
:101B00001A01B0911B018093C8069093C906A09357
:101B1000CA06B093CB0680911C0190911D01A09143
:101B20001E01B0911F018093540790935507A09315
:101B30005607B09357078091200190912101A09101
:101B40002201B09123018093580790935907A093E5
:101B50005A07B0935B0780E295E00E941E0780EB76
:101B600095E00E941E0780E496E00E941E0780ED2B
:101B700096E00E941E078091C0038093AC0580937D
:101B80003C068093CC0680935C0780910101811113
:101B900003C088E18093010180910101809399073E
:101BA0008BE192E00E94330A82E00E944A0A8BE1B4
:101BB00092E00E94330A80E40E944A0A8CE292E09A
:101BC0000E94330A809124010E944A0A82E392E033
:101BD0000E94330A809125010E944A0A88E392E01C
:101BE0000E94330A809126010E944A0A8FE193E005
:101BF0000E94330A809102010E944A0A8EE293E019
:101C00000E94330A809103010E944A0A8EE392E007
:101C10000E94330A80918E0790E001960E94280B63
:101C200088E492E00E94330A809123050E94430ACF
:101C300080E392E00E94330A8091B3050E94430A38
:101C400080E392E00E94330A809143060E94430A97
:101C500080E392E00E94330A8091D3060E944A0AF0
:101C60008BE592E00E94330A8091C0030E944A0AE9
:101C70008DE692E00E94330A6091A4057091A5055B
:101C80008091A6059091A7050E946A0A89E792E0D3
:101C90000E94330A6091A8057091A9058091AA0558
:101CA0009091AB050E946A0A83E892E00E94330A91
:101CB0006091340670913506809136069091370612
:101CC0000E946A0A8FE892E00E94330A6091380607
:101CD0007091390680913A0690913B060E946A0AFB
:101CE00089E992E00E94330A6091C4067091C506AA
:101CF0008091C6069091C7060E946A0A85EA92E022
:101D00000E94330A6091C8067091C9068091CA0684
:101D10009091CB060E946A0A8FEA92E00E94330AF1
:101D2000609154077091550780915607909157071D
:101D30000E946A0A8BEB92E00E94330A6091580776
:101D40007091590780915A0790915B070E946A0A27
:101D5000CCE2D5E010E000E085EC92E00E94330A8E
:101D600060912305600F712F711D072E000C880BE9
:101D7000990B4AE00E94CE0980E392E00E94330A68
:101D80006991799190E080E04AE00E94CE0980E379
:101D900092E00E94330AFE01E257FF4F6081718199
:101DA00090E080E04AE00E94CE0980E392E00E9449
:101DB000330AFE01E25EFE4F6081718190E080E0B7
:101DC0004AE00E94CE0980E392E00E94330AFE01BD
:101DD000E255FE4F808191810E94580A0F5F1F4F8C
:101DE0000C33110509F0B8CFDF91CF911F910F91FE
:101DF00008951F920F920FB60F9211248F939F9305
:101E00008091E1009091E100937F9093E10083FF46
:101E10000FC01092E90091E09093EB001092EC005B
:101E200092E39093ED001092D60398E09093F00027
:101E300082FF22C093E09093E9009091F2009923F1
:101E400019F09AE39093E8009091C703992341F029
:101E50009091C70391509093C703911101C05D9A6F
:101E60009091D503992341F09091D503915090938F
:101E7000D503911101C0289A84FF18C08091E20017
:101E80008E7E81608093E2008091E1008F7E80935E
:101E9000E1008091C8038E7E80618093C8039F918A
:101EA0008F910F900FBE0F901F90189580FFF7CF66
:101EB0008091E2008E7E80618093E2008091E1005B
:101EC0008E7E8093E1008091C8038E7E8160E5CF95
:101ED0001F920F920FB60F921124CF92DF92EF92C2
:101EE000FF920F931F932F933F934F935F936F93A3
:101EF0007F938F939F93AF93BF93EF93FF93CF9372
:101F0000DF93CDB7DEB76C97DEBFCDBF1092E9008F
:101F10008091E80083FF25C068E0CE0145960E94CD
:101F2000860282EF8093E8008D8987FF39C0909107
:101F3000E80090FFFCCF982F907609F034C19E897D
:101F40004F89588D2F89F88C911131C0803861F5F7
:101F50008091C6038093F1001092F1008EEF809380
:101F6000E8006C960FB6F894DEBF0FBECDBFDF91D0
:101F7000CF91FF91EF91BF91AF919F918F917F9101
:101F80006F915F914F913F912F911F910F91FF9012
:101F9000EF90DF90CF900F900FBE0F901F9018958D
:101FA0009EEF9093E800C7CF1092F100D5CF91300B
:101FB00059F48111D3CF4130510581F68091C60388
:101FC0008D7F8093C603CACF933049F48111C6CF69
:101FD0004130510519F68091C6038260F2CF9530E9
:101FE00041F48091E80080FFFCCF20682093E3005B
:101FF000B5CF963009F0A9C00B8D1C8D22E0109250
:10200000E9001092C4031092C303F2122EC0109282
:10201000C2031092C1030E9455021F8299E0998366
:10202000FA8291E09E8390EA98879AEF99872091AF
:10203000C3033091C403275F3F4F3C832B838D83C1
:102040001092E9001092C4031092C3031093C203CC
:102050000093C10349E050E0BE016F5F7F4F80E015
:102060000E942F020E94550279CF1093C203009361
:10207000C1030E943901DC0112960D911C910115DA
:10208000110509F451C1D801ED91FC910480F5814D
:10209000E02DBE016B5E7F4FC8010995009709F0E6
:1020A0003EC1F80100851185EACFF3E0FF120EC0B2
:1020B0008F89882309F440C0823061F440E861E1EF
:1020C00083E991E00E94FC01811148CF81E2809375
:1020D000EB0047CF813029F440E867E08BE891E0DE
:1020E000F1CF833099F70E943901DC011296ED900F
:1020F000FC908E010F5F1F4F6801E114F10479F02D
:10210000D701ED91FC910680F781E02DB801C70160
:102110000995080F111DF701E084F184EECFD80175
:102120001C92F60101900020E9F73197BF016C196C
:102130007D0940E0C601C6CF65E771E0FB0144912F
:1021400050E080E80E942F0209CF973009F4BECFFB
:10215000983021F481E08093F10000CF993009F0AC
:10216000FDCE837009F0B2CFE0EDF1E081E031E027
:1021700096E32191222371F08093E9003093EB00E4
:10218000DF0111972C912093EC009093ED008F5F6D
:10219000873079F78EE78093EA001092EA008F8902
:1021A0008093D603DBCE8B8D9C8D1092E90010922C
:1021B000C4031092C3039093C2038093C103898D1B
:1021C000811192C08E899D89913A49F4813209F03A
:1021D0007DCF47E050E06CE271E080E0B3CF913218
:1021E00009F074CF833269F48F89988DB0E0A0E054
:1021F0008093280190932901A0932A01B0932B0189
:10220000ADCE803269F48091E80082FFFCCF67E0B8
:102210008CE291E00E9486028BEF8093E8009ECED4
:10222000823209F09BCE8F8980933301EEEFFFE776
:10223000859194918B3F9C4D51F1E0E0F8E08091C5
:102240002C0190912D01A0912E01B0912F01803B86
:102250009440A105B105F1F48091330180FD1AC0CD
:10226000EE3F8AE0F80789F587E797E79183808357
:10227000809160008093C50388E19BE00FB6F894DD
:10228000A895809360000FBE9093600067CEEEEF3C
:10229000FAE0D5CF808191818737974709F05ECEEC
:1022A000A895809160008861809360008091C5034B
:1022B00080936000EE3F2AE0F20789F08091FE0AE9
:1022C0009091FF0A9183808349CE808191818737E5
:1022D000980751F29093FF0A8093FE0AC5CF10929F
:1022E000FF0A1092FE0A3ACE0E943901DC011296D2
:1022F0000D911C910115110509F4E8CED801ED915D
:10230000FC910190F081E02DBE016B5E7F4FC80112
:102310000995811123CEF80100851185EBCF1816A0
:1023200019060CF41BCED2CEF1E0FF12BECE69E747
:1023300071E004CF1F920F920FB60F9211242F93CA
:102340003F934F935F936F937F938F939F93AF933D
:10235000BF93EF93FF9387E794E00E941303FF91ED
:10236000EF91BF91AF919F918F917F916F915F910D
:102370004F913F912F910F900FBE0F901F90189586
:102380001F920F920FB60F9211242F938F939F934A
:10239000EF93FF93E0918704F09188048081E091AE
:1023A0008D04F0918E0482FD1BC090818091900479
:1023B0008F5F8F7320919104821741F0E091900418
:1023C000F0E0E958FB4F958F80939004FF91EF91D7
:1023D0009F918F912F910F900FBE0F901F90189586
:1023E0008081F4CF1F920F920FB60F9211242F937A
:1023F0003F938F939F93AF93BF938091A703909147
:10240000A803A091A903B091AA033091A60323E0E9
:10241000230F2D3758F50196A11DB11D2093A6035A
:102420008093A7039093A803A093A903B093AA0352
:102430008091AB039091AC03A091AD03B091AE033A
:102440000196A11DB11D8093AB039093AC03A093A3
:10245000AD03B093AE03BF91AF919F918F913F9128
:102460002F910F900FBE0F901F90189526E8230F05
:102470000296A11DB11DD2CF1F920F920FB60F92DF
:1024800011242F933F934F935F936F937F938F9379
:102490009F93AF93BF93EF93FF938091B900887F91
:1024A000803609F44AC0F0F5883209F4A7C018F55F
:1024B000803109F49BC0B8F4882309F4F9C088304E
:1024C00009F494C0FF91EF91BF91AF919F918F91CB
:1024D0007F916F915F914F913F912F910F900FBE20
:1024E0000F901F901895883109F488C0803251F7F9
:1024F0008093FB0314C0803409F49DC040F4803302
:10250000B9F38833F9F68093FB0385ECB0C08035CE
:1025100009F485C0883509F496C0883499F60E947C
:102520003B0BD0CF883909F48CC038F5883729F0B7
:1025300050F4883611F0803729F683E08093FD034C
:102540001092A50357C0883809F47BC0803919F070
:10255000803809F0B7CF8091A503803208F071C0B0
:10256000E091A50381E08E0F8093A5038091BB00CD
:10257000F0E0EB57FC4F80833DC0803B39F0E0F446
:10258000803A09F479C0883A09F09CCF84E08093BE
:10259000FD031092840310928303E091B103F09144
:1025A000B20309958091830381110FC081E080936C
:1025B00083031092630309C0803C09F4A6CF883CD2
:1025C00009F4A3CF883B09F07DCFE091840381E03B
:1025D0008E0F80938403F0E0ED59FC4F808180934F
:1025E000BB00909184038091830329C08091D8031C
:1025F0008093BB0085EC8093BC0064CF9091FA037C
:102600008091F903981758F5E091FA0381E08E0F55
:102610008093FA03F0E0E752FC4F8081E9CFE0912C
:10262000FA0381E08E0F8093FA038091BB00F0E003
:10263000E752FC4F80839091FA038091F903981739
:10264000C8F285E8D8CFE091FA0381E08E0F80933D
:10265000FA038091BB00F0E0E752FC4F8083809149
:10266000FC0381115CCF81E08093D70384EA8093DF
:10267000BC001092FD0326CF85EC8093BC00109225
:10268000FD038091A503803230F4E091A503F0E0D2
:10269000EB57FC4F10826091A50370E0E091AF030F
:1026A000F091B00385E893E009951092A5030ACF55
:1026B0001092FB0334CF0F931F93CF93DF93EC0162
:1026C000162F042F8FEF888319821A8284E28B835E
:1026D0001C821D8280E090E29F838E83198618867B
:1026E0001B861A8688E7E4E3F1E0DE011C96019080
:1026F0000D928A95E1F7FE01EC57FF4F108211828F
:1027000012821382349680E090E0A0E8BFE38083D9
:102710009183A283B38334961082339686E08083BC
:1027200061E0812F0E941A04FE01E357FF4F1083DE
:10273000C257DF4F0883DF91CF911F910F9108950A
:10274000CF92DF92EF92FF92CF93DF93E7E2F4E034
:102750001382128288EE93E0A0E0B0E08483958338
:10276000A683B7832AED31E0318320832FEF3FEF3B
:1027700035872487E7E7F4E0138212828483958308
:10278000A683B7832CEE31E0318320832DEC30E03B
:10279000358724872CEC30E03787268728EC30E01B
:1027A000318B208B29EC30E0338B228B2AEC30E00C
:1027B000358B248B2EEC30E0378B268B118E128ECE
:1027C000138E148EE4E1F5E01382128284839583E4
:1027D000A683B7838EEF91E091838083EAE8F7E0E8
:1027E000148288E18787118A81E0828B138A148A98
:1027F000158A168A178A158E148E10A2178ECCE7AA
:10280000D7E01E821F821886198660E089E00E9448
:102810001A0489E090E09983888382E3C82ED12C42
:10282000E12CF12CCA86DB86EC86FD86CEE6D7E06D
:102830001E821F821886198660E083E10E941A04B6
:1028400083E190E099838883CA86DB86EC86FD86E7
:10285000C0E6D7E01E821F821886198660E084E1F8
:102860000E941A0484E190E099838883CA86DB86FB
:10287000EC86FD8640E068E080E295E00E945B1314
:1028800041E062E180EB95E00E945B1342E065E18C
:1028900080E496E00E945B1343E066E180ED96E001
:1028A000DF91CF91FF90EF90DF90CF900C945B136E
:1028B000CF93DF93CDB7DEB7C35AD1090FB6F894E3
:1028C000DEBF0FBECDBF789484B5826084BD84B571
:1028D000816084BD85B5826085BD85B5816085BD1B
:1028E00080916E00816080936E00109281008091D3
:1028F000810082608093810080918100816080935B
:10290000810080918000816080938000809191009F
:10291000826080939100809191008160809391000A
:10292000809190008160809390008091C1008460CC
:102930008093C1008091C10082608093C10080912A
:10294000C10081608093C1008091C3008160809349
:10295000C3008091C00082608093C0008091C2005B
:1029600081608093C20080917A00846080937A00B5
:1029700080917A00826080937A0080917A008160F1
:1029800080937A0080917A00806880937A00109218
:10299000D6031092C6031092C8038091D7008160BD
:1029A0008093D70080EA8093D80089B5806189BD83
:1029B00089B5826089BD09B400FEFDCF61E070E099
:1029C00080E090E00E9470048091D8008F7C80614C
:1029D0008093D8008091E000807F8093E000809118
:1029E000E1008E7E8093E1008DE08093E200559AB5
:1029F000209AE0918704F091880482E08083E0913E
:102A00008304F09184041082E0918504F09186049F
:102A10008FE3808310928F04E0918B04F0918C04FB
:102A200086E08083E0918904F0918A04808180614E
:102A30008083E0918904F0918A048081886080839A
:102A4000E0918904F0918A04808180688083E0911C
:102A50008904F0918A0480818F7D80831092B40371
:102A60001092B30310922404109223040E944E0586
:102A700083E992E09093B2038093B10384E992E0FA
:102A80009093B0038093AF0361E086E00E941A0444
:102A900048E050E060E870E085EB93E00E94C920D8
:102AA0000E94A50C4090AC015090AD016090AE0129
:102AB00022242394312C10928B0710928C071092B1
:102AC000970710929807109291071092940710920E
:102AD000960710929A0787E794E00E94F30218166F
:102AE00019060CF082C087E794E00E94D102082FFB
:102AF000182FF82E87FD02C00C94801D8093A80724
:102B00008091A9079091AA07892B09F071C181E0F2
:102B100080939C07F7FC59C02091A80780918E07ED
:102B200090E080529F4F28171906D1F481E08093DE
:102B3000910787E794E00E94F302892BD1F387E79E
:102B400094E00E94D1029695982F882797958795B3
:102B500080789F77800F911D9093900780938F07C7
:102B60002091A80780918E0790E080559F4F2817ED
:102B70001906E1F481E0809394070093920787E7B8
:102B800094E00E94F302892BD1F387E794E00E943E
:102B9000D10280939307809192078B3739F410927A
:102BA000AA071092A90781E080939C072091A807AB
:102BB00080918E0790E080539F4F2817190629F4C3
:102BC00081E080939607009395078091A80796E08F
:102BD000980F923008F00FC181E08093970780939F
:102BE0009B073092A7072092A60780918B07882326
:102BF00099F100918D0710918A07E0E28E2EE5E0B1
:102C00009E2E7401D12CC12C70900001A72CB12CE8
:102C1000CA14DB040CF5F70181818111D3C18091C5
:102C20002701853009F0A2C141E0612F80E295E0E3
:102C30000E94960841E0612F80EB95E00E94960883
:102C400041E0612F80E496E00E94960841E0612F08
:102C500080ED96E00E94960880918C07882309F405
:102C600040C040918A078091000190E0E0E2F5E0E9
:102C700030E020E0281739070CF01BC251815523A2
:102C800009F412C2528145130FC2E5EBF3E007E0ED
:102C900010E06781603809F4E2C1809127010B548C
:102CA0001C4F853009F0D1C141E080E295E00E94DF
:102CB000960841E0F801608180EB95E00E9496085B
:102CC00041E0F801608180E496E00E94960841E0CE
:102CD000F801608180ED96E00E94960880E8F80196
:102CE000808380919C07882309F409C28091C003E6
:102CF000813021F460E086E00E94EC038CE797E0ED
:102D00000E9454092091BF032817190609F4E3C152
:102D100080E697E00E9454098C018EE697E00E94BD
:102D200054097C018CE797E00E945409892B09F033
:102D300084C583E0EF2809F096C584E0012B09F4EF
:102D400092C586E0809327018FEF809320058093C2
:102D5000B00581E0809300018CE797E00E94540960
:102D600021E0892B09F420E02093BF038EE697E051
:102D70000E94540921E0892B09F420E02093BE032E
:102D800080E697E00E94540921E0892B09F420E0B5
:102D90002093BD03B4C181E080938C071216130603
:102DA0000CF0D7C621503109D0C680589F4F281744
:102DB000390709F0A5CE87E794E00E94F302892B3A
:102DC000D1F387E794E00E94D10281E080938C07E1
:102DD00000938A078091A9079091AA0718161906EF
:102DE0000CF08ECE01979093AA078093A90788CE06
:102DF00010929C078FCE8C3F31F410929B0781E09C
:102E000080939807F2CE883F49F580919B078823ED
:102E100009F4EBCE8091A6079091A707209199071E
:102E2000009769F431E0309397072150330B8217F4
:102E3000930771F41092A7071092A607D6CE322FEF
:102E40003695381719068CF731E030939807EDCF97
:102E500001969093A7078093A607C7CE803F09F0FD
:102E6000C4CE87E794E00E94F302892BD1F387E771
:102E700094E00E94D1028F37910589F4173F09F43D
:102E8000B4CE87E794E00E94F302892BD1F387E761
:102E900094E00E94D102182F0E944A0AEFCF81E0ED
:102EA00080939A0787E794E00E94F302892BD1F37D
:102EB00087E794E00E94D10280939D07873F09F441
:102EC00094CE87E794E00E94F302892BD1F387E741
:102ED00094E00E94D10280939E07873F09F485CE3B
:102EE00087E794E00E94F302892BD1F387E794E00F
:102EF0000E94D10280939F07873F09F476CE87E72F
:102F000094E00E94F302892BD1F387E794E00E94BA
:102F1000D1028093A007873F09F467CE87E794E04A
:102F20000E94F302892BD1F387E794E00E94D1023B
:102F30008093A107873F09F458CE00E0173F09F4BA
:102F400054CE87E794E00E94F302892BD1F387E700
:102F500094E00E94D102182F873F09F446CEE02F5B
:102F6000F0E0E657F84F808F0F5FE8CF20E92C9D07
:102F7000C0012D9D900D11249C01205E3A4F7901D6
:102F800041E0612FC9010E949608602FC7010E948D
:102F9000690831E0371508F05FCEF12CE12CF4011F
:102FA0008181811105C040E0612FC4010E94960813
:102FB000FFEFEF1AFF0A20E9820E911CEA14FB04CE
:102FC00074F34ACE31E0A31AB108CA14DB0449F500
:102FD000E5EBF3E090E080E02191203849F58B5457
:102FE0009C4FF7012281FC0120838091270141E061
:102FF000612F853011F580E295E00E94960841E04E
:10300000612F80EB95E00E94960841E0612F80E4FB
:1030100096E00E94960841E0612F80ED96E00E94C4
:103020009608FFEFCF1ADF0A20E9E20EF11CECCD83
:1030300001968830910581F6D8CFC7010E94960885
:10304000602FC7010E946908ECCF40E9429FC00190
:10305000439F900D112441E0805E9A4F3DCE015078
:10306000110931970F3F100709F013CE8091270106
:10307000853089F480E295E00E94880880EB95E035
:103080000E94880880E496E00E94880880ED96E01F
:103090000E94880826CE40E9429FC001439F900DC0
:1030A0001124805E9A4FF4CF2F5F3F4FE057FF4FC0
:1030B000E1CDE5EBF3E090E080E02191421306C022
:1030C0008B549C4F20E8FC0120830BCE0196883066
:1030D000910599F706CE8EE697E00E94540920915B
:1030E000BE032817190609F013CE80E697E00E9468
:1030F00054092091BD032817190609F009CE8091C3
:103100009107882379F080912701813019F086306A
:1031100009F0AFC360918F077091900780E295E04E
:103120000E94260880919407882309F458C0909142
:1031300092078091240198130DC080912701982F48
:103140009D7F913009F0E2C36091930780ED96E096
:103150000E94A107909192078091250198130AC0BF
:1031600080912701863031F46091930780E496E0E6
:103170000E94A107909192078091260198130AC09E
:1031800080912701863031F46091930780ED96E0BD
:103190000E94A107809192078B3709F580E8809300
:1031A000BC038093BB038093BA038093B9038093DD
:1031B000B8038093B7038093B6038093B50380E28E
:1031C00095E00E94880880EB95E00E94880880E4E2
:1031D00096E00E94880880ED96E00E948808809121
:1031E0009607882351F080912701813031F4609156
:1031F000950780E496E00E94A107809197078823B5
:1032000029F08091C00361E0882349F080919807FC
:10321000882341F08091C003811104C060E086E002
:103220000E94EC0380919A07882309F421C58091BC
:103230009D07823009F01DC180919E07803409F0FE
:1032400018C18091A0078F3F09F013C180919F079B
:10325000853009F00EC161E086E00E94EC038FEC3E
:1032600092E00E94350A10E000E060E0C8010E9490
:10327000501E0F5F1F4F0115F4E01F07B1F788E7DD
:10328000E4E3F1E0DE01119601900D928A95E1F7F9
:1032900080E2EFEAF1E0DE01A758BF4F01900D9206
:1032A0008A95E1F7C756DF4F488259826A82C95929
:1032B000D04082E0C256DF4F8883CE59D040C156FD
:1032C000DF4F8883CF59D040CD55DF4F1882C35A86
:1032D000D040CE55DF4F1882C25AD04084E2CF553D
:1032E000DF4F8883C15AD04088E1C056DF4F8883C2
:1032F000C05AD040BE016E557F4F90E080E00E94E2
:103300005D0CBE016F557F4F81E090E00E945D0C27
:10331000CE0187589F4F0E948C0BBE016F5F7F4F7D
:1033200082E490E00E942A0CBE016F5F7F4F8AEB1F
:1033300090E00E942A0CBE016F5F7F4F82E391E014
:103340000E942A0CBE016F5F7F4F8AEA91E00E94C3
:103350002A0CCE0187569F4F0E94B50BCE01825694
:103360009F4F0E94DF0BBE016D557F4F87E292E0B9
:103370000E945D0CC456DF4F39822882CC59D04060
:10338000BE0164567F4F88E292E00E94030C22E067
:1033900030E0C456DF4F39832883CC59D040BE017A
:1033A00064567F4F89E292E00E94030C83E090E034
:1033B000C456DF4F99838883CC59D040BE016456F0
:1033C0007F4F8AE292E00E94030CBE0160567F4F5D
:1033D0008BE292E00E945D0CC456DF4F1982188286
:1033E000CC59D040BE0164567F4F8CE292E00E94DF
:1033F000030CC456DF4F19821882CC59D040BE014D
:1034000064567F4F8DE292E00E94030CC456DF4F5A
:1034100019821882CC59D040BE0164567F4F8EE28B
:1034200092E00E94030CC456DF4F19821882CC59D7
:10343000D040BE0164567F4F8FE292E00E94030CA1
:10344000C456DF4F19821882CC59D040BE01645651
:103450007F4F80E392E00E94030C64EF71E080E014
:1034600090E00E94700460E086E00E94EC030E94FD
:10347000A50C80919D07823071F580919E07803464
:1034800051F58091A0078F3131F580919F078530EC
:1034900011F561E086E00E94EC038091A207809321
:1034A0008E076EE877E090E080E00E945D0C8EE38E
:1034B00092E00E94330A80918E0790E001960E946C
:1034C000280B64EF71E080E090E00E94700460E0FF
:1034D00086E00E94EC0380919D07823091F58091F7
:1034E0009E07803471F58091A007803251F580915C
:1034F0009F07853031F561E086E00E94EC03809102
:10350000A207809323058093B3058093430680939D
:10351000D30663E275E081E090E00E945D0C88E4F0
:1035200092E00E94330A809123050E944A0A64EFC8
:1035300071E080E090E00E94700460E086E00E940C
:10354000EC0380919D07823009F07FC080919E0737
:10355000803409F07AC08091A007853109F075C0E8
:1035600080919F07853009F070C061E086E00E947D
:10357000EC030091A10798E0099F800111240C5FE2
:103580001E4F6091A307E0E86E9FC0011124609177
:10359000A207680F792F711D072E000C880B990B5D
:1035A0000E947A1F20E030E04AE754E40E945E1E49
:1035B000F801608371838283938384E091E00E94A9
:1035C0008C0B2091A10730E010E9129FC001139FDE
:1035D000900D1124805E9A4FDC01AC57BF4F73E011
:1035E000220F331F7A95E1F7F901EC5FFE4F40811E
:1035F0005181628173814D935D936D937C93139799
:103600000E941E078AED92E00E94330A8091A10772
:103610000E944A0A80E792E00E94330AE091A107E3
:103620001E9FF0011124EC55FA4F60817181828157
:1036300093810E946A0A64EF71E080E090E00E944A
:10364000700460E086E00E94EC0380919D07823068
:1036500009F07FC080919E07803409F07AC0809184
:10366000A007863109F075C080919F07853009F069
:1036700070C061E086E00E94EC030091A107F8E0D1
:103680000F9F800111240C5F1E4F6091A30720E85B
:10369000629FC00111246091A207680F792F711DEC
:1036A000072E000C880B990B0E947A1F20E030E453
:1036B0004CE156E40E94D01EF80164837583868332
:1036C000978384E091E00E948C0B2091A10730E069
:1036D00010E9129FC001139F900D1124805E9A4F34
:1036E000DC01A857BF4F63E0220F331F6A95E1F753
:1036F000F901EC5FFE4F44815581668177814D93DE
:103700005D936D937C9313970E941E078AED92E060
:103710000E94330A8091A1070E944A0A8CE792E036
:103720000E94330AE091A1071E9FF0011124E85581
:10373000FA4F60817181828193810E946A0A64EFED
:1037400071E080E090E00E94700460E086E00E94FA
:10375000EC0380919D07823009F009C180919E079A
:10376000803449F58091A007873109F0F6C1809136
:103770009F07853001F58091A107E0918A07F0E964
:103780008F9FD0011124A05EBA4F13969C91E91B24
:10379000FF0B28E4829FE00DF11D1124EE0FFF1FA7
:1037A000E45DFA4F808191812091A2072111B6C07A
:1037B00001979183808380919E07803409F0DCC05B
:1037C0008091A0078D3109F0D7C080919F07853087
:1037D00009F0D2C061E086E00E94EC03E091A1070D
:1037E000F0E0EC5DFE4F8091A207808384E291E0DF
:1037F0000E94B50B8CE292E00E94330A8091240172
:103800000E944A0A82E392E00E94330A80912501D5
:103810000E944A0A88E392E00E94330A80912601BE
:103820000E944A0A64EF71E080E090E00E94700418
:1038300060E086E00E94EC039FC0EF2849F081E041
:1038400080932701809320059FEF9093B00582CA53
:1038500085E0012B09F076CA82E0809327018093EE
:10386000200593E0F2CF809327019FEF90932005EE
:10387000ECCF823079F460918F077091900780E2ED
:1038800095E00E94260860918F077091900780EB69
:1038900095E046CC8330B9F460918F077091900722
:1038A00080E295E00E94260860918F077091900752
:1038B00080EB95E00E94260860918F077091900739
:1038C00080E496E02DCC8450823008F02BCC6091BF
:1038D0008F077091900780E295E00E942608609122
:1038E0008F077091900780EB95E00E942608609109
:1038F0008F077091900780E496E00E9426086091FF
:103900008F077091900780ED96E00ACC863009F021
:1039100021CC6091930780EB95E01ACC019649CFBA
:10392000813029F46CEB75E08AEB90E026C182309F
:1039300029F46CE476E082E391E01FC1833009F062
:103940001EC16CED76E08AEA91E017C187010A3367
:10395000110509F02AC18AED92E00E94330A809194
:10396000A1070E94430A85E093E00E94350A8091F6
:103970009D07823009F41FCF80919D078230E1F5C9
:1039800080919E078034C1F58091A0078E31A1F50A
:1039900080919F07853081F561E086E00E94EC030D
:1039A000E091A107F0E0EE5FFE4F8091A2078083D7
:1039B00082E091E00E94DF0B8091A10781118FC00E
:1039C00080910201809324058093B405809344067E
:1039D0008093D4068AE193E00E94330A8091020129
:1039E0000E944A0A64EF71E080E090E00E94700457
:1039F00060E086E00E94EC0380919D078230B1F583
:103A000080919E07803491F58091A007813271F5F5
:103A100080919F07853051F561E086E00E94EC03BC
:103A20008091A1078093C00360EC73E087E292E08D
:103A30000E945D0C8091C0038093AC0580933C068E
:103A40008093CC0680935C078BE592E00E94330A5A
:103A50008091C0030E944A0A64EF71E080E090E028
:103A60000E94700460E086E00E94EC0380919D0754
:103A7000823009F0FDC080919E07803409F0F8C0C3
:103A80008091A007823209F0F3C080919F078530B2
:103A900009F0EEC061E086E00E94EC038091A1078E
:103AA0008093010161E071E08BE292E00E945D0C85
:103AB00080910101809399078AE393E00E94330A81
:103AC000809101010E944A0A64EF71E080E090E079
:103AD0000E94700460E086E00E94EC03C9C08091FF
:103AE0000301809325058093B50580934506809357
:103AF000D50689E293E00E94330A8091030170CFDA
:103B00002091A80730E080918E0790E0AC014057EB
:103B10005F4F2417350709F048C987E794E00E94F2
:103B2000F302892BD1F387E794E00E94D1028093BE
:103B30008D072091A9073091AA07882309F42BC982
:103B400081E080938B072F5F3F4F3093AA0720932C
:103B5000A90700938A070C948015883109F02BCEB1
:103B600080919F07853009F026CE8091A1078111B1
:103B7000D7CE6CE275E082E490E00E942A0C8AEDD8
:103B800092E00E94330A8091A1070E94430A82EECC
:103B900092E00E94350AE091A10730E9E39FF0012D
:103BA0001124E45DFA4F01E010E082819381680105
:103BB00021E0C21AD10878013FEFE31AF30A20810D
:103BC000318132968217930730F022813381281792
:103BD000390708F0BBCE89EE92E00E94330AE091EB
:103BE000A10780E9E89FF0011124E05EFA4F83818C
:103BF000800F912F911D0E94280B8091A10798E4BE
:103C0000B92EF601B89EE00DF11D1124EE0FFF1F35
:103C1000E45DFA4F808191810E94580A8091A1074A
:103C2000F801B89EE00DF11D1124EE0FFF1FE45DB9
:103C3000FA4F808191810E94580A8091A107F70173
:103C4000B89EE00DF11D1124EE0FFF1FE45DFA4F49
:103C5000808191810E94580A8AED92E00E94330A85
:103C60008091A1070E94430A80EF92E00E94350AEA
:103C700080E090E0892B11F40C945B150E94FF0208
:103C8000882311F40C9458150E9400000C945815C8
:103C9000F999FECF92BD81BDF89A992780B5089514
:103CA000262FF999FECF1FBA92BD81BD20BD0FB658
:103CB000F894FA9AF99A0FBE019608955058BB27C6
:103CC000AA270E94761E0C94F01F0E94E21F38F073
:103CD0000E94E91F20F039F49F3F19F426F40C9458
:103CE000DF1F0EF4E095E7FB0C94D91FE92F0E942B
:103CF000012058F3BA17620773078407950720F06D
:103D000079F4A6F50C9423200EF4E0950B2EBA2F2F
:103D1000A02D0B01B90190010C01CA01A0011124D1
:103D2000FF27591B99F0593F50F4503E68F11A167D
:103D3000F040A22F232F342F4427585FF3CF46950E
:103D400037952795A795F0405395C9F77EF41F1630
:103D5000BA0B620B730B840BBAF09150A1F0FF0FFA
:103D6000BB1F661F771F881FC2F70EC0BA0F621FE6
:103D7000731F841F48F4879577956795B795F795D6
:103D80009E3F08F0B0CF9395880F08F09927EE0F6B
:103D90009795879508950E94B51F08F481E00895CE
:103DA0000E94E41E0C94F01F0E94E91F58F00E942C
:103DB000E21F40F029F45F3F29F00C94D91F511104
:103DC0000C9424200C94DF1F0E94012068F3992397
:103DD000B1F3552391F3951B550BBB27AA27621707
:103DE0007307840738F09F5F5F4F220F331F441F14
:103DF000AA1FA9F335D00E2E3AF0E0E832D0915048
:103E00005040E695001CCAF72BD0FE2F29D0660F34
:103E1000771F881FBB1F261737074807AB07B0E877
:103E200009F0BB0B802DBF01FF2793585F4F3AF07D
:103E30009E3F510578F00C94D91F0C9424205F3FCD
:103E4000E4F3983ED4F3869577956795B795F79503
:103E50009F5FC9F7880F911D9695879597F90895EB
:103E6000E1E0660F771F881FBB1F62177307840787
:103E7000BA0720F0621B730B840BBA0BEE1F88F796
:103E8000E09508950E94491F6894B1110C94242074
:103E900008950E94092088F09F5798F0B92F99271C
:103EA000B751B0F0E1F0660F771F881F991F1AF025
:103EB000BA95C9F714C0B13091F00E942320B1E047
:103EC00008950C942320672F782F8827B85F39F046
:103ED000B93FCCF3869577956795B395D9F73EF4BE
:103EE00090958095709561957F4F8F4F9F4F089566
:103EF000E89409C097FB3EF4909580957095619584
:103F00007F4F8F4F9F4F9923A9F0F92F96E9BB2739
:103F10009395F695879577956795B795F111F8CFB5
:103F2000FAF4BB0F11F460FF1BC06F5F7F4F8F4F20
:103F30009F4F16C0882311F096E911C0772321F016
:103F40009EE8872F762F05C0662371F096E8862FAE
:103F500070E060E02AF09A95660F771F881FDAF705
:103F6000880F9695879597F90895990F0008550F32
:103F7000AA0BE0E8FEEF16161706E807F907C0F0EF
:103F800012161306E407F50798F0621B730B840BF7
:103F9000950B39F40A2661F0232B242B252B21F4D1
:103FA00008950A2609F4A140A6958FEF811D811D71
:103FB000089597F99F6780E870E060E008959FEFAB
:103FC00080EC089500240A941616170618060906B0
:103FD000089500240A94121613061406050608957F
:103FE000092E0394000C11F4882352F0BB0F40F407
:103FF000BF2B11F460FF04C06F5F7F4F8F4F9F4F47
:10400000089557FD9058440F551F59F05F3F71F0C8
:104010004795880F97FB991F61F09F3F79F087952F
:104020000895121613061406551FF2CF4695F1DFB8
:1040300008C0161617061806991FF1CF8695710548
:10404000610508940895E894BB2766277727CB017C
:1040500097F908950E94B51F08F48FEF08950E9404
:1040600042200C94F01F0E94E21F38F00E94E91FCA
:1040700020F0952311F00C94D91F0C94DF1F11240C
:104080000C9424200E94012070F3959FC1F3950F9A
:1040900050E0551F629FF001729FBB27F00DB11DCC
:1040A000639FAA27F00DB11DAA1F649F6627B00D5C
:1040B000A11D661F829F2227B00DA11D621F739F45
:1040C000B00DA11D621F839FA00D611D221F749F53
:1040D0003327A00D611D231F849F600D211D822F9A
:1040E000762F6A2F11249F5750409AF0F1F08823C1
:1040F0004AF0EE0FFF1FBB1F661F771F881F9150EE
:104100005040A9F79E3F510580F00C94D91F0C94A4
:1041100024205F3FE4F3983ED4F386957795679526
:10412000B795F795E7959F5FC1F7FE2B880F911D17
:104130009695879597F908950E94B51F880B990B5E
:104140000895A1E21A2EAA1BBB1BFD010DC0AA1FD8
:10415000BB1FEE1FFF1FA217B307E407F50720F0F0
:10416000A21BB30BE40BF50B661F771F881F991F6B
:104170001A9469F760957095809590959B01AC01B4
:10418000BD01CF010895EE0FFF1F0590F491E02DC2
:104190000994DC0101C06D9341505040E0F708954F
:0441A000F894FFCFC1
:1041A40004180202000000000000803F000000002C
:1041B4000000803F000000000000803F000000007D
:1041C4000000803F01474A04FFFFFFFF00E10000B9
:1041D40000000000000044008900CD0011015501D9
:1041E4009A01DE0122026602AB02EF023303770377
:1041F400BC03000444048804CD0411055505990545
:10420400DE0522066606AA06EF0633077707BB0714
:10421400000844088808CC08110955099909DD09E2
:10422400220A660AAA0AEE0A330B770BBB0BFF0BB2
:10423400440C880CCC0C100D550D990DDD0D210E80
:10424400660EAA0EEE0E320F770FBB0F01474A001F
:104254000000000000803F000000000000803F00DC
:104264000000000000803F000000000000803F00CC
:10427400C18081000000000000004D01A2046E0115
:104284006301B4017201900100000000340395023F
:10429400C2028003F302D102E50200000000E4053B
:1042A400B7051B078D05B0059D058E050D0A006E2B
:1042B400616E00696E66006F7666004D616E7566AC
:1042C4006163747572657249443A20004343313A1C
:1042D40020004343323A20004343333A20004368EA
:1042E400616E6E656C3A20004C6F77657374204D77
:1042F400696469204E6F74653A20004F72204761EB
:10430400746520456E61626C65643A200056302005
:104314004F66667365743A20005630204761696EB3
:104324003A20005631204F66667365743A20005671
:1043340031204761696E3A20005632204F66667319
:1043440065743A20005632204761696E3A2000565F
:1043540033204F66667365743A20005633204761F4
:10436400696E3A20004D6964694E756D3A200053B8
:10437400657420454550524F4D00566F6963653A48
:104384002000205361766564004D6964693A200019
:1043940020566572696669636174696F6E2046614F
:1043A400696C656400205665726966696361746945
:1043B4006F6E205061737365640050697463684262
:1043C400656E642055703A200050697463684265D4
:1043D4006E6420446F776E3A20007070716E3A20DC
:0243E4000000D7
:00000001FF
