:100000000C94D4000C94FC000C94FC000C94FC00A8
:100010000C94FC000C94FC000C94FC000C94FC0070
:100020000C94FC000C94FC000C94710F0C94E00FE9
:100030000C94FC000C94FC000C94FC000C94FC0050
:100040000C94FC000C94FC000C94FC000C94FC0040
:100050000C94FC000C94FC000C94FC000C946A12B0
:100060000C94FC000C9438120C9412120C94FC00AA
:100070000C94FC000C94FC000C94FC000C94FC0010
:100080000C94FC000C94FC000C94FC000C94FC0000
:100090000C94B4120C94FC000C94FC000C94FC0026
:1000A0000C94FC000C94FC000C94FC00000000007C
:1000B0002300260029002C002F000000000024004F
:1000C00027002A002D003000000000002500280035
:1000D0002B002E0031000404040404030405020272
:1000E00002020403020202020606060606060404D1
:1000F0000202020404040802011040804010204063
:10010000804080080204018040201002011080100D
:10011000204040200000000200090F0000030401FD
:10012000000C0000000000000000000000000000C3
:10013000000000080B000202020000090400000198
:10014000020200000524001001052401010104241D
:10015000020605240600010705810310004009047A
:100160000100020A00000007050202400000070526
:1001700083024000000403090412010002EF02019F
:1001800040D80498E8000101020301556E6B6E6FC0
:10019000776E004D696469566F6C747320446573A3
:1001A0006B746F700000181411241FBECFEFDAE0DB
:1001B000DEBFCDBF13E0A0E0B1E0EEE5F4E402C0A5
:1001C00005900D92A835B107D9F727E0A8E5B3E06F
:1001D00001C01D92A43DB207E1F710E0C4EDD0E0EC
:1001E00004C02197FE010E942022C33DD107C9F718
:1001F0000E941A150C942D220C94000096E0980F82
:10020000923060F481E08093B0078093B40781E07E
:1002100090E09093C0078093BF0708958C3F31F41E
:100220001092B40781E08093B1070895883FA9F741
:100230008091B407882389F38091BF079091C0070C
:100240002091B207009769F431E03093B007215054
:10025000330B8217930771F41092C0071092BF07F7
:100260000895322F3695381719068CF731E0309300
:10027000B107EDCF0196CDCFFC018091EF0388232C
:1002800011F13FB7F89482E08093E9002091F200E9
:10029000822F90E01816190614F481E090E088236C
:1002A00039F0289844E64093EE034091F1004083F2
:1002B000222339F02091F200211103C02BE6209374
:1002C000E8003FBF08958FEF9FEF08952FB7F89490
:1002D00083E08093E9009091E800892F807295FF78
:1002E00004C09091F20080E4891B2FBF0895809193
:1002F000E60381110DC082E08093E20384E08093E5
:10030000E3031092E5031092E40381E08093E60397
:1003100082EE93E00895CF93DF931F92CDB7DEB7BF
:100320006983DC01ED91FC910280F381E02D41E0D5
:1003300050E0BE016F5F7F4F09950F90DF91CF9125
:10034000089583E08093E9008091F200882319F0FA
:100350008AE38093E80008950E94660190E0089582
:10036000CF93DF931F92CDB7DEB7FC0184859585CF
:1003700097FD08C02FEF3FEF358724870F90DF915F
:10038000CF910895CE0101960E943C01019719F486
:10039000898190E0F3CF8FEF9FEFF0CF0F931F9302
:1003A000CF93DF931F92CDB7DEB78C01FC0184851C
:1003B000958597FF0BC0CE0101960E943C010197E5
:1003C00071F4898190E0F80195878487F80184852C
:1003D00095850F90DF91CF911F910F9108958FEF29
:1003E0009FEFF1CFFC018485958597FD0BC09FB7EA
:1003F000F89482E08093E9008091F2009FBF90E042
:10040000019608959FB7F89482E08093E900809167
:10041000F2009FBF90E008954091DC035091DD030E
:100420002091DA033091DB0342175307B4F4909123
:10043000E8009570E1F39091E80092FD19C0809377
:10044000F1008091DC039091DD0301968F73992771
:10045000892B19F48EEF8093E8008091DC03909152
:10046000DD0301969093DD038093DC0381E0089522
:1004700080E00895EF92FF920F931F93CF93DF9345
:10048000F82E192FE62E042F81E0860F880F0E9488
:100490000C0283E00E940C02CF2DD12FEC0EFD2E1A
:1004A000F11CCE15DF05B9F007FF13C0FE018491E2
:1004B0000E940C02182F80E00E940C0281232196DA
:1004C0008111EFCFDF91CF911F910F91FF90EF90AE
:1004D00008958881EDCF81E0F5CFDF92EF92FF9212
:1004E0000F931F93CF93DF93D82E8A01EB017B01EB
:1004F000E40EF51ECE15DF0559F0D7FE12C0FE0141
:1005000084910E940C0221968111F4CF0FEF1FEF0E
:10051000C801DF91CF911F910F91FF90EF90DF9075
:1005200008958881EECF0F931F93CF93DF931F928F
:10053000CDB7DEB782E0898342E450E063E371E047
:1005400080E80E946D020E947701DC0112960D91F5
:100550001C910115110589F0D801ED91FC910280E3
:10056000F381E02DBE016F5F7F4FC801099597FDB4
:1005700004C0F80100851185ECCF89810F90DF91CF
:10058000CF911F910F910895615030F02091F100AB
:10059000FC0120830196F8CF289884E68093EE032F
:1005A000089508950895AF92BF92CF92DF92EF928F
:1005B000FF920F931F93CF93DF936C017B018B010D
:1005C000040F151FEB015E01AE18BF08C017D1075D
:1005D00059F06991D601ED91FC910190F081E02DE7
:1005E000C6010995892B79F7C501DF91CF911F913C
:1005F0000F91FF90EF90DF90CF90BF90AF90089554
:10060000FC01538D448D252F30E0842F90E0821B18
:10061000930B541710F0CF96089501970895FC019D
:10062000918D828D981761F0A28DAE0FBF2FB11DF5
:100630005D968C91928D9F5F9F73928F90E008954D
:100640008FEF9FEF0895FC01918D828D981731F007
:10065000828DE80FF11D858D90E008958FEF9FEF5B
:100660000895FC01918D228D892F90E0805C9F4F31
:10067000821B91098F739927089580E994E00E9465
:100680003103892BD1F380E994E00E943103892B57
:10069000D1F380E994E00E940F03883F18F00E9494
:1006A000FE00F1CF089580E994E00E94310321E03B
:1006B000892B09F420E0822F089580E090E0892BB7
:1006C00029F00E94530381110C9400000895FC014D
:1006D000A48DA80FB92FB11DA35ABF4F2C91848DA3
:1006E00090E001968F739927848FA689B7892C9300
:1006F000A089B1898C9182748C93938D848D981389
:1007000006C00288F389E02D80818F7D8083089563
:10071000EF92FF920F931F93CF93DF93EC0181E051
:10072000888F9B8D8C8D981319C0E889F9898081F9
:1007300085FF14C09FB7F894EE89FF896083E8892C
:10074000F9898081827480839FBF81E090E0DF918E
:10075000CF911F910F91FF90EF900895F62E0B8D82
:1007600010E00F5F1F4F0F731127E02E8C8D8E113D
:100770000CC00FB607FCFACFE889F989808185FFA4
:10078000F5CFCE010E946703F1CFEB8DEC0FFD2F6B
:10079000F11DE35AFF4FF0829FB7F8940B8FEA895F
:1007A000FB8980818062CFCFCF93DF93EC01888D6E
:1007B0008823B9F0AA89BB89E889F9898C9185FDDC
:1007C00003C0808186FD0DC00FB607FCF7CF8C916A
:1007D00085FFF2CF808185FFEDCFCE010E946703B8
:1007E000E9CFDF91CF91089581508F3008F047C055
:1007F000E82FF0E0E250FC4F0C9420221B041F0471
:100800000D04130417043F043F043F04220428048A
:100810002C04300436043F043A04809180008F7722
:10082000809380000895809180008F7DF9CF809122
:100830008000877FF5CF84B58F7784BD089584B518
:100840008F7DFBCF809190008F77809390000895EB
:10085000809190008F7DF9CF80919000877FF5CFB8
:100860008091C0008F778093C00008958091C00070
:100870008F7DF9CF8091C200877F8093C200089559
:100880001F93CF93DF93282F30E0F901EC5EFE4FEA
:100890008491F901EB50FF4FD491F901EA52FF4FD7
:1008A000C491CC23A9F0162F81110E94F403EC2FE0
:1008B000F0E0EE0FFF1FE853FF4FA591B4918FB703
:1008C000F894EC91111108C0D095DE23DC938FBF12
:1008D000DF91CF911F910895DE2BF8CFCF93DF9357
:1008E00090E0FC01EB50FF4F24918A529F4FFC0196
:1008F00084918823D1F090E0880F991FFC01E65481
:10090000FF4FA591B491FC01E853FF4FC591D491DD
:1009100061110EC09FB7F8948C91E22FE0958E2361
:100920008C932881E223E8839FBFDF91CF910895C4
:100930008FB7F894EC91E22BEC938FBFF6CF3FB7D3
:10094000F8948091C1039091C203A091C303B09128
:10095000C40326B5A89B05C02F3F19F00196A11D21
:10096000B11D3FBFBA2FA92F982F8827BC01CD01F9
:10097000620F711D811D911D42E0660F771F881F58
:10098000991F4A95D1F708958F929F92AF92BF9287
:10099000CF92DF92EF92FF924B015C010E949F0485
:1009A0006B017C010E949F046C197D098E099F09CF
:1009B000683E734081059105A8F321E0821A9108F1
:1009C000A108B10888EEC80E83E0D81EE11CF11C16
:1009D00081149104A104B10429F7FF90EF90DF90F6
:1009E000CF90BF90AF909F908F9008958F929F92DD
:1009F000AF92BF92CF92DF92EF92FF920F931F932D
:100A0000CF93DF936C017B018A01809133018823AE
:100A100009F45CC08091EF03882309F457C08091EA
:100A2000E10380FF05C08091E00082608093E000D8
:100A3000E801B12C8AEFA82E93E0892E2AE3922EAA
:100A4000209711F4BB20D9F10E94660181110AC0E0
:100A5000AA94AA20D9F161E070E080E090E00E94C1
:100A6000C404EECF8C171D0611F00CF08C2F9FB72D
:100A7000F8948092E9002091E80025FD02C09FBF14
:100A8000DFCF282F30E0C21BD30BF701815020F0BD
:100A900041914093F100FACFE20EF31EBB2021F00A
:100AA0009092E800B12CEBCF8091E80085FDE7CF74
:100AB0009092E800BB24B394209709F3F3CF5D989C
:100AC00084E68093E003101611063CF081E090E08C
:100AD000F6019383828310E000E0C801DF91CF919B
:100AE0001F910F91FF90EF90DF90CF90BF90AF904C
:100AF0009F908F90089520919903260F3327331FDD
:100B000021323105ECF420911604FC0190E080E0E4
:100B1000243069F082E00895A09199032191AC01FD
:100B200047585C4FA40FB52FB11D2C930196861723
:100B300098F380919903680F6093990380E008957A
:100B400081E008951092160481E0809315041092BC
:100B5000F00361E082E00E94400461E083E00E94D3
:100B60004004E9EBF0E080818E7F808380818D7F7F
:100B7000808388E48093B80085E48093BC00089566
:100B8000CF93DF9391E0909378038823B9F0C091DD
:100B9000B800D091BA008091BC008A7B8093BC00E1
:100BA00060E082E00E94400460E083E00E94400434
:100BB0000E94A205D093BA00C093B800DF91CF91F4
:100BC00008950895E091CA038091C903E81730F4AD
:100BD000F0E0E85AFC4F808190E008958FEF9FEF9E
:100BE00008959091CA038091C9032FEF3FEF9817A2
:100BF00048F4E92FF0E0E85AFC4F208130E09F5F95
:100C00009093CA03C90108958091C9039091CA03C2
:100C1000891B990B0895CF92DF92EF92FF920F9369
:100C20001F93CF93DF937C01CB018A0120913F0476
:100C3000222389F0EB016B01C40ED51ECC15DD0516
:100C400069F06991D701ED91FC910190F081E02D5F
:100C5000C7010995F3CF642F0E947B05C801DF917E
:100C6000CF911F910F91FF90EF90DF90CF9008955B
:100C7000CF93DF931F92CDB7DEB7698320913F04F6
:100C80002223F9F020913C04203258F021E030E09A
:100C9000FC013383228390E080E00F90DF91CF91BD
:100CA000089580913D04E82FF0E0E45EFB4F9981C8
:100CB00090838F5F80933D0480933C0481E090E0BB
:100CC000ECCF61E0CE0101960E947B05F7CF682F43
:100CD0008DE295E00C943806CF92DF92EF92FF926E
:100CE0000F931F93CF93C82F192F81E080933F0458
:100CF00080E680933E0410923D0410923C046130E3
:100D000009F489C008F482C0623009F487C06330F6
:100D100009F487C0612F8DE295E00E9438066C2FA0
:100D20008DE295E00E943806C0913C04C13208F083
:100D3000A0C00E949F046B017C0180911604811168
:100D400073C082E08093160481E0809315048FEFD6
:100D50008093140410921304C0931204ACE1B4E025
:100D6000E2EFF3E080E0C81392C01092F1038091AB
:100D7000F103806C8093F1038091F003813009F0DE
:100D80008AC01092F0030E949F046B017C01809145
:100D9000F1038093BB008091180490911904A091F5
:100DA0001A04B0911B04892B8A2B8B2BA1F00E9473
:100DB0009F04009118041091190420911A04309195
:100DC0001B046C197D098E099F0906171707280750
:100DD000390708F44AC08091BC0083FDD8CF85EC68
:100DE0008093BC000E949F046B017C0180911604DB
:100DF000823009F452C0809114048F3FD1F1809168
:100E000014048032B1F18091140433C080E490E086
:100E10000E9467067FCF82E490E0FACF84E490E0FE
:100E2000F7CF86E490E0F4CF8091180490911904F4
:100E3000A0911A04B0911B04892B8A2B8B2B09F4E7
:100E40007CCF0E949F0400911804109119042091F6
:100E50001A0430911B046C197D098E099F0906172D
:100E600017072807390708F068CF809117040E94F8
:100E7000C00510923D0410923C0410923F04CF91A3
:100E80001F910F91FF90EF90DF90CF9008959D916B
:100E900091938F5F68CF85EEA3CF809118049091D6
:100EA0001904A0911A04B0911B04892B8A2B8B2B57
:100EB00009F49CCF0E949F0400911804109119041A
:100EC00020911A0430911B046C197D098E099F0929
:100ED000061717072807390708F088CFC6CF90E014
:100EE00080E008952F923F924F925F926F927F928F
:100EF0008F929F92AF92BF92CF92DF92EF92FF922A
:100F00000F931F93CF93DF93EC01FC01EC57FF4F3E
:100F100080809180A280B38034964080518062802E
:100F2000738020E030E0A901C501B4010E941C20BB
:100F300081110AC020E030E040E85FE3C301B20164
:100F40000E941C20882389F11E0188E7280E311C8D
:100F50000FEF1FE06C857D8590E080E00E94C92046
:100F6000A30192010E948021A50194010E94B01F5B
:100F70006B017C0120E030E0A9010E947B2120E090
:100F800030E040E05FE387FD23C0C701B6010E9467
:100F9000B01F0E949320611580E17807F0F47D87EF
:100FA0006C8722962C163D06A9F6DF91CF911F91F2
:100FB0000F91FF90EF90DF90CF90BF90AF909F90F8
:100FC0008F907F906F905F904F903F902F900895FB
:100FD000C701B6010E94AF1FDCCF77FF03C01D869B
:100FE0001C86DFCF1D870C87DCCFCF93DF93EC010E
:100FF000C257DF4F70E090E080E00E94C92020E0FF
:1010000030EF4FE755E40E94802120E030E04EEFC2
:1010100052E40E9421200E949A20CB016881DF9136
:10102000CF910C946C06CF92DF92EF92FF92CF9308
:10103000DF93EC016E817F81613080E27807C8F137
:1010400090E080E00E94C92020E030E040E056E4DB
:101050000E94AF1F20E038EF4FEF55E40E9421209F
:101060006B017C016885798590E080E00E94C92051
:101070009B01AC01C701B6010E9480216B017C017C
:1010800020E030E0A9010E947B2120E030E040E038
:101090005FE387FD27C0C701B6010E94B01F0E9411
:1010A0009320CB01DF91CF91FF90EF90DF90CF9015
:1010B0000895611580E27807D1F090E080E00E9409
:1010C000C92020E030E040E056E40E94AF1F20E05D
:1010D00030E040E059E30E9480216B017C016A8589
:1010E0007B85C2CFC701B6010E94AF1FD8CF70E089
:1010F00060E0D7CFEF92FF920F931F93CF93DF93D0
:10110000FC0177836683C281E380CE1578F1F12CF0
:10111000D0E0C701CB968C179D0744F18F01CF011A
:101120000E941308CE19DF092696CC0FDD1FC00FD1
:10113000D11F28813981280F391FF801EE57FF4F41
:1011400080819181821793072CF0C90137FF02C07B
:1011500090E080E0F801E257FF4F6081DF91CF918E
:101160001F910F91FF90EF900C946C06DF91CF913F
:101170001F910F91FF90EF900895CF93FC01C081D4
:10118000CF3FC1F070E090E080E00E94C92020E0F5
:1011900030EF4FE755E40E94802120E030E04EEF31
:1011A00052E40E9421200E949A20CB016C2FCF9103
:1011B0000C946C06CF910895CF93DF93EC01FC0162
:1011C000E357FF4F60E080810E9440041982DF9165
:1011D000CF910895AF92BF92DF92EF92FF920F935B
:1011E0001F93CF93DF93EC01D42EAB806A1508F4E4
:1011F0009DC0B12C9501255C3F4F062F10E02017B4
:1012000031070CF493C06A836C8170E0C801860FCB
:10121000971FF801EA19FB093696EE0FFF1FEC0F36
:10122000FD1FE080F180281739070CF060C0072E01
:10123000000C880B990B0E94CB2020E030E848E896
:1012400052E40E9480210E949A20798768876D81EC
:1012500070E0061B170B0A151B050CF057C0072E74
:10126000000C880B990B0E94CB2020E030E848E866
:1012700052E40E9480210E949A207B876A87CE01D7
:101280000E941308E80EF91EFE01EE57FF4F808101
:1012900091818E159F052CF0C701F7FE02C090E0EA
:1012A00080E0FE01E257FF4F60810E946C06DD2066
:1012B00049F061E0FE01E357FF4F80810E94400446
:1012C00081E08983FE01E457FF4F80818130B1F5D1
:1012D000C157DF4F61E08881DF91CF911F910F915E
:1012E000FF90EF90DF90BF90AF900C944004FC0112
:1012F000EA19FB093696EE0FFF1FEC0FFD1F8081E8
:1013000091818E199F0999878887A1CFF801EA19E1
:10131000FB093696EE0FFF1FEC0FFD1F80819181B8
:101320009701281B390B3B872A87A9CFFE01E3577A
:10133000FF4F60E080810E9440041982DF91CF91CD
:101340001F910F91FF90EF90DF90BF90AF900895A5
:101350000F931F93CF93DF93EC01288139813327BB
:10136000F901EC5EFE4F8491F901EB50FF4F0491BF
:10137000F901EA52FF4F1491112309F453C081116E
:101380000E94F403E12FF0E0EE0FFF1FE455FF4F42
:10139000A591B491EC910E2331E020E009F430E006
:1013A000832F922F2A813B812817390779F02FB795
:1013B000F8944091BD035091BE036091BF037091BA
:1013C000C0032FBF4E835F83688779872FB7F89458
:1013D0004091BD035091BE036091BF037091C00363
:1013E0002FBF0E811F8128853985401B510B620B51
:1013F000730B0A851B852C853D8504171507260769
:10140000370738F42C813D812817390711F09D8367
:101410008C839B838A838C819D81DF91CF911F91E7
:101420000F91089590E080E0BDCFFC010190002075
:10143000E9F73197AF01481B590BBC0180E994E0F3
:101440000C94D3028F929F92AF92BF920F931F93EF
:10145000CF93DF93CDB7DEB7A1970FB6F894DEBF79
:101460000FBECDBF19A2423008F44AE08E010F5DD5
:101470001F4F842E912CB12CA12CA50194010E9408
:10148000FE21E62FB901CA01EA30F4F4E05DD8018B
:10149000EE938D01232B242B252B79F790E080E010
:1014A000109719F0CD010E94150AA1960FB6F89475
:1014B000DEBF0FBECDBFDF91CF911F910F91BF90C7
:1014C000AF909F908F900895E95CE1CFCF92DF922B
:1014D000EF92FF92CF93DF936B017C016DE280E985
:1014E00094E00E948803EC0166277727CB016C19F2
:1014F0007D098E099F094AE00E94220A8C0F9D1FD8
:10150000DF91CF91FF90EF90DF90CF9008950C94F2
:10151000150ACF93DF930E94150AEC018CE092E04C
:101520000E94150A8C0F9D1FDF91CF910895682F9F
:1015300070E090E080E04AE00C94220ACF93DF93C1
:101540000E94970AEC018CE092E00E94150A8C0F31
:101550009D1FDF91CF910895CF93DF93BC0190E061
:1015600080E04AE00E94220AEC018CE092E00E94B6
:10157000150A8C0F9D1FDF91CF9108958F929F9236
:10158000AF92BF92CF92DF92EF92FF921F93CF93D1
:10159000DF936B017C01AC019B010E94ED2188234C
:1015A000B9F08FE092E00E94150AEC018CE092E025
:1015B0000E94150A8C0F9D1FDF91CF911F91FF9004
:1015C000EF90DF90CF90BF90AF909F908F90089555
:1015D00046015701E894B7F82FEF3FEF4FE75FE779
:1015E000C501B4010E94ED2181110DC02FEF3FEF25
:1015F0004FE75FE7C501B4010E941C2018161CF4D8
:1016000083E192E0D0CF2FEF3FEF4FE75FE4C701D8
:10161000B6010E947B2118161CF487E192E0C3CF2B
:101620002FEF3FEF4FE75FECC701B6010E941C2090
:1016300087FDF3CF20E030E0A901C701B6010E9489
:101640001C20D0E0C0E087FF0AC06DE280E994E092
:101650000E948803EC01F7FAF094F7F8F09426E181
:1016600037EB41E558E3C701B6010E94B01F6B019B
:101670007C010E949A204B015C010E94C9209B01C1
:10168000AC01C701B6010E94AF1F6B017C014AE0AB
:10169000C501B4010E94220AC80FD91F6EE280E979
:1016A00094E00E948803C80FD91F15E0115009F477
:1016B0007DCF20E030E040E251E4C701B6010E9456
:1016C00080214B015C010E949A206B01F12CE12CDE
:1016D0004AE0C701B6010E94220AC80FD91FC701FC
:1016E000B6010E94C9209B01AC01C501B4010E9452
:1016F000AF1F6B017C01DACFCF93DF93BC01990F51
:10170000880B990B4AE00E94220AEC018CE092E0DF
:101710000E94150A8C0F9D1FDF91CF91089585EDD2
:101720008093BC008091180490911904A0911A0430
:10173000B0911B040796A11DB11D23E0B695A79596
:10174000979587952A95D1F72091BC0024FD03C079
:101750001092160408954091180450911904609154
:101760001A0470911B04452B462B472B69F30097F5
:10177000A105B10541F025E32A95F1F70000019795
:10178000A109B109E1CF809117040C94C005FF9223
:101790000F931F93CF93DF93EC01F62E08811981ED
:1017A000C8010E94991FF81621F06F2DC8010E94F0
:1017B000A11FCE01DF91CF911F910F91FF9008954E
:1017C000CF92DF92EF92FF920F931F93CF93DF930D
:1017D00000D0CDB7DEB76C017C0102E010E01A83C7
:1017E0000983F70161917F01CE0101960E94C70B29
:1017F0000F5F1F4F0232110591F7C6010F900F9036
:10180000DF91CF911F910F91FF90EF90DF90CF90DC
:101810000895CF92DF92EF92FF920F931F93CF9391
:10182000DF9300D0CDB7DEB76C017C0102E212E09D
:101830001A830983F70161917F01CE0101960E940D
:10184000C70B0F5F1F4F0532F2E01F0789F7C60174
:101850000F900F90DF91CF911F910F91FF90EF901C
:10186000DF90CF9008950F931F93CF93DF9300D015
:10187000CDB7DEB78C0185E292E09A838983F801C7
:101880006081CE0101960E94C70B86E292E09A83A6
:101890008983F8016181CE0101960E94C70BC801BE
:1018A0000F900F90DF91CF911F910F910895EF92BC
:1018B000FF920F931F93CF93DF9300D0CDB7DEB786
:1018C0008C017B019A838983FB016081CE010196A3
:1018D0000E94C70B0F5F1F4F1A830983F7016181B5
:1018E000CE0101960E94C70BC7010F900F90DF91A8
:1018F000CF911F910F91FF90EF900895AF92BF92FB
:10190000CF92DF92EF92FF920F931F93CF93DF93CB
:1019100000D0CDB7DEB78B016B0128E7C20ED11C1A
:101920007B015C01A61AB70AC5018E0D9F1D9A8323
:101930008983F70161917F01CE0101960E94C70B57
:10194000EC14FD0489F7C8010F900F90DF91CF913F
:101950001F910F91FF90EF90DF90CF90BF90AF90CD
:1019600008950F931F93CF93DF9300D0CDB7DEB7C9
:101970008B019A838983FB016081CE0101960E94CD
:10198000C70BC8010F900F90DF91CF911F910F915E
:101990000895CF92DF92EF92FF920F931F93CF9310
:1019A000DF93EB017B0128E7E20EF11C8B016C0158
:1019B000C61AD70AC601800F911F0E94991FF8010D
:1019C00081938F01EE15FF05A9F7CE01DF91CF912D
:1019D0001F910F91FF90EF90DF90CF900895CF93DC
:1019E000DF93EB010E94991F8883CE01DF91CF9195
:1019F00008950F931F93CF93DF9367EA77E090E00A
:101A000080E00E94EF0C6CE375E081E090E00E94C2
:101A1000EF0C6CEC75E081E090E00E94EF0C6CE55F
:101A200076E081E090E00E94EF0C6CEE76E081E0E1
:101A300090E00E94EF0C04E011E0C2E0D0E0CE01A3
:101A40000E94991FF80181938F012196C232D1051E
:101A5000B1F765E475E082E490E00E94C90C65EDA1
:101A600075E08AEB90E00E94C90C65E676E082E3BF
:101A700091E00E94C90C65EF76E08AEA91E00E944D
:101A8000C90C82E292E00E94991F8093240183E2B4
:101A900092E00E94991F8093250184E292E00E94C7
:101AA000991F8093260185E292E00E94991F8093FE
:101AB000020186E292E00E94991F8093030169ED82
:101AC00073E087E292E00E94EF0C61E071E08BE24C
:101AD00092E00E94EF0C65ED73E08CE292E00E94D0
:101AE000EF0C6CEC73E08DE292E00E94EF0C9091B1
:101AF000020190933D058091030180933E059093F0
:101B0000CD058093CE0590935D0680935E069093FD
:101B1000ED068093EE068091040190910501A0915D
:101B20000601B09107018093BD059093BE05A09377
:101B3000BF05B093C0058091080190910901A09163
:101B40000A01B0910B018093C1059093C205A09347
:101B5000C305B093C40580910C0190910D01A09133
:101B60000E01B0910F0180934D0690934E06A09305
:101B70004F06B09350068091100190911101A091F1
:101B80001201B09113018093510690935206A093D5
:101B90005306B09354068091140190911501A091C1
:101BA0001601B09117018093DD069093DE06A09395
:101BB000DF06B093E0068091180190911901A09181
:101BC0001A01B0911B018093E1069093E206A09365
:101BD000E306B093E40680911C0190911D01A09151
:101BE0001E01B0911F0180936D0790936E07A09323
:101BF0006F07B09370078091200190912101A0910F
:101C00002201B09123018093710790937207A093F2
:101C10007307B093740789E395E00E94720789EC1B
:101C200095E00E94720789E596E00E94720789EEAE
:101C300096E00E9472078091D9038093C505809336
:101C400055068093E5068093750780910101811107
:101C500003C088E180930101809101018093B20764
:101C60008BE192E00E94870A82E00E949E0A8BE14B
:101C700092E00E94870A80E40E949E0A83E292E03A
:101C80000E94870A8091D5030E949E0A89E292E011
:101C90000E94870A809124010E949E0A8FE292E0AE
:101CA0000E94870A809125010E949E0A85E392E0A6
:101CB0000E94870A809126010E949E0A86E393E093
:101CC0000E94870A809102010E949E0A85E493E0A7
:101CD0000E94870A809103010E949E0A8BE392E092
:101CE0000E94870A8091A70790E001960E947C0BD2
:101CF00080E492E00E94870A80913C050E94970A46
:101D000087E292E00E94870A8091CC050E94970AA0
:101D100087E292E00E94870A80915C060E94970AFF
:101D200087E292E00E94870A8091EC060E949E0A58
:101D300083E592E00E94870A8091D9030E949E0A5F
:101D400085E692E00E94870A809101010E949E0A26
:101D50008CE692E00E94870A8091CC030E949E0A42
:101D60008AE792E00E94870A6091BD057091BE05E6
:101D70008091BF059091C0050E94BE0A86E892E05E
:101D80000E94870A6091C1057091C2058091C305C8
:101D90009091C4050E94BE0A80E992E00E94870AE1
:101DA00060914D0670914E0680914F0690915006BD
:101DB0000E94BE0A8CE992E00E94870A6091510657
:101DC0007091520680915306909154060E94BE0A6B
:101DD00086EA92E00E94870A6091DD067091DE0635
:101DE0008091DF069091E0060E94BE0A82EB92E0AD
:101DF0000E94870A6091E1067091E2068091E306F5
:101E00009091E4060E94BE0A8CEB92E00E94870A41
:101E100060916D0770916E0780916F0790917007C8
:101E20000E94BE0A88EC92E00E94870A60917107C6
:101E30007091720780917307909174070E94BE0A97
:101E4000C5E4D5E010E000E082ED92E00E94870A50
:101E500060913C05600F712F711D072E000C880BDF
:101E6000990B4AE00E94220A87E292E00E94870AC8
:101E70006991799190E080E04AE00E94220A87E22D
:101E800092E00E94870AFE01E257FF4F6081718154
:101E900090E080E04AE00E94220A87E292E00E94FD
:101EA000870AFE01E25EFE4F6081718190E080E072
:101EB0004AE00E94220A87E292E00E94870AFE011D
:101EC000E255FE4F808191810E94AC0A0F5F1F4F47
:101ED0000C33110509F0B8CFDF91CF911F910F910D
:101EE00008951F920F920FB60F9211248F939F9314
:101EF0008091E1009091E100937F9093E10083FF56
:101F00000FC01092E90091E09093EB001092EC006A
:101F100092E39093ED001092EF0398E09093F0001D
:101F200082FF22C093E09093E9009091F200992300
:101F300019F09AE39093E8009091E003992341F01F
:101F40009091E00391509093E003911101C05D9A4C
:101F50009091EE03992341F09091EE03915090936C
:101F6000EE03911101C0289A84FF18C08091E2000D
:101F70008E7E81608093E2008091E1008F7E80936D
:101F8000E1008091E1038E7E80618093E1039F9167
:101F90008F910F900FBE0F901F90189580FFF7CF75
:101FA0008091E2008E7E80618093E2008091E1006A
:101FB0008E7E8093E1008091E1038E7E8160E5CF8B
:101FC0001F920F920FB60F921124CF92DF92EF92D1
:101FD000FF920F931F932F933F934F935F936F93B2
:101FE0007F938F939F93AF93BF93EF93FF93CF9381
:101FF000DF93CDB7DEB76C97DEBFCDBF1092E9009F
:102000008091E80083FF25C068E0CE0145960E94DC
:10201000C40282EF8093E8008D8987FF39C09091D8
:10202000E80090FFFCCF982F907609F034C19E898C
:102030004F89588D2F89F88C911131C0803861F506
:102040008091DF038093F1001092F1008EEF809376
:10205000E8006C960FB6F894DEBF0FBECDBFDF91DF
:10206000CF91FF91EF91BF91AF919F918F917F9110
:102070006F915F914F913F912F911F910F91FF9021
:10208000EF90DF90CF900F900FBE0F901F9018959C
:102090009EEF9093E800C7CF1092F100D5CF91301A
:1020A00059F48111D3CF4130510581F68091DF037E
:1020B0008D7F8093DF03CACF933049F48111C6CF5F
:1020C0004130510519F68091DF038260F2CF9530DF
:1020D00041F48091E80080FFFCCF20682093E3006A
:1020E000B5CF963009F0A9C00B8D1C8D22E010925F
:1020F000E9001092DD031092DC03F2122EC0109260
:10210000DB031092DA030E9493021F8299E0998305
:10211000FA8291E09E8390EA98879AEF99872091BE
:10212000DC033091DD03275F3F4F3C832B838D839E
:102130001092E9001092DD031092DC031093DB0390
:102140000093DA0349E050E0BE016F5F7F4F80E00B
:102150000E946D020E94930279CF1093DB030093DB
:10216000DA030E947701DC0112960D911C91011592
:10217000110509F451C1D801ED91FC910480F5815C
:10218000E02DBE016B5E7F4FC8010995009709F0F5
:102190003EC1F80100851185EACFF3E0FF120EC0C1
:1021A0008F89882309F440C0823061F440E861E1FE
:1021B00083E991E00E943A02811148CF81E2809345
:1021C000EB0047CF813029F440E867E08BE891E0ED
:1021D000F1CF833099F70E947701DC011296ED90E0
:1021E000FC908E010F5F1F4F6801E114F10479F03C
:1021F000D701ED91FC910680F781E02DB801C70170
:102200000995080F111DF701E084F184EECFD80184
:102210001C92F60101900020E9F73197BF016C197B
:102220007D0940E0C601C6CF65E771E0FB0144913E
:1022300050E080E80E946D0209CF973009F4BECFCC
:10224000983021F481E08093F10000CF993009F0BB
:10225000FDCE837009F0B2CFE0EDF1E081E031E036
:1022600096E32191222371F08093E9003093EB00F3
:10227000DF0111972C912093EC009093ED008F5F7C
:10228000873079F78EE78093EA001092EA008F8911
:102290008093EF03DBCE8B8D9C8D1092E900109222
:1022A000DD031092DC039093DB038093DA03898DC6
:1022B000811192C08E899D89913A49F4813209F049
:1022C0007DCF47E050E06CE271E080E0B3CF913227
:1022D00009F074CF833269F48F89988DB0E0A0E063
:1022E0008093280190932901A0932A01B0932B0198
:1022F000ADCE803269F48091E80082FFFCCF67E0C8
:102300008CE291E00E94C4028BEF8093E8009ECEA5
:10231000823209F09BCE8F8980933301EEEFFFE785
:10232000859194918B3F9C4D51F1E0E0F8E08091D4
:102330002C0190912D01A0912E01B0912F01803B95
:102340009440A105B105F1F48091330180FD1AC0DC
:10235000EE3F8AE0F80789F587E797E79183808366
:10236000809160008093DE0388E19BE00FB6F894D3
:10237000A895809360000FBE9093600067CEEEEF4B
:10238000FAE0D5CF808191818737974709F05ECEFB
:10239000A895809160008861809360008091DE0341
:1023A00080936000EE3F2AE0F20789F08091FE0AF8
:1023B0009091FF0A9183808349CE808191818737F4
:1023C000980751F29093FF0A8093FE0AC5CF1092AE
:1023D000FF0A1092FE0A3ACE0E947701DC011296A3
:1023E0000D911C910115110509F4E8CED801ED916C
:1023F000FC910190F081E02DBE016B5E7F4FC80122
:102400000995811123CEF80100851185EBCF1816AF
:1024100019060CF41BCED2CEF1E0FF12BECE69E756
:1024200071E004CF1F920F920FB60F9211242F93D9
:102430003F934F935F936F937F938F939F93AF934C
:10244000BF93EF93FF9380E994E00E946703FF91AD
:10245000EF91BF91AF919F918F917F916F915F911C
:102460004F913F912F910F900FBE0F901F90189595
:102470001F920F920FB60F9211242F938F939F9359
:10248000EF93FF93E091A004F091A1048081E0918B
:10249000A604F091A70482FD1BC090818091A9043D
:1024A0008F5F8F732091AA04821741F0E091A904F5
:1024B000F0E0E057FB4F958F8093A904FF91EF91D7
:1024C0009F918F912F910F900FBE0F901F90189595
:1024D0008081F4CF1F920F920FB60F9211242F9389
:1024E0003F938F939F93AF93BF938091BD03909140
:1024F000BE03A091BF03B091C0033091BC0323E0A1
:10250000230F2D3758F50196A11DB11D2093BC0353
:102510008093BD039093BE03A093BF03B093C00309
:102520008091C1039091C203A091C303B091C403F1
:102530000196A11DB11D8093C1039093C203A09386
:10254000C303B093C403BF91AF919F918F913F910B
:102550002F910F900FBE0F901F90189526E8230F14
:102560000296A11DB11DD2CF1F920F920FB60F92EE
:1025700011242F933F934F935F936F937F938F9388
:102580009F93AF93BF93EF93FF938091B900887FA0
:10259000803609F44AC0F0F5883209F4A7C018F56E
:1025A000803109F49BC0B8F4882309F4F9C088305D
:1025B00009F494C0FF91EF91BF91AF919F918F91DA
:1025C0007F916F915F914F913F912F910F900FBE2F
:1025D0000F901F901895883109F488C0803251F708
:1025E0008093140414C0803409F49DC040F48033F7
:1025F000B9F38833F9F68093140485ECB0C08035C4
:1026000009F485C0883509F496C0883499F60E948B
:102610008F0BD0CF883909F48CC038F5883729F072
:1026200050F4883611F0803729F683E08093160441
:102630001092BB0357C0883809F47BC0803919F069
:10264000803809F0B7CF8091BB03803208F071C0A9
:10265000E091BB0381E08E0F8093BB038091BB00B0
:10266000F0E0E556FC4F80833DC0803B39F0E0F45C
:10267000803A09F479C0883A09F09CCF84E08093CD
:10268000160410929A0310929903E091C703F091F7
:10269000C80309958091990381110FC081E080934F
:1026A00099031092790309C0803C09F4A6CF883CB5
:1026B00009F4A3CF883B09F07DCFE0919A0381E034
:1026C0008E0F80939A03F0E0E758FC4F808180934F
:1026D000BB0090919A038091990329C08091F103E6
:1026E0008093BB0085EC8093BC0064CF9091130471
:1026F00080911204981758F5E091130481E08E0F31
:1027000080931304F0E0EE50FC4F8081E9CFE0911C
:10271000130481E08E0F809313048091BB00F0E0DE
:10272000EE50FC4F8083909113048091120498170F
:10273000C8F285E8D8CFE091130481E08E0F809332
:1027400013048091BB00F0E0EE50FC4F8083809139
:10275000150481115CCF81E08093F00384EA8093BB
:10276000BC001092160426CF85EC8093BC0010921A
:1027700016048091BB03803230F4E091BB03F0E09B
:10278000E556FC4F10826091BB0370E0E091C503F9
:10279000F091C6038BE993E009951092BB030ACF31
:1027A0001092140434CF0F931F93CF93DF93EC0157
:1027B000162F042F8FEF888319821A8284E28B836D
:1027C0001C821D8280E090E29F838E83198618868A
:1027D0001B861A8688E7E4E3F1E0DE011C9601908F
:1027E0000D928A95E1F7FE01EC57FF4F108211829E
:1027F00012821382349680E090E0A0E8BFE38083E9
:102800009183A283B38334961082339686E08083CB
:1028100061E0812F0E946E04FE01E357FF4F108399
:10282000C257DF4F0883DF91CF911F910F91089519
:10283000CF92DF92EF92FF921092430410924204E3
:1028400088EE93E0A0E0B0E08093440490934504C8
:10285000A0934604B09347042AED31E0309341043D
:10286000209340042FEF3FEF30934D0420934C040E
:102870001092930410929204809394049093950480
:10288000A0939604B09397042CEE31E0309391041A
:10289000209390042DEC30E030939D0420939C0411
:1028A0002CEC30E030939F0420939E0428EC30E021
:1028B0003093A1042093A00429EC30E03093A304CA
:1028C0002093A2042AEC30E03093A5042093A404C2
:1028D0002EEC30E03093A7042093A6041092A904B4
:1028E0001092AA041092AB041092AC04109230051E
:1028F00010922F058093310590933205A0933305F4
:10290000B09334058EEF91E090932E0580932D05C2
:102910001092A70788E18093B2071092B40781E074
:102920008093B5071092B6071092B7071092B807B8
:102930001092B9071092BA071092C0071092BF0701
:102940001092C3071092C207E4ECF7E0119287E0FF
:10295000E43DF807D9F710929B0710929C0710925C
:102960009D0710929E0760E089E00E946E0489E056
:1029700090E0909396078093950782E3C82ED12C20
:10298000E12CF12CC0929F07D092A007E092A10702
:10299000F092A20710928D0710928E0710928F0767
:1029A0001092900760E083E10E946E0483E190E062
:1029B0009093880780938707C0929107D0929207DF
:1029C000E0929307F092940710927F07109280078D
:1029D000109281071092820760E084E10E946E04E9
:1029E00084E190E090937A0780937907C0928307FF
:1029F000D0928407E0928507F092860740E068E075
:102A000089E395E00E94D31341E062E189EC95E00F
:102A10000E94D31342E065E189E596E00E94D3135A
:102A200043E066E189EE96E0FF90EF90DF90CF9073
:102A30000C94D313CF93DF93CDB7DEB7C55AD1092A
:102A40000FB6F894DEBF0FBECDBF789484B5826018
:102A500084BD84B5816084BD85B5826085BD85B542
:102A6000816085BD80916E00816080936E001092C0
:102A7000810080918100826080938100809181003B
:102A800081608093810080918000816080938000CC
:102A9000809191008260809391008091910081608B
:102AA000809391008091900081608093900080914C
:102AB000C10084608093C1008091C10082608093D6
:102AC000C1008091C10081608093C1008091C300EA
:102AD00081608093C3008091C00082608093C000B9
:102AE0008091C20081608093C20080917A008460EE
:102AF00080937A0080917A00826080937A0080913E
:102B00007A00816080937A0080917A008068809357
:102B10007A001092EF031092DF031092E10380918C
:102B2000D70081608093D70080EA8093D80089B570
:102B3000806189BD89B5826089BD09B400FEFDCF81
:102B400061E070E080E090E00E94C4048091D800D1
:102B50008F7C80618093D8008091E000807F80939B
:102B6000E0008091E1008E7E8093E1008DE0809313
:102B7000E200559A209AE091A004F091A10482E02D
:102B80008083E0919C04F0919D041082E0919E046A
:102B9000F0919F048FE380831092A804E091A40435
:102BA000F091A50486E08083E091A204F091A30453
:102BB000808180618083E091A204F091A3048081F0
:102BC00088608083E091A204F091A30480818068F2
:102BD0008083E091A204F091A30480818F7D8083A3
:102BE0001092CA031092C90310923D0410923C0443
:102BF0000E94A20581ED92E09093C8038093C703E1
:102C000082ED92E09093C6038093C50361E086E075
:102C10000E946E0448E050E060E870E08DEC93E0C4
:102C20000E9426220E94F90CAA24A394B12C609041
:102C3000AC017090AD018090AE011092A40710928B
:102C4000A5071092B0071092B1071092AA07109230
:102C5000AD071092AF071092B30780E994E00E948D
:102C60003103181619066CF480E994E00E940F03F2
:102C7000182F082F80E8810F883708F0F7C01093CD
:102C8000C1078091A407882309F451C04090A6078A
:102C90009090A307F12CE12CA0E92A2E309000019E
:102CA000C32CD12CEC14FD040CF041C08091CC035A
:102CB0000E2D813099F451E0351609F469C282E095
:102CC000381249C28091CB0380588093CB0390E0A7
:102CD000880F892F881F990B082F582E202F30E03E
:102CE000229EF001239EF00D1124E75CFA4F8181B2
:102CF00081117DC280912701853009F04CC241E0ED
:102D0000692D89E395E00E94EA0841E0692D89EC8C
:102D100095E00E94EA0841E0692D89E596E00E946D
:102D2000EA0841E0692D89EE96E00E94EA08809168
:102D3000A507882309F440C04091A30780910001B2
:102D400090E0E9E3F5E030E020E0281739070CF0E7
:102D5000CFC25181552309F4C6C252814513C3C263
:102D6000EDECF3E007E010E06781603809F496C20B
:102D70004091270103531C4F453009F085C241E0C3
:102D800089E395E00E94EA0841E0F801608189EC5E
:102D900095E00E94EA0841E0F801608189E596E04B
:102DA0000E94EA0841E0F801608189EE96E00E9405
:102DB000EA0880E8F80180838091B507882309F448
:102DC000BDC28091D903813021F460E086E00E9489
:102DD000400485E997E00E94A8092091D8032817AC
:102DE000190609F497C289E797E00E94A8098C01A7
:102DF00087E897E00E94A8097C0185E997E00E9496
:102E0000A809892B09F043C683E0EF2809F055C6CD
:102E100084E0012B09F451C686E0809327018FEFEF
:102E2000809339058093C90581E08093000185E98D
:102E300097E00E94A80921E0892B09F420E0209363
:102E4000D80387E897E00E94A80921E0892B09F4BC
:102E500020E02093D70389E797E00E94A80921E0AA
:102E6000892B09F420E02093D60368C2183F20F094
:102E7000812F0E94FE0005CFF12E17FD41C0209149
:102E8000C10730E08091A70790E0AC0140575F4F49
:102E90002417350709F0B9C01093A3070E943D031A
:102EA0008093A6079091A3072091C2073091C30792
:102EB000882309F487C0E92FF0E043E0F595E79512
:102EC0004A95E1F7ED55F84F81A19770482F50E0F2
:102ED000092E02C0559547950A94E2F740FD10C0AF
:102EE00041E04093A4072F5F3F4F3093C3072093E7
:102EF000C207950101C0220F9A95EAF7822B81A3A0
:102F00008091C2079091C307892B09F0B0C081E07E
:102F10008093B507F7FC41C02091C1078091A707B6
:102F200090E080529F4F2817190679F481E0809332
:102F3000AA070E943D0330E8839FC0011124810F3E
:102F4000911D9093A9078093A8072091C1078091B4
:102F5000A70790E080559F4F2817190679F4FF24A2
:102F6000F394F092AD071093AB070E943D0380935A
:102F7000AC078091AB078B3709F47CC02091C10767
:102F80008091A70790E080539F4F2817190629F4D6
:102F900081E08093AF071093AE078091C107803F17
:102FA00009F06FCE0F3709F073C080E994E00E94FA
:102FB0003103892BD1F380E994E00E940F03873F0E
:102FC000A1F75FCE81E08093A507E92FF0E083E0D1
:102FD000F595E7958A95E1F7ED55F84F9770A501BE
:102FE00002C0440F551F9A95E2F7CA01809591A13E
:102FF000892381A3121613060CF082CF21503109C8
:103000003093C3072093C2077BCF80589F4F281768
:10301000390709F075CF1093A3070E943D0381E0A3
:103020008093A5078091A307E82FF0E0B3E0F59522
:10303000E795BA95E1F7ED55F84F8770950102C015
:10304000220F331F8A95E2F7C901809591A1892348
:1030500081A38091C2079091C307181619060CF03E
:103060004FCF01979093C3078093C20749CF109227
:10307000B50750CF1092C3071092C207F092B50760
:10308000E4ECF7E0119247E0E43DF407D9F776CF9E
:1030900081E08093B30780E994E00E943103892B9B
:1030A000D1F380E994E00E940F038093B607873F35
:1030B00009F4E7CD80E994E00E943103892BD1F334
:1030C00080E994E00E940F038093B707873F09F4DB
:1030D000D8CD80E994E00E943103892BD1F380E9B7
:1030E00094E00E940F038093B807873F09F4C9CD8D
:1030F00080E994E00E943103892BD1F380E994E0C8
:103100000E940F038093B907873F09F4BACD80E985
:1031100094E00E943103892BD1F380E994E00E946E
:103120000F038093BA07873F09F4ABCD10E080E925
:1031300094E00E943103892BD1F380E994E00E944E
:103140000F03873F09F49DCDE12FF0E0ED55F84FD7
:10315000808F1F5FECCF93E039120BC08091CB03BF
:103160008A5A8093CB0366E50E94F221582E052DE2
:10317000B5CDE4E03E12FBCF8091CB03805C809321
:10318000CB0390E0E6E095958795EA95E1F7A4CD2D
:10319000512C00E0A3CD029D80011124075C1A4F41
:1031A00041E0692DC8010E94EA08642DC8010E940F
:1031B000BD088091CC038111BACDF1E0F31508F080
:1031C000B6CD09E315E0F12CE12CF80181818111E4
:1031D00005C040E0692DC8010E94EA08FFEFEF1A20
:1031E000FF0A00571F4FEC14FD047CF3A0CD41E013
:1031F000C41AD108EC14FD0479F5EDECF3E090E08D
:1032000080E04191403861F583539C4F229EF0014C
:10321000239EF00D1124E75CFA4F2281FC012083EC
:1032200080912701853009F541E0692D89E395E01A
:103230000E94EA0841E0692D89EC95E00E94EA08C5
:1032400041E0692D89E596E00E94EA0841E0692D98
:1032500089EE96E00E94EA08FFEFEF1AFF0A1ECD02
:1032600001968830910569F6DBCF029D800111241B
:10327000075C1A4F41E0692DC8010E94EA08642DDD
:10328000C8010E94BD08E8CF40E9429FC001439FAA
:10329000900D112441E0875C9A4F89CD01501109AE
:1032A00031970F3F100709F05FCD809127018530DE
:1032B00089F489E395E00E94DC0889EC95E00E949E
:1032C000DC0889E596E00E94DC0889EE96E00E9421
:1032D000DC0872CD40E9429FC001439F900D11244C
:1032E000875C9A4FF4CF2F5F3F4FE057FF4F2DCDB4
:1032F000EDECF3E090E080E02191421306C08353AF
:103300009C4F20E8FC01208357CD01968830910521
:1033100099F752CD87E897E00E94A8092091D7033A
:103320002817190609F05FCD89E797E00E94A809E0
:103330002091D6032817190609F055CD8091AA07C8
:10334000882379F080912701813019F0863009F0C7
:10335000BAC36091A8077091A90789E395E00E941C
:103360007A088091AD07882309F472C08091AB0779
:103370009091D50389130CC0882351F080912701C7
:10338000863031F46091AC0789E395E00E94F5073F
:103390009091AB078091240198130DC08091270173
:1033A000982F9D7F913009F0DBC36091AC0789EEC7
:1033B00096E00E94F5079091AB0780912501981344
:1033C0000AC080912701863031F46091AC0789E50D
:1033D00096E00E94F5079091AB0780912601981323
:1033E0000AC080912701863031F46091AC0789EEE4
:1033F00096E00E94F5078091AB078B3749F58091E5
:10340000D903813021F460E086E00E94400480E826
:103410008093CD038093CE038093CF038093D0031A
:103420008093D1038093D2038093D3038093D403FA
:1034300089E395E00E94DC0889EC95E00E94DC08B5
:1034400089E596E00E94DC0889EE96E00E94DC089F
:103450008091AF07882351F080912701813031F4AA
:103460006091AE0789E596E00E94F5078091B0076C
:10347000882329F08091D90361E0882349F0809165
:10348000B107882341F08091D903811104C060E025
:1034900086E00E9440048091B307882309F439C56F
:1034A0008091B607823009F01BC18091B707803444
:1034B00009F016C18091B9078F3F09F011C18091C1
:1034C000B807853009F00CC161E086E00E94400435
:1034D0008CED92E00E94890A10E000E060E0C801F3
:1034E0000E94A11F0F5F1F4F0115F4E01F07B1F7E6
:1034F00088E7E4E3F1E0DE01119601900D928A95F0
:10350000E1F780E2EFEAF1E0DE01A758BF4F01905A
:103510000D928A95E1F7C756DF4F688279828A82D9
:10352000C959D04082E0C256DF4F8883CE59D0407F
:10353000C156DF4F8883CF59D040CB55DF4F18821B
:10354000C55AD040CC55DF4F1882C45AD04084E2CF
:10355000CD55DF4F8883C35AD04088E1CE55DF4F29
:103560008883C25AD040CF55DF4F1882C15AD0400D
:10357000C056DF4F1882C05AD040BE016C557F4FF5
:1035800090E080E00E94B10CBE016D557F4F81E05C
:1035900090E00E94B10CCE0187589F4F0E94E00B33
:1035A000BE016F5F7F4F82E490E00E947E0CBE01FF
:1035B0006F5F7F4F8AEB90E00E947E0CBE016F5FD1
:1035C0007F4F82E391E00E947E0CBE016F5F7F4FD0
:1035D0008AEA91E00E947E0CCE0187569F4F0E949E
:1035E000090CCE0182569F4F0E94330CBE016B55D1
:1035F0007F4F87E292E00E94B10CC456DF4FB98240
:10360000A882CC59D040BE0164567F4F88E292E038
:103610000E94570C82E090E0C456DF4F9983888364
:10362000CC59D040BE0164567F4F89E292E00E949F
:10363000570C83E090E0C456DF4F99838883CC59C0
:10364000D040BE0164567F4F8AE292E00E94570C40
:10365000BE016E557F4F8BE292E00E94B10CBE011D
:103660006F557F4F8CE292E00E94B10CBE01605614
:103670007F4F8DE292E00E94B10CC456DF4F198259
:103680001882CC59D040BE0164567F4F8EE292E042
:103690000E94570CC456DF4F19821882CC59D04073
:1036A000BE0164567F4F8FE292E00E94570CC456D1
:1036B000DF4F19821882CC59D040BE0164567F4F2B
:1036C00080E392E00E94570C64EF71E080E090E0AC
:1036D0000E94C40460E086E00E9440040E94F90C4D
:1036E0008091B607823071F58091B707803451F52B
:1036F0008091B9078F3131F58091B807853011F588
:1037000061E086E00E9440048091BB078093A70798
:1037100067EA77E090E080E00E94B10C87EE92E0EB
:103720000E94870A8091A70790E001960E947C0B77
:1037300064EF71E080E090E00E94C40460E086E005
:103740000E9440048091B607823091F58091B707BE
:10375000803471F58091B907803251F58091B807B6
:10376000853031F561E086E00E9440048091BB071E
:1037700080933C058093CC0580935C068093EC0697
:103780006CE375E081E090E00E94B10C80E492E08F
:103790000E94870A80913C050E949E0A64EF71E0B6
:1037A00080E090E00E94C40460E086E00E94400453
:1037B0008091B607823009F07FC08091B7078034CE
:1037C00009F07AC08091B907853109F075C0809100
:1037D000B807853009F070C061E086E00E944004BF
:1037E0000091BA0728E0029F800111240C5F1E4F50
:1037F0006091BC0730E8639FC00111246091BB0752
:10380000680F792F711D072E000C880B990B0E94F1
:10381000CB2020E030E04AE754E40E94AF1FF801DB
:10382000608371838283938384E091E00E94E00B44
:103830002091BA0730E010E9129FC001139F900D4C
:103840001124875C9A4FDC01AC57BF4F73E0220F05
:10385000331F7A95E1F7F901EC5FFE4F408151810A
:10386000628173814D935D936D937C9313970E9456
:10387000720781EF92E00E94870A8091BA070E9446
:103880009E0A8DE792E00E94870AE091BA071E9F88
:10389000F0011124E354FA4F608171818281938198
:1038A0000E94BE0A64EF71E080E090E00E94C404D0
:1038B00060E086E00E9440048091B607823009F003
:1038C0007FC08091B707803409F07AC08091B90732
:1038D000863109F075C08091B807853009F070C055
:1038E00061E086E00E9440040091BA07F8E00F9F73
:1038F000800111240C5F1E4F6091BC0720E8629F7D
:10390000C00111246091BB07680F792F711D072E2C
:10391000000C880B990B0E94CB2020E030E44CE196
:1039200056E40E942120F80164837583868397837F
:1039300084E091E00E94E00B2091BA0730E010E9AA
:10394000129FC001139F900D1124875C9A4FDC01D8
:10395000A857BF4F63E0220F331F6A95E1F7F901C3
:10396000EC5FFE4F44815581668177814D935D9375
:103970006D937C9313970E94720781EF92E00E94EF
:10398000870A8091BA070E949E0A89E892E00E9405
:10399000870AE091BA071E9FF0011124EF53FA4FF6
:1039A00060817181828193810E94BE0A64EF71E01F
:1039B00080E090E00E94C40460E086E00E94400441
:1039C0008091B607823009F0FCC08091B70780343F
:1039D00049F58091B907873109F010C28091B80785
:1039E000853001F58091BA07E091A307F0E98F9F38
:1039F000D0011124A75CBA4F13969C91E91BFF0BD1
:103A000028E4829FE00DF11D1124EE0FFF1FEB5BF8
:103A1000FA4F808191812091BB072111A9C00197A4
:103A2000918380838091B707803409F0CFC0809163
:103A3000B9078D3109F0CAC08091B807853009F007
:103A4000C5C061E086E00E944004E091BA07E3301F
:103A500009F09FC18091BB078093D50365ED73E0AA
:103A60008CE292E00E94B10C83E292E00E94870A0D
:103A70008091D5030E949E0A64EF71E080E090E09F
:103A80000E94C40460E086E00E9440049FC0EF28CA
:103A900049F081E080932701809339059FEF90934F
:103AA000C905C3C985E0012B09F0B7C982E080933D
:103AB00027018093390593E0F2CF809327019FEF90
:103AC00090933905ECCF823079F46091A80770911A
:103AD000A90789E395E00E947A086091A807709190
:103AE000A90789EC95E03BCC8330B9F46091A80735
:103AF0007091A90789E395E00E947A086091A80770
:103B00007091A90789EC95E00E947A086091A80756
:103B10007091A90789E596E022CC8450823008F0A4
:103B200020CC6091A8077091A90789E395E00E94D5
:103B30007A086091A8077091A90789EC95E00E9426
:103B40007A086091A8077091A90789E596E00E941C
:103B50007A086091A8077091A90789EE96E0FFCBDB
:103B6000863009F028CC6091AC0789EC95E021CC37
:103B7000019656CF813029F465ED75E08AEB90E02F
:103B80004DC1823029F465E676E082E391E046C1DA
:103B9000833009F045C165EF76E08AEA91E03EC1E5
:103BA00087010A33110509F051C181EF92E00E94AB
:103BB000870A8091BA070E94970A8CE193E00E94DD
:103BC000890A8091B607823009F42CCF8091B6071C
:103BD0008230E1F58091B7078034C1F58091B90753
:103BE0008E31A1F58091B807853081F561E086E0DE
:103BF0000E944004E091BA07F0E0EE5FFE4F809132
:103C0000BB07808382E091E00E94330C8091BA0769
:103C10008111E3C08091020180933D058093CD0521
:103C200080935D068093ED0681E393E00E94870A0E
:103C3000809102010E949E0A64EF71E080E090E0B2
:103C40000E94C40460E086E00E9440048091B607B0
:103C50008230B1F58091B707803491F58091B90732
:103C6000813271F58091B807853051F561E086E0C9
:103C70000E9440048091BA078093D90369ED73E0F4
:103C800087E292E00E94B10C8091D9038093C50530
:103C9000809355068093E5068093750783E592E04F
:103CA0000E94870A8091D9030E949E0A64EF71E006
:103CB00080E090E00E94C40460E086E00E9440043E
:103CC0008091B607823081F58091B707803461F525
:103CD0008091B907823241F58091B807853021F58E
:103CE00061E086E00E9440048091BA078093010160
:103CF00061E071E08BE292E00E94B10C80910101E1
:103D00008093B20781E593E00E94870A80910101C8
:103D10000E949E0A64EF71E080E090E00E94C4047B
:103D200060E086E00E9440048091B607823009F08E
:103D3000F0C08091B707803409F0EBC08091B907DB
:103D4000833209F0E6C08091B807853009F0E1C000
:103D500061E086E00E9440048091BA078093CC0322
:103D60006CEC73E08DE292E00E94B10C8CE692E084
:103D70000E94870A8091CC030E949E0A64EF71E042
:103D800080E090E00E94C40460E086E00E9440046D
:103D9000C0C0E33008F070CEF0E0EC5DFE4F8091E3
:103DA000BB07808384E291E00E94090C89E292E0E3
:103DB0000E94870A809124010E949E0A8FE292E06D
:103DC0000E94870A809125010E949E0A85E392E065
:103DD0000E94870A809126014DCE80910301809335
:103DE0003E058093CE0580935E068093EE0680E4C8
:103DF00093E00E94870A809103011CCF883109F06B
:103E000011CE8091B807853009F00CCE8091BA07A9
:103E10008111B0CE65E475E082E490E00E947E0CF2
:103E200081EF92E00E94870A8091BA070E94970A68
:103E300089EF92E00E94890AE091BA0730E9E39F96
:103E4000F0011124EB5BFA4F01E010E082819381D5
:103E5000680141E0C41AD10878015FEFE51AF50A5C
:103E60002081318132968217930730F0228133818D
:103E70002817390708F094CE80E093E00E94870A63
:103E8000E091BA0780E9E89FF0011124E75CFA4F5E
:103E90008381800F912F911D0E947C0B8091BA0726
:103EA00098E4992EF601989EE00DF11D1124EE0F75
:103EB000FF1FEB5BFA4F808191810E94AC0A8091D9
:103EC000BA07F801989EE00DF11D1124EE0FFF1FB7
:103ED000EB5BFA4F808191810E94AC0A8091BA0716
:103EE000F701989EE00DF11D1124EE0FFF1FEB5B13
:103EF000FA4F808191810E94AC0A81EF92E00E948A
:103F0000870A8091BA070E94970A87E093E00E948F
:103F1000890A80E090E0892B11F40C941D160E9410
:103F20005303882311F40C941D160E9400000C9476
:103F30001D16F999FECF92BD81BDF89A992780B5DB
:103F40000895262FF999FECF1FBA92BD81BD20BDDD
:103F50000FB6F894FA9AF99A0FBE01960895505840
:103F6000BB27AA270E94C71F0C9441210E9433211E
:103F700038F00E943A2120F039F49F3F19F426F4DA
:103F80000C9430210EF4E095E7FB0C942A21E92FE4
:103F90000E94522158F3BA176207730784079507E6
:103FA00020F079F4A6F50C9474210EF4E0950B2E14
:103FB000BA2FA02D0B01B90190010C01CA01A0017B
:103FC0001124FF27591B99F0593F50F4503E68F1D6
:103FD0001A16F040A22F232F342F4427585FF3CF17
:103FE000469537952795A795F0405395C9F77EF4E8
:103FF0001F16BA0B620B730B840BBAF09150A1F031
:10400000FF0FBB1F661F771F881FC2F70EC0BA0FB6
:10401000621F731F841F48F4879577956795B7953E
:10402000F7959E3F08F0B0CF9395880F08F0992739
:10403000EE0F9795879508950E94062108F481E078
:1040400008950E9435200C9441210E943A2158F095
:104050000E94332140F029F45F3F29F00C942A217B
:1040600051110C9475210C9430210E94522168F357
:104070009923B1F3552391F3951B550BBB27AA2721
:1040800062177307840738F09F5F5F4F220F331F5B
:10409000441FAA1FA9F335D00E2E3AF0E0E832D023
:1040A00091505040E695001CCAF72BD0FE2F29D026
:1040B000660F771F881FBB1F261737074807AB07F8
:1040C000B0E809F0BB0B802DBF01FF2793585F4F6D
:1040D0003AF09E3F510578F00C942A210C947521FA
:1040E0005F3FE4F3983ED4F3869577956795B7954F
:1040F000F7959F5FC9F7880F911D9695879597F95A
:104100000895E1E0660F771F881FBB1F62177307D2
:104110008407BA0720F0621B730B840BBA0BEE1FE7
:1041200088F7E09508950E949A206894B1110C9444
:10413000752108950E945A2188F09F5798F0B92F51
:104140009927B751B0F0E1F0660F771F881F991FCC
:104150001AF0BA95C9F714C0B13091F00E947421D9
:10416000B1E008950C947421672F782F8827B85FE9
:1041700039F0B93FCCF3869577956795B395D9F724
:104180003EF490958095709561957F4F8F4F9F4F2E
:104190000895E89409C097FB3EF49095809570953A
:1041A00061957F4F8F4F9F4F9923A9F0F92F96E983
:1041B000BB279395F695879577956795B795F111F8
:1041C000F8CFFAF4BB0F11F460FF1BC06F5F7F4F95
:1041D0008F4F9F4F16C0882311F096E911C07723A7
:1041E00021F09EE8872F762F05C0662371F096E8B0
:1041F000862F70E060E02AF09A95660F771F881F7F
:10420000DAF7880F9695879597F90895990F000822
:10421000550FAA0BE0E8FEEF16161706E807F90798
:10422000C0F012161306E407F50798F0621B730B33
:10423000840B950B39F40A2661F0232B242B252BB4
:1042400021F408950A2609F4A140A6958FEF811D57
:10425000811D089597F99F6780E870E060E00895F8
:104260009FEF80EC089500240A941616170618068E
:104270000906089500240A9412161306140605066A
:104280000895092E0394000C11F4882352F0BB0FFB
:1042900040F4BF2B11F460FF04C06F5F7F4F8F4F5E
:1042A0009F4F089557FD9058440F551F59F05F3F99
:1042B00071F04795880F97FB991F61F09F3F79F048
:1042C00087950895121613061406551FF2CF4695CA
:1042D000F1DF08C0161617061806991FF1CF86954C
:1042E0007105610508940895E894BB276627772730
:1042F000CB0197F908950E94062108F48FEF0895E5
:104300000E9493210C9441210E94332138F00E9495
:104310003A2120F0952311F00C942A210C9430219D
:1043200011240C9475210E94522170F3959FC1F3C2
:10433000950F50E0551F629FF001729FBB27F00D53
:10434000B11D639FAA27F00DB11DAA1F649F6627A8
:10435000B00DA11D661F829F2227B00DA11D621FF7
:10436000739FB00DA11D621F839FA00D611D221FB1
:10437000749F3327A00D611D231F849F600D211D95
:10438000822F762F6A2F11249F5750409AF0F1F018
:1043900088234AF0EE0FFF1FBB1F661F771F881F81
:1043A00091505040A9F79E3F510580F00C942A216E
:1043B0000C9475215F3FE4F3983ED4F3869577958E
:1043C0006795B795F795E7959F5FC1F7FE2B880F27
:1043D000911D9695879597F908950E940621880B5F
:1043E000990B0895991B79E004C0991F961708F05E
:1043F000961B881F7A95C9F780950895A1E21A2E19
:10440000AA1BBB1BFD010DC0AA1FBB1FEE1FFF1F78
:10441000A217B307E407F50720F0A21BB30BE40BC8
:10442000F50B661F771F881F991F1A9469F760950F
:104430007095809590959B01AC01BD01CF010895C9
:10444000EE0FFF1F0590F491E02D0994DC0101C0EF
:0E4450006D9341505040E0F70895F894FFCF6F
:10445E0004180202000000000000803F000000006F
:10446E000000803F000000000000803F00000000C0
:10447E000000803F01474A04FFFFFFFF00E10000FC
:10448E0000000000000044008900CD00110155011C
:10449E009A01DE0122026602AB02EF0233037703BA
:1044AE00BC03000444048804CD0411055505990588
:1044BE00DE0522066606AA06EF0633077707BB0758
:1044CE00000844088808CC08110955099909DD0926
:1044DE00220A660AAA0AEE0A330B770BBB0BFF0BF6
:1044EE00440C880CCC0C100D550D990DDD0D210EC4
:1044FE00660EAA0EEE0E320F770FBB0F01474A0063
:10450E000000000000803F000000000000803F001F
:10451E000000000000803F000000000000803F000F
:10452E00C18081000000000000008B01F604AC0188
:10453E00A101F201B001CE01000000008803D302F8
:10454E000003D40331030F032303000000003806D9
:10455E000B066F07E1050406F105E2050D0A006E74
:10456E00616E00696E66006F7666004D6672494434
:10457E003A20004343303A20004343313A2000436F
:10458E0043323A20004343333A200043683A200036
:10459E004C6F77657374204D696469204E6F746536
:1045AE003A20004F72204761746520456E61626C3F
:1045BE0065643A20005070716E3A2000526F756E2D
:1045CE006420526F62696E3A20005630204F666644
:1045DE007365743A20005630204761696E3A2000A8
:1045EE005631204F66667365743A20005631204767
:1045FE0061696E3A20005632204F66667365743AD2
:10460E0020005632204761696E3A20005633204F03
:10461E0066667365743A20005633204761696E3AB8
:10462E0020004D6964694E756D3A20005365742003
:10463E00454550524F4D004368616E6E656C3A2091
:10464E0000566F6963653A200020536176656400F9
:10465E004D6964693A200020566572696669636126
:10466E0074696F6E204661696C65640020566572D0
:10467E00696669636174696F6E20506173736564F6
:10468E0000506974636842656E642055703A20006C
:10469E00506974636842656E6420446F776E3A2089
:0846AE00007070716E3A2000EB
:00000001FF
