:100000000C94D4000C94FC000C94FC000C94FC00A8
:100010000C94FC000C94FC000C94FC000C94FC0070
:100020000C94FC000C94FC000C94C7100C9436113A
:100030000C94FC000C94FC000C94FC000C94FC0050
:100040000C94FC000C94FC000C94FC000C94FC0040
:100050000C94FC000C94FC000C94FC000C94C01359
:100060000C94FC000C948E130C9468130C94FC00FC
:100070000C94FC000C94FC000C94FC000C94FC0010
:100080000C94FC000C94FC000C94FC000C94FC0000
:100090000C940A140C94FC000C94FC000C94FC00CE
:1000A0000C94FC000C94FC000C94FC00000000007C
:1000B0002300260029002C002F000000000024004F
:1000C00027002A002D003000000000002500280035
:1000D0002B002E0031000404040404030405020272
:1000E00002020403020202020606060606060404D1
:1000F0000202020404040802011040804010204063
:10010000804080080204018040201002011080100D
:10011000204040200000000200090F0000030401FD
:10012000000C0000000000000000000000000000C3
:10013000000000080B000202020000090400000198
:10014000020200000524001001052401010104241D
:10015000020605240600010705810310004009047A
:100160000100020A00000007050202400000070526
:1001700083024000000403090412010002EF02019F
:1001800040D80498E8000101020301556E6B6E6FC0
:10019000776E004D696469566F6C747320446573A3
:1001A0006B746F7000006E1511241FBECFEFDAE084
:1001B000DEBFCDBF13E0A0E0B1E0E6E4F2E402C0B0
:1001C00005900D92A437B107D9F728E0A4E7B3E072
:1001D00001C01D92AC30B207E1F710E0C4EDD0E0F1
:1001E00004C02197FE010E941421C33DD107C9F725
:1001F0000E942E160C9421210C940000FC01809189
:100200000804882311F13FB7F89482E08093E90055
:100210002091F200822F90E01816190614F481E064
:1002200090E0882339F0289844E6409307044091F1
:10023000F1004083222339F02091F200211103C004
:100240002BE62093E8003FBF08958FEF9FEF0895BE
:100250002FB7F89483E08093E9009091E800892F0C
:10026000807295FF04C09091F20080E4891B2FBF3B
:1002700008958091FF0381110DC082E08093FB03FC
:1002800084E08093FC031092FE031092FD0381E052
:100290008093FF038BEF93E00895CF93DF931F923A
:1002A000CDB7DEB76983DC01ED91FC910280F3816B
:1002B000E02D41E050E0BE016F5F7F4F09950F9048
:1002C000DF91CF91089583E08093E9008091F2005F
:1002D000882319F08AE38093E80008950E9428019A
:1002E00090E00895CF93DF931F92CDB7DEB7FC0166
:1002F0008485958597FD08C02FEF3FEF35872487CC
:100300000F90DF91CF910895CE0101960E94FE00DB
:10031000019719F4898190E0F3CF8FEF9FEFF0CF31
:100320000F931F93CF93DF931F92CDB7DEB78C014E
:10033000FC018485958597FF0BC0CE0101960E9434
:10034000FE00019771F4898190E0F8019587848718
:10035000F801848595850F90DF91CF911F910F91C2
:1003600008958FEF9FEFF1CFFC018485958597FD70
:100370000BC09FB7F89482E08093E9008091F2006F
:100380009FBF90E0019608959FB7F89482E0809314
:10039000E9008091F2009FBF90E008954091F5033D
:1003A0005091F6032091F3033091F4034217530761
:1003B000B4F49091E8009570E1F39091E80092FD1B
:1003C00019C08093F1008091F5039091F603019696
:1003D0008F739927892B19F48EEF8093E800809111
:1003E000F5039091F60301969093F6038093F5033D
:1003F00081E0089580E00895EF92FF920F931F939C
:10040000CF93DF93F82E192FE62E042F81E0860F6D
:10041000880F0E94CE0183E00E94CE01CF2DD12F04
:10042000EC0EFD2EF11CCE15DF05B9F007FF13C051
:10043000FE0184910E94CE01182F80E00E94CE011F
:10044000812321968111EFCFDF91CF911F910F91E1
:10045000FF90EF9008958881EDCF81E0F5CFDF9296
:10046000EF92FF920F931F93CF93DF93D82E8A01C1
:10047000EB017B01E40EF51ECE15DF0559F0D7FE2A
:1004800012C0FE0184910E94CE0121968111F4CF09
:100490000FEF1FEFC801DF91CF911F910F91FF90D8
:1004A000EF90DF9008958881EECF0F931F93CF9345
:1004B000DF931F92CDB7DEB782E0898342E450E03C
:1004C00063E371E080E80E942F020E943901DC01A1
:1004D00012960D911C910115110589F0D801ED912D
:1004E000FC910280F381E02DBE016F5F7F4FC80158
:1004F000099597FD04C0F80100851185ECCF89812D
:100500000F90DF91CF911F910F910895615030F0BE
:100510002091F100FC0120830196F8CF289884E611
:1005200080930704089508950895AF92BF92CF92E3
:10053000DF92EF92FF920F931F93CF93DF936C01A3
:100540007B018B01040F151FEB015E01AE18BF0884
:10055000C017D10759F06991D601ED91FC91019036
:10056000F081E02DC6010995892B79F7C501DF914E
:10057000CF911F910F91FF90EF90DF90CF90BF90A0
:10058000AF900895FC01538D448D252F30E0842FCA
:1005900090E0821B930B541710F0CF9608950197AB
:1005A0000895FC01918D828D981761F0A28DAE0F98
:1005B000BF2FB11D5D968C91928D9F5F9F73928F1F
:1005C00090E008958FEF9FEF0895FC01918D828D4B
:1005D000981731F0828DE80FF11D858D90E0089518
:1005E0008FEF9FEF0895FC01918D228D892F90E070
:1005F000805C9F4F821B91098F7399270895FF920A
:100600000F931F93CF93DF93F62E082F10E0E8018E
:10061000C454D84F67FD28C02091030830E0888972
:1006200090E0AC0140575F4F2417350709F086C0B2
:1006300089EA94E00E94F302892BD1F389EA94E0DD
:100640000E94D1028C87F801B496882309F468C00F
:1006500081E08C83EE0FFF1FE454F84F808191817D
:10066000019691838083F882F801EE0FFF1FEC5F03
:10067000F74F80819181892B09F082C081E088AF9A
:10068000F7FC48C020910308888990E080529F4F72
:1006900028171906E1F481E08C8F89EA94E00E9422
:1006A000F302892BD1F389EA94E00E94D102000F72
:1006B000111FF801E053F84F9695982F88279795CA
:1006C000879580789F778F0D911D918380832091EE
:1006D0000308888990E080559F4F2817190671F408
:1006E00081E088A7F8A289EA94E00E94F302892BAE
:1006F000D1F389EA94E00E94D1028CA320910308EF
:10070000888990E080539F4F2817190619F481E0DB
:1007100088ABFCA6DF91CF911F910F91FF900895B8
:1007200081E08887EE0FFF1FE454F84F80819181AC
:10073000181619060CF097CF019793CF80589F4F4A
:100740002817390709F090CF89EA94E00E94F30254
:10075000892BD1F389EA94E00E94D10281E0888755
:10076000F882F801EE0FFF1FEC5FF74F8081918157
:10077000181619060CF078CF01979183808374CFF7
:1007800018AE7ECF89EA94E00E94F30221E0892B23
:1007900009F420E0822F089580E090E0892B29F071
:1007A0000E94C20381110C9400000895FC01A48DE5
:1007B000A80FB92FB11DA35ABF4F2C91848D90E083
:1007C00001968F739927848FA689B7892C93A08966
:1007D000B1898C9182748C93938D848D981306C00B
:1007E0000288F389E02D80818F7D80830895EF92C8
:1007F000FF920F931F93CF93DF93EC0181E0888FDB
:100800009B8D8C8D981319C0E889F989808185FFAB
:1008100014C09FB7F894EE89FF896083E889F9894D
:100820008081827480839FBF81E090E0DF91CF91CF
:100830001F910F91FF90EF900895F62E0B8D10E011
:100840000F5F1F4F0F731127E02E8C8D8E110CC080
:100850000FB607FCFACFE889F989808185FFF5CFCB
:10086000CE010E94D603F1CFEB8DEC0FFD2FF11DD1
:10087000E35AFF4FF0829FB7F8940B8FEA89FB8908
:1008800080818062CFCFCF93DF93EC01888D882366
:10089000B9F0AA89BB89E889F9898C9185FD03C0E3
:1008A000808186FD0DC00FB607FCF7CF8C9185FFC8
:1008B000F2CF808185FFEDCFCE010E94D603E9CF34
:1008C000DF91CF91089581508F3008F047C0E82F15
:1008D000F0E0E359FB4F0C9414218A048E047C044D
:1008E00082048604AE04AE04AE04910497049B0413
:1008F0009F04A504AE04A904809180008F778093A3
:1009000080000895809180008F7DF9CF80918000D4
:10091000877FF5CF84B58F7784BD089584B58F7DAB
:10092000FBCF809190008F77809390000895809105
:1009300090008F7DF9CF80919000877FF5CF8091D7
:10094000C0008F778093C00008958091C0008F7D94
:10095000F9CF8091C200877F8093C20008951F93D2
:10096000CF93DF93282F30E0F901EC5EFE4F8491A6
:10097000F901EB50FF4FD491F901EA52FF4FC491B6
:10098000CC23A9F0162F81110E946304EC2FF0E014
:10099000EE0FFF1FE853FF4FA591B4918FB7F89466
:1009A000EC91111108C0D095DE23DC938FBFDF914D
:1009B000CF911F910895DE2BF8CFCF93DF9390E076
:1009C000FC01EB50FF4F24918A529F4FFC01849110
:1009D0008823D1F090E0880F991FFC01E654FF4F67
:1009E000A591B491FC01E853FF4FC591D4916111D9
:1009F0000EC09FB7F8948C91E22FE0958E238C93D4
:100A00002881E223E8839FBFDF91CF9108958FB7BC
:100A1000F894EC91E22BEC938FBFF6CF3FB7F894AC
:100A20008091DD039091DE03A091DF03B091E0039C
:100A300026B5A89B05C02F3F19F00196A11DB11D39
:100A40003FBFBA2FA92F982F8827BC01CD01620F75
:100A5000711D811D911D42E0660F771F881F991F30
:100A60004A95D1F708958F929F92AF92BF92CF92FD
:100A7000DF92EF92FF924B015C010E940E056B0129
:100A80007C010E940E056C197D098E099F09683E44
:100A9000734081059105A8F321E0821A9108A1080D
:100AA000B10888EEC80E83E0D81EE11CF11C811449
:100AB0009104A104B10429F7FF90EF90DF90CF904B
:100AC000BF90AF909F908F9008958F929F92AF921A
:100AD000BF92CF92DF92EF92FF920F931F93CF932B
:100AE000DF936C017B018A0180913101882309F435
:100AF0005CC080910804882309F457C08091FA03F0
:100B000080FF05C08091E00082608093E000E801F2
:100B1000B12C8AEFA82E93E0892E2AE3922E2097FB
:100B200011F4BB20D9F10E94280181110AC0AA94B6
:100B3000AA20D9F161E070E080E090E00E943305E6
:100B4000EECF8C171D0611F00CF08C2F9FB7F89488
:100B50008092E9002091E80025FD02C09FBFDFCF11
:100B6000282F30E0C21BD30BF701815020F04191B8
:100B70004093F100FACFE20EF31EBB2021F09092D9
:100B8000E800B12CEBCF8091E80085FDE7CF909293
:100B9000E800BB24B394209709F3F3CF5D9884E673
:100BA0008093F903101611063CF081E090E0F60105
:100BB0009383828310E000E0C801DF91CF911F9101
:100BC0000F91FF90EF90DF90CF90BF90AF909F90EC
:100BD0008F9008952091B503260F3327331F2132BC
:100BE0003105ECF420912F04FC0190E080E02430EA
:100BF00069F082E00895A091B5032191AC014B56B4
:100C00005C4FA40FB52FB11D2C930196861798F356
:100C10008091B503680F6093B50380E0089581E08B
:100C2000089510922F0481E080932E0410920904FD
:100C300061E082E00E94AF0461E083E00E94AF04C3
:100C4000E9EBF0E080818E7F808380818D7F8083DF
:100C500088E48093B80085E48093BC000895CF9326
:100C6000DF9391E0909394038823B9F0C091B8008A
:100C7000D091BA008091BC008A7B8093BC0060E078
:100C800082E00E94AF0460E083E00E94AF040E9413
:100C90001106D093BA00C093B800DF91CF910895A8
:100CA0000895E091E6038091E503E81730F4F0E061
:100CB000EC58FC4F808190E008958FEF9FEF0895EE
:100CC0009091E6038091E5032FEF3FEF981748F4EA
:100CD000E92FF0E0EC58FC4F208130E09F5F9093CB
:100CE000E603C90108958091E5039091E603891B0D
:100CF000990B0895CF92DF92EF92FF920F931F937B
:100D0000CF93DF937C01CB018A01209158042223E9
:100D100089F0EB016B01C40ED51ECC15DD0569F021
:100D20006991D701ED91FC910190F081E02DC7010F
:100D30000995F3CF642F0E94EA05C801DF91CF9196
:100D40001F910F91FF90EF90DF90CF900895CF9378
:100D5000DF931F92CDB7DEB7698320915804222319
:100D6000F9F020915504203258F021E030E0FC01E8
:100D70003383228390E080E00F90DF91CF9108953C
:100D800080915604E82FF0E0EB5CFB4F9981908353
:100D90008F5F809356048093550481E090E0ECCF00
:100DA00061E0CE0101960E94EA05F7CF682F86E444
:100DB00095E00C94A706CF92DF92EF92FF920F93EB
:100DC0001F93CF93C82F192F81E08093580480E69A
:100DD000809357041092560410925504613009F420
:100DE00089C008F482C0623009F487C0633009F416
:100DF00087C0612F86E495E00E94A7066C2F86E4E9
:100E000095E00E94A706C0915504C13208F0A0C029
:100E10000E940E056B017C0180912F04811173C02B
:100E200082E080932F0481E080932E048FEF8093E3
:100E30002D0410922C04C0932B04A5E3B4E0EBE046
:100E4000F4E080E0C81392C010920A0480910A0472
:100E5000806C80930A0480910904813009F08AC073
:100E6000109209040E940E056B017C0180910A0416
:100E70008093BB008091310490913204A09133049F
:100E8000B0913404892B8A2B8B2BA1F00E940E0584
:100E900000913104109132042091330430913404D4
:100EA0006C197D098E099F0906171707280739074E
:100EB00008F44AC08091BC0083FDD8CF85EC8093B4
:100EC000BC000E940E056B017C0180912F048230D2
:100ED00009F452C080912D048F3FD1F180912D04EF
:100EE0008032B1F180912D0433C080E490E00E9403
:100EF000D6067FCF82E490E0FACF84E490E0F7CF8B
:100F000086E490E0F4CF8091310490913204A09176
:100F10003304B0913404892B8A2B8B2B09F47CCFBA
:100F20000E940E0500913104109132042091330487
:100F3000309134046C197D098E099F090617170733
:100F40002807390708F068CF809130040E942F06E7
:100F5000109256041092550410925804CF911F918C
:100F60000F91FF90EF90DF90CF9008959D91919316
:100F70008F5F68CF85EEA3CF8091310490913204CA
:100F8000A0913304B0913404892B8A2B8B2B09F464
:100F90009CCF0E940E0500913104109132042091E3
:100FA0003304309134046C197D098E099F090617AA
:100FB00017072807390708F088CFC6CF90E080E0F0
:100FC00008952F923F924F925F926F927F928F92ED
:100FD0009F92AF92BF92CF92DF92EF92FF920F93C8
:100FE0001F93CF93DF93EC01FC01EC57FF4F808000
:100FF0009180A280B380349640805180628073805B
:1010000020E030E0A901C501B4010E941C1F81113C
:101010000AC020E030E040E85FE3C301B2010E9473
:101020001C1F882389F11E0188E7280E311C0FEF51
:101030001FE06C857D8590E080E00E94C91FA301C0
:1010400092010E948020A50194010E94B01E6B01B4
:101050007C0120E030E0A9010E947B2020E030E00C
:1010600040E05FE387FD23C0C701B6010E94B01EC8
:101070000E94931F611580E17807F0F47D876C87EB
:1010800022962C163D06A9F6DF91CF911F910F9164
:10109000FF90EF90DF90CF90BF90AF909F908F9098
:1010A0007F906F905F904F903F902F900895C70171
:1010B000B6010E94AF1EDCCF77FF03C01D861C86E1
:1010C000DFCF1D870C87DCCFCF93DF93EC01C257B6
:1010D000DF4F70E090E080E00E94C91F20E030EF19
:1010E0004FE755E40E94802020E030E04EEF52E4CC
:1010F0000E94211F0E949A1FCB016881DF91CF912E
:101100000C94DB06CF92DF92EF92FF92CF93DF93A6
:10111000EC016E817F81613080E27807C8F190E058
:1011200080E00E94C91F20E030E040E056E40E94C9
:10113000AF1E20E038EF4FEF55E40E94211F6B01F6
:101140007C016885798590E080E00E94C91F9B0141
:10115000AC01C701B6010E9480206B017C0120E038
:1011600030E0A9010E947B2020E030E040E05FE316
:1011700087FD27C0C701B6010E94B01E0E94931FC1
:10118000CB01DF91CF91FF90EF90DF90CF9008954A
:10119000611580E27807D1F090E080E00E94C91FDD
:1011A00020E030E040E056E40E94AF1E20E030E056
:1011B00040E059E30E9480206B017C016A857B85B9
:1011C000C2CFC701B6010E94AF1ED8CF70E060E069
:1011D000D7CFAF92BF92CF92DF92EF92FF920F9351
:1011E0001F93CF93DF93EC01AB809C0123573F4FBC
:1011F00069016A1508F49AC0B12C9501255C3F4F2E
:10120000062F10E0201731070CF490C06A836C8120
:1012100070E0C801860F971FF801EA19FB0936969E
:10122000EE0FFF1FEC0FFD1FE080F180281739073C
:101230000CF05DC0072E000C880B990B0E94CB1F91
:1012400020E030E848E852E40E9480200E949A1F83
:10125000798768876D8170E0061B170B0A151B05DF
:101260000CF054C0072E000C880B990B0E94CB1F6A
:1012700020E030E848E852E40E9480200E949A1F53
:101280007B876A87CE010E948208E80EF91EFE0164
:10129000EE57FF4F808191818E159F052CF0C7017D
:1012A000F7FE02C090E080E0FE01E257FF4F608150
:1012B0000E94DB0661E0F60180810E94AF0481E0BC
:1012C0008983FE01E457FF4F80818130A9F5C15722
:1012D000DF4F61E08881DF91CF911F910F91FF90E7
:1012E000EF90DF90CF90BF90AF900C94AF04FC01D3
:1012F000EA19FB093696EE0FFF1FEC0FFD1F8081E8
:1013000091818E199F0999878887A4CFF801EA19DE
:10131000FB093696EE0FFF1FEC0FFD1F80819181B8
:10132000F701E81BF90BFB87EA87ACCF60E0F60119
:1013300080810E94AF041982DF91CF911F910F919C
:10134000FF90EF90DF90CF90BF90AF900895EF9215
:10135000FF920F931F93CF93DF93FC0177836683F4
:10136000C281E380CE1578F1F12CD0E0C701CB9695
:101370008C179D0744F18F01CF010E948208CE197E
:10138000DF092696CC0FDD1FC00FD11F28813981C0
:10139000280F391FF801EE57FF4F80819181821786
:1013A00093072CF0C90137FF02C090E080E0F801FC
:1013B000E257FF4F6081DF91CF911F910F91FF9016
:1013C000EF900C94DB06DF91CF911F910F91FF906E
:1013D000EF900895CF93DF93EC01FC01E357FF4FAB
:1013E00060E080810E94AF041982DF91CF9108955F
:1013F0000F931F93CF93DF93EC012881398133271B
:10140000F901EC5EFE4F8491F901EB50FF4F04911E
:10141000F901EA52FF4F1491112309F453C08111CD
:101420000E946304E12FF0E0EE0FFF1FE455FF4F31
:10143000A591B491EC910E2331E020E009F430E065
:10144000832F922F2A813B812817390779F02FB7F4
:10145000F8944091D9035091DA036091DB037091C5
:10146000DC032FBF4E835F83688779872FB7F8949B
:101470004091D9035091DA036091DB037091DC0352
:101480002FBF0E811F8128853985401B510B620BB0
:10149000730B0A851B852C853D85041715072607C8
:1014A000370738F42C813D812817390711F09D83C7
:1014B0008C839B838A838C819D81DF91CF911F9147
:1014C0000F91089590E080E0BDCFFC0101900020D5
:1014D000E9F73197AF01481B590BBC0189EA94E049
:1014E0000C9495028F929F92AF92BF920F931F938D
:1014F000CF93DF93CDB7DEB7A1970FB6F894DEBFD9
:101500000FBECDBF19A2423008F44AE08E010F5D34
:101510001F4F842E912CB12CA12CA50194010E9467
:10152000F220E62FB901CA01EA30F4F4E05DD801F7
:10153000EE938D01232B242B252B79F790E080E06F
:10154000109719F0CD010E94650AA1960FB6F89484
:10155000DEBF0FBECDBFDF91CF911F910F91BF9026
:10156000AF909F908F900895E95CE1CFCF92DF928A
:10157000EF92FF92CF93DF936B017C016DE289EADA
:1015800094E00E94F703EC0166277727CB016C19E2
:101590007D098E099F094AE00E94720A8C0F9D1FE7
:1015A000DF91CF91FF90EF90DF90CF9008950C9452
:1015B000650ACF93DF930E94650AEC018EE092E00A
:1015C0000E94650A8C0F9D1FDF91CF910895682FAF
:1015D00070E090E080E04AE00C94720ACF93DF93D1
:1015E0000E94E70AEC018EE092E00E94650A8C0FEF
:1015F0009D1FDF91CF9108950F931F93CF93DF939A
:10160000EC01C454D84F2885222309F43EC08C0134
:1016100081E192E00E94D70A88810E94EE0A288127
:1016200080E9809FF001819FF00D1124EE5AFA4F5E
:101630008281E7EEF3E028135DC0C7E0D0E0878148
:10164000803891F187E192E00E94D70AC951DC4FBE
:1016500088810E94EE0A809125018530D9F4688145
:1016600082E595E00E94E908688182EE95E00E949B
:10167000E908688182E796E00E94E908688182E0D3
:1016800097E00E94E90880E88883DF91CF911F915D
:101690000F91089520E9209FC001219F900D1124F2
:1016A00068818E5A9A4FEDCF21973197CF3FDC0753
:1016B00031F6809125018530A1F482E595E00E9404
:1016C000EA0982EE95E00E94EA0982E796E00E942C
:1016D000EA0982E097E0DF91CF911F910F910C947E
:1016E000EA0920E9209FC001219F900D11248E5A04
:1016F0009A4FF1CF90E080E03191231306C08951D9
:101700009C4F20E8FC012083C0CF019688309105D2
:1017100099F7BBCFCF92DF92EF92FF920F931F9377
:10172000CF93DF93EC01C454D84F2C81222309F4CA
:101730008CC08C0180E9809FF001819FF00D112405
:10174000EE5AFA4F8181882311F1E7EEF3E0F12C94
:10175000E12C8191803809F065C083E292E00E941B
:10176000D70A20E9209FC001219F900D11249C01E0
:101770002E5A3A4F6901D90112968C910E94EE0AB5
:10178000F701E951FC4FD60112968C918083888134
:101790000E94EE0AF090250135E0F3124CC06881FA
:1017A00082E595E00E94E908688182EE95E00E945A
:1017B000E908688182E796E00E94E908688182E092
:1017C00097E00E94E9088FEF8F0D8230F0F580E9F5
:1017D000809FF001819FF00D1124EE5AFA4F108185
:1017E0001F3F99F16C8570E090E080E00E94C91F76
:1017F00020E030EF4FE755E40E94802020E030E009
:101800004EEF52E40E94211F0E949A1FCB01612FCC
:10181000DF91CF911F910F91FF90EF90DF90CF90CC
:101820000C94DB06BFEFEB1AFB0A28E0E216F1048A
:1018300009F08FCFACCF20E9209FC001219F900DF0
:10184000112468818E5A9A4FBCCFDF91CF911F919E
:101850000F91FF90EF90DF90CF900895CF93DF939B
:10186000BC0190E080E04AE00E94720AEC018EE048
:1018700092E00E94650A8C0F9D1FDF91CF91089521
:101880008F929F92AF92BF92CF92DF92EF92FF9290
:101890001F93CF93DF936B017C01AC019B010E94EE
:1018A000ED208823B9F08CE292E00E94650AEC01F9
:1018B0008EE092E00E94650A8C0F9D1FDF91CF9110
:1018C0001F91FF90EF90DF90CF90BF90AF909F90CF
:1018D0008F90089546015701E894B7F82FEF3FEF36
:1018E0004FE75FE7C501B4010E94ED2081110DC0F3
:1018F0002FEF3FEF4FE75FE7C501B4010E941C1FC8
:1019000018161CF480E392E0D0CF2FEF3FEF4FE7A3
:101910005FE4C701B6010E947B2018161CF484E323
:1019200092E0C3CF2FEF3FEF4FE75FECC701B60167
:101930000E941C1F87FDF3CF20E030E0A901C70102
:10194000B6010E941C1FD0E0C0E087FF0AC06DE214
:1019500089EA94E00E94F703EC01F7FAF094F7F8B3
:10196000F09426E137EB41E558E3C701B6010E9448
:10197000B01E6B017C010E949A1F4B015C010E940A
:10198000C91F9B01AC01C701B6010E94AF1E6B01CC
:101990007C014AE0C501B4010E94720AC80FD91F38
:1019A0006EE289EA94E00E94F703C80FD91F15E0A0
:1019B000115009F47DCF20E030E040E251E4C7014E
:1019C000B6010E9480204B015C010E949A1F6B01AE
:1019D000F12CE12C4AE0C701B6010E94720AC80F3F
:1019E000D91FC701B6010E94C91F9B01AC01C501E7
:1019F000B4010E94AF1E6B017C01DACFCF93DF935D
:101A0000BC01990F880B990B4AE00E94720AEC0105
:101A10008EE092E00E94650A8C0F9D1FDF91CF91AE
:101A2000089585ED8093BC0080913104909132043B
:101A3000A0913304B09134040796A11DB11D23E099
:101A4000B695A795979587952A95D1F72091BC00D3
:101A500024FD03C010922F04089540913104509149
:101A600032046091330470913404452B462B472B8C
:101A700069F30097A105B10541F025E32A95F1F737
:101A800000000197A109B109E1CF809130040C94C5
:101A90002F06FF920F931F93CF93DF93EC01F62E47
:101AA00008811981C8010E94991EF81621F06F2D36
:101AB000C8010E94A11ECE01DF91CF911F910F910D
:101AC000FF900895CF92DF92EF92FF920F931F93B2
:101AD000CF93DF9300D0CDB7DEB76C017C0102E07D
:101AE00010E01A830983F70161917F01CE0101960D
:101AF0000E94490D0F5F1F4F0232110591F7C60179
:101B00000F900F90DF91CF911F910F91FF90EF9069
:101B1000DF90CF900895CF92DF92EF92FF920F93D4
:101B20001F93CF93DF9300D0CDB7DEB76C017C015C
:101B300002E212E01A830983F70161917F01CE016D
:101B400001960E94490D0F5F1F4F0532F2E01F07FB
:101B500089F7C6010F900F90DF91CF911F910F91E0
:101B6000FF90EF90DF90CF9008950F931F93CF9346
:101B7000DF9300D0CDB7DEB78C0185E292E09A8387
:101B80008983F8016081CE0101960E94490D86E2A9
:101B900092E09A838983F8016181CE0101960E94C7
:101BA000490DC8010F900F90DF91CF911F910F91B8
:101BB0000895AF92BF92CF92DF92EF92FF920F9370
:101BC0001F93CF93DF9300D0CDB7DEB78B016B01AE
:101BD00028E7C20ED11C7B015C01A61AB70AC50119
:101BE0008E0D9F1D9A838983F70161917F01CE013C
:101BF00001960E94490DEC14FD0489F7C8010F906D
:101C00000F90DF91CF911F910F91FF90EF90DF9098
:101C1000CF90BF90AF9008950F931F93CF93DF9312
:101C200000D0CDB7DEB78B019A838983FB01608139
:101C3000CE0101960E94490DC8010F900F90DF91CF
:101C4000CF911F910F910895CF92DF92EF92FF9263
:101C50000F931F93CF93DF93EB017B0128E7E20EF5
:101C6000F11C8B016C01C61AD70AC601800F911FA7
:101C70000E94991EF80181938F01EE15FF05A9F7C7
:101C8000CE01DF91CF911F910F91FF90EF90DF90E8
:101C9000CF900895CF93DF93EB010E94991E888324
:101CA000CE01DF91CF9108950F931F93CF93DF93D0
:101CB0006CEC77E090E080E00E944A0E65E575E00C
:101CC00081E090E00E944A0E65EE75E081E090E0D0
:101CD0000E944A0E65E776E081E090E00E944A0E9D
:101CE00065E077E081E090E00E944A0E02E011E0BA
:101CF000C2E0D0E0CE010E94991EF80181938F01CD
:101D00002196C232D105B1F76EE575E082E490E02C
:101D10000E94240E6EEE75E08AEB90E00E94240E85
:101D20006EE776E082E391E00E94240E6EE077E0B9
:101D30008AEA91E00E94240E82E292E00E94991EBB
:101D40008093220183E292E00E94991E80932301F6
:101D500084E292E00E94991E8093240185E292E041
:101D60000E94991E8093000186E292E00E94991ED3
:101D70008093010162EF73E087E292E00E944A0ED5
:101D80006DEC77E088E292E00E944A0E6EEC77E01C
:101D900089E292E00E944A0E6FEC77E08AE292E0DC
:101DA0000E944A0E90910001909356058091010186
:101DB000809357059093E6058093E7059093760608
:101DC000809377069093060780930707809102011E
:101DD00090910301A0910401B09105018093D60573
:101DE0009093D705A093D805B093D90580910601AB
:101DF00090910701A0910801B09109018093DA0543
:101E00009093DB05A093DC05B093DD0580910A017A
:101E100090910B01A0910C01B0910D018093660689
:101E200090936706A0936806B093690680910E01AF
:101E300090910F01A0911001B091110180936A0659
:101E400090936B06A0936C06B0936D06809112017F
:101E500090911301A0911401B09115018093F606A1
:101E60009093F706A093F806B093F90680911601B7
:101E700090911701A0911801B09119018093FA0671
:101E80009093FB06A093FC06B093FD0680911A0187
:101E900090911B01A0911C01B0911D0180938607B8
:101EA00090938707A0938807B093890780911E01BC
:101EB00090911F01A0912001B091210180938A0788
:101EC00090938B07A0938C07B0938D0782E595E0E4
:101ED0000E94E10782EE95E00E94E10782E796E02A
:101EE0000E94E10782E097E00E94E1078091F203FF
:101EF0008093DE0580936E068093FE0680938E07A6
:101F000088E392E00E94D70A82E00E94EE0A88E30A
:101F100092E00E94D70A80E40E94EE0A89E492E0EF
:101F20000E94D70A809122010E94EE0A8FE492E07B
:101F30000E94D70A809123010E94EE0A85E592E073
:101F40000E94D70A809124010E94EE0A89E593E05D
:101F50000E94D70A809100010E94EE0A88E693E071
:101F60000E94D70A809101010E94EE0A8EE592E05C
:101F70000E94D70A8091CC0790E001960E94FE0C47
:101F80008BE592E00E94D70A8091CD0790E0019600
:101F90000E94FE0C88E692E00E94D70A8091CE074C
:101FA00090E001960E94FE0C85E792E00E94D70A1D
:101FB0008091CF0790E001960E94FE0C82E892E0AB
:101FC0000E94D70A809155050E94E70A8DE492E0AD
:101FD0000E94D70A8091E5050E94E70A8DE492E00D
:101FE0000E94D70A809175060E94E70A8DE492E06C
:101FF0000E94D70A809105070E94EE0A85E992E0C7
:102000000E94D70A8091F2030E94EE0A87EA92E0CA
:102010000E94D70A6091D6057091D7058091D805A6
:102020009091D9050E94400C83EB92E00E94D70A60
:102030006091DA057091DB058091DC059091DD05FA
:102040000E94400C8DEB92E00E94D70A60916606D8
:102050007091670680916806909169060E94400C15
:1020600089EC92E00E94D70A60916A0670916B0633
:1020700080916C0690916D060E94400C83ED92E079
:102080000E94D70A6091F6067091F7068091F806D3
:102090009091F9060E94400C8FED92E00E94D70AC1
:1020A0006091FA067091FB068091FC069091FD0606
:1020B0000E94400C89EE92E00E94D70A6091860748
:1020C0007091870780918807909189070E94400C42
:1020D00085EF92E00E94D70A60918A0770918B0782
:1020E00080918C0790918D070E94400CCEE5D5E041
:1020F00010E000E08FEF92E00E94D70A6091550552
:10210000600F712F711D072E000C880B990B4AE090
:102110000E94720A8DE492E00E94D70A6991799137
:1021200090E080E04AE00E94720A8DE492E00E9412
:10213000D70AFE01E257FF4F6081718190E080E095
:102140004AE00E94720A8DE492E00E94D70AFE01E2
:10215000E25EFE4F6081718190E080E04AE00E9483
:10216000720A8DE492E00E94D70AFE01E255FE4F0A
:10217000808191810E942E0C0F5F1F4F0C3311053F
:1021800009F0B8CFDF91CF911F910F9108951F9261
:102190000F920FB60F9211248F939F938091E100BD
:1021A0009091E100937F9093E10083FF0FC0109224
:1021B000E90091E09093EB001092EC0092E3909391
:1021C000ED001092080498E09093F00082FF22C086
:1021D00093E09093E9009091F200992319F09AE32B
:1021E0009093E8009091F903992341F09091F903BD
:1021F00091509093F903911101C05D9A9091070459
:10220000992341F090910704915090930704911104
:1022100001C0289A84FF18C08091E2008E7E816000
:102220008093E2008091E1008F7E8093E1008091B5
:10223000FA038E7E80618093FA039F918F910F90B5
:102240000FBE0F901F90189580FFF7CF8091E2008E
:102250008E7E80618093E2008091E1008E7E80938B
:10226000E1008091FA038E7E8160E5CF1F920F928C
:102270000FB60F921124CF92DF92EF92FF920F933D
:102280001F932F933F934F935F936F937F938F93FE
:102290009F93AF93BF93EF93FF93CF93DF93CDB70C
:1022A000DEB76C97DEBFCDBF1092E9008091E800E9
:1022B00083FF25C068E0CE0145960E94860282EF2A
:1022C0008093E8008D8987FF39C09091E80090FFE6
:1022D000FCCF982F907609F034C19E894F89588D94
:1022E0002F89F88C911131C0803861F58091F80305
:1022F0008093F1001092F1008EEF8093E8006C96CD
:102300000FB6F894DEBF0FBECDBFDF91CF91FF9126
:10231000EF91BF91AF919F918F917F916F915F915D
:102320004F913F912F911F910F91FF90EF90DF9070
:10233000CF900F900FBE0F901F9018959EEF909327
:10234000E800C7CF1092F100D5CF913059F4811138
:10235000D3CF4130510581F68091F8038D7F809372
:10236000F803CACF933049F48111C6CF41305105EB
:1023700019F68091F8038260F2CF953041F4809194
:10238000E80080FFFCCF20682093E300B5CF9630B3
:1023900009F0A9C00B8D1C8D22E01092E90010926B
:1023A000F6031092F503F2122EC01092F40310926D
:1023B000F3030E9455021F8299E09983FA8291E00B
:1023C0009E8390EA98879AEF99872091F503309140
:1023D000F603275F3F4F3C832B838D831092E900E8
:1023E0001092F6031092F5031093F4030093F30395
:1023F00049E050E0BE016F5F7F4F80E00E942F02F6
:102400000E94550279CF1093F4030093F3030E94C6
:102410003901DC0112960D911C910115110509F489
:1024200051C1D801ED91FC910480F581E02DBE01F0
:102430006B5E7F4FC8010995009709F03EC1F80116
:1024400000851185EACFF3E0FF120EC08F89882343
:1024500009F440C0823061F440E861E183E991E031
:102460000E94FC01811148CF81E28093EB0047CFAD
:10247000813029F440E867E08BE891E0F1CF8330C8
:1024800099F70E943901DC011296ED90FC908E01C3
:102490000F5F1F4F6801E114F10479F0D701ED914E
:1024A000FC910680F781E02DB801C7010995080F5E
:1024B000111DF701E084F184EECFD8011C92F601E2
:1024C00001900020E9F73197BF016C197D0940E0C8
:1024D000C601C6CF65E771E0FB01449150E080E89A
:1024E0000E942F0209CF973009F4BECF983021F413
:1024F00081E08093F10000CF993009F0FDCE837028
:1025000009F0B2CFE2EDF1E081E031E096E3219114
:10251000222371F08093E9003093EB00DF011197E3
:102520002C912093EC009093ED008F5F873079F72A
:102530008EE78093EA001092EA008F898093080466
:10254000DBCE8B8D9C8D1092E9001092F6031092D9
:10255000F5039093F4038093F303898D811192C066
:102560008E899D89913A49F4813209F07DCF47E007
:1025700050E06AE271E080E0B3CF913209F074CFAD
:10258000833269F48F89988DB0E0A0E080932601B2
:1025900090932701A0932801B0932901ADCE8032FA
:1025A00069F48091E80082FFFCCF67E08AE291E065
:1025B0000E9486028BEF8093E8009ECE823209F063
:1025C0009BCE8F8980933101EEEFFFE78591949147
:1025D0008B3F9C4D51F1E0E0F8E080912A01909111
:1025E0002B01A0912C01B0912D01803B9440A105BD
:1025F000B105F1F48091310180FD1AC0EE3F8AE00F
:10260000F80789F587E797E79183808380916000D9
:102610008093F70388E19BE00FB6F894A895809328
:1026200060000FBE9093600067CEEEEFFAE0D5CF6A
:10263000808191818737974709F05ECEA895809178
:1026400060008861809360008091F7038093600050
:10265000EE3F2AE0F20789F08091FE0A9091FF0A8E
:102660009183808349CE808191818737980751F289
:102670009093FF0A8093FE0AC5CF1092FF0A109232
:10268000FE0A3ACE0E943901DC0112960D911C918E
:102690000115110509F4E8CED801ED91FC910190E6
:1026A000F081E02DBE016B5E7F4FC801099581115D
:1026B00023CEF80100851185EBCF181619060CF40E
:1026C0001BCED2CEF1E0FF12BECE69E771E004CF9F
:1026D0001F920F920FB60F9211242F933F934F9397
:1026E0005F936F937F938F939F93AF93BF93EF937A
:1026F000FF9389EA94E00E94D603FF91EF91BF9186
:10270000AF919F918F917F916F915F914F913F9189
:102710002F910F900FBE0F901F9018951F920F9240
:102720000FB60F9211242F938F939F93EF93FF93E4
:10273000E091B904F091BA048081E091BF04F09176
:10274000C00482FD1BC090818091C2048F5F8F7393
:102750002091C304821741F0E091C204F0E0E755F4
:10276000FB4F958F8093C204FF91EF919F918F91C2
:102770002F910F900FBE0F901F9018958081F4CF6E
:102780001F920F920FB60F9211242F933F938F93A6
:102790009F93AF93BF938091D9039091DA03A09157
:1027A000DB03B091DC033091D80323E0230F2D37F6
:1027B00058F50196A11DB11D2093D8038093D9032C
:1027C0009093DA03A093DB03B093DC038091DD03E5
:1027D0009091DE03A091DF03B091E0030196A11D6B
:1027E000B11D8093DD039093DE03A093DF03B093CC
:1027F000E003BF91AF919F918F913F912F910F90E7
:102800000FBE0F901F90189526E8230F0296A11D6A
:10281000B11DD2CF1F920F920FB60F9211242F939A
:102820003F934F935F936F937F938F939F93AF9358
:10283000BF93EF93FF938091B900887F803609F4AE
:102840004AC0F0F5883209F4A7C018F5803109F4C0
:102850009BC0B8F4882309F4F9C0883009F494C007
:10286000FF91EF91BF91AF919F918F917F916F9168
:102870005F914F913F912F910F900FBE0F901F903E
:102880001895883109F488C0803251F780932D045F
:1028900014C0803409F49DC040F48033B9F3883308
:1028A000F9F680932D0485ECB0C0803509F485C01D
:1028B000883509F496C0883499F60E94110DD0CF5E
:1028C000883909F48CC038F5883729F050F48836F7
:1028D00011F0803729F683E080932F041092D703FC
:1028E00057C0883809F47BC0803919F0803809F066
:1028F000B7CF8091D703803208F071C0E091D70341
:1029000081E08E0F8093D7038091BB00F0E0E95403
:10291000FC4F80833DC0803B39F0E0F4803A09F4FD
:1029200079C0883A09F09CCF84E080932F041092FC
:10293000B6031092B503E091E303F091E403099527
:102940008091B50381110FC081E08093B50310928F
:10295000950309C0803C09F4A6CF883C09F4A3CFB5
:10296000883B09F07DCFE091B60381E08E0F809324
:10297000B603F0E0EB56FC4F80818093BB00909152
:10298000B6038091B50329C080910A048093BB00EF
:1029900085EC8093BC0064CF90912C0480912B0433
:1029A000981758F5E0912C0481E08E0F80932C0449
:1029B000F0E0E55FFB4F8081E9CFE0912C0481E0FE
:1029C0008E0F80932C048091BB00F0E0E55FFB4FFD
:1029D000808390912C0480912B049817C8F285E88D
:1029E000D8CFE0912C0481E08E0F80932C0480914D
:1029F000BB00F0E0E55FFB4F808380912E048111E6
:102A00005CCF81E08093090484EA8093BC0010923B
:102A10002F0426CF85EC8093BC0010922F04809168
:102A2000D703803230F4E091D703F0E0E954FC4F53
:102A300010826091D70370E0E091E103F091E2032E
:102A400087EB93E009951092D7030ACF10922D04DB
:102A500034CF0F931F93CF93DF93EC01162F042FE6
:102A60008FEF888319821A8284E28B831C821D82F5
:102A700080E090E29F838E83198618861B861A86D3
:102A800088E7E2E3F1E0DE011C9601900D928A9561
:102A9000E1F7FE01EC57FF4F108211821282138280
:102AA000349680E090E0A0E8BFE380839183A28326
:102AB000B38334961082339686E0808361E0812F61
:102AC0000E94DD04FE01E357FF4F1083C257DF4F22
:102AD0000883DF91CF911F910F910895CF92DF92DC
:102AE000EF92FF92CF93DF93E9E5F4E01382128235
:102AF00088EE93E0A0E0B0E084839583A683B7835B
:102B00002CED31E0318320832FEF3FEF3587248791
:102B1000E9EAF4E01382128284839583A683B78363
:102B20002EEE31E0318320832DEC30E03587248791
:102B30002CEC30E03787268728EC30E0318B208B77
:102B400029EC30E0338B228B2AEC30E0358B248B60
:102B50002EEC30E0378B268B118E128E138E148E56
:102B6000E6E4F5E01382128284839583A683B7831B
:102B700080E092E091838083ECEBF7E017AA8091EC
:102B8000AA019091AB01A091AC01B091AD0180AFD1
:102B900091AFA2AFB3AF14AE15AE16AE17AE109292
:102BA000FC071092020810920108CEEAD7E01E82BC
:102BB0001F821886198660E089E00E94DD0489E0A2
:102BC00090E09983888382E3C82ED12CE12CF12CEC
:102BD000CA86DB86EC86FD86C0EAD7E01E821F82AD
:102BE0001886198660E083E10E94DD0483E190E0AD
:102BF00099838883CA86DB86EC86FD86C2E9D7E0A6
:102C00001E821F821886198660E084E10E94DD041E
:102C100084E190E099838883CA86DB86EC86FD8612
:102C200040E068E082E595E00E94291541E062E11C
:102C300082EE95E00E94291542E065E182E796E088
:102C40000E94291543E066E182E097E0DF91CF9191
:102C5000FF90EF90DF90CF900C942915CF93DF93E6
:102C6000CDB7DEB7C35AD1090FB6F894DEBF0FBE99
:102C7000CDBF789484B5826084BD84B5816084BD05
:102C800085B5826085BD85B5816085BD80916E000A
:102C9000816080936E00109281008091810082603B
:102CA0008093810080918100816080938100809178
:102CB0008000816080938000809191008260809389
:102CC00091008091910081608093910080919000AB
:102CD0008160809390008091C10084608093C100E6
:102CE0008091C10082608093C1008091C1008160A9
:102CF0008093C1008091C30081608093C300809164
:102D0000C00082608093C0008091C2008160809387
:102D1000C20080917A00846080937A0080917A006A
:102D2000826080937A0080917A00816080937A003B
:102D300080917A00806880937A0010920804109243
:102D4000F8031092FA038091D70081608093D70036
:102D500080EA8093D80089B5806189BD89B5826099
:102D600089BD09B400FEFDCF61E070E080E090E035
:102D70000E9433058091D8008F7C80618093D800B9
:102D80008091E000807F8093E0008091E1008E7E62
:102D90008093E1008DE08093E200559A209AE091C3
:102DA000B904F091BA0482E08083E091B504F09117
:102DB000B6041082E091B704F091B8048FE38083E9
:102DC0001092C104E091BD04F091BE0486E08083BE
:102DD000E091BB04F091BC04808180618083E0912C
:102DE000BB04F091BC04808188608083E091BB04C7
:102DF000F091BC04808180688083E091BB04F091F5
:102E0000BC0480818F7D80831092E6031092E503DD
:102E100010925604109255040E94110683E992E024
:102E20009093E4038093E30384E992E09093E203B8
:102E30008093E10361E086E00E94DD0448E050E019
:102E400060E870E087EE93E00E941A210E94540E21
:102E50006090AE017090AF018090B0014424439423
:102E6000512CF0E0AF2EF0E0BF2E1092C007109270
:102E7000C1071092C2071092C3071092C4071092A4
:102E8000C5071092C6071092C7071092D807109274
:102E9000D9071092DA071092DB071092E40710921C
:102EA000E5071092E6071092E7071092EC071092E0
:102EB000ED071092EE071092EF071092F2071092B2
:102EC000F0071092F10789EA94E00E94F3021816C5
:102ED00019063CF589EA94E00E94D102182F87FD7B
:102EE00080930308612F80E00E94FF02612F81E040
:102EF0000E94FF02612F82E00E94FF02612F83E0A7
:102F00000E94FF028091030896E0980F9230F0F53E
:102F100081E08093F0078093F3075092020840927B
:102F200001088091250190E0813009F0C1C080E066
:102F30000E948A0B90E080E00E94FC0A8091D807F2
:102F4000882341F06091D0077091D10782E595E028
:102F50000E94A7098091E407882361F09091DC0723
:102F600080912201981306C06091E00782E097E00B
:102F70000E9464088091EC07882309F460C1609185
:102F8000E80782E796E00E94640859C18C3F31F45B
:102F90001092F30781E08093F107C3CF883F19F5C2
:102FA0008091F307882309F4BCCF809101089091A8
:102FB0000208009749F421E02093F00701969093CE
:102FC000020880930108ADCF8B30910521F421E0F8
:102FD0002093F107F3CF8731910581F71092020812
:102FE000109201089ECF803F09F09BCF81E0809333
:102FF000F20789EA94E00E94F302892BD1F389EA6F
:1030000094E00E94D10289EA94E00E94F302892BA5
:10301000D1F389EA94E00E94D1028093F80789EA0B
:1030200094E00E94F302892BD1F389EA94E00E9494
:10303000D1028093F90789EA94E00E94F302892B78
:10304000D1F389EA94E00E94D1028093FA0789EAD9
:1030500094E00E94F302892BD1F389EA94E00E9464
:10306000D1028093FB0789EA94E00E94F302892B46
:10307000D1F389EA94E00E94D1028093FC0700E03A
:10308000173F09F44ECF89EA94E00E94F302892B9E
:10309000D1F389EA94E00E94D102182F873F09F406
:1030A00040CFE02FF0E0E350F84F80830F5FE8CF90
:1030B000823049F580E00E948A0B90E080E00E9417
:1030C000FC0A81E090E00E948A0B81E090E00E947F
:1030D000FC0A8091D807882341F06091D007709155
:1030E000D10782E595E00E94A7098091D90788233E
:1030F00009F4A5C06091D2077091D30782EE95E0E4
:103100000E94A7099CC0833009F04BC080E00E9458
:103110008A0B90E080E00E94FC0A81E090E00E942F
:103120008A0B81E090E00E94FC0A82E090E00E941D
:103130008A0B82E090E00E94FC0A8091D8078823E5
:1031400041F06091D0077091D10782E595E00E942F
:10315000A7098091D907882341F06091D207709127
:10316000D30782EE95E00E94A7098091DA078823B1
:1031700041F06091D4077091D50782E796E00E94F4
:10318000A7098091E407882309F459C09091DC07CE
:1031900080912201981353C06091E00782E097E08C
:1031A000F2CE843009F08FC080E00E948A0B90E05C
:1031B00080E00E94FC0A81E090E00E948A0B81E09E
:1031C00090E00E94FC0A82E090E00E948A0B82E07C
:1031D00090E00E94FC0A83E090E00E948A0B83E06A
:1031E00090E00E94FC0A8091D807882341F060910A
:1031F000D0077091D10782E595E00E94A7098091E0
:10320000D907882341F06091D2077091D30782EEED
:1032100095E00E94A7098091DA07882341F0609128
:10322000D4077091D50782E796E00E94A7098091A4
:10323000DB076091D6077091D70781116EC080912E
:10324000F407882309F4B5C08091F507882309F4B1
:10325000B0C08091F607882309F4ABC08091F707CE
:10326000882309F4A6C08091F203813021F460E044
:1032700086E00E94AF048EEA97E00E94F809209150
:10328000F1032817190609F480C082E997E00E942B
:10329000F8098C0180EA97E00E94F8097C018EEA27
:1032A00097E00E94F809892B09F072C383E0EF28A8
:1032B00021F486E0012B09F484E0809325018FEF4F
:1032C000809352056DC3853059F580E00E948A0BCA
:1032D00090E080E00E94FC0A8091D807882309F4DE
:1032E000AECF6091D0077091D10782E595E00E9442
:1032F000A7096091D0077091D10782EE95E00E94F6
:10330000A7096091D0077091D10782E796E00E94EB
:10331000A7096091D0077091D10782E097E0F0CEC5
:1033200080E00E948A0B90E080E00E94FC0A80917D
:10333000D807882341F06091D0077091D10782E5CA
:1033400095E00E94A7098091E407882309F477CFCC
:103350009091DC0780912201981306C06091E007EC
:1033600082EE95E00E9464089091DC078091230131
:10337000981306C06091E00782E796E00E94640817
:103380009091DC078091240105CF80EA97E00E94AC
:10339000F8092091F0032817190609F076CF82E981
:1033A00097E00E94F8092091EF032817190609F009
:1033B0006CCF8091D907882369F0809125018250D4
:1033C000833040F46091D2077091D30782EE95E08C
:1033D0000E94A7098091DA07882369F0809125016E
:1033E0008350823040F46091D4077091D50782E712
:1033F00096E00E94A7098091DB07882361F0809105
:103400002501843041F46091D6077091D70782E09E
:1034100097E00E94A7098091F007882329F0809106
:10342000F20361E0882349F08091F107882341F09D
:103430008091F203811104C060E086E00E94AF0435
:103440008091F207882309F468C48091F8078230DC
:1034500009F0C0C08091F907803409F0BBC08091A9
:10346000FB078F3F09F0B6C08091FA07853009F05D
:10347000B1C061E086E00E94AF0489E093E00E9461
:10348000D90A10E000E060E0C8010E94A11E0F5FB1
:103490001F4F011524E01207B1F788E7E2E3F1E0DE
:1034A000DE01119601900D928A95E1F780E2E1EB41
:1034B000F1E0DE01A758BF4F01900D928A95E1F728
:1034C000C756DF4F688279828A82C959D04082E02C
:1034D000C456DF4F8883CC59D040C356DF4F888312
:1034E000CD59D040CD55DF4F1882C35AD040CE556C
:1034F000DF4F1882C25AD04091E0CF55DF4F9883FA
:10350000C15AD040C056DF4F8883C05AD04083E0B4
:10351000C156DF4F8883CF59D04084E2C256DF4F77
:103520008883CE59D040BE016E557F4F90E080E039
:103530000E940C0EBE0162567F4F81E090E00E9417
:103540000C0ECE0187589F4F0E94620DBE016F5F27
:103550007F4F82E490E00E94D90DBE016F5F7F4FE4
:103560008AEB90E00E94D90DBE016F5F7F4F82E32E
:1035700091E00E94D90DBE016F5F7F4F8AEA91E012
:103580000E94D90DCE0187569F4F0E948B0DCE0110
:1035900084569F4F0E94B50DBE016D557F4F87E247
:1035A00092E00E940C0EBE016F557F4F88E292E0C0
:1035B0000E940C0EBE0160567F4F89E292E00E948D
:1035C0000C0EBE0161567F4F8AE292E00E940C0E03
:1035D0000E94540E8091F807823041F58091F907DE
:1035E000803441F58091FB078F3121F58091FA07F6
:1035F000853001F561E086E00E94AF048091FC0710
:103600008111FAC16DEF77E090E080E00E940C0E2E
:103610008091FD078093CC078EE592E00E94D70A47
:103620008091CC0790E001960E94FE0C8091F807F3
:10363000823091F58091F907803471F58091FB0714
:10364000803251F58091FA07853031F561E086E0EE
:103650000E94AF048091FD07809355058093E50596
:10366000809375068093050765E575E081E090E03D
:103670000E940C0E82E892E00E94D70A80915505C4
:103680000E94EE0A64EF71E080E090E00E94330552
:1036900060E086E00E94AF048091F807823009F074
:1036A0007FC08091F907803409F07AC08091FB07D0
:1036B000853109F075C08091FA07853009F070C036
:1036C00061E086E00E94AF040091FC0788E0089F5B
:1036D000800111240E5F1E4F6091FE07E0E86E9F8F
:1036E000C00111246091FD07680F792F711D072E0D
:1036F000000C880B990B0E94CB1F20E030E04AE7BA
:1037000054E40E94AF1EF801608371838283938327
:1037100082E091E00E94620D2091FC0730E010E908
:10372000129FC001139F900D11248E5A9A4FDC01F5
:10373000AC57BF4F73E0220F331F7A95E1F7F901C1
:10374000EE5FFE4F40815181628173814D935D93A5
:103750006D937C9313970E94E10784E193E00E94AC
:10376000D70A8091FC070E94EE0A8AEA92E00E9442
:10377000D70AE091FC071E9FF0011124EA52FA4F8C
:1037800060817181828193810E94400C64EF71E0BD
:1037900080E090E00E94330560E086E00E94AF0484
:1037A0008091F807823009F07FC08091F90780345A
:1037B00009F07AC08091FB07863109F075C08091CD
:1037C000FA07853009F070C061E086E00E94AF041E
:1037D0000091FC07F8E00F9F800111240E5F1E4F3F
:1037E0006091FE0720E8629FC00111246091FD07EF
:1037F000680F792F711D072E000C880B990B0E9402
:10380000CB1F20E030E44CE156E40E94211FF80178
:10381000648375838683978382E091E00E94620DC2
:103820002091FC0730E010E9129FC001139F900D1A
:1038300011248E5A9A4FDC01A857BF4F63E0220F24
:10384000331F6A95E1F7F901EE5FFE4F4481558120
:10385000668177814D935D936D937C9313970E945E
:10386000E10784E193E00E94D70A8091FC070E945F
:10387000EE0A86EB92E00E94D70AE091FC071E9FB9
:10388000F0011124E652FA4F6081718182819381A7
:103890000E94400C64EF71E080E090E00E943305EC
:1038A00060E086E00E94AF048091F807823009F062
:1038B00014C18091F907803449F58091FB07873165
:1038C00009F0A0C18091FA07853001F58091FC07CD
:1038D000E091BC07F0E98F9FD0011124AE5ABA4F96
:1038E00013969C91E91BFF0B28E4829FE00DF11DCC
:1038F0001124EE0FFF1FE25AFA4F8081918120912F
:10390000FD072111C1C00197918380838091F90740
:10391000803409F0E7C08091FB078D3109F0E2C0E7
:103920008091FA07853009F0DDC061E086E00E94F1
:10393000AF04E091FC07F0E0EE5DFE4F8091FD07E3
:10394000808382E291E00E948B0D89E492E00E94E4
:10395000D70A809122010E94EE0A8FE492E00E9431
:10396000D70A809123010E94EE0A85E592E00E9429
:10397000D70A809124010E94EE0A64EF71E080E092
:1039800090E00E94330560E086E00E94AF04AAC088
:10399000EF2839F181E080932501809352058FEF64
:1039A0008093E2058EEA97E00E94F80921E0892BD6
:1039B00009F420E02093F10380EA97E00E94F809DF
:1039C00021E0892B09F420E02093F00382E997E0BD
:1039D0000E94F80921E0892B09F420E02093EF03ED
:1039E000E8CC85E0012B09F068CC82E080932501CA
:1039F0008093520583E0D4CF813089F46DEF77E076
:103A000088E292E00E940C0E8091FD078093CD0722
:103A10008BE592E00E94D70A8091CD0703CE8230D9
:103A200089F46DEF77E089E292E00E940C0E8091BC
:103A3000FD078093CE0788E692E00E94D70A809126
:103A4000CE07F0CD833009F0F1CD6DEF77E08AE25B
:103A500092E00E940C0E8091FD078093CF0785E7CE
:103A600092E00E94D70A8091CF0790E001960E94D1
:103A7000FE0C64EF71E080E090E00E94330560E0AE
:103A800086E00E94AF04D2CD01963ECF813029F46A
:103A90006EEE75E08AEB90E0C5C0823029F46EE7E7
:103AA00076E082E391E0BEC0833009F0BDC06EE0F5
:103AB00077E08AEA91E0B6C087010A33110509F080
:103AC000C9C084E193E00E94D70A8091FC070E945C
:103AD000E70A8FE393E00E94D90A8091F8078230C9
:103AE00009F414CF8091F8078230E1F58091F9074D
:103AF0008034C1F58091FB078E31A1F58091FA07E2
:103B0000853081F561E086E00E94AF04E091FC071A
:103B1000F0E0E050FF4F8091FD07808380E091E06E
:103B20000E94B50D8091FC0781115BC0809100015E
:103B3000809356058093E60580937606809306076A
:103B400084E593E00E94D70A809100010E94EE0A6A
:103B500064EF71E080E090E00E94330560E086E071
:103B60000E94AF048091F807823009F0D6C080919E
:103B7000F907803409F0D1C08091FB07813209F048
:103B8000CCC08091FA07853009F0C7C061E086E0BB
:103B90000E94AF048091FC078093F20362EF73E010
:103BA00087E292E00E940C0E8091F2038093DE0582
:103BB00080936E068093FE0680938E0785E992E0DF
:103BC0000E94D70A8091F2030E94EE0A64EF71E02E
:103BD00080E090E00E94330560E086E00E94AF0440
:103BE0009CC080910101809357058093E7058093E5
:103BF00077068093070783E693E00E94D70A8091B7
:103C00000101A4CF883109F081CE8091FA07853077
:103C100009F07CCE8091FC07811138CF6EE575E00C
:103C200082E490E00E94D90D84E193E00E94D70ADB
:103C30008091FC070E94E70A8CE193E00E94D90A78
:103C4000E091FC0780E9E89FF0011124E25AFA4F65
:103C500001E010E082819381680121E0C21AD1085D
:103C600078012FEFE21AF20A208131813296821711
:103C7000930730F0228133812817390708F01CCFD1
:103C800083E293E00E94D70AE091FC0780E9E89F75
:103C9000F0011124EE5AFA4F8381800F912F911D6C
:103CA0000E94FE0C8091FC0798E4992EF601989EE4
:103CB000E00DF11D1124EE0FFF1FE25AFA4F808133
:103CC00091810E942E0C8091FC07F801989EE00DD6
:103CD000F11D1124EE0FFF1FE25AFA4F80819181EE
:103CE0000E942E0C8091FC07F701989EE00DF11DBB
:103CF0001124EE0FFF1FE25AFA4F808191810E943A
:103D00002E0C84E193E00E94D70A8091FC070E9468
:103D1000E70A8AE293E00E94D90AA114B10409F4E7
:103D2000A4C80E94C203882309F498C80E94000016
:103D300095C8F999FECF92BD81BDF89A992780B5B3
:103D40000895262FF999FECF1FBA92BD81BD20BDDF
:103D50000FB6F894FA9AF99A0FBE01960895505842
:103D6000BB27AA270E94C71E0C9441200E94332023
:103D700038F00E943A2020F039F49F3F19F426F4DD
:103D80000C9430200EF4E095E7FB0C942A20E92FE8
:103D90000E94522058F3BA176207730784079507E9
:103DA00020F079F4A6F50C9474200EF4E0950B2E17
:103DB000BA2FA02D0B01B90190010C01CA01A0017D
:103DC0001124FF27591B99F0593F50F4503E68F1D8
:103DD0001A16F040A22F232F342F4427585FF3CF19
:103DE000469537952795A795F0405395C9F77EF4EA
:103DF0001F16BA0B620B730B840BBAF09150A1F033
:103E0000FF0FBB1F661F771F881FC2F70EC0BA0FB8
:103E1000621F731F841F48F4879577956795B79540
:103E2000F7959E3F08F0B0CF9395880F08F099273B
:103E3000EE0F9795879508950E94062008F481E07B
:103E400008950E94351F0C9441200E943A2058F09A
:103E50000E94332040F029F45F3F29F00C942A207F
:103E600051110C9475200C9430200E94522068F35C
:103E70009923B1F3552391F3951B550BBB27AA2723
:103E800062177307840738F09F5F5F4F220F331F5D
:103E9000441FAA1FA9F335D00E2E3AF0E0E832D025
:103EA00091505040E695001CCAF72BD0FE2F29D028
:103EB000660F771F881FBB1F261737074807AB07FA
:103EC000B0E809F0BB0B802DBF01FF2793585F4F6F
:103ED0003AF09E3F510578F00C942A200C947520FE
:103EE0005F3FE4F3983ED4F3869577956795B79551
:103EF000F7959F5FC9F7880F911D9695879597F95C
:103F00000895E1E0660F771F881FBB1F62177307D4
:103F10008407BA0720F0621B730B840BBA0BEE1FE9
:103F200088F7E09508950E949A1F6894B1110C9447
:103F3000752008950E945A2088F09F5798F0B92F55
:103F40009927B751B0F0E1F0660F771F881F991FCE
:103F50001AF0BA95C9F714C0B13091F00E947420DC
:103F6000B1E008950C947420672F782F8827B85FEC
:103F700039F0B93FCCF3869577956795B395D9F726
:103F80003EF490958095709561957F4F8F4F9F4F30
:103F90000895E89409C097FB3EF49095809570953C
:103FA00061957F4F8F4F9F4F9923A9F0F92F96E985
:103FB000BB279395F695879577956795B795F111FA
:103FC000F8CFFAF4BB0F11F460FF1BC06F5F7F4F97
:103FD0008F4F9F4F16C0882311F096E911C07723A9
:103FE00021F09EE8872F762F05C0662371F096E8B2
:103FF000862F70E060E02AF09A95660F771F881F81
:10400000DAF7880F9695879597F90895990F000824
:10401000550FAA0BE0E8FEEF16161706E807F9079A
:10402000C0F012161306E407F50798F0621B730B35
:10403000840B950B39F40A2661F0232B242B252BB6
:1040400021F408950A2609F4A140A6958FEF811D59
:10405000811D089597F99F6780E870E060E00895FA
:104060009FEF80EC089500240A9416161706180690
:104070000906089500240A9412161306140605066C
:104080000895092E0394000C11F4882352F0BB0FFD
:1040900040F4BF2B11F460FF04C06F5F7F4F8F4F60
:1040A0009F4F089557FD9058440F551F59F05F3F9B
:1040B00071F04795880F97FB991F61F09F3F79F04A
:1040C00087950895121613061406551FF2CF4695CC
:1040D000F1DF08C0161617061806991FF1CF86954E
:1040E0007105610508940895E894BB276627772732
:1040F000CB0197F908950E94062008F48FEF0895E8
:104100000E9493200C9441200E94332038F00E949A
:104110003A2020F0952311F00C942A200C943020A2
:1041200011240C9475200E94522070F3959FC1F3C6
:10413000950F50E0551F629FF001729FBB27F00D55
:10414000B11D639FAA27F00DB11DAA1F649F6627AA
:10415000B00DA11D661F829F2227B00DA11D621FF9
:10416000739FB00DA11D621F839FA00D611D221FB3
:10417000749F3327A00D611D231F849F600D211D97
:10418000822F762F6A2F11249F5750409AF0F1F01A
:1041900088234AF0EE0FFF1FBB1F661F771F881F83
:1041A00091505040A9F79E3F510580F00C942A2071
:1041B0000C9475205F3FE4F3983ED4F38695779591
:1041C0006795B795F795E7959F5FC1F7FE2B880F29
:1041D000911D9695879597F908950E940620880B62
:1041E000990B0895A1E21A2EAA1BBB1BFD010DC05D
:1041F000AA1FBB1FEE1FFF1FA217B307E407F50797
:1042000020F0A21BB30BE40BF50B661F771F881F72
:10421000991F1A9469F760957095809590959B0108
:10422000AC01BD01CF010895EE0FFF1F0590F49181
:10423000E02D0994DC0101C06D9341505040E0F73E
:064240000895F894FFCF81
:104246000202000000000000803F000000000000A5
:10425600803F000000000000803F000000000000DA
:10426600803F01474A04FFFFFFFF00E10000000016
:104276000000000044008900CD00110155019A019B
:10428600DE0122026602AB02EF0233037703BC03B0
:10429600000444048804CD04110555059905DE057E
:1042A60022066606AA06EF0633077707BB0700084D
:1042B60044088808CC08110955099909DD09220A1C
:1042C600660AAA0AEE0A330B770BBB0BFF0B440CEC
:1042D600880CCC0C100D550D990DDD0D210E660EBA
:1042E600AA0EEE0E320F770FBB0F01010101014737
:1042F6004A000000000000803F000000000000802F
:104306003F000000000000803F0000000000008029
:104316003F00C18081000000000000004D016505DE
:104326006E016301B4017201900100000000F70301
:104336009502C2024304F302D102E5020000000026
:10434600A7067A06DE0750067306600651060D0AB2
:10435600006F66663A2000756E75736564206F6E31
:104366003A2000756E757365643A20006E616E00C2
:10437600696E66006F7666004D616E756661637480
:104386007572657249443A20004343313A2000432E
:1043960043323A20004343333A20005631204368E3
:1043A600616E6E656C3A20005632204368616E6E0F
:1043B600656C3A20005633204368616E6E656C3A30
:1043C60020004C6F77657374204D696469204E6FC9
:1043D60074653A20004F72204761746520456E610E
:1043E600626C65643A20005630204F6666736574C9
:1043F6003A20005630204761696E3A200056312037
:104406004F66667365743A20005631204761696EBF
:104416003A20005632204F66667365743A2000567D
:1044260032204761696E3A20005633204F66667324
:1044360065743A20005633204761696E3A20004D74
:104446006964694E756D3A20005365742045455080
:10445600524F4D00566F6963653A200020536176CE
:104466006564004D6964693A200020566572696684
:1044760069636174696F6E204661696C65640020CA
:10448600566572696669636174696F6E20506173FF
:1044960073656400506974636842656E6420557084
:1044A6003A2000506974636842656E6420446F77F1
:0444B6006E3A20003A
:00000001FF
