:100000000C94D4000C94FC000C94FC000C94FC00A8
:100010000C94FC000C94FC000C94FC000C94FC0070
:100020000C94FC000C94FC000C942F100C949E106B
:100030000C94FC000C94FC000C94FC000C94FC0050
:100040000C94FC000C94FC000C94FC000C94FC0040
:100050000C94FC000C94FC000C94FC000C942813F1
:100060000C94FC000C94F6120C94D0120C94FC002E
:100070000C94FC000C94FC000C94FC000C94FC0010
:100080000C94FC000C94FC000C94FC000C94FC0000
:100090000C9472130C94FC000C94FC000C94FC0067
:1000A0000C94FC000C94FC000C94FC00000000007C
:1000B0002300260029002C002F000000000024004F
:1000C00027002A002D003000000000002500280035
:1000D0002B002E0031000404040404030405020272
:1000E00002020403020202020606060606060404D1
:1000F0000202020404040802011040804010204063
:10010000804080080204018040201002011080100D
:10011000204040200000000200090F0000030401FD
:10012000000C0000000000000000000000000000C3
:10013000000000080B000202020000090400000198
:10014000020200000524001001052401010104241D
:10015000020605240600010705810310004009047A
:100160000100020A00000007050202400000070526
:1001700083024000000403090412010002EF02019F
:1001800040D80498E8000101020301556E6B6E6FC0
:10019000776E004D696469566F6C747320446573A3
:1001A0006B746F700000D91411241FBECFEFDAE01A
:1001B000DEBFCDBF13E0A0E0B1E0E0EAF8E402C0AA
:1001C00005900D92A636B107D9F727E0A6E6B3E071
:1001D00001C01D92AD3FB207E1F710E0C4EDD0E0E1
:1001E00004C02197FE010E944124C33DD107C9F7F5
:1001F0000E94DD150C944E240C9400008A3F51F4AB
:1002000081E08093D9078093DD071092E90710926F
:10021000E80708958B3F31F481E08093D9078093FC
:10022000DD0708958C3F31F41092DD0781E0809363
:10023000DA070895883F69F78091DD07882349F33D
:100240008091E8079091E9072091DB07009769F416
:1002500031E03093D907019628171906B1F2ACF2B4
:100260009093E9078093E8070895322F3695381761
:1002700019068CF731E03093DA07EDCFFC0180915D
:100280000804882311F13FB7F89482E08093E900D5
:100290002091F200822F90E01816190614F481E0E4
:1002A00090E0882339F0289844E640930704409171
:1002B000F1004083222339F02091F200211103C084
:1002C0002BE62093E8003FBF08958FEF9FEF08953E
:1002D0002FB7F89483E08093E9009091E800892F8C
:1002E000807295FF04C09091F20080E4891B2FBFBB
:1002F00008958091FF0381110DC082E08093FB037C
:1003000084E08093FC031092FE031092FD0381E0D1
:100310008093FF038BEF93E00895CF93DF931F92B9
:10032000CDB7DEB76983DC01ED91FC910280F381EA
:10033000E02D41E050E0BE016F5F7F4F09950F90C7
:10034000DF91CF91089583E08093E9008091F200DE
:10035000882319F08AE38093E80008950E946801D9
:1003600090E00895CF93DF931F92CDB7DEB7FC01E5
:100370008485958597FD08C02FEF3FEF358724874B
:100380000F90DF91CF910895CE0101960E943E011A
:10039000019719F4898190E0F3CF8FEF9FEFF0CFB1
:1003A0000F931F93CF93DF931F92CDB7DEB78C01CE
:1003B000FC018485958597FF0BC0CE0101960E94B4
:1003C0003E01019771F4898190E0F8019587848757
:1003D000F801848595850F90DF91CF911F910F9142
:1003E00008958FEF9FEFF1CFFC018485958597FDF0
:1003F0000BC09FB7F89482E08093E9008091F200EF
:100400009FBF90E0019608959FB7F89482E0809393
:10041000E9008091F2009FBF90E008954091F503BC
:100420005091F6032091F3033091F40342175307E0
:10043000B4F49091E8009570E1F39091E80092FD9A
:1004400019C08093F1008091F5039091F603019615
:100450008F739927892B19F48EEF8093E800809190
:10046000F5039091F60301969093F6038093F503BC
:1004700081E0089580E00895EF92FF920F931F931B
:10048000CF93DF93F82E192FE62E042F81E0860FED
:10049000880F0E940E0283E00E940E02CF2DD12F02
:1004A000EC0EFD2EF11CCE15DF05B9F007FF13C0D1
:1004B000FE0184910E940E02182F80E00E940E021D
:1004C000812321968111EFCFDF91CF911F910F9161
:1004D000FF90EF9008958881EDCF81E0F5CFDF9216
:1004E000EF92FF920F931F93CF93DF93D82E8A0141
:1004F000EB017B01E40EF51ECE15DF0559F0D7FEAA
:1005000012C0FE0184910E940E0221968111F4CF47
:100510000FEF1FEFC801DF91CF911F910F91FF9057
:10052000EF90DF9008958881EECF0F931F93CF93C4
:10053000DF931F92CDB7DEB782E0898342E450E0BB
:1005400063E371E080E80E946F020E947901DC01A0
:1005500012960D911C910115110589F0D801ED91AC
:10056000FC910280F381E02DBE016F5F7F4FC801D7
:10057000099597FD04C0F80100851185ECCF8981AC
:100580000F90DF91CF911F910F910895615030F03E
:100590002091F100FC0120830196F8CF289884E691
:1005A00080930704089508950895AF92BF92CF9263
:1005B000DF92EF92FF920F931F93CF93DF936C0123
:1005C0007B018B01040F151FEB015E01AE18BF0804
:1005D000C017D10759F06991D601ED91FC910190B6
:1005E000F081E02DC6010995892B79F7C501DF91CE
:1005F000CF911F910F91FF90EF90DF90CF90BF9020
:10060000AF900895FC01538D448D252F30E0842F49
:1006100090E0821B930B541710F0CF96089501972A
:100620000895FC01918D828D981761F0A28DAE0F17
:10063000BF2FB11D5D968C91928D9F5F9F73928F9E
:1006400090E008958FEF9FEF0895FC01918D828DCA
:10065000981731F0828DE80FF11D858D90E0089597
:100660008FEF9FEF0895FC01918D228D892F90E0EF
:10067000805C9F4F821B91098F739927089589EAA7
:1006800094E00E943303892BD1F389EA94E00E941D
:100690003303892BD1F389EA94E00E941103883F48
:1006A00018F00E94FE00F1CF089589EA94E00E94BC
:1006B000330321E0892B09F420E0822F089580E0A4
:1006C00090E0892B29F00E94550381110C940000C1
:1006D0000895FC01A48DA80FB92FB11DA35ABF4FD7
:1006E0002C91848D90E001968F739927848FA68931
:1006F000B7892C93A089B1898C9182748C93938D46
:10070000848D981306C00288F389E02D80818F7D47
:1007100080830895EF92FF920F931F93CF93DF93FF
:10072000EC0181E0888F9B8D8C8D981319C0E8892E
:10073000F989808185FF14C09FB7F894EE89FF89FD
:100740006083E889F9898081827480839FBF81E01A
:1007500090E0DF91CF911F910F91FF90EF9008955E
:10076000F62E0B8D10E00F5F1F4F0F731127E02E39
:100770008C8D8E110CC00FB607FCFACFE889F98971
:10078000808185FFF5CFCE010E946903F1CFEB8D0B
:10079000EC0FFD2FF11DE35AFF4FF0829FB7F89445
:1007A0000B8FEA89FB8980818062CFCFCF93DF9363
:1007B000EC01888D8823B9F0AA89BB89E889F98979
:1007C0008C9185FD03C0808186FD0DC00FB607FCAE
:1007D000F7CF8C9185FFF2CF808185FFEDCFCE01E1
:1007E0000E946903E9CFDF91CF91089581508F3046
:1007F00008F047C0E82FF0E0E050FC4F0C94412493
:100800001D0421040F04150419044104410441048A
:1008100024042A042E043204380441043C04809148
:1008200080008F77809380000895809180008F7D75
:10083000F9CF80918000877FF5CF84B58F7784BD15
:10084000089584B58F7DFBCF809190008F77809342
:1008500090000895809190008F7DF9CF8091900055
:10086000877FF5CF8091C0008F778093C000089577
:100870008091C0008F7DF9CF8091C200877F8093E7
:10088000C20008951F93CF93DF93282F30E0F90122
:10089000EC5EFE4F8491F901EB50FF4FD491F901CA
:1008A000EA52FF4FC491CC23A9F0162F81110E9468
:1008B000F603EC2FF0E0EE0FFF1FE853FF4FA5917A
:1008C000B4918FB7F894EC91111108C0D095DE2344
:1008D000DC938FBFDF91CF911F910895DE2BF8CF6E
:1008E000CF93DF9390E0FC01EB50FF4F24918A52AD
:1008F0009F4FFC0184918823D1F090E0880F991FCD
:10090000FC01E654FF4FA591B491FC01E853FF4F61
:10091000C591D49161110EC09FB7F8948C91E22FCC
:10092000E0958E238C932881E223E8839FBFDF919B
:10093000CF9108958FB7F894EC91E22BEC938FBF91
:10094000F6CF3FB7F8948091CB039091CC03A09160
:10095000CD03B091CE0326B5A89B05C02F3F19F05B
:100960000196A11DB11D3FBFBA2FA92F982F88272F
:10097000BC01CD01620F711D811D911D42E0660F0A
:10098000771F881F991F4A95D1F708958F929F92DC
:10099000AF92BF92CF92DF92EF92FF924B015C0138
:1009A0000E94A1046B017C010E94A1046C197D09C5
:1009B0008E099F09683E734081059105A8F321E0E7
:1009C000821A9108A108B10888EEC80E83E0D81EEB
:1009D000E11CF11C81149104A104B10429F7FF90DA
:1009E000EF90DF90CF90BF90AF909F908F90089541
:1009F0008F929F92AF92BF92CF92DF92EF92FF922F
:100A00000F931F93CF93DF936C017B018A01809139
:100A10003301882309F45CC080910804882309F419
:100A200057C08091FA0380FF05C08091E00082608A
:100A30008093E000E801B12C8AEFA82E93E0892E84
:100A40002AE3922E209711F4BB20D9F10E9468016D
:100A500081110AC0AA94AA20D9F161E070E080E077
:100A600090E00E94C604EECF8C171D0611F00CF02A
:100A70008C2F9FB7F8948092E9002091E80025FD23
:100A800002C09FBFDFCF282F30E0C21BD30BF7017E
:100A9000815020F041914093F100FACFE20EF31E15
:100AA000BB2021F09092E800B12CEBCF8091E800C0
:100AB00085FDE7CF9092E800BB24B394209709F31B
:100AC000F3CF5D9884E68093F903101611063CF08D
:100AD00081E090E0F6019383828310E000E0C8019A
:100AE000DF91CF911F910F91FF90EF90DF90CF900A
:100AF000BF90AF909F908F9008952091A703260FED
:100B00003327331F21323105ECF420912F04FC01EF
:100B100090E080E0243069F082E00895A091A7037E
:100B20002191AC0149575C4FA40FB52FB11D2C93F7
:100B30000196861798F38091A703680F6093A70327
:100B400080E0089581E0089510922F0481E0809361
:100B50002E041092090461E082E00E94420461E0E8
:100B600083E00E944204E9EBF0E080818E7F808385
:100B700080818D7F808388E48093B80085E48093B2
:100B8000BC000895CF93DF9391E090938603882370
:100B9000B9F0C091B800D091BA008091BC008A7BB6
:100BA0008093BC0060E082E00E94420460E083E049
:100BB0000E9442040E94A405D093BA00C093B800DA
:100BC000DF91CF9108950895E091D4038091D303EC
:100BD000E81730F4F0E0EA59FC4F808190E0089586
:100BE0008FEF9FEF08959091D4038091D3032FEF5F
:100BF0003FEF981748F4E92FF0E0EA59FC4F2081C5
:100C000030E09F5F9093D403C90108958091D3038E
:100C10009091D403891B990B0895CF92DF92EF92A4
:100C2000FF920F931F93CF93DF937C01CB018A0137
:100C300020915804222389F0EB016B01C40ED51ECC
:100C4000CC15DD0569F06991D701ED91FC9101901A
:100C5000F081E02DC7010995F3CF642F0E947D0537
:100C6000C801DF91CF911F910F91FF90EF90DF901E
:100C7000CF900895CF93DF931F92CDB7DEB76983EE
:100C8000209158042223F9F020915504203258F085
:100C900021E030E0FC013383228390E080E00F907C
:100CA000DF91CF91089580915604E82FF0E0EB5C3E
:100CB000FB4F998190838F5F8093560480935504F6
:100CC00081E090E0ECCF61E0CE0101960E947D05CD
:100CD000F7CF682F86E495E00C943A06CF92DF9226
:100CE000EF92FF920F931F93CF93C82F192F81E09C
:100CF0008093580480E68093570410925604109213
:100D00005504613009F489C008F482C0623009F4E6
:100D100087C0633009F487C0612F86E495E00E94A4
:100D20003A066C2F86E495E00E943A06C09155047D
:100D3000C13208F0A0C00E94A1046B017C01809127
:100D40002F04811173C082E080932F0481E080938F
:100D50002E048FEF80932D0410922C04C0932B044B
:100D6000A5E3B4E0EBE0F4E080E0C81392C0109299
:100D70000A0480910A04806C80930A04809109041B
:100D8000813009F08AC0109209040E94A1046B010D
:100D90007C0180910A048093BB0080913104909182
:100DA0003204A0913304B0913404892B8A2B8B2B0D
:100DB000A1F00E94A104009131041091320420910D
:100DC0003304309134046C197D098E099F0906178C
:100DD00017072807390708F44AC08091BC0083FD33
:100DE000D8CF85EC8093BC000E94A1046B017C01EC
:100DF00080912F04823009F452C080912D048F3FDE
:100E0000D1F180912D048032B1F180912D0433C055
:100E100080E490E00E9469067FCF82E490E0FACF00
:100E200084E490E0F7CF86E490E0F4CF8091310441
:100E300090913204A0913304B0913404892B8A2B11
:100E40008B2B09F47CCF0E94A104009131041091F6
:100E5000320420913304309134046C197D098E09D9
:100E60009F09061717072807390708F068CF8091F0
:100E700030040E94C205109256041092550410923C
:100E80005804CF911F910F91FF90EF90DF90CF907A
:100E900008959D9191938F5F68CF85EEA3CF809148
:100EA000310490913204A0913304B0913404892B21
:100EB0008A2B8B2B09F49CCF0E94A1040091310452
:100EC0001091320420913304309134046C197D095F
:100ED0008E099F09061717072807390708F088CFDA
:100EE000C6CF90E080E008952F923F924F925F929C
:100EF0006F927F928F929F92AF92BF92CF92DF922A
:100F0000EF92FF920F931F93CF93DF93EC01FC01BD
:100F1000EB57FF4F80809180A280B3803496408051
:100F200051806280738020E030E0A901C501B401E6
:100F30000E94292281110AC020E030E040E85FE3EE
:100F4000C301B2010E942922882389F11E0188E78A
:100F5000280E311C0FEF1FE06D857E8590E080E04C
:100F60000E94D622A30192010E948D23A501940123
:100F70000E94BD216B017C0120E030E0A9010E94AC
:100F8000882320E030E040E05FE387FD23C0C70115
:100F9000B6010E94BD210E94A022611580E1780760
:100FA000F0F47E876D8722962C163D06A9F6DF9118
:100FB000CF911F910F91FF90EF90DF90CF90BF9056
:100FC000AF909F908F907F906F905F904F903F90E9
:100FD0002F900895C701B6010E94BC21DCCF77FF96
:100FE00003C01E861D86DFCF1E870D87DCCFCF9303
:100FF000DF93EC01CD56DF4F70E090E080E00E947F
:10100000D62220E030EF4FE755E40E948D2320E008
:1010100030E04EEF52E40E942E220E94A722CB0124
:101020006881DF91CF910C946E06CF92DF92EF92A0
:10103000FF92CF93DF93EC016E817F81613080E27C
:101040007807C8F190E080E00E94D62220E030E0EE
:1010500040E056E40E94BC2120E038EF4FEF55E419
:101060000E942E226B017C016885798590E080E0EA
:101070000E94D6229B01AC01C701B6010E948D23BC
:101080006B017C0120E030E0A9010E94882320E070
:1010900030E040E05FE387FD27C0C701B6010E9452
:1010A000BD210E94A022CB01DF91CF91FF90EF9054
:1010B000DF90CF900895611580E27807D1F090E03D
:1010C00080E00E94D62220E030E040E056E40E941A
:1010D000BC2120E030E040E059E30E948D236B0109
:1010E0007C016A857B85C2CFC701B6010E94BC2105
:1010F000D8CF70E060E0D7CFEF92FF920F931F93AD
:10110000CF93DF93EC017F836E830A81EB800E1512
:1011100068F1F12C10E0C701CB968017910734F1EC
:10112000CE010E941508F801EE19FF09EE0FFF1F0E
:10113000EC0FFD1F25853685280F391FFE01ED5761
:10114000FF4F80819181821793072CF0C90137FFEF
:1011500002C090E080E0CD56DF4F6881DF91CF91F3
:101160001F910F91FF90EF900C946E06DF91CF913D
:101170001F910F91FF90EF900895CF93FC01C081D4
:10118000CF3FC1F070E090E080E00E94D62220E0E6
:1011900030EF4FE755E40E948D2320E030E04EEF22
:1011A00052E40E942E220E94A722CB016C2FCF91E5
:1011B0000C946E06CF910895CF93DF93EC01FC0160
:1011C000EE56FF4F60E080810E9442041982DF9159
:1011D000CF910895BF92CF92DF92EF92FF920F933B
:1011E0001F93CF93DF93EC01B42ECB806C1508F4E2
:1011F00097C0D12C9601255C3F4F062F10E0201799
:1012000031070CF48DC06A836C8170E0C801860FD1
:10121000971FF801EC19FD09EE0FFF1FEC0FFD1FE2
:10122000E584F684281739070CF05DC0072E000C02
:10123000880B990B0E94D82220E030E848E852E45D
:101240000E948D230E94A722798768876D8170E0B4
:10125000061B170B0C151D050CF053C0072E000CB8
:10126000880B990B0E94D82220E030E848E852E42D
:101270000E948D230E94A7227B876A87CE010E944D
:101280001508E80EF91EFE01ED57FF4F8081918190
:101290008E159F052CF0C701F7FE02C090E080E09C
:1012A000FE01ED56FF4F60810E946E06BB2049F0A3
:1012B00061E0FE01EE56FF4F80810E94420481E012
:1012C0008983C357DF4F8881813091F561E086E0E3
:1012D000DF91CF911F910F91FF90EF90DF90CF9012
:1012E000BF900C944204FC01EC19FD09EE0FFF1FA6
:1012F000EC0FFD1F858596858E199F099987888734
:10130000A5CF0C191D09F801EE0FFF1FEC0FFD1FF3
:10131000858596859701281B390B3B872A87AECF99
:10132000FE01EE56FF4F60E080810E944204198268
:10133000DF91CF911F910F91FF90EF90DF90CF90B1
:10134000BF900895EF92FF920F931F93CF93DF9377
:101350002091550530E0621773078CF0255C3F4FF4
:101360002617370764F024E9289FF001299FF00D24
:101370001124EE5AFA4F81E0818362834487009101
:10138000230110E0E6EEF5E021E030E064E920170B
:101390003107D4F0C2E5D5E0F12CE12CE016F106DE
:1013A0000CF040C08981882349F041E06A81CE0178
:1013B0000E94EA086C85CE010E94BD088FEFE81AF2
:1013C000F80ACC56DF4FEACF8181882331F1428180
:1013D0007485C9010197DF01ED01C259D109588116
:1013E000451770F412965C9312972A9658811C96B2
:1013F0005C931C970197A459B1098F3F980761F737
:101400000196689FD001699FB00D1124AE5ABA4F62
:1014100012964C9312971C967C932F5F3F4FEC567D
:10142000FF4FB5CFDF91CF911F910F91FF90EF90BC
:101430000895FF920F931F93CF93DF93F82EC2E589
:10144000D5E010E000E0809123018017110671F0D3
:101450006CF08981811105C040E06F2DCE010E94A2
:10146000EA080F5F1F4FCC56DF4FEDCFDF91CF91D2
:101470001F910F91FF9008950F931F93CF93DF93C8
:10148000EC01288139813327F901EC5EFE4F84910C
:10149000F901EB50FF4F0491F901EA52FF4F14910B
:1014A000112309F453C081110E94F603E12FF0E0EB
:1014B000EE0FFF1FE455FF4FA591B491EC910E2361
:1014C00031E020E009F430E0832F922F2A813B8124
:1014D0002817390779F02FB7F8944091DE0350911F
:1014E000DF036091E0037091E1032FBF4E835F83C0
:1014F000688779872FB7F8944091DE035091DF0316
:101500006091E0037091E1032FBF0E811F81288558
:101510003985401B510B620B730B0A851B852C858B
:101520003D85041715072607370738F42C813D81C0
:101530002817390711F09D838C839B838A838C81C4
:101540009D81DF91CF911F910F91089590E080E0F0
:10155000BDCFFC0101900020E9F73197AF01481B96
:10156000590BBC0189EA94E00C94D5028F929F92AA
:10157000AF92BF920F931F93CF93DF93CDB7DEB798
:10158000A1970FB6F894DEBF0FBECDBF19A24230AF
:1015900008F44AE08E010F5D1F4F842E912CB12C70
:1015A000A12CA50194010E941F24E62FB901CA01B4
:1015B000EA30F4F4E05DD801EE938D01232B242B67
:1015C000252B79F790E080E0109719F0CD010E946B
:1015D000A90AA1960FB6F894DEBF0FBECDBFDF916A
:1015E000CF911F910F91BF90AF909F908F900895D2
:1015F000E95CE1CFCF92DF92EF92FF92CF93DF933E
:101600006B017C016DE289EA94E00E948A03EC019F
:1016100066277727CB016C197D098E099F094AE05F
:101620000E94B60A8C0F9D1FDF91CF91FF90EF9023
:10163000DF90CF9008950C94A90ACF93DF930E9476
:10164000A90AEC018CE092E00E94A90A8C0F9D1F70
:10165000DF91CF910895682F70E090E080E04AE03C
:101660000C94B60ACF93DF930E942B0BEC018CE015
:1016700092E00E94A90A8C0F9D1FDF91CF910895DF
:10168000CF93DF93BC0190E080E04AE00E94B60A6D
:10169000EC018CE092E00E94A90A8C0F9D1FDF9163
:1016A000CF9108958F929F92AF92BF92CF92DF9287
:1016B000EF92FF921F93CF93DF936B017C01AC01FC
:1016C0009B010E94FA238823B9F08FE092E00E94E8
:1016D000A90AEC018CE092E00E94A90A8C0F9D1FE0
:1016E000DF91CF911F91FF90EF90DF90CF90BF904F
:1016F000AF909F908F90089546015701E894B7F8F6
:101700002FEF3FEF4FE75FE7C501B4010E94FA23D7
:1017100081110DC02FEF3FEF4FE75FE7C501B40127
:101720000E94292218161CF483E192E0D0CF2FEFFB
:101730003FEF4FE75FE4C701B6010E948823181608
:101740001CF487E192E0C3CF2FEF3FEF4FE75FEC50
:10175000C701B6010E94292287FDF3CF20E030E0C7
:10176000A901C701B6010E942922D0E0C0E087FF8D
:101770000AC06DE289EA94E00E948A03EC01F7FA5C
:10178000F094F7F8F09426E137EB41E558E3C70110
:10179000B6010E94BD216B017C010E94A7224B0172
:1017A0005C010E94D6229B01AC01C701B6010E94D8
:1017B000BC216B017C014AE0C501B4010E94B60A5C
:1017C000C80FD91F6EE289EA94E00E948A03C80F0D
:1017D000D91F15E0115009F47DCF20E030E040E240
:1017E00051E4C701B6010E948D234B015C010E94A8
:1017F000A7226B01F12CE12C4AE0C701B6010E943F
:10180000B60AC80FD91FC701B6010E94D6229B0194
:10181000AC01C501B4010E94BC216B017C01DACF8F
:10182000CF93DF93BC01990F880B990B4AE00E947C
:10183000B60AEC018CE092E00E94A90A8C0F9D1F71
:10184000DF91CF91089585ED8093BC0080913104A4
:1018500090913204A0913304B09134040796A11DF5
:10186000B11D23E0B695A795979587952A95D1F751
:101870002091BC0024FD03C010922F0408954091D4
:101880003104509132046091330470913404452B3B
:10189000462B472B69F30097A105B10541F025E3DD
:1018A0002A95F1F700000197A109B109E1CF8091D4
:1018B00030040C94C205FF920F931F93CF93DF93D4
:1018C000EC01F62E08811981C8010E94A621F816A4
:1018D00021F06F2DC8010E94AE21CE01DF91CF9182
:1018E0001F910F91FF900895CF92DF92EF92FF9298
:1018F0000F931F93CF93DF9300D0CDB7DEB76C016A
:101900007C0102E010E01A830983F70161917F01F5
:10191000CE0101960E945B0C0F5F1F4F0232110532
:1019200091F7C6010F900F90DF91CF911F910F910A
:10193000FF90EF90DF90CF900895CF92DF92EF92DB
:10194000FF920F931F93CF93DF9300D0CDB7DEB7F5
:101950006C017C0102E212E01A830983F7016191B4
:101960007F01CE0101960E945B0C0F5F1F4F053275
:10197000F2E01F0789F7C6010F900F90DF91CF911A
:101980001F910F91FF90EF90DF90CF9008950F93EC
:101990001F93CF93DF9300D0CDB7DEB78C0185E2E4
:1019A00092E09A838983F8016081CE0101960E94BA
:1019B0005B0C86E292E09A838983F8016181CE0113
:1019C00001960E945B0CC8010F900F90DF91CF91A0
:1019D0001F910F910895EF92FF920F931F93CF9352
:1019E000DF9300D0CDB7DEB78C017B019A8389836A
:1019F000FB016081CE0101960E945B0C0F5F1F4FBF
:101A00001A830983F7016181CE0101960E945B0C64
:101A1000C7010F900F90DF91CF911F910F91FF9011
:101A2000EF900895AF92BF92CF92DF92EF92FF9224
:101A30000F931F93CF93DF9300D0CDB7DEB78B0109
:101A40006B0128E7C20ED11C7B015C01A61AB70A04
:101A5000C5018E0D9F1D9A838983F70161917F01D6
:101A6000CE0101960E945B0CEC14FD0489F7C801BD
:101A70000F900F90DF91CF911F910F91FF90EF90FA
:101A8000DF90CF90BF90AF9008950F931F93CF93A7
:101A9000DF9300D0CDB7DEB78B019A838983FB013A
:101AA0006081CE0101960E945B0CC8010F900F90DF
:101AB000DF91CF911F910F910895CF92DF92EF9216
:101AC000FF920F931F93CF93DF93EB017B0128E7E6
:101AD000E20EF11C8B016C01C61AD70AC601800FF9
:101AE000911F0E94A621F80181938F01EE15FF0539
:101AF000A9F7CE01DF91CF911F910F91FF90EF9049
:101B0000DF90CF900895CF93DF93EB010E94A62141
:101B10008883CE01DF91CF9108950F931F93CF93C8
:101B2000DF9360ED77E090E080E00E94830D65E553
:101B300075E081E090E00E94830D69EE75E081E040
:101B400090E00E94830D6DE776E081E090E00E94D6
:101B5000830D61E177E081E090E00E94830D03E076
:101B600011E0C2E0D0E0CE010E94A621F8018193ED
:101B70008F012196C232D105B1F76FE575E082E49D
:101B800090E00E945D0D63EF75E08AEB90E00E94AB
:101B90005D0D67E876E082E391E00E945D0D6BE108
:101BA00077E08AEA91E00E945D0D82E292E00E9475
:101BB000A6218093240183E292E00E94A6218093D3
:101BC000250184E292E00E94A6218093260185E20D
:101BD00092E00E94A6218093010186E292E00E9499
:101BE000A6218093020162EF73E087E292E00E94F7
:101BF000830D60E071E08BE292E00E94830D6DEE58
:101C000073E08CE292E00E94830D64EE73E08DE25B
:101C100092E00E94830D63EE73E08EE292E00E94F8
:101C2000830D6EEE73E08FE292E00E94830D62EE10
:101C300073E080E392E00E94830D90910101909304
:101C4000560580910201809357059093EA05809391
:101C5000EB0590937E0680937F0690931207809306
:101C600013078091030190910401A0910501B091A7
:101C700006018093D7059093D805A093D905B0931A
:101C8000DA058091070190910801A0910901B091B6
:101C90000A018093DB059093DC05A093DD05B093EA
:101CA000DE0580910B0190910C01A0910D01B09186
:101CB0000E0180936B0690936C06A0936D06B09313
:101CC0006E0680910F0190911001A0911101B091C9
:101CD000120180936F0690937006A0937106B093E3
:101CE00072068091130190911401A0911501B09199
:101CF00016018093FF0690930007A0930107B0930D
:101D000002078091170190911801A0911901B091DB
:101D10001A018093030790930407A0930507B093DB
:101D2000060780911B0190911C01A0911D01B091AB
:101D30001E018093930790939407A0939507B09307
:101D4000960780911F0190912001A0912101B091EF
:101D500022018093970790939807A0939907B093D7
:101D60009A0782E595E00E94740786EE95E00E944E
:101D700074078AE796E00E9474078EE097E00E945D
:101D800074078091F2038093DF058093730680933C
:101D9000070780939B0780910001811103C088E1B0
:101DA00080930001809100018093DB078BE192E03A
:101DB0000E941B0B82E00E94320B8BE192E00E949A
:101DC0001B0B80E40E94320B83E292E00E941B0B0B
:101DD0008091ED030E94320B89E292E00E941B0B7E
:101DE000809124010E94320B8FE292E00E941B0B33
:101DF000809125010E94320B85E392E00E941B0B2B
:101E0000809126010E94320B8BE392E00E941B0B13
:101E1000809101010E94320B85E492E00E941B0B2D
:101E2000809102010E94320B81E592E00E941B0B1F
:101E30008091D00790E001960E94100C86E592E018
:101E40000E941B0B809155050E942B0B87E292E0AC
:101E50000E941B0B8091E9050E942B0B87E292E008
:101E60000E941B0B80917D060E942B0B87E292E063
:101E70000E941B0B809111070E94320B89E692E0B1
:101E80000E941B0B8091F2030E94320B8BE792E0C1
:101E90000E941B0B809100010E94320B82E892E0AD
:101EA0000E941B0B8091E4030E94320B80E992E0B8
:101EB0000E941B0B8091E3030E94320B8FE992E09A
:101EC0000E941B0B8091EE030E94320B8EEA92E07F
:101ED0000E941B0B8091E2030E94320B88EB92E080
:101EE0000E941B0B6091D7057091D8058091D90590
:101EF0009091DA050E94520B84EC92E00E941B0B39
:101F00006091DB057091DC058091DD059091DE0527
:101F10000E94520B8EEC92E00E941B0B60916B06AC
:101F200070916C0680916D0690916E060E94520B26
:101F30008AED92E00E941B0B60916F067091700613
:101F400080917106909172060E94520B84EE92E08D
:101F50000E941B0B6091FF067091000780910107A2
:101F6000909102070E94520B80EF92E00E941B0B9F
:101F7000609103077091040780910507909106070F
:101F80000E94520B8AEF92E00E941B0B6091930714
:101F90007091940780919507909196070E94520B3B
:101FA00086E093E00E941B0B609197077091980761
:101FB0008091990790919A070E94520BCFE5D5E046
:101FC00010E000E080E193E00E941B0B609155055A
:101FD000600F712F711D072E000C880B990B4AE0C2
:101FE0000E94B60A87E292E00E941B0B69917991E8
:101FF00090E080E04AE00E94B60A87E292E00E9408
:102000001B0BFE01EE56FF4F6081718190E080E076
:102010004AE00E94B60A87E292E00E941B0BFE0192
:10202000EA5DFE4F6081718190E080E04AE00E94AD
:10203000B60A87E292E00E941B0BFE01E654FE4FB7
:10204000808191810E94400B0F5F1F4F0C3311055F
:1020500009F0B8CFDF91CF911F910F9108951F9292
:102060000F920FB60F9211248F939F938091E100EE
:102070009091E100937F9093E10083FF0FC0109255
:10208000E90091E09093EB001092EC0092E39093C2
:10209000ED001092080498E09093F00082FF22C0B7
:1020A00093E09093E9009091F200992319F09AE35C
:1020B0009093E8009091F903992341F09091F903EE
:1020C00091509093F903911101C05D9A909107048A
:1020D000992341F090910704915090930704911136
:1020E00001C0289A84FF18C08091E2008E7E816032
:1020F0008093E2008091E1008F7E8093E1008091E7
:10210000FA038E7E80618093FA039F918F910F90E6
:102110000FBE0F901F90189580FFF7CF8091E200BF
:102120008E7E80618093E2008091E1008E7E8093BC
:10213000E1008091FA038E7E8160E5CF1F920F92BD
:102140000FB60F921124CF92DF92EF92FF920F936E
:102150001F932F933F934F935F936F937F938F932F
:102160009F93AF93BF93EF93FF93CF93DF93CDB73D
:10217000DEB76C97DEBFCDBF1092E9008091E8001A
:1021800083FF25C068E0CE0145960E94C60282EF1B
:102190008093E8008D8987FF39C09091E80090FF17
:1021A000FCCF982F907609F034C19E894F89588DC5
:1021B0002F89F88C911131C0803861F58091F80336
:1021C0008093F1001092F1008EEF8093E8006C96FE
:1021D0000FB6F894DEBF0FBECDBFDF91CF91FF9158
:1021E000EF91BF91AF919F918F917F916F915F918F
:1021F0004F913F912F911F910F91FF90EF90DF90A2
:10220000CF900F900FBE0F901F9018959EEF909358
:10221000E800C7CF1092F100D5CF913059F4811169
:10222000D3CF4130510581F68091F8038D7F8093A3
:10223000F803CACF933049F48111C6CF413051051C
:1022400019F68091F8038260F2CF953041F48091C5
:10225000E80080FFFCCF20682093E300B5CF9630E4
:1022600009F0A9C00B8D1C8D22E01092E90010929C
:10227000F6031092F503F2122EC01092F40310929E
:10228000F3030E9495021F8299E09983FA8291E0FC
:102290009E8390EA98879AEF99872091F503309171
:1022A000F603275F3F4F3C832B838D831092E90019
:1022B0001092F6031092F5031093F4030093F303C6
:1022C00049E050E0BE016F5F7F4F80E00E946F02E7
:1022D0000E94950279CF1093F4030093F3030E94B8
:1022E0007901DC0112960D911C910115110509F47B
:1022F00051C1D801ED91FC910480F581E02DBE0122
:102300006B5E7F4FC8010995009709F03EC1F80147
:1023100000851185EACFF3E0FF120EC08F89882374
:1023200009F440C0823061F440E861E183E991E062
:102330000E943C02811148CF81E28093EB0047CF9D
:10234000813029F440E867E08BE891E0F1CF8330F9
:1023500099F70E947901DC011296ED90FC908E01B4
:102360000F5F1F4F6801E114F10479F0D701ED917F
:10237000FC910680F781E02DB801C7010995080F8F
:10238000111DF701E084F184EECFD8011C92F60113
:1023900001900020E9F73197BF016C197D0940E0F9
:1023A000C601C6CF65E771E0FB01449150E080E8CB
:1023B0000E946F0209CF973009F4BECF983021F404
:1023C00081E08093F10000CF993009F0FDCE837059
:1023D00009F0B2CFE0EDF1E081E031E096E3219148
:1023E000222371F08093E9003093EB00DF01119715
:1023F0002C912093EC009093ED008F5F873079F75C
:102400008EE78093EA001092EA008F898093080497
:10241000DBCE8B8D9C8D1092E9001092F60310920A
:10242000F5039093F4038093F303898D811192C097
:102430008E899D89913A49F4813209F07DCF47E038
:1024400050E06CE271E080E0B3CF913209F074CFDC
:10245000833269F48F89988DB0E0A0E080932801E1
:1024600090932901A0932A01B0932B01ADCE803225
:1024700069F48091E80082FFFCCF67E08CE291E094
:102480000E94C6028BEF8093E8009ECE823209F054
:102490009BCE8F8980933301EEEFFFE78591949176
:1024A0008B3F9C4D51F1E0E0F8E080912C01909140
:1024B0002D01A0912E01B0912F01803B9440A105E8
:1024C000B105F1F48091330180FD1AC0EE3F8AE03E
:1024D000F80789F587E797E791838083809160000B
:1024E0008093F70388E19BE00FB6F894A89580935A
:1024F00060000FBE9093600067CEEEEFFAE0D5CF9C
:10250000808191818737974709F05ECEA8958091A9
:1025100060008861809360008091F7038093600081
:10252000EE3F2AE0F20789F08091FE0A9091FF0ABF
:102530009183808349CE808191818737980751F2BA
:102540009093FF0A8093FE0AC5CF1092FF0A109263
:10255000FE0A3ACE0E947901DC0112960D911C917F
:102560000115110509F4E8CED801ED91FC91019017
:10257000F081E02DBE016B5E7F4FC801099581118E
:1025800023CEF80100851185EBCF181619060CF43F
:102590001BCED2CEF1E0FF12BECE69E771E004CFD0
:1025A0001F920F920FB60F9211242F933F934F93C8
:1025B0005F936F937F938F939F93AF93BF93EF93AB
:1025C000FF9389EA94E00E946903FF91EF91BF9124
:1025D000AF919F918F917F916F915F914F913F91BB
:1025E0002F910F900FBE0F901F9018951F920F9272
:1025F0000FB60F9211242F938F939F93EF93FF9316
:10260000E091B904F091BA048081E091BF04F091A7
:10261000C00482FD1BC090818091C2048F5F8F73C4
:102620002091C304821741F0E091C204F0E0E75525
:10263000FB4F958F8093C204FF91EF919F918F91F3
:102640002F910F900FBE0F901F9018958081F4CF9F
:102650001F920F920FB60F9211242F933F938F93D7
:102660009F93AF93BF938091DE039091DF03A0917E
:10267000E003B091E1033091CA0323E0230F2D372B
:1026800058F50196A11DB11D2093CA038093DE0366
:102690009093DF03A093E003B093E1038091CB0319
:1026A0009091CC03A091CD03B091CE030196A11DD2
:1026B000B11D8093CB039093CC03A093CD03B09333
:1026C000CE03BF91AF919F918F913F912F910F902A
:1026D0000FBE0F901F90189526E8230F0296A11D9C
:1026E000B11DD2CF1F920F920FB60F9211242F93CC
:1026F0003F934F935F936F937F938F939F93AF938A
:10270000BF93EF93FF938091B900887F803609F4DF
:102710004AC0F0F5883209F4A7C018F5803109F4F1
:102720009BC0B8F4882309F4F9C0883009F494C038
:10273000FF91EF91BF91AF919F918F917F916F9199
:102740005F914F913F912F910F900FBE0F901F906F
:102750001895883109F488C0803251F780932D0490
:1027600014C0803409F49DC040F48033B9F3883339
:10277000F9F680932D0485ECB0C0803509F485C04E
:10278000883509F496C0883499F60E94230CD0CF7E
:10279000883909F48CC038F5883729F050F4883628
:1027A00011F0803729F683E080932F041092C9033B
:1027B00057C0883809F47BC0803919F0803809F097
:1027C000B7CF8091C903803208F071C0E091C9038E
:1027D00081E08E0F8093C9038091BB00F0E0E75544
:1027E000FC4F80833DC0803B39F0E0F4803A09F42F
:1027F00079C0883A09F09CCF84E080932F0410922E
:10280000A8031092A703E091D103F091D203099598
:102810008091A70381110FC081E08093A7031092DC
:10282000870309C0803C09F4A6CF883C09F4A3CFF4
:10283000883B09F07DCFE091A80381E08E0F809363
:10284000A803F0E0E957FC4F80818093BB00909192
:10285000A8038091A70329C080910A048093BB003C
:1028600085EC8093BC0064CF90912C0480912B0464
:10287000981758F5E0912C0481E08E0F80932C047A
:10288000F0E0E55FFB4F8081E9CFE0912C0481E02F
:102890008E0F80932C048091BB00F0E0E55FFB4F2E
:1028A000808390912C0480912B049817C8F285E8BE
:1028B000D8CFE0912C0481E08E0F80932C0480917E
:1028C000BB00F0E0E55FFB4F808380912E04811117
:1028D0005CCF81E08093090484EA8093BC0010926D
:1028E0002F0426CF85EC8093BC0010922F0480919A
:1028F000C903803230F4E091C903F0E0E755FC4FA2
:1029000010826091C90370E0E091CF03F091D00391
:1029100089EA93E009951092C9030ACF10922D0419
:1029200034CF0F931F93CF93DF93EC01162F042F17
:102930008FEF888319821A8284E28B831C821D8226
:1029400080E090E29F838E83198618861B861A8604
:102950001C8688E7E4E3F1E0DE011D9601900D920C
:102960008A95E1F7FE01EB57FF4F10821182128228
:102970001382349680E090E0A0E8BFE380839183E7
:10298000A283B38334961082319610821182128210
:10299000138261E0812F0E947004FE01EE56FF4F0A
:1029A0001083CD56DF4F0883DF91CF911F910F9198
:1029B0000895CF92DF92EF92FF9210925C041092F2
:1029C0005B0488EE93E0A0E0B0E080935D04909318
:1029D0005E04A0935F04B09360042AED31E030936D
:1029E0005A04209359042FEF3FEF3093660420934D
:1029F00065041092AC041092AB048093AD049093E4
:102A0000AE04A093AF04B093B0042CEE31E0309349
:102A1000AA042093A9042DEC30E03093B60420934F
:102A2000B5042CEC30E03093B8042093B70428ECC4
:102A300030E03093BA042093B90429EC30E03093AD
:102A4000BC042093BB042AEC30E03093BE042093F6
:102A5000BD042EEC30E03093C0042093BF041092EC
:102A6000C2041092C3041092C4041092C5041092C0
:102A700049051092480580934A0590934B05A09311
:102A80004C05B0934D058EEF91E0909347058093F0
:102A900046051092CC071092D00788E18093DB079F
:102AA0001092DD0781E08093DE071092DF0710921D
:102AB000E0071092E1071092E2071092E3071092EC
:102AC000E9071092E8071092EC071092EB07EDEE81
:102AD000F7E0119287E0ED3FF807D9F71092C407AD
:102AE0001092C5071092C6071092C70760E089E0F0
:102AF0000E94700489E090E09093BF078093BE0726
:102B000082E3C82ED12CE12CF12CC092C807D092C0
:102B1000C907E092CA07F092CB071092B60710924D
:102B2000B7071092B8071092B90760E083E10E94DE
:102B3000700483E190E09093B1078093B007C09256
:102B4000BA07D092BB07E092BC07F092BD07109283
:102B5000A8071092A9071092AA071092AB0760E08D
:102B600084E10E94700484E190E09093A307809335
:102B7000A207C092AC07D092AD07E092AE07F092E8
:102B8000AF0740E068E082E595E00E94911441E0E3
:102B900062E186EE95E00E94911442E065E18AE7E9
:102BA00096E00E94911443E066E18EE097E0FF908A
:102BB000EF90DF90CF900C949114CF93DF93CDB72B
:102BC000DEB7C85AD1090FB6F894DEBF0FBECDBF2D
:102BD000789484B5826084BD84B5816084BD85B5F8
:102BE000826085BD85B5816085BD80916E00816004
:102BF00080936E00109281008091810082608093AA
:102C000081008091810081608093810080918000AB
:102C10008160809380008091910082608093910018
:102C200080919100816080939100809190008160FB
:102C3000809390008091C10084608093C100809156
:102C4000C10082608093C1008091C1008160809347
:102C5000C1008091C30081608093C3008091C00057
:102C600082608093C0008091C20081608093C20026
:102C700080917A00846080937A0080917A008260EB
:102C800080937A0080917A00816080937A008091AD
:102C90007A00806880937A00109208041092F803FA
:102CA0001092FA038091D70081608093D70080EA68
:102CB0008093D80089B5806189BD89B5826089BD5E
:102CC00009B400FEFDCF61E070E080E090E00E947A
:102CD000C6048091D8008F7C80618093D800809159
:102CE000E000807F8093E0008091E1008E7E809301
:102CF000E1008DE08093E200559A209AE091B904BA
:102D0000F091BA0482E08083E091B504F091B604BA
:102D10001082E091B704F091B8048FE380831092A1
:102D2000C104E091BD04F091BE0486E08083E0918F
:102D3000BB04F091BC04808180618083E091BB047E
:102D4000F091BC04808188608083E091BB04F091A5
:102D5000BC04808180688083E091BB04F091BC0456
:102D600080818F7D80831092D4031092D3031092C0
:102D70005604109255040E94A40583ED92E09093AE
:102D8000D2038093D10384ED92E09093D00380939B
:102D9000CF0361E086E00E94700448E050E060E804
:102DA00070E085EE93E00E94472448E050E060E840
:102DB00070E086ED93E00E9447240E948D0D6090A4
:102DC000AC017090AD018090AE011092CD071092D1
:102DD000CE071092D9071092DA071092D3071092FB
:102DE000D6071092D8071092DC0789EA94E00E9477
:102DF00033031816190664F489EA94E00E9411035B
:102E0000082FF82E80E8800F883780F50093EA07B6
:102E10008091CD07882309F449C29090CF07009193
:102E2000CC078091E303882309F4EEC18091270148
:102E3000853009F4E9C1A2E5EA2EA5E0FA2ED12CED
:102E4000C12C809123018C151D0409F00CF4A5C13F
:102E5000F7018181811103C0C7010E94DC08FFEFE7
:102E6000CF1ADF0A24E9E20EF11CEBCF27EF20177F
:102E700020F4802F0E94FE00CBCFE02E07FD42C041
:102E80002091EA0730E08091D00790E0AC014057F4
:102E90005F4F2417350709F0DAC00093CC070E9472
:102EA0003F038093CF079091CC072091EB0730919F
:102EB000EC07882309F4A6C0E92FF0E053E0F5956C
:102EC000E7955A95E1F7E453F84F81A19770482FA1
:102ED00050E0092E02C0559547950A94E2F740FD4F
:102EE00011C041E04093CD072F5F3F4F3093EC0777
:102EF0002093EB0721E030E001C0220F9A95EAF71A
:102F0000822B81A38091EB079091EC07892B09F02C
:102F1000CFC081E08093DE07E7FC5FC02091EA0725
:102F20008091D00790E080529F4F2817190679F4BE
:102F300081E08093D3070E943F0370E8879FC00120
:102F40001124800F911D9093D2078093D107209177
:102F5000EA078091D00790E080559F4F2817190607
:102F600079F4EE24E394E092D6070093D4070E940C
:102F70003F038093D5078091D4078B3709F49BC01A
:102F80002091EA078091D00790E080539F4F281747
:102F9000190629F481E08093D8070093D707223FD0
:102FA000E1F40E943F036091DB0790E8899F900164
:102FB0001124202B70E0AB01559547955595479509
:102FC000249FC001259F900D349F900D11240E94D5
:102FD0000B249093E9078093E8078091EA07803FEC
:102FE00009F016CFEFE7FE1275C089EA94E00E945F
:102FF0003303892BD1F389EA94E00E941103873FC0
:10300000A1F706CF81E08093CE07E92FF0E043E0FF
:10301000F595E7954A95E1F7E453F84F977041E04D
:1030200050E0BA0102C0660F771F9A95E2F7CB0114
:10303000809591A1892381A3121613060CF062CF0B
:10304000215031093093EC072093EB075BCF805878
:103050009F4F2817390709F055CF0093CC070E94DE
:103060003F0381E08093CE072091CC07E22FF0E070
:1030700083E0F595E7958A95E1F7E453F84F2770DB
:1030800081E090E001C0880F2A95EAF7809591A130
:10309000892381A38091EB079091EC0718161906FC
:1030A0000CF030CF01979093EC078093EB072ACF79
:1030B0001092DE0731CF1092EC071092EB07E092EE
:1030C000DE07EDEEF7E08DEF97E011928E179F0788
:1030D000E1F756CF81E08093DC0789EA94E00E9413
:1030E0003303892BD1F389EA94E00E941103809382
:1030F000DF07873F09F48CCE89EA94E00E9433030E
:10310000892BD1F389EA94E00E9411038093E007B0
:10311000873F09F47DCE89EA94E00E943303892B2E
:10312000D1F389EA94E00E9411038093E107873F7D
:1031300009F46ECE89EA94E00E943303892BD1F31F
:1031400089EA94E00E9411038093E207873F09F423
:103150005FCE89EA94E00E943303892BD1F389EA98
:1031600094E00E9411038093E307873F09F450CE57
:1031700000E089EA94E00E943303892BD1F389EAC5
:1031800094E00E941103873F09F442CEE02FF0E063
:10319000E453F84F808F0F5FECCF4091E30350E092
:1031A000FA01EB52FC4F208180915505203801F542
:1031B000E6EDF3E030E020E0241735074CF4919180
:1031C000903811F009130FC02A523C4FF9010083C7
:1031D000081760F090E0CB960817190609F00CF478
:1031E000E8C00C50F9CF2F5F3F4FE6CF045FF0CF20
:1031F000281708F45BC090E0CB962817190611F049
:103200000CF054C00083022FD12CC12CE6E52E2EE9
:10321000F4E93F2E492C512CA02EB12C8091230192
:10322000282F30E0C216D3060CF040C04091E403D2
:10323000EC2C413091F4813009F49CC0823009F0CB
:103240007EC08091D50380588093D50390E0880F8D
:10325000892F881F990BE82E182F8E2D90E0389E0D
:10326000F001399EF00D1124EE5AFA4F518151119F
:10327000ABC020912701253009F07FC041E0602FCD
:1032800082E595E00E94EA0841E0602F86EE95E035
:103290000E94EA0841E0602F8AE796E00E94EA086F
:1032A00041E0602F8EE097E00E94EA088091CE070F
:1032B000882309F43FC14091CC072091E3032111F9
:1032C000FCC02091230130E0E2E5F5E090E080E0F1
:1032D000821793070CF0F1C15181552309F4E9C11C
:1032E00052814513E6C1E5EEF3E027E030E0678167
:1032F000603809F499C140912701F901EB51FC4F65
:103300007F01453009F001C141E082E595E00E946E
:10331000EA0841E0F701608186EE95E00E94EA0844
:1033200041E0F70160818AE796E00E94EA0841E007
:10333000F70160818EE097E00E94EA08F8C08330D0
:1033400059F48091D5038A5A8093D503622D0E9447
:10335000FF23182FE12E81CF8430E1F78091D50330
:10336000805C8093D50390E066E0959587956A959B
:10337000E1F771CF10E0E12C70CF4230F0F4E39C24
:1033800070011124B7016E5A7A4F7B0141E0602F22
:10339000C7010E94EA08692DC7010E94BD088091FB
:1033A000E4038D7F09F082CF80912301823008F4FD
:1033B0007DCF802F0E94190A79CF492D50E0602FD0
:1033C00070E00E94A209EBCF21503109C216D3064A
:1033D00009F046C0423009F047C020915505021758
:1033E00018F130E0255C3F4F2A153B05ECF0509179
:1033F000E203E5EEF3E030E020E06191603879F43B
:1034000051110DC02B513C4F389EF001399EF00DEB
:103410001124EE5AFA4F5281F901508305C02F5FF3
:103420003F4F2830310549F720912701253069F5B4
:1034300041E0602F82E595E00E94EA0841E0602FBC
:1034400086EE95E00E94EA0841E0602F8AE796E068
:103450000E94EA0841E0602F8EE097E00E94EA08AF
:103460007FEFC71AD70ADACE5091E203E5EEF3E018
:1034700030E020E06191603811F4552319F22F5F9C
:103480003F4F28303105B1F7CFCF423029F4A201A8
:10349000B5010E94A209E4CFE39C70011124B70199
:1034A0006E5A7A4F7B0141E0602FC7010E94EA0803
:1034B000692DC7010E94BD08D3CF809127018530B7
:1034C00009F4FFCEE6EDF3E090E080E030E0BF01EC
:1034D000665D7340621773076CF0FC01EA52FC4FA3
:1034E00080E89F01265D3340283031050CF0E9CE9D
:1034F0008193F7CF5191503851F3451741F3DC01D7
:10350000AA52BC4F5C930196E2CF2091E403223093
:1035100009F07FC024E9289FF001299FF00D1124B4
:10352000EE5AFA4F448550E070E00E94A20980E80C
:10353000F70180838091DE07882309F4E4C080913D
:10354000F203813021F460E086E00E9442048EEBB9
:1035500097E00E943C0A2091F1032817190609F40C
:10356000BEC082EA97E00E943C0A7C0180EB97E0B3
:103570000E943C0A6C018EEB97E00E943C0A892B6A
:1035800009F0ABC183E0CD2809F0BDC184E0EF288C
:1035900009F4B9C186E0809327018FEF809352052B
:1035A0008093E60581E0809323018EEB97E00E94F3
:1035B0003C0A21E0892B09F420E02093F10380EB01
:1035C00097E00E943C0A21E0892B09F420E0209337
:1035D000F00382EA97E00E943C0A21E0892B09F47B
:1035E00020E02093EF038091EE03813009F08BC03F
:1035F00082E595E00E94DC0886EE95E00E94DC08FA
:103600008AE796E00E94DC088EE097E00E94DC08E2
:103610007AC044E9489F9001499F300D112441E050
:10362000C9018E5A9A4F88CE2150310931972F3FC8
:10363000320709F05CCE20912701253089F482E51C
:1036400095E00E94DC0886EE95E00E94DC088AE79F
:1036500096E00E94DC088EE097E00E94DC086ACFCA
:103660002091EE032130D9F424E9289FF001299F0D
:10367000F00D1124EE5AFA4F11822FB7F894809171
:10368000DE039091DF03A091E003B091E1032FBF2F
:10369000E257FF4F80839183A283B3834BCF44E9EA
:1036A000489F9001499F300D1124C9018E5A9A4FAD
:1036B000D4CF0196EC56FF4F0BCEE5EEF3E090E051
:1036C00080E02191421306C08B519C4F20E8FC0101
:1036D000208330CF01968830910599F72BCF80EB6E
:1036E00097E00E943C0A2091F0032817190609F080
:1036F00038CF82EA97E00E943C0A2091EF03281716
:10370000190609F02ECF8091D307882379F0809194
:103710002701813019F0863009F0FBC06091D10794
:103720007091D20782E595E00E947C088091D607CF
:10373000882309F472C08091D4079091ED03891316
:103740000CC0882351F080912701863031F46091BC
:10375000D50782E595E00E94F7079091D407809104
:10376000240198130DC080912701982F9D7F9130DF
:1037700009F01CC16091D5078EE097E00E94F70721
:103780009091D4078091250198130AC08091270158
:10379000863031F46091D5078AE796E00E94F707FA
:1037A0009091D4078091260198130AC08091270137
:1037B000863031F46091D5078EE097E00E94F707DC
:1037C0008091D4078B3749F58091F203813021F441
:1037D00060E086E00E94420480E88093E5038093E5
:1037E000E6038093E7038093E8038093E9038093E3
:1037F000EA038093EB038093EC0382E595E00E945B
:10380000DC0886EE95E00E94DC088AE796E00E94DC
:10381000DC088EE097E00E94DC088091D8078823BE
:1038200051F080912701813031F46091D7078AE708
:1038300096E00E94F7078091D907882329F08091AC
:10384000F20361E0882349F08091DA07882341F090
:103850008091F203811104C060E086E00E9442047E
:103860008091EE03813009F0A9C052E5E52E55E0C4
:10387000F52ED12CC12C809123018C151D0409F04B
:103880000CF49CC0F7018181811120C02FB7F894FE
:103890008091DE039091DF03A091E003B091E103FA
:1038A0002FBFE257FF4F4081518162817381841B9A
:1038B000950BA60BB70B4597A105B10538F0809184
:1038C000DE07811103C0C7010E94DC08FFEFCF1A99
:1038D000DF0A24E9E20EF11CCECFCD2849F081E0C9
:1038E00080932701809352059FEF9093E6055BCE6E
:1038F00085E0EF2809F04FCE82E080932701809386
:10390000520593E0F2CF809327019FEF90935205E9
:10391000ECCF823079F46091D1077091D20782E5C3
:1039200095E00E947C086091D1077091D20786EEE5
:1039300095E0FACE8330B9F46091D1077091D20747
:1039400082E595E00E947C086091D1077091D207D2
:1039500086EE95E00E947C086091D1077091D207B5
:103960008AE796E0E1CE8450823008F0DFCE6091A5
:10397000D1077091D20782E595E00E947C086091A2
:10398000D1077091D20786EE95E00E947C08609185
:10399000D1077091D2078AE796E00E947C08609177
:1039A000D1077091D2078EE097E0BECE863009F045
:1039B000E7CE6091D50786EE95E0E0CE8091DC07FA
:1039C000882309F4B3C48091DF07823009F01BC15A
:1039D0008091E007803409F016C18091E2078F3FA3
:1039E00009F011C18091E107853009F00CC161E057
:1039F00086E00E9442048AE193E00E941D0BF12CB4
:103A0000E12C60E0C7010E94AE214FEFE41AF40AF6
:103A1000E11464E0F606A9F788E7E4E3F1E0DE01EB
:103A2000119601900D928A95E1F780E2EFEAF1E0BC
:103A3000DE01A758BF4F01900D928A95E1F7C75656
:103A4000DF4F688279828A82C959D04082E0C256AB
:103A5000DF4F8883CE59D040C156DF4F8883CF597E
:103A6000D040C855DF4F1882C85AD040C955DF4FE3
:103A70001882C75AD04084E2CA55DF4F8883C65A9D
:103A8000D04088E1CB55DF4F8883C55AD040CC5514
:103A9000DF4F1882C45AD040CD55DF4F1882C35A29
:103AA000D040CE55DF4F1882C25AD040CF55DF4F9D
:103AB0001882C15AD040C056DF4F1882C05AD04039
:103AC000BE0169557F4F90E080E00E94450DBE0128
:103AD0006A557F4F81E090E00E94450DCE018758E6
:103AE0009F4F0E94740CBE016F5F7F4F82E490E095
:103AF0000E94120DBE016F5F7F4F8AEB90E00E9423
:103B0000120DBE016F5F7F4F82E391E00E94120DA4
:103B1000BE016F5F7F4F8AEA91E00E94120DCE01D5
:103B200087569F4F0E949D0CCE0182569F4F0E9448
:103B3000C70CBE0168557F4F87E292E00E94450D99
:103B400081E090E0C456DF4F99838883CC59D04000
:103B5000BE0164567F4F88E292E00E94EB0C82E047
:103B600090E0C456DF4F99838883CC59D040BE0182
:103B700064567F4F89E292E00E94EB0C83E090E074
:103B8000C456DF4F99838883CC59D040BE01645618
:103B90007F4F8AE292E00E94EB0CBE016B557F4F93
:103BA0008BE292E00E94450DBE016C557F4F8CE286
:103BB00092E00E94450DBE016D557F4F8DE292E06F
:103BC0000E94450DBE016E557F4F8EE292E00E942D
:103BD000450DBE016F557F4F8FE292E00E94450D6B
:103BE000BE0160567F4F80E392E00E94450D64EF76
:103BF00071E080E090E00E94C60460E086E00E94F0
:103C000042040E948D0D8091DF07823021F5809162
:103C1000E007803401F58091E2078F31E1F4809173
:103C2000E1078530C1F461E086E00E9442048091A2
:103C3000E4078093D00760ED77E090E080E00E9499
:103C4000450D64EF71E080E090E00E94C60460E002
:103C500086E00E9442048091DF07823051F5809116
:103C6000E007803431F58091E207803211F58091D0
:103C7000E1078530F1F461E086E00E944204809122
:103C8000E407809355058093E90580937D06809332
:103C9000110765E575E081E090E00E94450D64EF55
:103CA00071E080E090E00E94C60460E086E00E943F
:103CB00042048091DF07823009F063C08091E00701
:103CC000803409F05EC08091E207853109F059C067
:103CD0008091E107853009F054C061E086E00E94E0
:103CE0004204E090E30778E0E79E70011124C701E9
:103CF0008D5F9E4F7C016091E507E0E86E9FC001FB
:103D000011246091E407680F792F711D072E000CB4
:103D1000880B990B0E94D82220E030E04AE754E457
:103D20000E94BC21F701608371838283938383E0C7
:103D300091E00E94740CE091E307F4E9EF9FC00169
:103D400011248E5A9A4FDC01AB57BF4F28E0E29FF7
:103D5000F0011124ED5FFE4F40815181628173813A
:103D60004D935D936D937C9313970E94740764EF5A
:103D700071E080E090E00E94C60460E086E00E946E
:103D800042048091DF07823009F063C08091E00730
:103D9000803409F05EC08091E207863109F059C095
:103DA0008091E107853009F054C061E086E00E940F
:103DB0004204E090E30748E0E49E70011124B7015B
:103DC0006D5F7E4F7B016091E50770E8679FC001E2
:103DD00011246091E407680F792F711D072E000CE4
:103DE000880B990B0E94D82220E030E44CE156E485
:103DF0000E942E22F701648375838683978383E074
:103E000091E00E94740CE091E307F4E9EF9FC00198
:103E100011248E5A9A4FDC01A757BF4F28E0E29F2A
:103E2000F0011124ED5FFE4F448155816681778159
:103E30004D935D936D937C9313970E94740764EF89
:103E400071E080E090E00E94C60460E086E00E949D
:103E500042048091DF07823009F084C08091E0073E
:103E6000803449F58091E207873109F0D4C180910F
:103E7000E107853001F58091E307E091CC0744E943
:103E8000849FD0011124AE5ABA4F13969C91E91B1E
:103E9000FF0B6AE4869FE00DF11D1124EE0FFF1F5A
:103EA000EE5AFA4F858596852091E407211130C09E
:103EB0000197968785878091E007803409F057C085
:103EC0008091E2078D3109F052C08091E107853081
:103ED00009F04DC061E086E00E944204E091E307F2
:103EE000E33009F07FC18091E4078093ED036DEE2C
:103EF00073E08CE292E00E94450D64EF71E080E097
:103F000090E00E94C60460E086E00E9442042FC058
:103F10000196CFCF813029F463EF75E08AEB90E012
:103F20008AC1823029F467E876E082E391E083C1B8
:103F3000833009F082C16BE177E08AEA91E07BC1CE
:103F400075018AE3A816B10409F08EC185E293E0F9
:103F50000E941B0B8091E3070E942B0B80E593E0EE
:103F60000E941D0B8091DF07823009F4A4CF80915D
:103F7000DF078230A1F58091E007803481F58091E0
:103F8000E2078E3161F58091E107853041F561E00E
:103F900086E00E944204E091E307F0E0EF5FFE4F0D
:103FA0008091E407808381E091E00E94C70C8091BA
:103FB000E307811125C1809101018093560580930B
:103FC000EA0580937E068093120764EF71E080E03B
:103FD00090E00E94C60460E086E00E944204809166
:103FE000DF07823071F58091E007803451F58091D0
:103FF000E207813231F58091E107853011F561E00A
:1040000086E00E9442048091E3078093F20362EF0E
:1040100073E087E292E00E94450D8091F203809365
:10402000DF05809373068093070780939B0764EFF7
:1040300071E080E090E00E94C60460E086E00E94AB
:1040400042048091DF07823041F58091E00780349F
:1040500021F58091E207823201F58091E1078530F8
:10406000E1F461E086E00E9442048091E3078093DE
:10407000000160E071E08BE292E00E94450D8091CA
:1040800000018093DB0764EF71E080E090E00E9424
:10409000C60460E086E00E9442048091DF0782301F
:1040A00021F58091E007803401F58091E2078332A9
:1040B000E1F48091E1078530C1F461E086E00E947F
:1040C00042048091E3078093E40364EE73E08DE2A1
:1040D00092E00E94450D64EF71E080E090E00E9464
:1040E000C60460E086E00E9442048091DF078230CF
:1040F00021F58091E007803401F58091E207843258
:10410000E1F48091E1078530C1F461E086E00E942E
:1041100042048091E3078093E30363EE73E08EE251
:1041200092E00E94450D64EF71E080E090E00E9413
:10413000C60460E086E00E9442048091DF0782307E
:1041400021F58091E007803401F58091E207853206
:10415000E1F48091E1078530C1F461E086E00E94DE
:1041600042048091E3078093EE036EEE73E08FE2EA
:1041700092E00E94450D64EF71E080E090E00E94C3
:10418000C60460E086E00E9442048091DF0782302E
:1041900009F0CCC08091E007803409F0C7C080915D
:1041A000E207863209F0C2C08091E107853009F04C
:1041B000BDC061E086E00E9442048091E3078093E5
:1041C000E20362EE73E080E392E00E94450D64EF4B
:1041D00071E080E090E00E94C60460E086E00E940A
:1041E0004204A4C0E33008F088CEF0E0EC5DFE4F5E
:1041F0008091E407808384E291E00E949D0C7DCE53
:1042000080910201809357058093EB0580937F0690
:1042100080931307DACE883109F04DCE8091E10703
:10422000853009F048CE8091E307811173CE6FE5A8
:1042300075E082E490E00E94120D85E293E00E9416
:104240001B0B8091E3070E942B0B8DE293E00E94F1
:104250001D0BE091E30774E9E79FF0011124E15A97
:10426000FA4FEE24E394F12C82819381670121E0DF
:10427000C21AD10857014FEFA41AB40A2081318124
:1042800032968217930730F022813381281739073D
:1042900008F056CE84E393E00E941B0BE091E30705
:1042A00064E9E69FF0011124EE5AFA4F83818E0DE6
:1042B0009F2D911D0E94100C8091E3070AE4F601E6
:1042C000089FE00DF11D1124EE0FFF1FEE5AFA4F6B
:1042D000858596850E94400B8091E307F701089F32
:1042E000E00DF11D1124EE0FFF1FEE5AFA4F8585E8
:1042F00096850E94400B8091E307F501089FE00D31
:10430000F11D1124EE0FFF1FEE5AFA4F8585968599
:104310000E94400B85E293E00E941B0B8091E30713
:104320000E942B0B8BE393E00E941D0B80E090E03A
:10433000892B11F40C94E5160E945503882311F47F
:104340000C94E5160E9400000C94E516F999FECF36
:1043500092BD81BDF89A992780B50895262FF999C5
:10436000FECF1FBA92BD81BD20BD0FB6F894FA9A58
:10437000F99A0FBE019608955058BB27AA270E94AC
:10438000D4210C944E230E94402338F00E944723EE
:1043900020F039F49F3F19F426F40C943D230EF4D9
:1043A000E095E7FB0C943723E92F0E945F2358F335
:1043B000BA17620773078407950720F079F4A6F50A
:1043C0000C9481230EF4E0950B2EBA2FA02D0B0137
:1043D000B90190010C01CA01A0011124FF27591B4A
:1043E00099F0593F50F4503E68F11A16F040A22F50
:1043F000232F342F4427585FF3CF469537952795C1
:10440000A795F0405395C9F77EF41F16BA0B620BBF
:10441000730B840BBAF09150A1F0FF0FBB1F661F06
:10442000771F881FC2F70EC0BA0F621F731F841F49
:1044300048F4879577956795B795F7959E3F08F06F
:10444000B0CF9395880F08F09927EE0F9795879531
:1044500008950E94132308F481E008950E944222E7
:104460000C944E230E94472358F00E94402340F0B2
:1044700029F45F3F29F00C94372351110C948223C7
:104480000C943D230E945F2368F39923B1F35523D5
:1044900091F3951B550BBB27AA2762177307840757
:1044A00038F09F5F5F4F220F331F441FAA1FA9F3ED
:1044B00035D00E2E3AF0E0E832D091505040E695DB
:1044C000001CCAF72BD0FE2F29D0660F771F881F3C
:1044D000BB1F261737074807AB07B0E809F0BB0B2F
:1044E000802DBF01FF2793585F4F3AF09E3F510543
:1044F00078F00C9437230C9482235F3FE4F3983ECA
:10450000D4F3869577956795B795F7959F5FC9F72B
:10451000880F911D9695879597F90895E1E0660FAC
:10452000771F881FBB1F621773078407BA0720F025
:10453000621B730B840BBA0BEE1F88F7E09508958E
:104540000E94A7226894B1110C94822308950E94BE
:10455000672388F09F5798F0B92F9927B751B0F08B
:10456000E1F0660F771F881F991F1AF0BA95C9F7F7
:1045700014C0B13091F00E948123B1E008950C94F1
:104580008123672F782F8827B85F39F0B93FCCF3A4
:10459000869577956795B395D9F73EF49095809574
:1045A000709561957F4F8F4F9F4F0895E89409C094
:1045B00097FB3EF490958095709561957F4F8F4F56
:1045C0009F4F9923A9F0F92F96E9BB279395F6956C
:1045D000879577956795B795F111F8CFFAF4BB0FEA
:1045E00011F460FF1BC06F5F7F4F8F4F9F4F16C04E
:1045F000882311F096E911C0772321F09EE8872FD8
:10460000762F05C0662371F096E8862F70E060E093
:104610002AF09A95660F771F881FDAF7880F96950C
:10462000879597F90895990F0008550FAA0BE0E8B0
:10463000FEEF16161706E807F907C0F01216130664
:10464000E407F50798F0621B730B840B950B39F4A4
:104650000A2661F0232B242B252B21F408950A260A
:1046600009F4A140A6958FEF811D811D089597F94A
:104670009F6780E870E060E008959FEF80EC089508
:1046800000240A9416161706180609060895002431
:104690000A9412161306140605060895092E0394AB
:1046A000000C11F4882352F0BB0F40F4BF2B11F41F
:1046B00060FF04C06F5F7F4F8F4F9F4F089557FD7E
:1046C0009058440F551F59F05F3F71F04795880F80
:1046D00097FB991F61F09F3F79F087950895121617
:1046E00013061406551FF2CF4695F1DF08C01616C3
:1046F00017061806991FF1CF869571056105089474
:104700000895E894BB2766277727CB0197F908958A
:104710000E94132308F48FEF08950E94A0230C94A5
:104720004E230E94402338F00E94472320F0952317
:1047300011F00C9437230C943D2311240C94822304
:104740000E945F2370F3959FC1F3950F50E0551FB2
:10475000629FF001729FBB27F00DB11D639FAA27D6
:10476000F00DB11DAA1F649F6627B00DA11D661F25
:10477000829F2227B00DA11D621F739FB00DA11D46
:10478000621F839FA00D611D221F749F3327A00D00
:10479000611D231F849F600D211D822F762F6A2F9C
:1047A00011249F5750409AF0F1F088234AF0EE0F01
:1047B000FF1FBB1F661F771F881F91505040A9F72E
:1047C0009E3F510580F00C9437230C9482235F3F69
:1047D000E4F3983ED4F3869577956795B795F7956A
:1047E000E7959F5FC1F7FE2B880F911D96958795E2
:1047F00097F908950E941323880B990B0895991B2C
:1048000079E004C0991F961708F0961B881F7A95C7
:10481000C9F780950895AA1BBB1B51E107C0AA1FC9
:10482000BB1FA617B70710F0A61BB70B881F991F51
:104830005A95A9F780959095BC01CD010895A1E204
:104840001A2EAA1BBB1BFD010DC0AA1FBB1FEE1F0A
:10485000FF1FA217B307E407F50720F0A21BB30B55
:10486000E40BF50B661F771F881F991F1A9469F7D1
:1048700060957095809590959B01AC01BD01CF012D
:104880000895EE0FFF1F0590F491E02D0994DC01CF
:1048900001C06D9341505040E0F70895F894FFCF68
:1048A000180202000000000000803F00000000002D
:1048B00000803F000000000000803F00000000007A
:1048C00000803F0401474A04FFFFFFFF00E10000B2
:1048D00000000000000044008900CD0011015501D6
:1048E0009A01DE0122026602AB02EF023303770374
:1048F000BC03000444048804CD0411055505990542
:10490000DE0522066606AA06EF0633077707BB0711
:10491000000844088808CC08110955099909DD09DF
:10492000220A660AAA0AEE0A330B770BBB0BFF0BAF
:10493000440C880CCC0C100D550D990DDD0D210E7D
:10494000660EAA0EEE0E320F770FBB0F01474A001C
:104950000000000000803F000000000000803F00D9
:104960000000000000803F000000000000803F00C9
:10497000C18081000000000000008D01F804AE013C
:10498000A301F401B201D001000000008A03D502A6
:104990000203D603330311032503000000003A0687
:1049A0000D067107E3050606F305E4050D0A006E22
:1049B000616E00696E66006F7666004D66724944EE
:1049C0003A20004343303A20004343313A20004329
:1049D00043323A20004343333A200042656E64205C
:1049E00055703A200042656E6420446F776E3A201D
:1049F0000043683A20004C6F77657374204D6964FA
:104A000069204E6F74653A20004F722047617465CB
:104A100020456E61626C65643A20005070716E3A98
:104A20002000566F69636520416C6C6F633A20000B
:104A3000566F696365204F66667365743A20004857
:104A40006F6C6420466F7220526C733A2000446988
:104A500073636172643A20005630204F6666736556
:104A6000743A20005630204761696E3A2000563172
:104A7000204F66667365743A20005631204761699D
:104A80006E3A20005632204F66667365743A2000F5
:104A90005632204761696E3A20005633204F6666D1
:104AA0007365743A20005633204761696E3A2000DE
:104AB0004D6964694E756D3A200053657420454513
:104AC00050524F4D00566F6963653A200020536184
:104AD000766564004D6964693A2000205665726904
:104AE0006669636174696F6E204661696C65640014
:104AF00020566572696669636174696F6E205061E2
:064B000073736564000000
:00000001FF
